:020000040800F2
:1000000040230020D1030008712F0008692F000849
:100010006D2F00082B1D000851460008000000004D
:1000200000000000000000000000000011030008B4
:10003000152C0008000000006D03000821350008A1
:10004000EB030008EB030008EB030008EB030008D8
:10005000EB030008EB030008EB030008EB030008C8
:10006000EB030008EB030008EB030008A9250008D8
:100070000926000869260008CD2600083127000857
:1000800095270008F9270008EB030008EB03000898
:10009000C9410008411D0008EB030008EB030008FC
:1000A000EB030008EB030008EB030008EB03000878
:1000B000EB030008C5350008EB030008EB0300085C
:1000C000EB030008EB030008EB030008EB03000858
:1000D000EB030008153E0008113F0008F93F000837
:1000E000EB030008EB030008EB030008EB03000838
:1000F000EB030008EB030008EB030008EB03000828
:10010000EB030008EB030008EB030008EB03000817
:100110005D3B0008453C0008EB030008EB030008CA
:10012000EB030008EB030008EB030008EB030008F7
:10013000EB030008EB030008EB030008EB030008E7
:1001400000000000000000000000000000000000AF
:10015000EB030008A51E0008F91F0008EB030008C8
:10016000EB030008EB030008EB030008EB030008B7
:10017000E14000082D3D0008EB030008EB030008F8
:10018000EB03000800F002F800F0B2F80AA090E8D3
:10019000000C82448344AAF10107DA4501D100F042
:1001A000A7F8AFF2090EBAE80F0013F0010F18BF5D
:1001B000FB1A43F001031847A46E0000C46E000050
:1001C0000A444FF0000C10F8013B13F0070408BF7D
:1001D00010F8014B1D1108BF10F8015B641E05D01B
:1001E00010F8016B641E01F8016BF9D113F0080FD0
:1001F0001EBF10F8014BAD1C0C1B09D16D1E58BF62
:1002000001F801CBFAD505E014F8016B01F8016B98
:100210006D1EF9D59142D6D370470000002300240B
:1002200000250026103A28BF78C1FBD8520728BF06
:1002300030C148BF0B6070476E2900F030837029D1
:1002400000F08D84662906F06A86652906F06786C7
:10025000672906F06486612906F0638603681B0A35
:1002600028BF41F08001692900F0FA80642900F07C
:10027000F780752900F0F4806F2900F01A8478293E
:1002800000F05984E92900F0B583E42900F0B28335
:10029000F52900F0AF83EF2900F01784F82900F06A
:1002A00058840368DB0928BF41F08001632901F00D
:1002B0003D80732901F04280E32901F04D80F3294C
:1002C00001F05280002070471FB506F01EFE01F0BD
:1002D000A5F804000020002106F04CFA401C6060E4
:1002E0000020002106F030FAE0601FBD10B510BDFF
:1002F00001F066F81146FFF7E7FF05F04DFC01F04D
:1003000043F903B4FFF7F2FF03BC04F0C2F90000A5
:100310002C4B19680868B0E8F04F80F30988BFF3E8
:100320006F8F4FF0000080F31188704700000000CD
:1003300008480068006880F308884FF0000080F3E8
:10034000148862B661B6BFF34F8FBFF36F8F00DFC3
:1003500000BF00BF08ED00E0DFF80C00016841F4C9
:1003600070010160704700BF88ED00E0EFF3098085
:10037000BFF36F8F134B1A681EF0100F08BF20EDEC
:10038000108A20E9F04F106009B44FF0100080F39C
:100390001188BFF34F8FBFF36F8F06F0EBF84FF06C
:1003A000000080F3118809BC19680868B0E8F04FB4
:1003B0001EF0100F08BFB0EC108A80F30988BFF35D
:1003C0006F8F704764020020EFF3058070470000D4
:1003D0000948804709480047FEE7FEE7FEE7FEE7D9
:1003E000FEE7FEE7FEE7FEE7FEE7FEE70448054915
:1003F000054A064B70470000553500088501000886
:10040000401D002040230020401F0020401F0020EE
:10041000704700007CB51D4616460C00009001D0C8
:100420002044401E074B7B442A46694601903046D3
:1004300000F04FFA05461CB10020694600F05CFA56
:1004400028467CBDD90400000FB4044910B503AAA6
:10045000029800F05FFA10BC5DF814FB70030020F6
:100460002DE9F0410646002410687529314616A58D
:1004700010D000F080F9002802DA404213A507E00E
:1004800031688A0701D512A502E0490704D511A5F4
:10049000012401E000F078F900210A2206F1240786
:1004A00009E0B0FBF2FCB0FBF2F302FB1C003030C1
:1004B00078541846491C0028F3D123462A46304672
:1004C000BDE8F04100F092B9000000002D000000EE
:1004D0002B000000200000002DE9F05F8946044653
:1004E0004FF0000ADFF874B1FB44C0F820A02046AA
:1004F000E1688847002874D0252806D0D4E9012176
:100500009047206A401C2062F1E700265F462046A3
:10051000E16888472028054607DB312D05D2781988
:1005200010F8200C08B10643F1E7B00701D526F01A
:100530000406C4F81CA00027C4F818A02A2D09D06E
:10054000284604F09FF838B304EB8708303DC8F81C
:10055000185019E059F8041B204604EB87029161FA
:10056000E1688847012F054618D1E069002820DAA4
:1005700026F020061DE0D8F8180000EB800005EBFF
:1005800040003038C8F818002046E1688847054622
:1005900004F078F80028EED1012F0AD02E2D08D1D2
:1005A0002046E16888477F1C0546022F46F020065A
:1005B000C4DBA069002803DA404246F00106A061CE
:1005C000F00701D026F010066C2D0BD0682D09D055
:1005D0004C2D39D06A2D35D0742D35D07A2D33D0AD
:1005E00016E038E0E1682F4620468847B8420546C5
:1005F00009D16C2F26D04FF48060E1680643204675
:100600008847054604E06C2F1AD04FF480700643EB
:100610000DB3A5F14100192802D8203546F4006633
:100620004A462946204626604E46FFF705FE80B121
:1006300001280BD0F61D26F0070000F1080956E747
:100640004020E4E78020D8E70020D6E706F104093F
:100650004DE7284652E7206ABDE8F09F726A000025
:1006600010B5431C02E010F8011B71B18107FAD1EB
:100670004FF0013202C88C1A8C4314EAC211F9D02F
:10068000C01A0A0603D0C01E10BDC01A10BD0A044D
:1006900001D0801E10BD0902FCD0401E10BD00001C
:1006A0004FF0013C50F8042B51F8043B9A4221D101
:1006B000A2EB0C03934313EACC1317D150F8042B8D
:1006C00051F8043B9A4215D1A2EB0C03934313EA71
:1006D000CC130BD150F8042B51F8043B9A4209D1AA
:1006E000A2EB0C03934313EACC13DBD04FF00000D2
:1006F000704700BFD01A01BAB1FA81F101F01801B8
:1007000022FA01F0CB40C1F12001DBB2C0B2C01A25
:100710002CFA01F3D11A914311EAC311E6D17047C3
:10072000704770477047704770B504468569006828
:10073000C10601D5302600E02026C00707D070BDD5
:10074000D4E9012130469047206A401C20626D1E8A
:10075000F6D570BD70B5044685690078C00707D12D
:1007600070BDD4E9012120209047206A401C2062FE
:100770006D1EF6D570BD09684A0501D540B27047B7
:10078000C905FCD500B2704709684A0501D5C0B259
:100790007047C905FCD580B2704770B50C46054658
:1007A000012A05D02878800600D5EA69002302E0F6
:1007B000012305E05B1C934202D2E05C0028F9D1E2
:1007C000A869E618C01AA861286A18442862284651
:1007D000FFF7AAFF04E0D5E9012114F8010B9047C7
:1007E000B442F8D32846FFF7B5FF70BD2DE9F047B6
:1007F0000D4699469246044600F124080168880691
:1008000004D5E06921F01001216000E00120A84238
:1008100001DD471B00E00027A1697A1902EB0900FE
:10082000081AA0612078C00602D42046FFF77CFF9A
:10083000002608E0D4E901211AF806009047206A52
:10084000401C761C20624E45F4DB2078C0060AD599
:100850002046FFF769FF06E0D4E9012130209047E8
:10086000206A401C2062381EA7F10107F4DC07E073
:10087000D4E9012118F805009047206A401C206245
:10088000281EA5F10105F3DC2046FFF763FF207861
:10089000000602D50220BDE8F0870120FBE71168C1
:1008A0000268006A530501D508700AE0D30501D536
:1008B000088006E0130603D5C217C1E9000200E074
:1008C000086001207047000001694A1C0261087835
:1008D000704700B58FB0CDE9013100210591054980
:1008E0007944CDE9031011466846FFF7F5FD0FB0D6
:1008F00000BD0000E5FFFFFF0A6802F8010B0A6077
:100900007047D1E900239A4202D2531C0B60107049
:1009100070470000074B70B50D467B44FFF7D9FFC9
:100920000446284600F024FD10B14FF0FF3070BDA2
:10093000204670BD9F5100002DE9FF5F15468A4695
:100940000446DFF8AC80F8440027D8E900103E46A2
:10095000CDE9001010E03AF816106A4602A800F03F
:100960000BFD411C07D02178890603D5E2693918AF
:1009700091420DD80744761C2078800602D5E069A4
:10098000B84205DDAE42E6DB3AF816000028E2D1B7
:10099000A069C01BA0612046FFF7C6FED8E9001081
:1009A000CDE90010002017E03AF818106A4602A8B6
:1009B00000F0E2FCB0F1FF3F81460BD000250DF1C5
:1009C000080B05E0D4E901211BF8050090476D1CD8
:1009D0004D45F7D308F10100B0428046E4DB206AC0
:1009E000384420622046FFF7B5FEBDE8FF9F0000B7
:1009F000266600002DE9F0418046D21D22F0070254
:100A00000025D2E90002F52915A614D0011E72F1C5
:100A1000000106DA0023D0EB030063EB020211A60B
:100A200008E0D8F800108B0701D50FA602E04907AF
:100A300001D50EA601251146002408F1240704E083
:100A400000F098F830323A55641C50EA0102F7D1B0
:100A50002B46324621464046BDE8F041FFF7C6BE70
:100A6000000000002D0000002B000000200000000E
:100A700030B4002100F1240408E002F00705D20898
:100A8000303542EA4372DB086554491C52EA0305DB
:100A9000F3D10468002310A2250707D5A40600D4CB
:100AA00021B1C46901230DA2641EC46130BCFFF7EB
:100AB0009DBE10B5044621461068FFF765FE02464C
:100AC0002046BDE810400023D2E7D21D22F00701E6
:100AD000D1E90023CCE70000000000003000000056
:100AE000F0B40D460188090502D5214C7C4402E092
:100AF0001F4C7C440E34002100F1240608E002F073
:100B00000F071209E75D42EA03721B097754491C7B
:100B100052EA0307F3D102780023120704D5702D9F
:100B200006D009B1022311342246F0BCFFF75EBEA5
:100B300001231034F8E770B504460D4621461068CD
:100B4000FFF722FE024629462046BDE870400023FA
:100B5000C6E7D21D22F00703D3E90023C0E70368EC
:100B6000126843F0200303600823C3610023B7E742
:100B70008864000030B5B0F10A024FEA900E71F1BE
:100B800000034EEA817EB0EB0E0061EB91014FEA6B
:100B9000101E4EEA017E10EB0E0041EB11114FEAE0
:100BA000102E4EEA016E10EB0E0041EB11214FEAC0
:100BB000104E4EEA014E10EB0E0041EB1141401871
:100BC00041F100014FEAD00040EA41704FEAD10103
:100BD00010EB80054FEA810444EA907444EB010471
:100BE0006D1944EB0404521BA3414FF0000348BFAE
:100BF0000A3200D530BD401C41F1000130BD7047C4
:100C00002DE9FF4F0C461E464FF0FF378BB0D2E95F
:100C10000001DDF860800A908A46C1F30A5505B9E3
:100C20003D46002108464FF00000BAF1000F00F4E5
:100C3000400005DA00EB80004FF4400101EA50006B
:100C40004FEA9059B9F1010F00DDB9460A9850EA10
:100C50004A000ED044F61050A5F2FF3545432F143C
:100C6000B8F1000F1ED07542291E1EDDC9F1000229
:100C70001CE0B8F1010F4FF0000001D0302103E07B
:100C8000F24305E02154401CB042FBDB3046002219
:100C9000002121540B99C1F80880C1E900200FB050
:100CA000BDE8F08FBD1B6D1CDEE74A4600DA6942E5
:100CB00006A800F0F7FB06AB93E8070003AB83E858
:100CC000070050460A9900F068FC8DE80700A0F57F
:100CD00000501F3800900398002D0ADD42F21F01DA
:100CE0004A460844002303A90390684600F0D1FE59
:100CF00009E0A0F500504A461F38002303A90390DD
:100D0000684600F0DBFE8DE807000004000C03D00D
:100D10004FF0FF30410800E01046B8F1000F03D05B
:100D20000022009215461EE0751E05D4FFF722FF33
:100D3000303262556D1EF9D5B3460122084302D008
:100D400000227F1C04E02078302801D100227F1E81
:100D5000002A099784D01DE0112D07DAFFF70AFF5A
:100D6000303262556D1C50EA0102F5D1084302D0C1
:100D70000098C8B10EE00021681E05E0235C625CAB
:100D800063542254401E491C8142F7DBAB46A81B2A
:100D9000401E0990002004F80B000B98099AC0F837
:100DA0000880C0E9002B7AE711264FF0000857E7CA
:100DB0002DE9F04F88460446D21D22F0070191B07C
:100DC000D1E90001CDE90A0103F044FC02460B9889
:100DD000C00F01D02D2007E02068810701D52B200E
:100DE00002E0202101EAC000032A099001D0072A6D
:100DF00005DB03464146204600F014FB0BE120785A
:100E0000800601D5E06900E00620B8F1650F814653
:100E100006D0B8F1660F18D0B8F1670F70D131E085
:100E20000020B9F1110F009001DB112301E009F15D
:100E300001030AAA01A90CA8FFF7E2FEDDE90C7084
:100E4000002609F10105834647E001204B4600904A
:100E50004FF000470AAA01A90CA8FFF7D1FEDDE96F
:100E60000DB00C995D46002610B909F101000D186E
:100E7000B9EB050003D4C0F1FF3609F10105A5EB7C
:100E800009002BE0B9F1010F01DA4FF00109002050
:100E9000B9F1110F0090484601DD112300E003462F
:100EA0000AAA01A90CA8FFF7ABFEDDE90C704D46BC
:100EB00000268346207800070AD4AB4500DA5D4659
:100EC00001A8012D04DD411911F8011C302907D0BA
:100ED0004F4502DA17F1040F04DA012082460FE0D1
:100EE0006D1EEEE7002F02DCED1B3E4403E0781C94
:100EF000A84200DD7D1CB81B00F1010A4FF000473D
:100F00002078000703D4AA4501DB4FF0FF3A002107
:100F1000B7F1004F0DF143088DF8431024D00220A3
:100F20002B23002F01DA7F422D230A21021EA0F17C
:100F3000010000DC5FB197FBF1FC97FBF1F201FBD4
:100F40001C7C17460CF1300C08F801CDEEE7A8F137
:100F5000010003702188090501D5452100E06521C4
:100F6000A0F1010800F8011C09980FA9A1EB0807DE
:100F7000FF1D00B10120411901EBEA70A16938445D
:100F8000081A401EA0612078C00602D42046FFF750
:100F9000CBFB099828B1D4E901219047206A401C75
:100FA00020622078C00622D52046FFF7BDFB1EE058
:100FB000002E04DBB34502DD01A8805D00E0302097
:100FC000D4E901219047206A401C2062761CAAF1D6
:100FD00001005FEA000A0AD100F020FAC068016847
:100FE000405CD4E901219047206A401C2062281E01
:100FF000A5F10105DCDC07E0D4E9012118F8010BBB
:101000009047206A401C2062381EA7F10107F3DCDC
:101010002046FFF79FFB032011B041E62DE9F04F7A
:1010200004460D46D21D22F0070089B0D0E9009792
:101030004846394603F00EFB0246F80F01D02D2337
:1010400007E02068810701D52B2302E0202101EA77
:10105000C0038DF820300BB1012000E00020032AEE
:10106000824601D0072A04DB2946204600F0DAF93F
:101070003FE12078800601D40D2500E0E569C7F343
:101080000A560D2D49DA00214FEA175B08464FF04A
:101090000000002F00F4400007DA00EB80004FF45E
:1010A000400100EBD07001EA60008115012901DDEB
:1010B0004FF0FF3100224FEA850CBCF1180F06D328
:1010C0001346ACF118004FF08052C24003E04FF4D9
:1010D000801323FA0CF30CF10C0CBCF1200F04D399
:1010E000ACF1200C09FA0CF001E007FA0CF0002931
:1010F0004FF0004801DD18B90FE00ED140450CD388
:1011000019EB02095F4121B9404502D19F4329EA09
:101110000209BBEB175F00D0761C2088000502D5C2
:101120007B48784402E07A487844193808AA30238A
:1011300002F80A30037C0AF10101002E0AF1020ACA
:1011400053546A4602DC4FF0300101E04FF03101A8
:101150004FF001088DF8001002D0A6F2FF3603E030
:1011600059EA470100D06B4E002D02DC21780907B7
:1011700004D54FF002082E218DF80110C44600213D
:101180000BE0C7F303433F01C35C491C6D1E02F82B
:101190000830052908F1010801DA002DF1DC0021F1
:1011A0000CE000EB1973491C1B786D1E082902F82E
:1011B00008304FEA091908F1010801DA002DF0DCC6
:1011C00021688B0602D516E0A8F10108E04505DD8F
:1011D00002EB080313F8013C302BF5D0B8F1000FF7
:1011E00009DD02EB080313F8013C2E2B03D109079C
:1011F00001D4A8F10108002D05DD3E2102F80810F8
:101200006D1E08F10108407C002E02F8080008F16C
:10121000010804DA2D20764202F8080002E02B20B3
:1012200002F808000A214FF47A70864208F101089A
:101230000BDB96FBF0F3303302F8083096FBF0F34B
:1012400008F1010800FB136601E0642E0CDB64204A
:1012500096FBF0F3303302F8083096FBF0F308F118
:10126000010800FB136601E00A2E06DB96FBF1F095
:10127000303002F8080008F1010896FBF1F001FB9C
:101280001060303002F80800A16908F1010808EB8D
:10129000050202EB0A00081AA0612078C00602D4F9
:1012A0002046FFF741FA216A08AE01EB0A002062EE
:1012B00004E0D4E9012116F8010B9047BAF1010AC4
:1012C000F7D22078C00602D52046FFF72DFA6E46E9
:1012D00009E016F8010B3E280FD0D4E90121904710
:1012E000206A401C2062B8F10108F2D22046FFF7C4
:1012F00031FA09B00320BDE8F08F206A284420624B
:1013000003E0D4E90121302090476D1EEBD3F8E7CC
:101310008D5E000002FCFFFF10B5436913B1AFF30F
:10132000008001E0FFF739FA012010BD127800F1CA
:1013300024010A7000224A700122EDE711684FF083
:10134000FF32E9E710B5436913B1AFF3008001E064
:10135000FFF7F2FA012010BD128800F12401828407
:101360000022C2840122EDE711684FF0FF32E9E765
:10137000007B00F08000704770B516460C460546AD
:1013800000F044F8036893F80101012806D0FF2C0F
:101390000FD8185D68B101202C7070BDD3F807011B
:1013A0003246214603F2071303442846BDE8704045
:1013B00018474FF0FF3070BD00487047E01C002018
:1013C0007546FFF7F9FFAE4605006946534620F023
:1013D0000700854618B020B5FFF708F8BDE82040A3
:1013E0004FF000064FF000074FF000084FF0000BE1
:1013F00021F00701AC46ACE8C009ACE8C009ACE894
:10140000C009ACE8C0098D467047000010B500F077
:1014100005F8001D10BD00BF5D5300000048704777
:10142000001D00202DE9F0411F46044603260168F7
:10143000072A01F4006004DB08B116A505E016A533
:1014400003E008B115A500E015A521F0100020600B
:10145000A069C01EA0610FB1401EA0612046FFF729
:1014600063F94FB1D4E9012138469047206A401C06
:101470002062C01C206206E0206AFAE7D4E901215C
:1014800015F8010B9047761EF8D22046FFF762F957
:10149000BDE8F0814E414E006E616E00494E46003F
:1014A000696E66002DE9F047814616468AB03548D8
:1014B00078440DC88DE80D0032487844801C03AC98
:1014C0000DC884E80D0041F69B300844372190FB9D
:1014D000F1F290FBF1F5A5F1800501FB12041B3C34
:1014E00002D56442012000E00020DFF898A0804689
:1014F0000027FA44AAF1BE0A0EE0E0070AD03246FD
:10150000684607EB470101230AEB810100F0D6FA98
:101510008DE8070064107F1C002CEED1194F7F442A
:10152000AE3F19E0E80715D007EB04100DF1180ADB
:1015300090E80E008AE80E00C068F04201D19819C8
:1015400008903246012306A903A800F0B7FA03ABBE
:1015500083E807006D10641C002DE3D14FF00103F8
:1015600032466946B8F1000F03A802D000F091FAA4
:1015700001E000F0A3FAC9E90001C9F808200AB0A7
:10158000BDE8F087905B000010B50446AFF3008023
:101590002046BDE81040FEF7B4BE5FEA400C08BF2D
:1015A00091F0000F4FEA8C234FEAC12243EA5151D8
:1015B0004FEA1C5018BF00F5F0404FEA300018BF4A
:1015C00041F000415FEA6C5C00F02980BCF1FF3F14
:1015D00008BF40F080407047130C06BF12044FF064
:1015E000100C4FF0000C130E04BF12020CF1080C8B
:1015F000130F04BF12010CF1040C930F04BF9200EF
:101600000CF1020CD30F04BF52000CF1010C114677
:101610004FF00002A0F11F00A0EB0C00704711F08A
:10162000004F08BF704731F000413FF4D5AF0B0CBD
:1016300006BF09044FF0100C4FF0000C0B0E04BF56
:1016400009020CF1080C0B0F04BF09010CF1040C8A
:101650008B0F04BF89000CF1020CCB0F04BF4900B3
:101660000CF1010CCCF12003A0EB0C0022FA03F3E7
:1016700002FA0CF241EA030100F10100704720F088
:101680007F4C80EA030023F07F47ACEB070303F5B0
:101690007C5300F0004003F1FF032DE980494FEA3D
:1016A000154B09B44FEA144325EA0B4E24EA0348CC
:1016B0000FF2042606EB132749083E785FEA320250
:1016C00003FB0667C7F5000707FB06F64FEA54372A
:1016D0004FEAD64606F1020607FB066CCCF1005C29
:1016E0004FEA1C472CEA074C07FB06F40CFB06F5F7
:1016F00004EB15464FEA961634BF00204FF0004029
:101700004FEAD13706FB07FC4FEA1C4C0CFB0BF7EA
:10171000D21B03FB0CF761EB07010CFB0EF7B0EBE0
:10172000074072EB17420CFB08F734BFA2EB0742ED
:10173000B2EB074261EB17414FEA0C444FEA9107C5
:1017400006FB07FC4FEA1C4C0CFB0BF7B0EBC74049
:1017500072EB573203FB0CF734BFA2EBC742B2EB7C
:10176000C74261EB57310CFB0EF7B0EBC70072EBD1
:1017700057720CFB08F734BFA2EBC702B2EBC702EB
:1017800061EB5771039F4FEA816141EA921104EBCB
:10179000CC044FEAD1374FEA826206FB07FC42EAEB
:1017A00090124FEA80604FEA1C4C0CFB0BF7D21BE7
:1017B00003FB0CF761EB07010CFB0EF7B0EB0740E6
:1017C00072EB17420CFB08F734BFA2EB0742B2EBF7
:1017D000074261EB17414FEA8C554FEA910704EB42
:1017E0009C2406FB07FC4FEA1C4C0CFB0BF7B0EBF0
:1017F000C74072EB573203FB0CF734BFA2EBC74272
:10180000B2EBC74261EB57310CFB0EF7B0EBC700F0
:1018100072EB57720CFB08F734BFA2EBC702B2EBB6
:10182000C70261EB577115EB4C254FEA816141EA24
:1018300092114FEA82624FEAD13742EA901206FBD8
:1018400007FC44F100044FEA80604FEA1C4C0CFB9B
:101850000BF7D21B03FB0CF761EB07010CFB0EF738
:10186000B0EB074072EB17420CFB08F734BFA2EB5A
:101870000742B2EB074261EB174115EB1C154FEA2B
:10188000813141EA92414FEA823242EA90424FEA84
:1018900080304FEA0C7644F1000448EA03434EEAF4
:1018A0000B484FF0000EB2EB080C71EB030724BF9E
:1018B000624639464EEB0E0E4FF0000B00185241B7
:1018C00049414BEB0B0BB2EB080C71EB03077BF1BF
:1018D000000B24BF624639464EEB0E0E4FF0000B54
:1018E0000018524149414BEB0B0BB2EB080C71EB6A
:1018F00003077BF1000B24BF624639464EEB0E0E08
:1019000051EA020718BF46F0010616EB0E7655F1B4
:10191000000254F1000103D5BDE88901BDE800884B
:10192000BDE88901BDE80048B619524141EB01010B
:10193000A3F10103704780807F7E7D7C7B7A79787C
:10194000777676757473727171706F6E6E6D6C6C84
:101950006B6A6A6968686766666564646363626126
:101960006160605F5F5E5E5D5D5C5C5B5B5A5A59A7
:101970005958585757565655555554545353525213
:101980005251515050504F4F4F4E4E4D4D4D4C4C6B
:101990004C4B4B4B4A4A4A494949484848474747B4
:1019A00047464646454545444444444343434342F1
:1019B000424242414141002B9C4630D477002BD01B
:1019C0001CB54FEA370703B44FF010004FF0100179
:1019D000BAF1000F06D0BCF1000FDCBF40F00800E8
:1019E00040F008014FF000000FBCBDE810400BF1C3
:1019F000010BBBF1010F08BF5FEA170722BF12F10D
:101A0000010211F101014FF0004143F1000300F028
:101A1000004043EA00007047F9D35708D0E746EA90
:101A2000064613F1400F4FEA16461FDD13F1200F53
:101A3000DFBF16430A46002120335B42BED0C3F10C
:101A4000200746EA064602FA07F74FEA164646EA34
:101A50000706C3F1200722FA03F201FA07F721FA79
:101A600003F14FF0000342EA0702A7E746EA020645
:101A700046EA06464FEA164646EA0106BCBF46EA73
:101A80000646360C4FF000034FF000024FF0000105
:101A900094E72DE9804C9A46934670B491E838005B
:101AA00007C831EA400C48BF34EA430C03D5FFF7BE
:101AB000E6FDFFF780FFF0BCBDE8008C2DE9804C0F
:101AC0009A46934670B491E8380007C810F0804FEA
:101AD00008BF13F0804F03D100F005F8FFF76BFF4C
:101AE000F0BCBDE8008C20F07F4780EA030023F0C3
:101AF0007F4C07EB0C03A3F57C5300F00040A3F1EF
:101B0000FE0392F0000F00F0B38095F0000F00F09C
:101B100077802DE901494FEA11404FEA144621EA46
:101B2000004800FB06FC24EA064708FB06F607FB14
:101B300008F800FB07F718EB06484CEB164C4FEA89
:101B4000124B18EB07484FEA15464CEB174022EAB8
:101B50000B4E0BFB06FC25EA06470EFB06F607FBC1
:101B60000EFE0BFB07F71EEB064E4CEB164C4FF030
:101B700000061EEB074E4CEB174B18EB0B0840F121
:101B8000000018EB0E0B58EB000840F100008F1A14
:101B90004FF000013CBFC943661B14BFB5EB040CFA
:101BA00000213CBFC943F61B4FEA17444EEA8E0E94
:101BB00027EA04454FEA1C4704FB07622CEA074C5E
:101BC00005FB07F70CFB05F604FB0CFC16EB0746C0
:101BD00042EB174216EB0C4642EB1C421BEB06068F
:101BE00058EB0202414146EA9E0601D5BDE8018953
:101BF000B619524141EB0101A3F10103BDE801898E
:101C00004FEA14454FEA114724EA054621EA074CFA
:101C100005FB07F406FB07F70CFB06F105FB0CFCC4
:101C200011EB074144EB17444FEA124711EB0C410B
:101C300044EB1C4422EA074C05FB07F206FB07F7BE
:101C40000CFB06F605FB0CFC16EB074642EB1742B5
:101C500016EB0C4642EB1C456A1854F1000148BFD4
:101C60007047B619524141EB0101A3F101037047DE
:101C700095F0000F37D04FEA11424FEA144721EA9E
:101C8000024624EA074C02FB07F106FB07F70CFBB0
:101C900006F402FB0CFC14EB074441EB17414FEA3E
:101CA000154714EB0C4441EB1C4125EA074C02FBA1
:101CB00007F506FB07F70CFB06F602FB0CFC16EB20
:101CC000074645EB174516EB0C4645EB1C4212192F
:101CD00051F1000148BF7047B619524141EB010173
:101CE000A3F1010370474FEA14454FEA114724EA74
:101CF000054621EA074C05FB07F106FB07F70CFB3D
:101D000006F24FF0000605FB0CFC12EB074241EB1C
:101D1000174112EB0C4251EB1C4148BF704792181F
:101D200041EB0101A3F10103704700BFFEE770B56D
:101D300004460D462946204601F0FCFA70BD00001D
:101D400030B585B06A4601214C4802F044FE9DF84A
:101D5000080018B94A490098086002E0484901980B
:101D6000086000257FE00DF10B00405D4549464AC3
:101D70001278885444480078401C4349087043480E
:101D80000078E8B1414800780978884263D100249E
:101D900004E03C48005D3E490855641C3A48007820
:101DA0008442F6D338480078394981F88000002011
:101DB000354908700D21314802F0C6FD05B030BD2F
:101DC00031480078401E2F49095C2F480078C01E1A
:101DD000814226D12C480078801E2A49085C0A28B6
:101DE0001FD129480078C01E085C0D2819D1002495
:101DF00004E02448005D26490855641C2248007808
:101E0000C01EA042F5D820480078C01E204981F8A5
:101E1000800000201C4908700D21184802F094FD34
:101E2000CCE719480078401E1649095C164800782E
:101E3000C01E81420FD014480078801E1149085CF2
:101E40000A2808D110480078C01E085C0D2802D16D
:101E500000200D4908700C480078802802DB002023
:101E6000094908706D1C9DF80A00A8423FF67BAF37
:101E70000D21024802F068FD00BF9FE700640040AA
:101E800000030020E20B002004030020F1020020E8
:101E9000DF09002070B504460D462946204601F0B2
:101EA00049FA70BD30B585B06A4600214C4802F051
:101EB00092FD9DF8080018B94A490098086002E0B0
:101EC00048490198086000257FE00DF10B00405D56
:101ED0004549464A1278885444480078401C434992
:101EE000087043480078E8B1414800780978884292
:101EF00063D1002404E03C48005D3E490855641C61
:101F00003A4800788442F6D338480078394981F855
:101F100080000020354908700A21314802F014FD84
:101F200005B030BD31480078401E2F49095C2F486C
:101F30000078C01E814226D12C480078801E2A4994
:101F4000085C0A281FD129480078C01E085C0D28AB
:101F500019D1002404E02448005D26490855641C7A
:101F600022480078C01EA042F5D820480078C01E44
:101F7000204981F8800000201C4908700A21184877
:101F800002F0E2FCCCE719480078401E1649095CD3
:101F900016480078C01E81420FD014480078801E79
:101FA0001149085C0A2808D110480078C01E085C56
:101FB0000D2802D100200D4908700C4800788028B7
:101FC00002DB0020094908706D1C9DF80A00A84238
:101FD0003FF67BAF0A21024802F0B6FC00BF9FE744
:101FE0000068004008030020620C00200C03002061
:101FF000F2020020600A002030B585B06A46012157
:10200000514802F0E8FC9DF8080018B94F490098C3
:10201000086002E04D49019808604D48006860B1D1
:102020000DF10B0149480068494A126890470D219B
:10203000454802F089FC05B030BD00257AE00DF17D
:102040000B00405D4349444A127888544248007866
:10205000401C4149087041480078E0B13F48007891
:10206000097888425ED1002404E03A48005D3C498A
:102070000855641C384800788442F6D33648007806
:10208000374981F880000020334908700D212E481F
:1020900002F05AFCCFE730480078401E2D49095C19
:1020A0002D480078C01E814222D12B480078801E26
:1020B0002849085C0A281BD127480078C01E085C04
:1020C0000D2815D1002404E02248005D244908555C
:1020D000641C21480078C01EA042F5D81E48007834
:1020E000C01E1F4981F8800000201B490870A2E72C
:1020F00019480078401E1749095C17480078C01E2F
:1021000081420FD014480078801E1249085C0A28CA
:1021100008D111480078C01E085C0D2802D10020AB
:102120000D4908700C480078802802DB00200A491D
:1021300008706D1C9DF80A00A84280D80D21024845
:1021400002F002FC00BF76E70068004010030020A8
:1021500018030020E20C002014030020F3020020EA
:10216000E10A00202DE9F04F8BB004460F4690465F
:102170009946DDE91AB6DDE918A501216F4802F09C
:10218000B3FE01216D48401C02F0AEFE012C13D1BC
:102190000120182100231A46CDE900100B2141200F
:1021A00000F038FE0120042100230822CDE90010B0
:1021B0000C21412000F02EFE022C13D10120182109
:1021C00000231A46CDE900100C21422000F022FE27
:1021D0000120042100230822CDE900100D21422016
:1021E00000F018FE02F01EFF8DF8247000208DF81C
:1021F000250001208DF826008DF8270000208DF89D
:1022000028008DF829008DF82A00012C03D109A996
:102210004B4802F040FA022C03D109A9494802F0C8
:102220003AFA1598ADF81C008DF81E808DF81F90B5
:1022300014988DF82000012C03D107A9404802F022
:1022400088FA022C03D107A93E4802F082FA1698B8
:102250008DF80F0000208DF80D0017988DF81000F4
:10226000BAF1000F08D14FF6FF7000EA4510ADF843
:1022700012000020ADF81400BAF1010F0CD14FF696
:10228000FF7000EA1540ADF812004FF6FF7000EA4B
:10229000C500001DADF814004FF6FF7000EA1B40AA
:1022A000ADF816001FFA8BF0ADF818008DF80E602F
:1022B00001208DF80C00012C03D103A9204802F065
:1022C00091FA022C03D103A91E4802F08BFABEB981
:1022D000012C09D101220221194802F073FB0122CD
:1022E0001146142000F045FE022C09D101220221E2
:1022F000144802F067FB01221146452000F039FE28
:10230000012E17D1012C09D1012210210C4802F015
:1023100059FB01221146152000F02BFE022C09D199
:1023200001221021074802F04DFB012211464620F0
:1023300000F01FFE0BB0BDE8F08F000019001C007C
:1023400000640040006800402DE9F04F87B08246ED
:102350008946934698460027B9F1000F01D1CDF880
:1023600004B0B9F1010F01D1CDF808B009F0FF00B8
:102370008DF80C0000208DF80D00109820B9404613
:10238000FEF76EF9064600E0109EBAF1010F4ED13D
:10239000119800284CD0F61C002544E0002427E0CA
:1023A000F01EB84207D904EBC50018F800100DF173
:1023B0000F00015517E0F01EB84204D10D210DF1B8
:1023C0000F0001550FE0B01EB84204D10A210DF1F3
:1023D0000F00015507E0701EB84204D1F01EC1B2D3
:1023E0000DF10F0001557F1CB74200D102E0641CC3
:1023F000082CD5D300BFA7EBC500C0B28DF80E00E6
:1024000001A9674802F05FFB0690002400E0641C0D
:102410006348069902F000FC012803D040F6FF70E3
:102420008442F4D36D1C701EB5EBD00FB6D930E0EA
:1024300000252AE000240DE0B74206D204EBC500D7
:1024400018F800100DF10F0001557F1CB74200D1A4
:1024500002E0641C082CEFD300BFA7EBC500C0B29C
:102460008DF80E0001A94E4802F02DFB06900024C5
:1024700000E0641C4A48069902F0CEFB012803D014
:1024800040F6FF708442F4D36D1C701EB5EBD00F84
:10249000D0D9BAF1020F4ED1119800284CD0F61CB9
:1024A000002544E0002427E0F01EB84207D904EBE1
:1024B000C50018F800100DF10F00015517E0F01ECF
:1024C000B84204D10D210DF10F0001550FE0B01EEF
:1024D000B84204D10A210DF10F00015507E0701E2A
:1024E000B84204D1F01EC1B20DF10F0001557F1C9E
:1024F000B74200D102E0641C082CD5D300BFA7EB83
:10250000C500C0B28DF80E0001A9264802F0DBFA22
:102510000690002400E0641C2248069902F07CFB2F
:10252000012803D040F6FF708442F4D36D1C701E66
:10253000B5EBD00FB6D930E000252AE000240DE03D
:10254000B74206D204EBC50018F800100DF10F00D9
:1025500001557F1CB74200D102E0641C082CEFD368
:1025600000BFA7EBC500C0B28DF80E0001A90D4851
:1025700002F0A9FA0690002400E0641C09480699BC
:1025800002F04AFB012803D040F6FF708442F4D3E6
:102590006D1C701EB5EBD00FD0D907B0BDE8F08F21
:1025A000006400400068004010B5022002F0AEFD5B
:1025B00008B3022002F09AFD00210F4802F08AFDC4
:1025C00001200E49087000200D49088004E00C48E5
:1025D0000088401C0A490880094800885F2803DAFF
:1025E000084800680028F2D10648006818B10020A9
:1025F00004490968086010BD080002405403002027
:102600005C030020F01B002010B5202002F07EFDAE
:1026100008B3202002F06AFD00210F4802F05AFDA5
:1026200001200E49087000200D49088004E00C4884
:102630000088401C0A490880094800885F2803DA9E
:10264000084840680028F2D10648406818B10020C8
:1026500004494968086010BD1C0002405503002071
:102660005C030020F01B002010B54FF4007002F056
:102670004DFD10B34FF4007002F038FD00210F48FB
:1026800002F028FD01200E49087000200D49088045
:1026900004E00C480088401C0A490880094800886A
:1026A0005F2803DA084880680028F2D1064880686D
:1026B00018B1002004498968086010BD300002404C
:1026C000560300205C030020F01B002010B54FF4DF
:1026D000005002F01BFD10B34FF4005002F006FD55
:1026E00000210F4802F0F6FC01200E49087000207E
:1026F0000D49088004E00C480088401C0A49088005
:10270000094800885F2803DA0848C0680028F2D129
:102710000648C06818B100200449C968086010BDA7
:1027200044000240570300205C030020F01B0020FF
:1027300010B54FF4003002F0E9FC10B34FF4003054
:1027400002F0D4FC00210F4802F0C4FC01200E4925
:10275000087000200D49088004E00C480088401CE7
:102760000A490880094800885F2803DA0848006998
:102770000028F2D10648006918B10020044909690F
:10278000086010BD58000240580300205C03002080
:10279000F01B002010B54FF4001002F0B7FC10B38E
:1027A0004FF4001002F0A2FC00210F4802F092FC4E
:1027B00001200E49087000200D49088004E00C48F3
:1027C0000088401C0A490880094800885F2803DA0D
:1027D000084840690028F2D10648406918B1002035
:1027E00004494969086010BD6C000240590300208B
:1027F0005C030020F01B002010B54FF0007002F0C9
:1028000085FC10B34FF0007002F070FC00210F48FF
:1028100002F060FC01200E49087000200D4908807C
:1028200004E00C480088401C0A49088009480088D8
:102830005F2803DA084880690028F2D106488069D9
:1028400018B1002004498969086010BD8000024069
:102850005A0300205C030020F01B002070B50546E1
:102860000C460021284602F035FC284602F03EFCCA
:10287000A1B2284602F037FC0121284602F02AFCCA
:1028800070BD00002DE9F0418AB004460E4617469F
:1028900098462AA103C9CDE908014FF4E13003F0BD
:1028A00049FD284806602848077028480470012C14
:1028B00012D100200490059006900790012000217D
:1028C0000F22CDE9000204230246CDE90210FFF7F2
:1028D00049FC1F481F490860022C14D10120002127
:1028E00004910591CDE906100D210F22CDE90002DA
:1028F00004230246CDE9021000210220FFF732FC3A
:10290000134815490860002510E000200821CDE992
:10291000001005EB850056F8300000EB080208AB0C
:1029200000212046FFF710FD681CC5B2BD42ECDB5C
:102930000A48A0F800800AB0BDE8F081FFFFFFFF61
:10294000FFFFFFFC680300206C0300206D030020E4
:1029500061290008FC020020180300206E030020FB
:1029600070B506460D4600240AE004EB84008F494A
:10297000096851F83000B04200D105E0601CC4B2D3
:102980008B4800788442F0DB00BF8948007884429D
:1029900000D170BDA9786A7841EA02201021F2EED8
:1029A000090ABAEE090A03F01DFD04EB84007F4911
:1029B000096801EBC00080ED010AE97809012A7974
:1029C00041EA22100C21DFED7B0A9FED7B0A03F028
:1029D00009FD04EB84007549096801EBC00080ED36
:1029E000020A69792A7902F00F0241EA02200C21D9
:1029F000F3EE020ABBEE020A03F0F4FC04EB8400DF
:102A00006A49096801EBC00080ED030AA97904EB6B
:102A10008400664A126802EBC0000174E97904EB95
:102A20008400624A126802EBC000417404EB840027
:102A30005E49096801EBC00090ED060A04EB8400D2
:102A40005A49096801EBC000D0ED010A30EE600A76
:102A5000F1EE080AB4EEE00AF1EE10FA0EDD04EB36
:102A600084005249096801EBC0004069401C04EB36
:102A700084014E4A126802EBC101486104EB8400F4
:102A80004A49096801EBC00090ED060A04EB840096
:102A90004649096801EBC000D0ED010A30EE600A3A
:102AA000F9EE080AB4EEE00AF1EE10FA0ED204EBE9
:102AB00084003E49096801EBC0004069401E04EBF8
:102AC00084013A4A126802EBC101486104EB8400B8
:102AD000364A126802EBC000406900EBC00202EB0C
:102AE000001000EE100AB8EEC00A04EB84002F4A72
:102AF000126802EBC000D0ED010A30EE200A10EEA1
:102B0000101A084604F090F904EB8402274B1B6866
:102B100003EBC202C2E9080104EB840023490968FF
:102B200001EBC00090ED010A04EB84001F49096825
:102B300001EBC00080ED060A28780821B1EB001FE8
:102B400002D11EA0FDF780FC28780921B1EB001FFF
:102B500002D11DA0FDF778FC28780A21B1EB001FF7
:102B600002D11CA0FDF770FC28780B21B1EB001FEF
:102B700002D11BA0FDF768FC28780C21B1EB001FE7
:102B800002D11AA0FDF760FC28780D21B1EB001FDF
:102B900002D11AA0FDF758FC28780E21B1EB001FD6
:102BA00002D119A0FDF750FC00BFF2E66803002037
:102BB0006C03002000003442000034C2B5E7BBFAC9
:102BC000B9FDD1B90A000000B5E7BBFAC7B7D1B962
:102BD0000A000000B5E7BBFAB9FDC1F70A00000022
:102BE0004D4F53B9FDCEC20A00000000B5E7BBFA55
:102BF000CFDFC8A6B9FDCEC20A000000CDA8D1B66D
:102C0000B6AACAA70A000000B5E7BBFAB9FDD4D836
:102C10000A000000704700002DE9F04F85B005461E
:102C20000C4616461F46DDE90FABDDF838904248EA
:102C3000844202D04148844201D14FF001083E480D
:102C40001430844203D03D481430844201D14FF007
:102C5000020839482830844203D03848283084425A
:102C600001D14FF0030834483C30844203D033484C
:102C70003C30844201D14FF004082F485030844248
:102C800003D02E485030844201D14FF005082A4825
:102C90006430844203D029486430844201D14FF02B
:102CA000060825487830844203D02448783084428E
:102CB00001D14FF0070821480838854204D301218B
:102CC0001F4802F011F904E001214FF4A01002F0B6
:102CD0000BF9204602F0DAFACDF804900AF0FF0072
:102CE0008DF80F000096F8B28DF80E001FFA8BF0E9
:102CF000ADF80A00119880B2ADF8080000208DF8F8
:102D00000C0001208DF80D001298C0B28DF8100053
:102D10001398C0B28DF811006946204602F058FAA7
:102D200041462846149A02F007FA0121204602F093
:102D3000D1F905B0BDE8F08F080002400804024058
:102D4000010014007CB505460E461446092C5ED2DF
:102D5000DFE804F05D05101B26313C4752000120DE
:102D6000182100231022CDE900103146284600F03A
:102D700051F84CE00120182104231022CDE9001065
:102D80003146284600F046F841E001201821002392
:102D90000822CDE900103146284600F03BF836E025
:102DA000012004210B460822CDE9001031462846B7
:102DB00000F030F82BE00120182100231A46CDE95D
:102DC00000103146284600F025F820E00120282197
:102DD00000231A46CDE900103146284600F01AF8C3
:102DE00015E00120042100231A46CDE900103146E8
:102DF000284600F00FF80AE00120042100230322F6
:102E0000CDE900103146284600F004F800BF00BFAD
:102E10007CBD00002DE9FC4705460C4616461F46C2
:102E2000DDE90A89412D03D10121494802F05CF80E
:102E3000422D04D101214648401C02F055F8432D93
:102E400004D101214248801C02F04EF8442D04D1E7
:102E500001213F48C01C02F047F8452D04D1012153
:102E60003B48001D02F040F80CB901200090012CF5
:102E700001D102200090022C01D104200090032CEB
:102E800001D108200090042C01D110200090052CC5
:102E900001D120200090062C01D140200090072C69
:102EA00001D180200090082C01D160010090092CF4
:102EB00002D14FF4007000900A2C02D14FF48060D0
:102EC00000900B2C02D14FF4006000900C2C02D12A
:102ED0004FF4805000900D2C02D14FF40050009020
:102EE0000E2C02D14FF4804000900F2C02D14FF4F1
:102EF00000400090F0B28DF80600F8B28DF80400A2
:102F000008F0FF008DF8050001208DF80700412D25
:102F100003D169460F4802F0EAFD422D03D169460C
:102F20000D4802F0E4FD432D03D169460B4802F041
:102F3000DEFD442D03D16946094802F0D8FD452D38
:102F400003D16946074802F0D2FDBDE8FC870000C6
:102F50000200180000080140000C01400010014070
:102F6000001401400018014000BFFEE700BFFEE76B
:102F7000704770B504460D4616463246294660B283
:102F800002F0E2FF70BD000070B52DED0A8B044623
:102F9000B0EE40AAF0EE60AAB0EE41BAF0EE61BA2F
:102FA000B0EE428AF0EE628AB0EE439AF0EE639A97
:102FB0009FED6A0A10EE105A51EC1A0B03F0FCFB5D
:102FC000E06051EC1B0B03F0F7FB206194ED030A6A
:102FD000D4ED040A30EE600A84ED050A94ED050A8A
:102FE00084ED070A94ED050AD4ED060A30EE600A76
:102FF00084ED090A94ED050A84ED060A94ED000AB1
:10300000D4ED070A20EE200AD4ED010A94ED081A47
:1030100000EE810A10EE101A084603F005FF41EC9D
:103020001C0B53EC182B03F0D3FD06D294ED050ACC
:10303000B5EEC00AF1EE10FA4ED394ED000AD4EDCD
:10304000070A20EE200AD4ED010A94ED081A00EEDA
:10305000810A10EE101A084603F0E6FE41EC1C0B44
:1030600053EC192B03F024FD06D294ED050AB5EEBE
:10307000C00AF1EE10FA2FDC94ED000AD4ED070A35
:1030800020EE200AD4ED010A94ED081A00EE810A20
:1030900010EE101A084603F0C7FE41EC1C0B53EC6F
:1030A000182B03F005FD1FD294ED000AD4ED070A9A
:1030B00020EE200AD4ED010A94ED081A00EE810AF0
:1030C00010EE101A084603F0AFFE41EC1C0B53EC57
:1030D000192B03F07DFD07D294ED080AD4ED050A03
:1030E00030EE200A84ED080A94ED000AD4ED070AB8
:1030F00020EE200AD4ED010A94ED081A00EE810AB0
:10310000D4ED020A94ED091A00EE810A10EE105A6D
:10311000284603F089FE41EC1C0B53EC182B03F0FE
:1031200057FD04D251EC180B03F046FB0546284628
:1031300003F07AFE41EC1C0B53EC192B03F0B8FCA6
:1031400004D251EC190B03F037FB0546284603F077
:103150006BFE41EC100BBDEC0A8B70BD0000000053
:1031600073B52DED0C0B2DED108B82B005460C4682
:10317000B0EE428AF0EE628AB0EE439AF0EE639AC5
:10318000B0EE44BAF0EE64BAB0EE45AA51EC180BBA
:1031900003F006FB41EC1D0BB0EE4D3AF0EE6D3A3C
:1031A000B0EE482AF0EE682A9DED141B9DED120B3F
:1031B0002846FFF7E9FEB0EE40CAF0EE60CA53ECD5
:1031C000182B51EC1C0B03F0DDFB1CD11AEE100A7E
:1031D00003F02AFE41EC1E0B53EC192B03F01EFBEF
:1031E00041EC1D0B53EC182B03F062FC0BD21AEED2
:1031F000100A03F019FE41EC1D0B53EC192B03F0E0
:103200000DFB41EC1C0B51EC180B03F0C9FA41EC1F
:103210001D0B53EC1C2B03F0B5FB22D151EC180B0A
:1032200003F0BEFA41EC1D0B1AEE100A03F0FCFD90
:1032300041EC1F0B53EC192B03F000FD41EC1E0B6E
:1032400053EC1D2B03F0C4FC0BD21AEE100A03F052
:10325000EBFD41EC1D0B53EC192B03F0EFFC41ECA3
:103260001C0B51EC1B0B03F09BFA41EC1D0BB0EE59
:103270004D3AF0EE6D3AB0EE4B2AF0EE6B2AB0EE1E
:10328000491AF0EE691AB0EE4C0AF0EE6C0A2046CC
:10329000FFF77AFE8DED000B9DED000B02B0BDEC4B
:1032A000108B0EB070BD000070B588B004460D469E
:1032B0001646012C13D1002004900590069007902B
:1032C000012000210F22CDE9000204230246CDE9AE
:1032D00002102046FEF746FF104811490860022CF4
:1032E00014D10120002104910591CDE906100D2192
:1032F0000F22CDE9000204230246CDE9021000218D
:103300002046FEF72FFF054806490860064805607D
:10331000064806700648047008B070BD35330008D2
:10332000FC0200201803002060030020640300203A
:103330006503002030B502460020B3E0C0EBC003B7
:103340005C4C246854F8233093427DD14B780C7840
:1033500043EA04231BB2C0EBC004564D2D6805EBB5
:103360008404A380CB788C7843EA04231BB2C0EB9F
:10337000C004504D2D6805EB8404E3804B790C7933
:1033800043EA04231BB2C0EBC0044A4D2D6805EB91
:1033900084042381C0EBC003464C246804EB830300
:1033A000B3F91030C0EBC004424D2D6805EB840426
:1033B000B4F904401B1BB3F5805F0EDBC0EBC00308
:1033C0003C4C246804EB83035B695B1CC0EBC004CA
:1033D000384D2D6805EB84046361C0EBC003354CA8
:1033E000246804EB8303B3F91030C0EBC004314D03
:1033F0002D6805EB8404B4F904401B1B13F5805FB2
:103400000EDCC0EBC0032B4C246804EB83035B6928
:103410005B1EC0EBC004274D2D6805EB840463617F
:10342000C0EBC003234C246804EB8303B3F90440CE
:10343000C0EBC0031F4D2D6805EB83035B6904EBF4
:103440004333C0EBC00400E02AE01A4D2D6805EBC1
:103450008404A361C0EBC003164C246804EB83030F
:103460009B88C0EBC004134D2D6805EB84042382B8
:10347000082814DC104B1B5C8BB901230E4C235421
:10348000C0EBC0030B4C246804EB8303B3F9043096
:10349000C0EBC004074D2D6805EB8404E36030BD2C
:1034A000431CD8B2054B1B789842FFF647AF00BFCC
:1034B000F5E70000600300200C1C002064030020DE
:1034C0002DE9FF4706460F4614461D46DDE90C89E7
:1034D000200A8DF80800E0B28DF80900280A8DF85E
:1034E0000A00E8B28DF80B004FEA18208DF80C00A6
:1034F00008F0FF008DF80D004FEA19208DF80E003E
:1035000009F0FF008DF80F000020082102AB3246C1
:10351000CDE9001001463846FEF716FFBDE8FF87EB
:1035200010B500BF102080F31188BFF34F8FBFF399
:103530006F8F00BF03F064F818B14FF0805004495A
:10354000086000BF002080F3118800BF10BD00009C
:1035500004ED00E01848006840F470001649086067
:103560001648006820F00100401C1449086000BFA4
:1035700012480068C0F340000028F9D00F484068A6
:1035800020F003000D49486000BF0C484068C0F3BC
:1035900081000028F9D10948006809490840074915
:1035A00008600020486008634FF41F008860C8036B
:1035B000014980390860704788ED00E00010024042
:1035C000FFFFF2FE2DE9F04F2DED0C8B83B00024B0
:1035D000002500260027A246A346A146A0460121B9
:1035E000E84802F092FE00287ED0E749886903F09F
:1035F00034FA41EC190BE4494968B1F9000003F0D1
:103600002CFA41EC1A0BE049486903F026FA41EC28
:103610001B0BDD490968086803F01FFA41EC1C0B1D
:10362000D9490969D84AD2681268881803F015FA8E
:1036300041EC1D0B9FEDD55AB0EE494AF0EE694AB8
:10364000B0EE4A3AF0EE6A3AB0EE4B2AF0EE6B2A50
:10365000CF49B0EE4C1AF0EE6C1AB0EE4D0AF0EE17
:103660006D0ACC48FFF77CFDB0EE408AF0EE608A30
:1036700051EC180B03F0C2F90446C749886903F0FE
:10368000ECF941EC190BC4494968B1F9000003F0A9
:10369000E4F941EC1A0BC049486903F0DEF941EC4A
:1036A0001B0BBD490968086803F0D7F941EC1C0BF6
:1036B000B9490969B84AD2681268881803F0CDF987
:1036C00041EC1D0B9FEDB15AB0EE494AF0EE694A4C
:1036D000B0EE4A3AF0EE6A3AB0EE4B2AF0EE6B2AC0
:1036E000AE49B0EE4C1A00E046E1F0EE6C1AB0EED6
:1036F0004D0AF0EE6D0AAA48FFF732FDB0EE408A9F
:10370000F0EE608A51EC180B03F078F90546A549F4
:10371000886903F0A2F941EC190BA2494968B1F993
:10372000000003F09AF941EC1A0B9E49486903F036
:1037300094F941EC1B0B9B490968086803F08DF96B
:1037400041EC1C0B97490969964AD268126888189F
:1037500003F083F941EC1D0B9FED8C5AB0EE494A02
:10376000F0EE694AB0EE4A3AF0EE6A3AB0EE4B2A11
:10377000F0EE6B2A8C49B0EE4C1AF0EE6C1AB0EEFB
:103780004D0AF0EE6D0A8948FFF7EAFCB0EE408A78
:10379000F0EE608A51EC180B03F030F906468449CC
:1037A000886903F05AF941EC190B81494968B1F96C
:1037B000000003F052F941EC1A0B7D49486903F00F
:1037C0004CF941EC1B0B7A490968086803F045F98C
:1037D00041EC1C0B76490969754AD2681268881851
:1037E00003F03BF941EC1D0B9FED685AB0EE494ADE
:1037F000F0EE694AB0EE4A3AF0EE6A3AB0EE4B2A81
:10380000F0EE6B2A6B49B0EE4C1AF0EE6C1AB0EE8B
:103810004D0AF0EE6D0A6848FFF7A2FCB0EE408A50
:10382000F0EE608A51EC180B03F0E8F807466349A4
:103830004968B1F9000003F010F941EC190B5F4938
:10384000486903F00AF941EC1A0B4FF47A71B0EEB3
:10385000491AF0EE691AB0EE4A0AF0EE6A0A5848C0
:1038600002F0FCFBB0EE408AF0EE608A51EC180BDF
:1038700003F0C4F8824653494968B1F9000003F0E7
:10388000ECF841EC190B4F49486903F0E6F841ECBC
:103890001A0B4FF47A71B0EE491AF0EE691AB0EED5
:1038A0004A0AF0EE6A0A484802F0D8FBB0EE408AB5
:1038B000F0EE608A51EC180B03F0A0F88346434900
:1038C0004968B1F9000003F0C8F841EC190B3F4911
:1038D000486903F0C2F841EC1A0B4FF47A71B0EE6C
:1038E000491AF0EE691AB0EE4A0AF0EE6A0A384850
:1038F00002F0B4FBB0EE408AF0EE608A51EC180B97
:1039000003F07CF8814633494968B1F9000003F0BF
:10391000A4F841EC190B2F49486903F09EF841ECDB
:103920001A0B4FF47A71B0EE491AF0EE691AB0EE44
:103930004A0AF0EE6A0A284802F090FBB0EE408A8C
:10394000F0EE608A51EC180B03F058F880462B46D5
:10395000224602210802CDE90067FFF7B1FD5B4670
:103960005246012140F2FF10CDE90098FFF7A8FD73
:103970000121044802F0C6FC03B0BDEC0C8BBDE88D
:10398000F08F0000000400408001002000401C4631
:1039900080030020A80300209C010020D003002009
:1039A000F8030020B8010020200400204804002073
:1039B000D40100207004002098040020F0010020B1
:1039C000C00400200C020020E8040020280200208F
:1039D0001005002044020020380500202DE9F041A8
:1039E00004460F4690461D46012C04D101214C4847
:1039F00001F07AFA4B4E022C05D101214FF4E01070
:103A000001F072FA6607032C04D10121464801F047
:103A10006BFA464E042C05D101214348401C01F0AD
:103A200063FA434E052C05D101213F48801C01F06B
:103A30005BFA404E062C05D101213B48C01C01F029
:103A400053FA3D4E072C05D101213748001D01F0E6
:103A50004BFA3A4E082C05D101213148801C01F067
:103A600043FA374E092C05D101212D48083001F0C9
:103A70003BFA344E0A2C05D101212948093001F0C6
:103A800033FA314E0B2C05D1012125480A3001F0C3
:103A90002BFA2E4E0C2C05D101212348401D01F09C
:103AA00023FA2B4E0D2C05D101211F48801D01F05A
:103AB0001BFA284E0E2C05D101211B48C01D01F018
:103AC00013FA254E42463946304602F009FC1DB92C
:103AD0000021304602F00CFC012D03D101213046BB
:103AE00002F006FC022D03D10221304602F000FC58
:103AF000042D03D10421304602F0FAFB062D03D138
:103B00000621304602F0F4FB01221146304602F055
:103B100005FC0121304602F0F0FBBDE8F081000019
:103B20000B001800002C014001001C0000040040A4
:103B300000080040000C004000100040001400404D
:103B400000340140004C014000500140005401404D
:103B500000180040001C00400020004010B510215B
:103B60002F4802F075FC002836D001202D4908703E
:103B700000202D4908702D480068002822DB2B48C2
:103B800000682B490968084428490860084600680D
:103B9000FF2804DD08460068A0F58070086025480D
:103BA00001F09DFAC0F5807020490968401A20494B
:103BB000086008460068002804DC0846006800F534
:103BC000807008601C48006810B11B48006880477E
:103BD0001021134802F033FC2021114802F038FC78
:103BE000E0B10F4802F018FCC4B21448006840B1BC
:103BF00020461249096888472021094802F01FFC25
:103C000010BD0F4808490978445407480078401C03
:103C1000054908702021024802F011FC00BFEFE7BF
:103C2000004C0040A6020020C00200202803002013
:103C30004403002044040240C4020020C8020020C3
:103C40005A07002010B510212F4802F001FC00286F
:103C500036D001202D49087000202D4908702D48CC
:103C60000068002822DB2B4800682B4909680844BB
:103C70002849086008460068FF2804DD08460068F7
:103C8000A0F580700860254801F029FAC0F5807021
:103C900020490968401A2049086008460068002841
:103CA00004DC0846006800F5807008601C48006865
:103CB00010B11B48006880471021134802F0BFFB79
:103CC0002021114802F0C4FBE0B10F4802F0A4FB30
:103CD000C4B21448006840B12046124909688847B8
:103CE0002021094802F0ABFB10BD0F4808490978B4
:103CF000445407480078401C0549087020210248B8
:103D000002F09DFB00BFEFE700500040A70200203B
:103D1000CC0200202C03002048030020580402405D
:103D2000D0020020D4020020DB07002010B51021B3
:103D30002F4802F08DFB002836D001202D49087055
:103D400000202D4908702D480068002822DB2B48F0
:103D500000682B490968084428490860084600683B
:103D6000FF2804DD08460068A0F58070086025483B
:103D700001F0B5F9C0F5807020490968401A204962
:103D8000086008460068002804DC0846006800F562
:103D9000807008601C48006810B11B4800688047AC
:103DA0001021134802F04BFB2021114802F050FB78
:103DB000E0B10F4802F030FBC4B21448006840B1D3
:103DC00020461249096888472021094802F037FB3C
:103DD00010BD0F4808490978445407480078401C32
:103DE000054908702021024802F029FB00BFEFE7D7
:103DF00000640140A9020020E402002034030020F6
:103E00005003002080040240E8020020EC02002061
:103E1000DD08002010B51021364802F019FB68B308
:103E200001203549087035480068002822DB3348F6
:103E3000006833490968084430490860084600684A
:103E4000FF2804DD08460068A0F5807008602D4852
:103E500001F045F9C0F5807028490968401A2849E1
:103E6000086008460068002804DC0846006800F581
:103E70008070086010211F4802F0E1FA20211D48DF
:103E800002F0E6FA10B31B4802F0C6FAC4B21E48AC
:103E9000008800F40040C8B91B48008800F4804046
:103EA00060B10A2C03D000201749088020E0164892
:103EB000008840F400401449088019E00D2C06D118
:103EC0001148008840F480400F49088010E00E48F7
:103ED0000088C0F30D000D490C540B480088401CAD
:103EE0000949088008460088C72801DD00200880AD
:103EF00010BD000000380140760300201C030020A4
:103F0000380300200804024074030020161C00201F
:103F100010B510212F4802F09BFA002836D001205E
:103F20002D49087000202D4908702D480068002890
:103F300022DB2B4800682B4909680844284908609F
:103F400008460068FF2804DD08460068A0F5807078
:103F50000860254801F0C3F8C0F580702049096861
:103F6000401A2049086008460068002804DC08461A
:103F7000006800F5807008601C48006810B11B489C
:103F8000006880471021134802F059FA2021114897
:103F900002F05EFAE0B10F4802F03EFAC4B21448F3
:103FA000006840B120461249096888472021094825
:103FB00002F045FA10BD0F480849097844540748F3
:103FC0000078401C054908702021024802F037FAA9
:103FD00000BFEFE700440040A4020020AA02002036
:103FE000200300203C0300201C040240AC020020FF
:103FF000B00200205806002010B510212F4802F012
:1040000027FA002836D001202D49087000202D49BC
:1040100008702D480068002822DB2B4800682B49D7
:10402000096808442849086008460068FF2804DD3C
:1040300008460068A0F580700860254801F04FF838
:10404000C0F5807020490968401A20490860084678
:104050000068002804DC0846006800F580700860ED
:104060001C48006810B11B480068804710211348A5
:1040700002F0E5F92021114802F0EAF9E0B10F4819
:1040800002F0CAF9C4B21448006840B1204612498F
:10409000096888472021094802F0D1F910BD0F486E
:1040A00008490978445407480078401C05490870BD
:1040B0002021024802F0C3F900BFEFE700480040AA
:1040C000A5020020B40200202403002040030020A9
:1040D00030040240B8020020BC020020D9060020B3
:1040E00010B510212F4802F0B3F9002836D0012076
:1040F0002D49087000202D4908702D4800680028BF
:1041000022DB2B4800682B490968084428490860CD
:1041100008460068FF2804DD08460068A0F58070A6
:104120000860254800F0DBFFC0F580702049096871
:10413000401A2049086008460068002804DC084648
:10414000006800F5807008601C48006810B11B48CA
:10415000006880471021134802F071F920211148AE
:1041600002F076F9E0B10F4802F056F9C4B21448F3
:10417000006840B120461249096888472021094853
:1041800002F05DF910BD0F4808490978445407480A
:104190000078401C054908702021024802F04FF9C0
:1041A00000BFEFE700600140A8020020D802002015
:1041B000300300204C0300206C040240DC0200208D
:1041C000E00200205C08002030B585B06A4600217E
:1041D000544800F000FC9DF8080018B952490098B6
:1041E000086002E05049019808605048006860B1DA
:1041F0000DF10B014C4800684C4A126890470A21A7
:10420000484800F0A1FB05B030BD00257EE00DF16F
:104210000B00405D4649474A12788854454800786B
:10422000401C4449087044480078E0B14248007896
:104230000978884262D1002404E03D48005D3F498E
:104240000855641C3B4800788442F6D3394800780E
:104250003A4981F880000020364908700A21314827
:1042600000F072FBCFE733480078401E3049095C0C
:1042700030480078C01E814226D12E480078801E2A
:104280002B49085C0A281FD12A480078C01E085C08
:104290000D2819D1002404E02548005D2749085560
:1042A000641C24480078C01EA042F5D8214800783C
:1042B000C01E224981F8800000201E4908700A2192
:1042C000184800F041FB9EE71A480078401E184944
:1042D000095C18480078C01E81420FD0154800784C
:1042E000801E1349085C0A2808D112480078C01EB5
:1042F000085C0D2802D100200E4908700D48007896
:10430000802802DB00200B4908706D1C9DF80A0014
:10431000A8423FF67CAF0A21024800F015FB00BF1F
:1043200071E7000000640040F4020020FC0200205D
:10433000620B0020F8020020F00200205E0900203D
:104340007CB504460D46012C02D1284601F0F2FF4F
:10435000022C39D10121B54800F0C6FD012004210D
:1043600000230822CDE9001002214120FEF752FD72
:104370000120182100231A46CDE900100321412015
:10438000FEF748FD032211462620FEF7F2FD00232A
:104390001A462946A64802F063F80121A44802F013
:1043A000C3F80121A24802F0BAF80122A149A048AD
:1043B00002F09AF801229F49491C9D4802F094F8A6
:1043C00001219B4802F036F8032C3AD1012197488D
:1043D000401C00F089FD0120042100230822CDE9C2
:1043E00000100A214220FEF715FD012018210023AC
:1043F0001A46CDE900100B214220FEF70BFD0322E7
:1044000011462720FEF7B5FD00231A4629468A48A3
:1044100002F026F80121884802F086F8012186483A
:1044200002F07DF801228349834802F05DF8012201
:104430008049491C804802F057F801217E4801F06C
:10444000F9FF042C3AD101217848801C00F04CFD82
:104450000120042100230822CDE900100A21432075
:10446000FEF7D8FC0120182100231A46CDE90010E0
:104470000B214320FEF7CEFC032211463420FEF729
:1044800078FD00231A4629466C4801F0E9FF012116
:104490006A4802F049F80121684802F040F8012218
:1044A0006449664802F020F801226249491C6348C9
:1044B00002F01AF80121614801F0BCFF052C3AD145
:1044C00001215A48C01C00F00FFD012004210023E7
:1044D0000822CDE900100C214320FEF79BFC0120AF
:1044E000182100231A46CDE9001002214420FEF7CE
:1044F00091FC032211463520FEF73BFD00231A46AE
:1045000029464F4801F0ACFF01214D4802F00CF85C
:1045100001214B4802F003F801224649484801F0C6
:10452000E3FF01224349491C454801F0DDFF012119
:10453000434801F07FFF062C3AD101214FF01810BB
:1045400000F0D2FC0120042100230822CDE9001054
:1045500006214320FEF75EFC0120182100231A46A5
:10456000CDE9001007214320FEF754FC0322114639
:104570004C20FEF7FEFC00231A462946314801F084
:104580006FFF01212F4801F0CFFF01212D4801F0DD
:10459000C6FF012227492B4801F0A6FF0122254929
:1045A000491C284801F0A0FF0121264801F042FFE4
:1045B000072C39D10121244800F096FC0120042168
:1045C00000230822CDE9001011464520FEF722FC09
:1045D0000120182100231A46CDE9001007214520AB
:1045E000FEF718FC032211464D20FEF7C2FC002303
:1045F0001A462946154801F033FF0121134801F0FE
:1046000093FF0121114801F08AFF012209490F4857
:1046100001F06AFF01220749491C0C4801F064FFC0
:1046200001210A4801F006FF7CBD000011001C00BA
:104630000044004004000C0000480040004C0040D2
:104640000050004000600140190018000064014063
:1046500000BFFEE703B401984100009850EAC12072
:1046600018BF04204A0D18BF40F0010040F2FF724D
:10467000B2EB515F08BF40F00200012808BF0520DF
:1046800002B0704730380A2801D20120704700205C
:10469000704700BF704730B5024600200023146801
:1046A00024F002041460146824F00104641C1460F3
:1046B00000E05B1C546804F001041CB94FF6FF7461
:1046C000A342F6D1546804F00104002C3FD04D7889
:1046D000146865F3C71414608D78146865F3861444
:1046E0001460CD78146865F3451414600D7914686E
:1046F00065F3041414604D79146865F3C304146001
:104700008D79146865F3820414600C78D56964F3BC
:104710009E75D5610C786508D46965F3DF74D46142
:10472000146824F001041460002300E05B1C54684A
:1047300004F001041CB14FF6FF74A342F6D1546893
:1047400004F001040CB1002002E0012000E0002090
:1047500030BD30B5024600200023146824F0020466
:104760001460146824F00104641C146000E05B1CF5
:10477000546804F001041CB94FF6FF74A342F6D14B
:10478000546804F001045CB30C88641ED56964F3BA
:104790000B05D5618D78D46965F31964D461CD7842
:1047A000D46965F31344D4610D79D46965F3165463
:1047B000D461146824F001041460002300E05B1C41
:1047C000546804F001041CB14FF6FF74A342F6D103
:1047D000546804F001040CB1002002E0012000E064
:1047E000002030BD30B50022CC78012303FA04F25A
:1047F000D0F8003223F001035B1CC0F80032D0F87F
:104800001C329343C0F81C320B7913B1012B5AD1DF
:104810002CE0D0F80C329343C0F80C328B891C0486
:10482000CD7800F5107343F83540CC7853F8343028
:104830000C892343CD7800F5107444F835304B894A
:104840001C04CD7800F5107303EBC5035C60CC78D5
:1048500000F5107303EBC4035B68CC882343CD7869
:1048600000F5107404EBC50463602DE0D0F80C3241
:104870001343C0F80C32CB881C04CD7800F51073BC
:1048800043F83540CC7853F834300C892343CD7845
:1048900000F5107444F835304B891C04CD7800F5D0
:1048A000107303EBC5035C60CC7800F5107303EB69
:1048B000C4035B688C892343CD7800F5107404EB46
:1048C000C504636000E000BF00BF4B7813B1012B4B
:1048D0000CD105E0D0F804329343C0F8043206E06E
:1048E000D0F804321343C0F8043200E000BF00BF28
:1048F0008B7813B1012B0CD105E0D0F8143293431F
:10490000C0F8143206E0D0F814321343C0F8143261
:1049100000E000BF00BF0B783BB1012B0BD1D0F8FA
:104920001C321343C0F81C3206E0D0F81C3293430B
:10493000C0F81C3200E000BF00BFD0F8003223F006
:104940000103C0F8003230BD122935D2DFE801F092
:1049500034090A0B0F0C14171B341F223425282B83
:104960002E3100BF00BF00BF0422426025E00422B8
:1049700042600022826120E0012282601DE04FF44B
:104980008072826019E04FF48032826015E0082264
:10499000C26012E01022C2600FE0082202610CE047
:1049A0001022026109E00822426006E01022426003
:1049B00003E0034A826000E000BF00BF70470000D0
:1049C000010101001AB143690B43436102E04369ED
:1049D0008B434361704730B505460C46134605F5D9
:1049E000D87000EB04100068C0F380001872187AC9
:1049F00010B1012813D107E005F5D87000EB0410C1
:104A00000068400D18600BE005F5D87000EB04104D
:104A100000686FF0604101EAD000586000E000BF1C
:104A200000BF05F5D87000EB04100068C0F340002B
:104A3000587205F5D87000EB0410406800F00F00C4
:104A4000987205F5D87000EB04104068000AD8741D
:104A500005F5D87000EB04108068D87205F5D870A1
:104A600000EB04108068010A197305F5D87000EB9B
:104A700004108068010C597305F5D87000EB041020
:104A80008068010E997305F5D87000EB0410C068BA
:104A9000D87305F5D87000EB0410C068010A1974CA
:104AA00005F5D87000EB0410C068010C597405F5C9
:104AB000D87000EB0410C068010E99742146284696
:104AC00000F09DF830BD10B5024604209368C3F392
:104AD00080630BB100200CE09368C3F3C0630BB19B
:104AE000012006E09368C3F300730BB1022000E0DD
:104AF000042004287CD002F5C07303EB00131B686C
:104B000003F0010402F5C07303EB00131C600C7A80
:104B100002F5C07303EB00131B6864F3820302F514
:104B2000C07404EB001423600B7A13B1012B1CD169
:104B30000DE00C8802F5C07303EB00131B6864F3EF
:104B40005F5302F5C07404EB001423600EE002F51D
:104B5000C07303EB00131B684C6843EAC40402F5FE
:104B6000C07303EB00131C6000E000BF00BF4C7A71
:104B700002F5C07303EB00131B6864F3410302F5F5
:104B8000C07404EB001423608B7A02F5C07404EB4C
:104B90000014646863F3030402F5C07303EB0013AD
:104BA0005C608B7B1C064B7B44EA03440B7B44EA32
:104BB0000323CC7A234302F5C07404EB0014A360F2
:104BC0008B7C1C064B7C44EA03440B7C44EA0323A5
:104BD000CC7B234302F5C07404EB0014E36002F5C0
:104BE000C07303EB00131B6823F001035B1C00E0A0
:104BF00004E002F5C07404EB0014236010BD11B191
:104C0000012906D102E02022C26003E020220261D5
:104C100000E000BF00BF70470246002021B101291B
:104C200010D002292AD11BE0936803F001033BB1A5
:104C30009368C3F340030BB1012002E0002000E0C1
:104C400002201DE09368C3F300233BB19368C3F3D4
:104C500040230BB1012002E0002000E002200FE021
:104C60009368C3F300433BB19368C3F340430BB174
:104C7000012002E0002000E0022001E0002000BF4F
:104C800000BF70470349496860F30711014A51604A
:104C900070470000001002400349496860F30A2190
:104CA000014A516070470000001002400349496802
:104CB00060F3CD21014A51607047000000100240AE
:104CC000012807D10749496D21F030013031054AEB
:104CD000516505E00349496D21F03001014A5165F4
:104CE0007047000000100240052827D2DFE800F0DE
:104CF000030A11181F00134A126861F30002114BD6
:104D00001A601CE00F4A126861F310420D4B1A60E2
:104D100015E00C4A126861F318620A4B1A600EE043
:104D2000084A126A61F30002064B1A6207E0054A5C
:104D3000526A61F30002034B5A6200E000BF00BFF9
:104D400070470000001002402DE9F04101460027A5
:104D50000022002590460023002400F05BF906465F
:104D600026B1012E12D0022E43D112E03948406DF7
:104D7000C0F3402038B13748006BC0F3406010B139
:104D80003548086001E03548086035E03348086080
:104D900032E030484068C0F300482E484068C0F315
:104DA00083422C484068C0F341750DB90F2A03D1E6
:104DB0002801401C024400E0921CB8F1000F03D10E
:104DC00027485043086013E022484068C0F3404041
:104DD00058B12048406DC0F30137B81CDFF87CC0E3
:104DE000BCFBF0F05043086002E01C4850430860F0
:104DF00002E01A48086000BF00BF16484068C0F3D0
:104E000003131848C45C0868E040486011484068D3
:104E1000C0F302231448C45C4868E040C8600D48F1
:104E20004068C0F3C2231148C45C4868E040886011
:104E300008484068C0F3007306484068C0F38130FA
:104E400040EA83030A48C45C8868B0FBF4F0086158
:104E5000BDE8F08100100240006CDC0200127A0014
:104E600000093D00366F0008466F00084E6F0008CD
:104E7000566F000810B501460020094B03EB1142A4
:104E8000126801F01F040123A3401A4001F01F041F
:104E90000123A3409A4200D000E0012010BD000091
:104EA000001002400349496D60F30D31014A51651C
:104EB000704700000010024030B50024002500E0DB
:104EC000641C1120FFF7D6FF012802D0B4F5405F23
:104ED000F6D31120FFF7CEFF012801D0002500E016
:104EE0000125284630BD000010B501290DD10E4B1B
:104EF00003EB1042126800F01F040123A3401A4381
:104F0000094C04EB10431A600CE0074B03EB104212
:104F1000126800F01F040123A3409A43024C04EBE3
:104F200010431A6010BD00000010024010B568B9AF
:104F30001C4B5B6823F480331A4C636023461B6B65
:104F400023F0007303F10073236317E0154B5B68D4
:104F500023F4803303F58033124C6360012805D1BC
:104F600023465B6823F40033636007E00D4B5B6806
:104F700023F4003303F500330A4C6360094B5B688C
:104F800061F39543074C63600C09064B5B6864F35F
:104F90005E73044C636023465B6862F3DF73636097
:104FA00010BD0000001002401348006820F001000E
:104FB000401C1149086000BF0F480068C0F3400062
:104FC0000028F9D00C48406820F003000A494860E6
:104FD00000BF09484068C0F381000028F9D10648A5
:104FE00000680649084004490860002048600863DA
:104FF0004FF41F008860704700100240FFFFF2FE70
:105000000349496860F30101014A5160704700009B
:105010000010024002484068C0F381007047000061
:105020000010024010B501F093F8042001F044F99B
:10503000074800680749B0FBF1F0074908600846D7
:1050400000684FF47A7148430449086010BD0000BD
:105050006002002040420F00780300207C03002003
:10506000002131E032280ADD194A126832235A43FE
:105070004FF0E0235A61A0F1320290B206E0144AE8
:10508000126842434FF0E0235A61002000224FF0A3
:10509000E0239A611A46126942F001021A6100BFC8
:1050A0004FF0E022116901F001021AB101F48032DF
:1050B000002AF5D04FF0E022126922F001024FF0F1
:1050C000E0231A6100229A610028CBD170470000CA
:1050D0007C030020026861F3000202607047014611
:1050E000486880B27047416070470000B0F1805F4F
:1050F00004D920F07041034A116001E00249486080
:1051000070470000040402400000024001460020F5
:105110000022B1F1805F02D9054B1A6801E0054B0E
:105120001A6802EA01030BB1012000E00020704779
:105130000004024000000240D0F8A430C3F3006332
:105140003BB9D0F8A43023F0807303F18073C0F82A
:10515000A430012906D1D0F8A03062F30703C0F8CB
:10516000A03034E0022906D1D0F8A03062F30F233A
:10517000C0F8A0302BE0032906D1D0F8A03062F3AC
:105180001743C0F8A03022E0042906D1D0F8A0309F
:1051900062F31F63C0F8A03019E0052906D1D0F8EA
:1051A000A43062F30703C0F8A43010E0062906D14A
:1051B000D0F8A43062F30F23C0F8A43007E0072929
:1051C00005D1D0F8A43062F31743C0F8A43070477B
:1051D00002684BF6EF731A40026002680B891A43AB
:1051E00002604B7C026863F30D320260CB7B026885
:1051F00063F38B2202608B7B026863F309220260F7
:105200004B7B026863F3C71202600B7B026863F397
:10521000861202600B7C026863F3451202604A89C1
:1052200042600A6882604A68C26070471AB10368C7
:105230000B43036002E003688B4303607047000088
:105240000FB438B505A800904FF480710C48009B4E
:10525000049AFBF7DFF8C4B20020009009480078F8
:1052600001280AD121460848FDF7F8FA002005492F
:105270000870204638BC5DF814FB0020FAE70000F7
:10528000F01900205A03002080000240002102682B
:1052900022F0010202600022026042608260C2606D
:1052A000014640F2FF420A40B2F5816F0DD2CAB208
:1052B000083A1423B2FBF3F293000F229A400D4BED
:1052C0005B681A430B4B5A6012E040F2FF420A40FF
:1052D000B2F5916F0CD2CAB2083A1423B2FBF3F2C2
:1052E00093000F229A40044B1B681A43024B1A602A
:1052F000704700000000024004040240F0B505467B
:105300000E461446012D20D17A480078D8B17A484B
:10531000026814B97948036800E0234600210BE0D5
:105320008818FF2801D8881802E08818A0F5807036
:10533000734F385C7054491C9942F1D300206D4F73
:1053400038700120F0BD0020FCE7022D20D16D480F
:105350000078D8B16C48026814B96C48036800E062
:10536000234600210BE08818FF2801D8881802E0A6
:105370008818A0F58070664F385C7054491C9942BB
:10538000F1D300205F4F38700120DBE70020D9E720
:10539000032D20D15F480078D8B15F48026814B966
:1053A0005E48036800E0234600210BE08818FF28D0
:1053B00001D8881802E08818A0F58070584F385C32
:1053C0007054491C9942F1D30020524F387001208B
:1053D000B8E70020B6E7042D20D152480078D8B1B4
:1053E0005148026814B95148036800E0234600217F
:1053F0000BE08818FF2801D8881802E08818A0F56B
:1054000080704B4F385C7054491C9942F1D3002096
:10541000444F3870012095E7002093E7052D20D1F7
:1054200044480078D8B14448026814B94348036836
:1054300000E0234600210BE08818FF2801D88818D7
:1054400002E08818A0F580703D4F385C7054491C0C
:105450009942F1D30020374F3870012072E70020C5
:1054600070E7062D20D137480078D8B13648026859
:1054700014B93648036800E0234600210BE0881881
:10548000FF2801D8881802E08818A0F58070304FF6
:10549000385C7054491C9942F1D30020294F387070
:1054A00001204FE700204DE7072D20D12948007843
:1054B000D8B12948026814B92848036800E0234697
:1054C00000210BE08818FF2801D8881802E088180E
:1054D000A0F58070224F385C7054491C9942F1D37A
:1054E00000201C4F387001202CE700202AE7002004
:1054F00028E70000760300201C030020380300206A
:10550000F00E0020A4020020200300203C03002015
:10551000F0100020A50200202403002040030020FA
:10552000F0120020A60200202803002044030020DF
:10553000F0140020A70200202C03002048030020C4
:10554000F0160020A8020020300300204C030020A9
:10555000F0180020A902002034030020500300208E
:10556000F01A002030B587B004460D46FFF75AFD0B
:10557000012C4DD10020FE490870284600F0DAFECB
:105580001A20012100221023CDE90332CDE90510B4
:1055900008021146F74A0023CDE900210290F64A9D
:1055A000F649F6480838FDF737FB1920012100239A
:1055B000CDE90331CDE905100802F14ACDE9002318
:1055C0000290ED4AEF49EF480838FDF725FB01212D
:1055D000E948001F00F029FF0121E748001F00F003
:1055E0001FFF01220221E548FFF720FE00220121D2
:1055F0000B20FDF7BEFC0022E349DF48001F00F04E
:1056000073FF2102DF48FDF729F90020DF49086018
:10561000022C52D10020DE49087029460220FEF7F4
:105620008FFE1C20012100221023CDE90332CDE999
:10563000051008021146D74A0023CDE90021029047
:10564000D54ACE491431CD480838FDF7E5FA1B207C
:1056500001210023CDE90331CDE905100802CF4A2D
:10566000CDE900230290CC4AC6491431C548083818
:10567000FDF7D2FA0121C848001F00F0D6FE012133
:10568000C548001F00F0CCFE01220221BB481430A7
:10569000FFF7CCFD002201210C20FDF76AFC00225F
:1056A000B949BD48001F00F01FFFE101B5481430A3
:1056B000FDF7D4F80020BA490860032C53D100202C
:1056C000B849087029460320FEF73AFE1E20012142
:1056D00000221023CDE90332CDE90510080211465E
:1056E000B14A0023CDE900210290B04AA3492831F4
:1056F000A2480838FDF790FA1D2001210023CDE9CA
:105700000331CDE905100802A94ACDE90023029032
:10571000A64A9C4928319B480838FDF77DFA0121AB
:10572000A248001F00F081FE0121A048001F00F0E8
:1057300077FE0122022191482830FFF777FD0022F1
:1057400001210D20FDF715FC00228F499748001F0D
:1057500000F0CAFE4FF480718A482830FDF77EF8C9
:10576000002094490860042C52D10020924908700E
:1057700029460420FEF7E4FD202001210022102309
:10578000CDE90332CDE90510C00011468B4A002354
:10579000CDE9002102908A4A78493C31774808389F
:1057A000FDF73AFA1F2001210023CDE90331CDE9AD
:1057B00005100802834ACDE900230290804A71490E
:1057C0003C3170480838FDF727FA01217C48001F5A
:1057D00000F02BFE01217A48001F00F021FE01227B
:1057E000022166483C30FFF721FD002201210E20F6
:1057F000FDF7BFFB002264497148001F00F074FEF2
:10580000A10160483C30FDF729F800206E4908608E
:10581000052C53D100206D49087029460520FEF75C
:105820008FFD2220012100221023CDE90332CDE992
:10583000051008021146664A0023CDE900210290B6
:10584000644A4E4950314D480838FDF7E5F92120AA
:1058500001210023CDE90331CDE9051008025E4A9C
:10586000CDE9002302905B4A46495031454808384B
:10587000FDF7D2F901215748001F00F0D6FD0121A4
:105880005448001F00F0CCFD012202213B4850305B
:10589000FFF7CCFC002201210F20FDF76AFB00225C
:1058A00039494C48001F00F01FFE4FF48071354805
:1058B0005030FCF7D3FF002048490860062C53D134
:1058C00000204749087029460620FEF739FD2420AC
:1058D000012100221023CDE90332CDE90510080291
:1058E0001146404A0023CDE9002102903E4A234957
:1058F000643122480838FDF78FF923200121002365
:10590000CDE90331CDE905100802384ACDE900237D
:105910000290354A1B4964311A480838FDF77CF972
:1059200001213148001F00F080FD01212E48001F99
:1059300000F076FD0122022110486430FFF776FC6A
:10594000002201211020FDF714FB00220E492648F9
:10595000001F00F0C9FD4FF480710A486430FCF765
:105960007DFF002022490860072C7DD1002041E006
:1059700076030020F00D00200438014008000240AA
:10598000F00E00200804024005000C001C0300205B
:10599000A4020020F00F002004440040F01000207A
:1059A00020030020A5020020F01100200448004040
:1059B000F012002024030020A6020020F013002093
:1059C000044C0040F014002028030020A70200200F
:1059D000F015002004500040F01600202C03002099
:1059E000A8020020F017002004600140F0180020F9
:1059F000300300202949087029460720FEF7A0FC43
:105A00002620012100221023CDE90332CDE9051023
:105A100008021146224A0023CDE900210290214AC2
:105A2000214921488038FDF7F7F82520012100237E
:105A3000CDE90331CDE9051008021C4ACDE9002368
:105A40000290184A1A491A488038FDF7E5F80121F2
:105A50001448001F00F0E9FC01211248001F00F06B
:105A6000DFFC0122022100E015E00F48FFF7DEFB1A
:105A7000002201211120FDF77CFA00220D4909487E
:105A8000001F00F031FD4FF480710948FCF7E6FE7D
:105A900000200949086007B030BD0000A9020020BD
:105AA000F01900200464014080000240F01A002038
:105AB0008004024005000C003403002000BF054AAA
:105AC000126802F04002002AF9D0C2B2014B1B1D3D
:105AD0001A607047003801404FF6FF7101600021E5
