:020000040800F2
:10000000B04C0020D1030008B1300008A93000082E
:10001000AD3000083D1E0008BD4A00080000000089
:1000200000000000000000000000000011030008B4
:10003000092D0008000000006D030008893B00083E
:10004000EB030008EB030008EB030008EB030008D8
:10005000EB030008EB030008EB030008EB030008C8
:10006000EB030008EB030008EB030008C5260008BB
:100070002527000885270008E92700084D280008E3
:10008000B128000815290008EB030008EB0300085D
:10009000E9450008511E0008EB030008EB030008C7
:1000A000EB030008EB030008EB030008EB03000878
:1000B000EB030008EB030008EB030008EB03000868
:1000C000EB030008EB030008EB030008EB03000858
:1000D000EB030008014000081D410008254200080C
:1000E000EB030008EB030008EB030008EB03000838
:1000F000EB030008EB030008EB030008EB03000828
:10010000EB030008EB030008EB030008EB03000817
:10011000E93C0008F13D0008EB030008EB03000890
:10012000EB030008EB030008EB030008EB030008F7
:10013000EB030008EB030008EB030008EB030008E7
:1001400000000000000000000000000000000000AF
:10015000EB030008B51F000809210008EB030008A5
:10016000EB030008EB030008EB030008EB030008B7
:100170002D430008F93E0008EB030008EB030008DC
:10018000EB03000800F002F800F0B2F80AA090E8D3
:10019000000C82448344AAF10107DA4501D100F042
:1001A000A7F8AFF2090EBAE80F0013F0010F18BF5D
:1001B000FB1A43F0010318471C7500003C75000052
:1001C0000A444FF0000C10F8013B13F0070408BF7D
:1001D00010F8014B1D1108BF10F8015B641E05D01B
:1001E00010F8016B641E01F8016BF9D113F0080FD0
:1001F0001EBF10F8014BAD1C0C1B09D16D1E58BF62
:1002000001F801CBFAD505E014F8016B01F8016B98
:100210006D1EF9D59142D6D370470000002300240B
:1002200000250026103A28BF78C1FBD8520728BF06
:1002300030C148BF0B6070476E2900F0638370299E
:1002400001F04580662907F0A681652907F0A381A2
:10025000672907F0A081612907F09F8103681B0AC5
:1002600028BF41F08001692900F03081642900F045
:100270002D81752900F02A816F2900F0D287782915
:1002800001F01180E92900F06D87E42900F06A8708
:10029000F52900F06787EF2900F0CF87F82901F0F2
:1002A00010800368DB0928BF41F08001632901F059
:1002B000AD80732901F0B280E32901F0BD80F329FC
:1002C00001F0C280002070471FB507F05AF901F015
:1002D00009F804000020002106F088FD401C606041
:1002E0000020002106F06CFDE0601FBD10B510BDC0
:1002F00001F048F91146FFF7E7FF05F081FA01F038
:100300006FF903B4FFF7F2FF03BC04F0F8FB000041
:100310002C4B19680868B0E8F04F80F30988BFF3E8
:100320006F8F4FF0000080F31188704700000000CD
:1003300008480068006880F308884FF0000080F3E8
:10034000148862B661B6BFF34F8FBFF36F8F00DFC3
:1003500000BF00BF08ED00E0DFF80C00016841F4C9
:1003600070010160704700BF88ED00E0EFF3098085
:10037000BFF36F8F134B1A681EF0100F08BF20EDEC
:10038000108A20E9F04F106009B44FF0100080F39C
:100390001188BFF34F8FBFF36F8F06F04FFA4FF006
:1003A000000080F3118809BC19680868B0E8F04FB4
:1003B0001EF0100F08BFB0EC108A80F30988BFF35D
:1003C0006F8F704764030020EFF3058070470000D3
:1003D0000948804709480047FEE7FEE7FEE7FEE7D9
:1003E000FEE7FEE7FEE7FEE7FEE7FEE70448054915
:1003F000054A064B70470000BD3B00088501000818
:10040000B0460020B04C0020B0480020B04800208A
:10041000704700001CB50C46064B7B4469460090B3
:10042000204600F016FE04460020694600F024FE37
:1004300020461CBD5B0C00000FB4044910B503AA94
:10044000029800F01FFE10BC5DF814FBA004002011
:100450000FB41CB5084B06AA7B446946009005986A
:1004600000F0F7FD04460020694600F005FE204636
:100470001CBC5DF814FB00001D0C000070B50446A8
:1004800085690068C10601D5302600E02026C00736
:1004900007D070BDD4E9012130469047206A401C46
:1004A00020626D1EF6D570BD70B504468569007872
:1004B000C00707D170BDD4E9012120209047206AF0
:1004C000401C20626D1EF6D570BD00002DE9F04184
:1004D0000646002410687529314616A510D000F094
:1004E0007DF9002802DA404213A507E031688A0747
:1004F00001D512A502E0490704D511A5012401E0A8
:1005000000F075F900210A2206F1240709E0B0FB8A
:10051000F2FCB0FBF2F302FB1C00303078541846BA
:10052000491C0028F3D123462A463046BDE8F04155
:1005300000F08FB9000000002D0000002B0000002B
:10054000200000002DE9F05F894604464FF0000AC4
:10055000DFF874B1FB44C0F820A02046E16888476A
:10056000002874D0252806D0D4E901219047206ABC
:10057000401C2062F1E700265F462046E16888477C
:100580002028054607DB312D05D2781910F8200CFC
:1005900008B10643F1E7B00701D526F00406C4F818
:1005A0001CA00027C4F818A02A2D09D0284604F062
:1005B0009FFA38B304EB8708303DC8F8185019E0AB
:1005C00059F8041B204604EB87029161E1688847D3
:1005D000012F054618D1E069002820DA26F0200610
:1005E0001DE0D8F8180000EB800005EB4000303823
:1005F000C8F818002046E1688847054604F078FAF4
:100600000028EED1012F0AD02E2D08D12046E16816
:1006100088477F1C0546022F46F02006C4DBA069F0
:10062000002803DA404246F00106A061F00701D03D
:1006300026F010066C2D0BD0682D09D04C2D39D02A
:100640006A2D35D0742D35D07A2D33D016E038E0B0
:10065000E1682F4620468847B842054609D16C2FED
:1006600026D04FF48060E16806432046884705465F
:1006700004E06C2F1AD04FF4807006430DB3A5F13F
:100680004100192802D8203546F400664A4629461A
:10069000204626604E46FFF7CFFD80B101280BD0E3
:1006A000F61D26F0070000F1080956E74020E4E7B0
:1006B0008020D8E70020D6E706F104094DE7284658
:1006C00052E7206ABDE8F09F7E70000040EA010317
:1006D000024630B59B0710D14FF0013400E008C24C
:1006E00008C91D1B9D4315EAC41FF8D013F0FF0174
:1006F00002F8011B0DD01B0AF8E711F8013B002B93
:1007000002F8013B05D011F8013B002B02F8013B38
:10071000F3D130BD10B5431C02E010F8011B71B1DC
:100720008107FAD14FF0013202C88C1A8C4314EAC7
:10073000C211F9D0C01A0A0603D0C01E10BDC01ADB
:1007400010BD0A0401D0801E10BD0902FCD0401E5D
:1007500010BD00004FF0013C50F8042B51F8043B51
:100760009A4221D1A2EB0C03934313EACC1317D185
:1007700050F8042B51F8043B9A4215D1A2EB0C031C
:10078000934313EACC130BD150F8042B51F8043BDC
:100790009A4209D1A2EB0C03934313EACC13DBD0AA
:1007A0004FF00000704700BFD01A01BAB1FA81F1D2
:1007B00001F0180122FA01F0CB40C1F12001DBB2B7
:1007C000C0B2C01A2CFA01F3D11A914311EAC31135
:1007D000E6D17047704770477047704709684A050F
:1007E00001D540B27047C905FCD500B27047096811
:1007F0004A0501D5C0B27047C905FCD580B2704723
:1008000070B50C460546012A05D02878800600D52B
:10081000EA69002302E0012305E05B1C934202D257
:10082000E05C0028F9D1A869E618C01AA861286A16
:10083000184428622846FFF721FE04E0D5E901218B
:1008400014F8010B9047B442F8D32846FFF72CFE6A
:1008500070BD2DE9F0470D4699469246044600F1D9
:1008600024080168880604D5E06921F010012160A0
:1008700000E00120A84201DD471B00E00027A1693C
:100880007A1902EB0900081AA0612078C00602D488
:100890002046FFF7F3FD002608E0D4E901211AF80D
:1008A00006009047206A401C761C20624E45F4DB0F
:1008B0002078C0060AD52046FFF7E0FD06E0D4E91F
:1008C000012130209047206A401C2062381EA7F189
:1008D0000107F4DC07E0D4E9012118F8050090478E
:1008E000206A401C2062281EA5F10105F3DC204689
:1008F000FFF7DAFD2078000602D50220BDE8F08778
:100900000120FBE711680268006A530501D50870F1
:100910000AE0D30501D5088006E0130603D5C21707
:10092000C1E9000200E008600120704770472DE92E
:10093000FF4F0C461E464FF0FF378BB0D2E9000147
:10094000DDF860800A908A46C1F30A5505B93D4634
:10095000002108464FF00000BAF1000F00F44000FB
:1009600005DA00EB80004FF4400101EA50004FEA45
:100970009059B9F1010F00DDB9460A9850EA4A00D2
:100980000ED044F61050A5F2FF3545432F14B8F1B0
:10099000000F1ED07542291E1EDDC9F100021CE0A9
:1009A000B8F1010F4FF0000001D0302103E0F24315
:1009B00005E02154401CB042FBDB30460022002100
:1009C00021540B99C1F80880C1E900200FB0BDE89F
:1009D000F08FBD1B6D1CDEE74A4600DA694206A8AF
:1009E00000F036FD06AB93E8070003AB83E8070091
:1009F00050460A9900F0FDFD8DE80700A0F5005073
:100A00001F3800900398002D0ADD42F21F014A466C
:100A10000844002303A90390684601F066F809E042
:100A2000A0F500504A461F38002303A903906846EA
:100A300001F070F88DE807000004000C03D04FF0BF
:100A4000FF30410800E01046B8F1000F03D000224B
:100A5000009215461EE0751E05D400F047FC3032AA
:100A600062556D1EF9D5B3460122084302D000221B
:100A70007F1C04E02078302801D100227F1E002A4C
:100A8000099784D01DE0112D07DA00F02FFC3032D9
:100A900062556D1C50EA0102F5D1084302D000985E
:100AA000C8B10EE00021681E05E0235C625C63545F
:100AB0002254401E491C8142F7DBAB46A81B401E56
:100AC0000990002004F80B000B98099AC0F80880E0
:100AD000C0E9002B7AE711264FF0000857E72DE90F
:100AE000F04F88460446D21D22F0070191B0D1E9AB
:100AF0000001CDE90A0103F0E3FF02460B98C00FA5
:100B000001D02D2007E02068810701D52B2002E0CD
:100B1000202101EAC000032A099001D0072A05DB41
:100B200003464146204600F027FC0BE12078800672
:100B300001D5E06900E00620B8F1650F814606D0D6
:100B4000B8F1660F18D0B8F1670F70D131E000200E
:100B5000B9F1110F009001DB112301E009F101034C
:100B60000AAA01A90CA8FFF7E2FEDDE90C70002635
:100B700009F10105834647E001204B4600904FF004
:100B800000470AAA01A90CA8FFF7D1FEDDE90DB0C4
:100B90000C995D46002610B909F101000D18B9EB5A
:100BA000050003D4C0F1FF3609F10105A5EB0900EA
:100BB0002BE0B9F1010F01DA4FF001090020B9F182
:100BC000110F0090484601DD112300E003460AAAF8
:100BD00001A90CA8FFF7ABFEDDE90C704D4600261D
:100BE0008346207800070AD4AB4500DA5D4601A8A9
:100BF000012D04DD411911F8011C302907D04F45A2
:100C000002DA17F1040F04DA012082460FE06D1EAC
:100C1000EEE7002F02DCED1B3E4403E0781CA84207
:100C200000DD7D1CB81B00F1010A4FF00047207861
:100C3000000703D4AA4501DB4FF0FF3A0021B7F1CA
:100C4000004F0DF143088DF8431024D002202B23D0
:100C5000002F01DA7F422D230A21021EA0F101009C
:100C600000DC5FB197FBF1FC97FBF1F201FB1C7C10
:100C700017460CF1300C08F801CDEEE7A8F10100A1
:100C800003702188090501D5452100E06521A0F107
:100C9000010800F8011C09980FA9A1EB0807FF1D26
:100CA00000B10120411901EBEA70A1693844081A2A
:100CB000401EA0612078C00602D42046FFF7DEFB6C
:100CC000099828B1D4E901219047206A401C20628C
:100CD0002078C00622D52046FFF7D0FB1EE0002E6C
:100CE00004DBB34502DD01A8805D00E03020D4E9DB
:100CF00001219047206A401C2062761CAAF1010065
:100D00005FEA000A0AD100F0EDFAC0680168405CB1
:100D1000D4E901219047206A401C2062281EA5F1D9
:100D20000105DCDC07E0D4E9012118F8010B90474C
:100D3000206A401C2062381EA7F10107F3DC204620
:100D4000FFF7B2FB032011B041E600002DE9F04FA0
:100D500004460D46D21D22F0070089B0D0E9009765
:100D60004846394603F0ACFE0246F80F01D02D2369
:100D700007E02068810701D52B2302E0202101EA4A
:100D8000C0038DF820300BB1012000E00020032AC1
:100D9000824601D0072A04DB2946204600F0ECFAFF
:100DA0003FE12078800601D40D2500E0E569C7F316
:100DB0000A560D2D49DA00214FEA175B08464FF01D
:100DC0000000002F00F4400007DA00EB80004FF431
:100DD000400100EBD07001EA60008115012901DDBE
:100DE0004FF0FF3100224FEA850CBCF1180F06D3FB
:100DF0001346ACF118004FF08052C24003E04FF4AC
:100E0000801323FA0CF30CF10C0CBCF1200F04D36B
:100E1000ACF1200C09FA0CF001E007FA0CF0002903
:100E20004FF0004801DD18B90FE00ED140450CD35A
:100E300019EB02095F4121B9404502D19F4329EADC
:100E40000209BBEB175F00D0761C2088000502D595
:100E50007B48784402E07A487844193808AA30235D
:100E600002F80A30037C0AF10101002E0AF1020A9D
:100E700053546A4602DC4FF0300101E04FF031017B
:100E80004FF001088DF8001002D0A6F2FF3603E003
:100E900059EA470100D06B4E002D02DC217809078A
:100EA00004D54FF002082E218DF80110C446002110
:100EB0000BE0C7F303433F01C35C491C6D1E02F8FE
:100EC0000830052908F1010801DA002DF1DC0021C4
:100ED0000CE000EB1973491C1B786D1E082902F801
:100EE00008304FEA091908F1010801DA002DF0DC99
:100EF00021688B0602D516E0A8F10108E04505DD62
:100F000002EB080313F8013C302BF5D0B8F1000FC9
:100F100009DD02EB080313F8013C2E2B03D109076E
:100F200001D4A8F10108002D05DD3E2102F80810CA
:100F30006D1E08F10108407C002E02F8080008F13F
:100F4000010804DA2D20764202F8080002E02B2086
:100F500002F808000A214FF47A70864208F101086D
:100F60000BDB96FBF0F3303302F8083096FBF0F31E
:100F700008F1010800FB136601E0642E0CDB64201D
:100F800096FBF0F3303302F8083096FBF0F308F1EB
:100F9000010800FB136601E00A2E06DB96FBF1F068
:100FA000303002F8080008F1010896FBF1F001FB6F
:100FB0001060303002F80800A16908F1010808EB60
:100FC000050202EB0A00081AA0612078C00602D4CC
:100FD0002046FFF753FA216A08AE01EB0A002062AF
:100FE00004E0D4E9012116F8010B9047BAF1010A97
:100FF000F7D22078C00602D52046FFF73FFA6E46AA
:1010000009E016F8010B3E280FD0D4E901219047E2
:10101000206A401C2062B8F10108F2D22046FFF796
:1010200043FA09B00320BDE8F08F206A284420620B
:1010300003E0D4E90121302090476D1EEBD3F8E79F
:10104000A467000002FCFFFF01694A1C02610878E6
:10105000704700B58FB0CDE90131002105910549F8
:101060007944CDE9031011466846FFF76BFA0FB0DB
:1010700000BD0000E5FFFFFF0A6802F8010B0A60EF
:1010800070470000074B70B50D467B44FFF7E1FF4A
:101090000446284600F04EFA10B14FF0FF3070BD04
:1010A000204670BD9B4500002DE9FF5F15468A462E
:1010B0000446DFF8AC80F8440027D8E900103E462B
:1010C000CDE9001010E03AF816106A4602A800F0C8
:1010D00035FA411C07D02178890603D5E269391811
:1010E00091420DD80744761C2078800602D5E0692D
:1010F000B84205DDAE42E6DB3AF816000028E2D140
:10110000A069C01BA0612046FFF7B8F9D8E900101C
:10111000CDE90010002017E03AF818106A4602A83E
:1011200000F00CFAB0F1FF3F81460BD000250DF125
:10113000080B05E0D4E901211BF8050090476D1C60
:101140004D45F7D308F10100B0428046E4DB206A48
:10115000384420622046FFF7A7F9BDE8FF9F000052
:10116000566500002DE9F0418046D21D22F00702AD
:101170000025D2E90002F52915A614D0011E72F14E
:10118000000106DA0023D0EB030063EB020211A694
:1011900008E0D8F800108B0701D50FA602E0490738
:1011A00001D50EA601251146002408F1240704E00C
:1011B00000F09CF830323A55641C50EA0102F7D135
:1011C0002B46324621464046BDE8F041FFF741BB81
:1011D000000000002D0000002B0000002000000097
:1011E00030B4002100F1240408E002F00705D20821
:1011F000303542EA4372DB086554491C52EA030564
:10120000F3D10468002310A2250707D5A40600D453
:1012100021B1C46901230DA2641EC46130BCFFF773
:1012200018BB10B5044621461068FFF7E0FA0246E5
:101230002046BDE810400023D2E7D21D22F007016E
:10124000D1E90023CCE700000000000030000000DE
:10125000F0B40D460188090502D5214C7C4402E01A
:101260001F4C7C440E34002100F1240608E002F0FB
:101270000F071209E75D42EA03721B097754491C04
:1012800052EA0307F3D102780023120704D5702D28
:1012900006D009B1022311342246F0BCFFF7D9BAB7
:1012A00001231034F8E770B504460D462146106856
:1012B000FFF79DFA024629462046BDE8704000230C
:1012C000C6E7D21D22F00703D3E90023C0E7036875
:1012D000126843F0200303600823C3610023B7E7CB
:1012E000B8630000004870476C46002030B5B0F18C
:1012F0000A024FEA900E71F100034EEA817EB0EBD4
:101300000E0061EB91014FEA101E4EEA017E10EBD8
:101310000E0041EB11114FEA102E4EEA016E10EB58
:101320000E0041EB11214FEA104E4EEA014E10EB38
:101330000E0041EB1141401841F100014FEAD0008D
:1013400040EA41704FEAD10110EB80054FEA810479
:1013500044EA907444EB01046D1944EB0404521BFD
:10136000A3414FF0000348BF0A3200D530BD401CF6
:1013700041F1000130BD00002DE9F0411F46044657
:1013800003260168072A01F4006004DB08B116A5F2
:1013900005E016A503E008B115A500E015A521F0AC
:1013A00010002060A069C01EA0610FB1401EA061A6
:1013B0002046FFF763F84FB1D4E901213846904742
:1013C000206A401C2062C01C206206E0206AFAE706
:1013D000D4E9012115F8010B9047761EF8D220467A
:1013E000FFF762F8BDE8F0814E414E006E616E007D
:1013F000494E4600696E660010B5436913B1AFF3FC
:10140000008001E0FFF7FCF9012010BD127800F127
:1014100024010A7000224A700122EDE711684FF0A2
:10142000FF32E9E710B5436913B1AFF3008001E083
:10143000FFF73AFE012010BD128800F124018284DA
:101440000022C2840122EDE711684FF0FF32E9E784
:101450002DE9F047814616468AB0354878440DC8D4
:101460008DE80D0032487844801C03AC0DC884E838
:101470000D0041F69B300844372190FBF1F290FBC0
:10148000F1F5A5F1800501FB12041B3C02D5644275
:10149000012000E00020DFF898A080460027FA44F1
:1014A000AAF1BE0A0EE0E0070AD03246684607EB12
:1014B000470101230AEB810100F02CFB8DE80700B6
:1014C00064107F1C002CEED1194F7F44AE3F19E011
:1014D000E80715D007EB04100DF1180A90E80E008C
:1014E0008AE80E00C068F04201D19819089032468F
:1014F000012306A903A800F00DFB03AB83E8070056
:101500006D10641C002DE3D14FF001033246694693
:10151000B8F1000F03A802D000F0E7FA01E000F0F4
:10152000F9FAC9E90001C9F808200AB0BDE8F08756
:101530005C620000007B00F08000704770B51646CA
:101540000C46054600F044F8036893F801010128B1
:1015500006D0FF2C0FD8185D68B101202C7070BD2B
:10156000D3F807013246214603F207130344284605
:10157000BDE8704018474FF0FF3070BD004870471D
:101580004C4600207546FFF7F9FFAE460500694658
:10159000534620F00700854618B020B5FEF726FF19
:1015A000BDE820404FF000064FF000074FF0000864
:1015B0004FF0000B21F00701AC46ACE8C009ACE8E5
:1015C000C009ACE8C009ACE8C0098D46704700000E
:1015D00010B5FFF787FE001D10BD00BF11580000B9
:1015E00010B50446AFF300802046BDE81040FEF77A
:1015F00088BE5FEA400C08BF91F0000F4FEA8C23D1
:101600004FEAC12243EA51514FEA1C5018BF00F57E
:10161000F0404FEA300018BF41F000415FEA6C5CD7
:1016200000F02980BCF1FF3F08BF40F080407047C8
:10163000130C06BF12044FF0100C4FF0000C130EE9
:1016400004BF12020CF1080C130F04BF12010CF1BD
:10165000040C930F04BF92000CF1020CD30F04BFD3
:1016600052000CF1010C11464FF00002A0F11F00D6
:10167000A0EB0C00704711F0004F08BF704731F02D
:1016800000413FF4D5AF0B0C06BF09044FF0100C1E
:101690004FF0000C0B0E04BF09020CF1080C0B0FED
:1016A00004BF09010CF1040C8B0F04BF89000CF17D
:1016B000020CCB0F04BF49000CF1010CCCF120034C
:1016C000A0EB0C0022FA03F302FA0CF241EA030148
:1016D00000F10100704720F07F4C80EA030023F006
:1016E0007F47ACEB070303F57C5300F0004003F1A8
:1016F000FF032DE980494FEA154B09B44FEA144323
:1017000025EA0B4E24EA03480FF2042606EB1327C2
:1017100049083E785FEA320203FB0667C7F5000717
:1017200007FB06F64FEA54374FEAD64606F10206A3
:1017300007FB066CCCF1005C4FEA1C472CEA074C17
:1017400007FB06F40CFB06F504EB15464FEA96166C
:1017500034BF00204FF000404FEAD13706FB07FCB2
:101760004FEA1C4C0CFB0BF7D21B03FB0CF761EB95
:1017700007010CFB0EF7B0EB074072EB17420CFBB6
:1017800008F734BFA2EB0742B2EB074261EB174107
:101790004FEA0C444FEA910706FB07FC4FEA1C4C4A
:1017A0000CFB0BF7B0EBC74072EB573203FB0CF7A7
:1017B00034BFA2EBC742B2EBC74261EB57310CFB1F
:1017C0000EF7B0EBC70072EB57720CFB08F734BF93
:1017D000A2EBC702B2EBC70261EB5771039F4FEA5E
:1017E000816141EA921104EBCC044FEAD1374FEA10
:1017F000826206FB07FC42EA90124FEA80604FEAE1
:101800001C4C0CFB0BF7D21B03FB0CF761EB070125
:101810000CFB0EF7B0EB074072EB17420CFB08F71E
:1018200034BFA2EB0742B2EB074261EB17414FEA2C
:101830008C554FEA910704EB9C2406FB07FC4FEA0A
:101840001C4C0CFB0BF7B0EBC74072EB573203FBA1
:101850000CF734BFA2EBC742B2EBC74261EB573182
:101860000CFB0EF7B0EBC70072EB57720CFB08F7DE
:1018700034BFA2EBC702B2EBC70261EB577115EBA5
:101880004C254FEA816141EA92114FEA82624FEAA8
:10189000D13742EA901206FB07FC44F100044FEAFC
:1018A00080604FEA1C4C0CFB0BF7D21B03FB0CF7C0
:1018B00061EB07010CFB0EF7B0EB074072EB174230
:1018C0000CFB08F734BFA2EB0742B2EB074261EB17
:1018D000174115EB1C154FEA813141EA92414FEA5D
:1018E000823242EA90424FEA80304FEA0C7644F16D
:1018F000000448EA03434EEA0B484FF0000EB2EBF7
:10190000080C71EB030724BF624639464EEB0E0EFE
:101910004FF0000B0018524149414BEB0B0BB2EB5F
:10192000080C71EB03077BF1000B24BF62463946BC
:101930004EEB0E0E4FF0000B0018524149414BEB9D
:101940000B0BB2EB080C71EB03077BF1000B24BF10
:10195000624639464EEB0E0E51EA020718BF46F0BA
:10196000010616EB0E7655F1000254F1000103D585
:10197000BDE88901BDE80088BDE88901BDE80048EF
:10198000B619524141EB0101A3F101037047808078
:101990007F7E7D7C7B7A79787776767574737271C9
:1019A00071706F6E6E6D6C6C6B6A6A696868676681
:1019B00066656464636362616160605F5F5E5E5D13
:1019C0005D5C5C5B5B5A5A59595858575756565587
:1019D00055555454535352525251515050504F4FE9
:1019E0004F4E4E4D4D4D4C4C4C4B4B4B4A4A4A4939
:1019F000494948484847474747464646454545447C
:101A00004444444343434342424242414141002B08
:101A10009C4630D477002BD01CB54FEA370703B46F
:101A20004FF010004FF01001BAF1000F06D0BCF1DA
:101A3000000FDCBF40F0080040F008014FF000004C
:101A40000FBCBDE810400BF1010BBBF1010F08BF4B
:101A50005FEA170722BF12F1010211F101014FF0F5
:101A6000004143F1000300F0004043EA00007047EA
:101A7000F9D35708D0E746EA064613F1400F4FEA7C
:101A800016461FDD13F1200FDFBF16430A46002163
:101A900020335B42BED0C3F1200746EA064602FA75
:101AA00007F74FEA164646EA0706C3F1200722FA6F
:101AB00003F201FA07F721FA03F14FF0000342EABB
:101AC0000702A7E746EA020646EA06464FEA164636
:101AD00046EA0106BCBF46EA0646360C4FF0000354
:101AE0004FF000024FF0000194E72DE9804C9A4638
:101AF000934670B491E8380007C831EA400C48BFFB
:101B000034EA430C03D5FFF7E6FDFFF780FFF0BC96
:101B1000BDE8008C2DE9804C9A46934670B491E85C
:101B2000380007C810F0804F08BF13F0804F03D172
:101B300000F005F8FFF76BFFF0BCBDE8008C20F06B
:101B40007F4780EA030023F07F4C07EB0C03A3F5EB
:101B50007C5300F00040A3F1FE0392F0000F00F070
:101B6000B38095F0000F00F077802DE901494FEA2E
:101B700011404FEA144621EA004800FB06FC24EA23
:101B8000064708FB06F607FB08F800FB07F718EB0B
:101B900006484CEB164C4FEA124B18EB07484FEA3D
:101BA00015464CEB174022EA0B4E0BFB06FC25EAD0
:101BB00006470EFB06F607FB0EFE0BFB07F71EEBB8
:101BC000064E4CEB164C4FF000061EEB074E4CEB4E
:101BD000174B18EB0B0840F1000018EB0E0B58EBFD
:101BE000000840F100008F1A4FF000013CBFC943CC
:101BF000661B14BFB5EB040C00213CBFC943F61BA8
:101C00004FEA17444EEA8E0E27EA04454FEA1C4776
:101C100004FB07622CEA074C05FB07F70CFB05F6F3
:101C200004FB0CFC16EB074642EB174216EB0C4686
:101C300042EB1C421BEB060658EB0202414146EA0E
:101C40009E0601D5BDE80189B619524141EB01015B
:101C5000A3F10103BDE801894FEA14454FEA11479A
:101C600024EA054621EA074C05FB07F406FB07F7C3
:101C70000CFB06F105FB0CFC11EB074144EB174490
:101C80004FEA124711EB0C4144EB1C4422EA074C8B
:101C900005FB07F206FB07F70CFB06F605FB0CFC41
:101CA00016EB074642EB174216EB0C4642EB1C457F
:101CB0006A1854F1000148BF7047B619524141EB10
:101CC0000101A3F10103704795F0000F37D04FEAEF
:101CD00011424FEA144721EA024624EA074C02FB6C
:101CE00007F106FB07F70CFB06F402FB0CFC14EBF8
:101CF000074441EB17414FEA154714EB0C4441EB05
:101D00001C4125EA074C02FB07F506FB07F70CFB15
:101D100006F602FB0CFC16EB074645EB174516EBE7
:101D20000C4645EB1C42121951F1000148BF7047A7
:101D3000B619524141EB0101A3F1010370474FEA8B
:101D400014454FEA114724EA054621EA074C05FBF2
:101D500007F106FB07F70CFB06F24FF0000605FB48
:101D60000CFC12EB074241EB174112EB0C4251EB1A
:101D70001C4148BF7047921841EB0101A3F10103D8
:101D80007047000086B004F0EFFE05901F48622106
:101D90001F4A6323CDE90132CDE9031002201D4B18
:101DA0001D4A1E490090194801F03CFE1848632165
:101DB000164A6223CDE90132CDE903100220184B07
:101DC000184A19490090124801F02CFE104863216E
:101DD0000E4A6223CDE90132CDE90310022000232F
:101DE000124A19460090124801F01CFE00201149C9
:101DF00008710F48086008E00E4AFF210E4801F004
:101E000057FE0A2105A804F043FEF5E7C0060020AE
:101E1000D406002075570008B15700080557000880
:101E20009D550008D95500082D550008A5610008EA
:101E3000E8060020800200200000002000BFFEE72E
:101E400070B504460D462946204601F013FB70BDCF
:101E500030B585B06A4601214C4802F0F2FF9DF88A
:101E6000080018B94A490098086002E048490198FA
:101E7000086000257FE00DF10B00405D4549464AB2
:101E80001278885444480078401C434908704348FD
:101E90000078E8B1414800780978884263D100248D
:101EA00004E03C48005D3E490855641C3A4800780F
:101EB0008442F6D338480078394981F88000002000
:101EC000354908700D21314802F074FF05B030BD6E
:101ED00031480078401E2F49095C2F480078C01E09
:101EE000814226D12C480078801E2A49085C0A28A5
:101EF0001FD129480078C01E085C0D2819D1002484
:101F000004E02448005D26490855641C22480078F6
:101F1000C01EA042F5D820480078C01E204981F894
:101F2000800000201C4908700D21184802F042FF73
:101F3000CCE719480078401E1649095C164800781D
:101F4000C01E81420FD014480078801E1149085CE1
:101F50000A2808D110480078C01E085C0D2802D15C
:101F600000200D4908700C480078802802DB002012
:101F7000094908706D1C9DF80A00A8423FF67BAF26
:101F80000D21024802F016FF00BF9FE700640040E9
:101F90002C0400204E2D0020300400201D040020C1
:101FA0004B2B002070B504460D462946204601F013
:101FB00061FA70BD30B585B06A4600214C4802F028
:101FC00040FF9DF8080018B94A490098086002E0EF
:101FD00048490198086000257FE00DF10B00405D45
:101FE0004549464A1278885444480078401C434981
:101FF000087043480078E8B1414800780978884281
:1020000063D1002404E03C48005D3E490855641C4F
:102010003A4800788442F6D338480078394981F844
:1020200080000020354908700A21314802F0C2FEC4
:1020300005B030BD31480078401E2F49095C2F485B
:102040000078C01E814226D12C480078801E2A4983
:10205000085C0A281FD129480078C01E085C0D289A
:1020600019D1002404E02448005D26490855641C69
:1020700022480078C01EA042F5D820480078C01E33
:10208000204981F8800000201C4908700A21184866
:1020900002F090FECCE719480078401E1649095C12
:1020A00016480078C01E81420FD014480078801E68
:1020B0001149085C0A2808D110480078C01E085C45
:1020C0000D2802D100200D4908700C4800788028A6
:1020D00002DB0020094908706D1C9DF80A00A84227
:1020E0003FF67BAF0A21024802F064FE00BF9FE783
:1020F0000068004034040020CE2D00203804002069
:102100001E040020CC2B002030B585B06A4601218A
:10211000514802F096FE9DF8080018B94F49009802
:10212000086002E04D49019808604D48006860B1C0
:102130000DF10B0149480068494A126890470D218A
:10214000454802F037FE05B030BD00257AE00DF1BC
:102150000B00405D4349444A127888544248007855
:10216000401C4149087041480078E0B13F48007880
:10217000097888425ED1002404E03A48005D3C4979
:102180000855641C384800788442F6D336480078F5
:10219000374981F880000020334908700D212E480E
:1021A00002F008FECFE730480078401E2D49095C58
:1021B0002D480078C01E814222D12B480078801E15
:1021C0002849085C0A281BD127480078C01E085CF3
:1021D0000D2815D1002404E02248005D244908554B
:1021E000641C21480078C01EA042F5D81E48007823
:1021F000C01E1F4981F8800000201B490870A2E71B
:1022000019480078401E1749095C17480078C01E1D
:1022100081420FD014480078801E1249085C0A28B9
:1022200008D111480078C01E085C0D2802D100209A
:102230000D4908700C480078802802DB00200A490C
:1022400008706D1C9DF80A00A84280D80D21024834
:1022500002F0B0FD00BF76E7006800403C040020BB
:10226000440400204E2E0020400400201F040020C3
:102270004D2C00202DE9F04F8BB004460F469046C0
:102280009946DDE91AB6DDE918A501216F4803F08A
:1022900061F801216D48401C03F05CF8012C13D15A
:1022A0000120182100231A46CDE900100B214120FE
:1022B00000F032FE0120042100230822CDE90010A5
:1022C0000C21412000F028FE022C13D101201821FE
:1022D00000231A46CDE900100C21422000F01CFE1C
:1022E0000120042100230822CDE900100D21422005
:1022F00000F012FE03F0CCF88DF8247000208DF869
:10230000250001208DF826008DF8270000208DF88B
:1023100028008DF829008DF82A00012C03D109A985
:102320004B4802F0EEFB022C03D109A9494802F008
:10233000E8FB1598ADF81C008DF81E808DF81F90F5
:1023400014988DF82000012C03D107A9404802F011
:1023500036FC022C03D107A93E4802F030FC169847
:102360008DF80F0000208DF80D0017988DF81000E3
:10237000BAF1000F08D14FF6FF7000EA4510ADF832
:1023800012000020ADF81400BAF1010F0CD14FF685
:10239000FF7000EA1540ADF812004FF6FF7000EA3A
:1023A000C500001DADF814004FF6FF7000EA1B4099
:1023B000ADF816001FFA8BF0ADF818008DF80E601E
:1023C00001208DF80C00012C03D103A9204802F054
:1023D0003FFC022C03D103A91E4802F039FCBEB910
:1023E000012C09D101220221194802F021FD01220C
:1023F0001146142000F05DFE022C09D101220221B9
:10240000144802F015FD01221146452000F051FE4E
:10241000012E17D1012C09D1012210210C4802F004
:1024200007FD01221146152000F043FE022C09D1C0
:1024300001221021074802F0FBFC01221146462030
:1024400000F037FE0BB0BDE8F08F000019001C0053
:1024500000640040006800402DE9F04F87B08246DC
:102460008946934698460027B9F1000F01D1CDF86F
:1024700004B0B9F1010F01D1CDF808B009F0FF00A7
:102480008DF80C0000208DF80D00109820B9404602
:10249000FEF740F9064600E0109EBAF1010F4ED15A
:1024A000119800284CD0F61C002544E0002427E0B9
:1024B000F01EB84207D904EBC50018F800100DF162
:1024C0000F00015517E0F01EB84204D10D210DF1A7
:1024D0000F0001550FE0B01EB84204D10A210DF1E2
:1024E0000F00015507E0701EB84204D1F01EC1B2C2
:1024F0000DF10F0001557F1CB74200D102E0641CB2
:10250000082CD5D300BFA7EBC500C0B28DF80E00D4
:1025100001A9674802F00DFD0690002400E0641C4C
:102520006348069902F0AEFD012803D040F6FF7023
:102530008442F4D36D1C701EB5EBD00FB6D930E0D9
:1025400000252AE000240DE0B74206D204EBC500C6
:1025500018F800100DF10F0001557F1CB74200D193
:1025600002E0641C082CEFD300BFA7EBC500C0B28B
:102570008DF80E0001A94E4802F0DBFC0690002405
:1025800000E0641C4A48069902F07CFD012803D053
:1025900040F6FF708442F4D36D1C701EB5EBD00F73
:1025A000D0D9BAF1020F4ED1119800284CD0F61CA8
:1025B000002544E0002427E0F01EB84207D904EBD0
:1025C000C50018F800100DF10F00015517E0F01EBE
:1025D000B84204D10D210DF10F0001550FE0B01EDE
:1025E000B84204D10A210DF10F00015507E0701E19
:1025F000B84204D1F01EC1B20DF10F0001557F1C8D
:10260000B74200D102E0641C082CD5D300BFA7EB71
:10261000C500C0B28DF80E0001A9264802F089FC61
:102620000690002400E0641C2248069902F02AFD6E
:10263000012803D040F6FF708442F4D36D1C701E55
:10264000B5EBD00FB6D930E000252AE000240DE02C
:10265000B74206D204EBC50018F800100DF10F00C8
:1026600001557F1CB74200D102E0641C082CEFD357
:1026700000BFA7EBC500C0B28DF80E0001A90D4840
:1026800002F057FC0690002400E0641C09480699FB
:1026900002F0F8FC012803D040F6FF708442F4D326
:1026A0006D1C701EB5EBD00FD0D907B0BDE8F08F10
:1026B000006400400068004000BF02E0322004F0E7
:1026C0003FF8FBE710B5022002F01AFF08B3022022
:1026D00002F006FF00210F4802F0F8FE01200E492B
:1026E000087000200D49088004E00C480088401C58
:1026F0000A490880094800885F2803DA084800680A
:102700000028F2D10648006818B100200449096881
:10271000086010BD080002408004002088040020EA
:102720005C3D002010B5202002F0EAFE08B3202016
:1027300002F0D6FE00210F4802F0C8FE01200E492B
:10274000087000200D49088004E00C480088401CF7
:102750000A490880094800885F2803DA0848406869
:102760000028F2D10648406818B1002004494968A1
:10277000086010BD1C000240810400208804002075
:102780005C3D002010B54FF4007002F0B9FE10B3AC
:102790004FF4007002F0A4FE00210F4802F096FEF4
:1027A00001200E49087000200D49088004E00C4803
:1027B0000088401C0A490880094800885F2803DA1D
:1027C000084880680028F2D10648806818B10020C7
:1027D00004498968086010BD30000240820400206E
:1027E000880400205C3D002010B54FF4005002F03A
:1027F00087FE10B34FF4005002F072FE00210F4824
:1028000002F064FE01200E49087000200D49088086
:1028100004E00C480088401C0A49088009480088E8
:102820005F2803DA0848C0680028F2D10648C0686B
:1028300018B100200449C968086010BD4400024076
:1028400083040020880400205C3D002010B54FF474
:10285000003002F055FE10B34FF4003002F040FE9D
:1028600000210F4802F032FE01200E4908700020BE
:102870000D49088004E00C480088401C0A49088083
:10288000094800885F2803DA084800690028F2D167
:102890000648006918B1002004490969086010BDA4
:1028A0005800024084040020880400205C3D002081
:1028B00010B54FF4001002F023FE10B34FF40010D7
:1028C00002F00EFE00210F4802F000FE01200E492A
:1028D000087000200D49088004E00C480088401C66
:1028E0000A490880094800885F2803DA08484069D7
:1028F0000028F2D10648406918B10020044949690E
:10290000086010BD6C00024085040020880400208F
:102910005C3D002010B54FF0007002F0F1FD10B3E7
:102920004FF0007002F0DCFD00210F4802F0CEFDF8
:1029300001200E49087000200D49088004E00C4871
:102940000088401C0A490880094800885F2803DA8B
:10295000084880690028F2D10648806918B1002033
:1029600004498969086010BD800002408604002087
:10297000880400205C3D00202DE9F0418AB0044627
:102980000E46174698462AA103C9CDE908014FF41F
:10299000E13003F0E3FC2848066028480770284827
:1029A0000470012C12D1002004900590069007902D
:1029B000012000210F22CDE9000204230246CDE9C7
:1029C0000210FFF757FC1F481F490860022C14D162
:1029D0000120002104910591CDE906100D210F225F
:1029E000CDE9000204230246CDE9021000210220B5
:1029F000FFF740FC134815490860002510E000204F
:102A00000821CDE9001005EB850056F8300000EBF9
:102A1000080208AB00212046FFF71EFD681CC5B266
:102A2000BD42ECDB0A48A0F800800AB0BDE8F081A6
:102A3000FFFFFFFFFFFFFFFC94040020980400202D
:102A400099040020552A000828040020440400208E
:102A50009A04002070B506460D4600240AE004EBF7
:102A600084008F49096851F83000B04200D105E078
:102A7000601CC4B28B4800788442F0DB00BF8948F8
:102A80000078844200D170BDA9786A7841EA0220BA
:102A90001021F2EE090ABAEE090A03F0B7FC04EBC2
:102AA00084007F49096801EBC00080ED010AE978E4
:102AB00009012A7941EA22100C21DFED7B0A9FED02
:102AC0007B0A03F0A3FC04EB84007549096801EB61
:102AD000C00080ED020A69792A7902F00F0241EA0A
:102AE00002200C21F3EE020ABBEE020A03F08EFC78
:102AF00004EB84006A49096801EBC00080ED030A19
:102B0000A97904EB8400664A126802EBC0000174E4
:102B1000E97904EB8400624A126802EBC000417458
:102B200004EB84005E49096801EBC00090ED060AE1
:102B300004EB84005A49096801EBC000D0ED010A9A
:102B400030EE600AF1EE080AB4EEE00AF1EE10FA97
:102B50000EDD04EB84005249096801EBC0004069B6
:102B6000401C04EB84014E4A126802EBC10148612B
:102B700004EB84004A49096801EBC00090ED060AA5
:102B800004EB84004649096801EBC000D0ED010A5E
:102B900030EE600AF9EE080AB4EEE00AF1EE10FA3F
:102BA0000ED204EB84003E49096801EBC000406985
:102BB000401E04EB84013A4A126802EBC1014861ED
:102BC00004EB8400364A126802EBC000406900EB57
:102BD000C00202EB001000EE100AB8EEC00A04EBCF
:102BE00084002F4A126802EBC000D0ED010A30EEDB
:102BF000200A10EE101A084604F052FC04EB84027E
:102C0000274B1B6803EBC202C2E9080104EB8400F6
:102C10002349096801EBC00090ED010A04EB840030
:102C20001F49096801EBC00080ED060A28780821D9
:102C3000B1EB001F02D11EA0FDF7FEFB2878092191
:102C4000B1EB001F02D11DA0FDF7F6FB28780A2189
:102C5000B1EB001F02D11CA0FDF7EEFB28780B2181
:102C6000B1EB001F02D11BA0FDF7E6FB28780C2179
:102C7000B1EB001F02D11AA0FDF7DEFB28780D2171
:102C8000B1EB001F02D11AA0FDF7D6FB28780E2168
:102C9000B1EB001F02D119A0FDF7CEFB00BFF2E699
:102CA000940400209804002000003442000034C244
:102CB000B5E7BBFAB9FDD1B90A000000B5E7BBFA28
:102CC000C7B7D1B90A000000B5E7BBFAB9FDC1F733
:102CD0000A0000004D4F53B9FDCEC20A00000000AB
:102CE000B5E7BBFACFDFC8A6B9FDCEC20A00000027
:102CF000CDA8D1B6B6AACAA70A000000B5E7BBFAAC
:102D0000B9FDD4D80A000000704700001CB5054684
:102D10000E4603F067FC002462E004EB840000EB45
:102D2000C40005EB8000C06860B90F2094FBF0F18F
:102D300000FB1140401C04EB840101EBC40105EBD6
:102D40008101C86004EB840000EBC40005EB800047
:102D5000008938B9802004EB840101EBC40105EB44
:102D60008101088104EB840000EBC40005EB8000C6
:102D7000007C58B904EB840101EBC40105EB81012F
:102D800001F1100022461AA1FDF762FB04EB84005A
:102D900000EBC40005EB8000406804EB840101EB0C
:102DA000C40105EB8101C968CDE9001004EB840181
:102DB00001EBC40105EB81010B6B04EB840101EB1A
:102DC000C40105EB81010A8904EB840101EBC40114
:102DD00055F8210005F1100103F02AFE601CC4B271
:102DE000B4429ADB03F0DAFC03F026FC00BFFEE7F6
:102DF0007461736B256400007CB505460E4614466D
:102E0000092C5ED2DFE804F05D05101B26313C473B
:102E100052000120182100231022CDE90010314674
:102E2000284600F079F84CE00120182104231022F4
:102E3000CDE900103146284600F06EF841E001204F
:102E4000182100230822CDE900103146284600F061
:102E500063F836E0012004210B460822CDE900107A
:102E60003146284600F058F82BE0012018210023B5
:102E70001A46CDE900103146284600F04DF820E012
:102E80000120282100231A46CDE9001031462846AA
:102E900000F042F815E00120042100231A46CDE994
:102EA00000103146284600F037F80AE001200421DE
:102EB00000230322CDE900103146284600F02CF80B
:102EC00000BF00BF7CBD00000146082913D2DFE827
:102ED00001F0120406080A0C0E1008487047084852
:102EE000FCE70848FAE70848F8E70848F6E7084822
:102EF000F4E70848F2E70148F0E70000FD40000869
:102F0000054200080D430008D13D0008D93E0008E5
:102F100015440008E13F00082DE9FC4705460C4632
:102F200016461F46DDE90A89412D03D10121494892
:102F300002F010FA422D04D101214648401C02F053
:102F400009FA432D04D101214248801C02F002FA03
:102F5000442D04D101213F48C01C02F0FBF9452D4E
:102F600004D101213B48001D02F0F4F90CB9012005
:102F70000090012C01D102200090022C01D10420EC
:102F80000090032C01D108200090042C01D11020C6
:102F90000090052C01D120200090062C01D140206A
:102FA0000090072C01D180200090082C01D16001F5
:102FB0000090092C02D14FF4007000900A2C02D12D
:102FC0004FF4806000900B2C02D14FF40060009011
:102FD0000C2C02D14FF4805000900D2C02D14FF4F4
:102FE000005000900E2C02D14FF4804000900F2C26
:102FF00002D14FF400400090F0B28DF80600F8B214
:103000008DF8040008F0FF008DF8050001208DF810
:103010000700412D03D169460F4802F01EFB422DE7
:1030200003D169460D4802F018FB432D03D16946D0
:103030000B4802F012FB442D03D16946094802F007
:103040000CFB452D03D16946074802F006FBBDE89D
:10305000FC8700000200180000080140000C01403D
:103060000010014000140140001801401FB517E096
:1030700005226946072001F0DDF99DF800005B2874
:1030800007D19DF803005D2803D19DF80100054993
:1030900008709DF80100034908700A2003F050FBF6
:1030A000E6E700000000002000BFFEE700BFFEE7EB
:1030B000704770B504460D4616463246294660B242
:1030C00002F09AFC70BD000070B52DED0A8B04462D
:1030D000B0EE40AAF0EE60AAB0EE41BAF0EE61BAEE
:1030E000B0EE428AF0EE628AB0EE439AF0EE639A56
:1030F0009FED6A0A10EE105A51EC1A0B03F098FE7D
:10310000E06051EC1B0B03F093FE206194ED030A89
:10311000D4ED040A30EE600A84ED050A94ED050A48
:1031200084ED070A94ED050AD4ED060A30EE600A34
:1031300084ED090A94ED050A84ED060A94ED000A6F
:10314000D4ED070A20EE200AD4ED010A94ED081A06
:1031500000EE810A10EE101A084604F0A1F941ECC5
:103160001C0B53EC182B04F06FF806D294ED050AF3
:10317000B5EEC00AF1EE10FA4ED394ED000AD4ED8C
:10318000070A20EE200AD4ED010A94ED081A00EE99
:10319000810A10EE101A084604F082F941EC1C0B6B
:1031A00053EC192B03F0C0FF06D294ED050AB5EEDF
:1031B000C00AF1EE10FA2FDC94ED000AD4ED070AF4
:1031C00020EE200AD4ED010A94ED081A00EE810ADF
:1031D00010EE101A084604F063F941EC1C0B53EC96
:1031E000182B03F0A1FF1FD294ED000AD4ED070ABB
:1031F00020EE200AD4ED010A94ED081A00EE810AAF
:1032000010EE101A084604F04BF941EC1C0B53EC7D
:10321000192B04F019F807D294ED080AD4ED050A29
:1032200030EE200A84ED080A94ED000AD4ED070A76
:1032300020EE200AD4ED010A94ED081A00EE810A6E
:10324000D4ED020A94ED091A00EE810A10EE105A2C
:10325000284604F025F941EC1C0B53EC182B03F025
:10326000F3FF04D251EC180B03F0E2FD05462846AB
:1032700004F016F941EC1C0B53EC192B03F054FF2E
:1032800004D251EC190B03F0D3FD0546284604F097
:1032900007F941EC100BBDEC0A8B70BD000000007B
:1032A00073B52DED0C0B2DED108B82B005460C4641
:1032B000B0EE428AF0EE628AB0EE439AF0EE639A84
:1032C000B0EE44BAF0EE64BAB0EE45AA51EC180B79
:1032D00003F0A2FD41EC1D0BB0EE4D3AF0EE6D3A5D
:1032E000B0EE482AF0EE682A9DED141B9DED120BFE
:1032F0002846FFF7E9FEB0EE40CAF0EE60CA53EC94
:10330000182B51EC1C0B03F079FE1CD11AEE100A9D
:1033100004F0C6F841EC1E0B53EC192B03F0BAFD78
:1033200041EC1D0B53EC182B03F0FEFE0BD21AEEF2
:10333000100A04F0B5F841EC1D0B53EC192B03F007
:10334000A9FD41EC1C0B51EC180B03F065FD41ECA1
:103350001D0B53EC1C2B03F051FE22D151EC180B2A
:1033600003F05AFD41EC1D0B1AEE100A04F098F818
:1033700041EC1F0B53EC192B03F09CFF41EC1E0B8F
:1033800053EC1D2B03F060FF0BD21AEE100A04F071
:1033900087F841EC1D0B53EC192B03F08BFF41EC2C
:1033A0001C0B51EC1B0B03F037FD41EC1D0BB0EE79
:1033B0004D3AF0EE6D3AB0EE4B2AF0EE6B2AB0EEDD
:1033C000491AF0EE691AB0EE4C0AF0EE6C0A20468B
:1033D000FFF77AFE8DED000B9DED000B02B0BDEC0A
:1033E000108B0EB070BD000070B588B004460D465D
:1033F0001646012C13D100200490059006900790EA
:10340000012000210F22CDE9000204230246CDE96C
:1034100002102046FEF72EFF104811490860022CCA
:1034200014D10120002104910591CDE906100D2150
:103430000F22CDE9000204230246CDE9021000214B
:103440002046FEF717FF0548064908600648056054
:10345000064806700648047008B070BD7534000850
:1034600028040020440400208C0400209004002044
:103470009104002030B502460020B3E0C0EBC00349
:103480005C4C246854F8233093427DD14B780C78FF
:1034900043EA04231BB2C0EBC004564D2D6805EB74
:1034A0008404A380CB788C7843EA04231BB2C0EB5E
:1034B000C004504D2D6805EB8404E3804B790C79F2
:1034C00043EA04231BB2C0EBC0044A4D2D6805EB50
:1034D00084042381C0EBC003464C246804EB8303BF
:1034E000B3F91030C0EBC004424D2D6805EB8404E5
:1034F000B4F904401B1BB3F5805F0EDBC0EBC003C7
:103500003C4C246804EB83035B695B1CC0EBC00488
:10351000384D2D6805EB84046361C0EBC003354C66
:10352000246804EB8303B3F91030C0EBC004314DC1
:103530002D6805EB8404B4F904401B1B13F5805F70
:103540000EDCC0EBC0032B4C246804EB83035B69E7
:103550005B1EC0EBC004274D2D6805EB840463613E
:10356000C0EBC003234C246804EB8303B3F904408D
:10357000C0EBC0031F4D2D6805EB83035B6904EBB3
:103580004333C0EBC00400E02AE01A4D2D6805EB80
:103590008404A361C0EBC003164C246804EB8303CE
:1035A0009B88C0EBC004134D2D6805EB8404238277
:1035B000082814DC104B1B5C8BB901230E4C2354E0
:1035C000C0EBC0030B4C246804EB8303B3F9043055
:1035D000C0EBC004074D2D6805EB8404E36030BDEB
:1035E000431CD8B2054B1B789842FFF647AF00BF8B
:1035F000F5E700008C040020783D002090040020B6
:103600002DE9FF4706460F4614461D46DDE90C89A5
:10361000200A8DF80800E0B28DF80900280A8DF81C
:103620000A00E8B28DF80B004FEA18208DF80C0064
:1036300008F0FF008DF80D004FEA19208DF80E00FC
:1036400009F0FF008DF80F000020082102AB324680
:10365000CDE9001001463846FEF7FEFEBDE8FF87C3
:103660002DE9F0412DED0C8B82B004460025A846D3
:1036700000270026A06903F02CFD41EC190B6168BE
:10368000B1F9000003F025FD41EC1A0B606903F06D
:1036900020FD41EC1B0B2168086803F01AFD41EC8A
:1036A0001C0BD4E903211268881803F012FD41ECC9
:1036B0001D0B9FED7B5AB0EE494AF0EE694AB0EE21
:1036C0004A3AF0EE6A3AB0EE4B2AF0EE6B2A7549B0
:1036D000B0EE4C1AF0EE6C1AB0EE4D0AF0EE6D0A38
:1036E0007148FFF7DDFDB0EE408AF0EE608A51ECE4
:1036F000180B03F0BFFC0546606B03F0EAFC41ECDD
:10370000190B216AB1F9000003F0E3FC41EC1A0B3C
:10371000206B03F0DEFC41EC1B0BE169086803F051
:10372000D8FC41EC1C0BD4E90A120968501803F0CC
:10373000D0FC41EC1D0B9FED5A5AB0EE494AF0EE19
:10374000694AB0EE4A3AF0EE6A3AB0EE4B2AF0EE31
:103750006B2A5649B0EE4C1AF0EE6C1AB0EE4D0AD8
:10376000F0EE6D0A5248FFF79BFDB0EE408AF0EE96
:10377000608A51EC180B03F07DFC8046206D03F04D
:10378000A8FC41EC190BE16BB1F9000003F0A1FCBE
:1037900041EC1A0BE06C03F09CFC41EC1B0BA16BA1
:1037A000086803F096FC41EC1C0BD4E9111209687F
:1037B000501803F08EFC41EC1D0B9FED395AB0EE12
:1037C000494AF0EE694AB0EE4A3AF0EE6A3AB0EE93
:1037D0004B2AF0EE6B2A3749B0EE4C1AF0EE6C1A19
:1037E000B0EE4D0AF0EE6D0A3348FFF759FDB0EE2A
:1037F000408AF0EE608A51EC180B03F03BFC074660
:10380000E06E03F066FC41EC190BA16DB1F900000C
:1038100003F05FFC41EC1A0BA06E03F05AFC41EC84
:103820001B0B616D086803F054FC41EC1C0BD4E9E0
:1038300018120968501803F04CFC41EC1D0B9FED69
:10384000185AB0EE494AF0EE694AB0EE4A3AF0EE44
:103850006A3AB0EE4B2AF0EE6B2A1849B0EE4C1AD9
:10386000F0EE6C1AB0EE4D0AF0EE6D0A1448FFF758
:1038700017FDB0EE408AF0EE608A51EC180B03F0B1
:10388000F9FB064643462A4602210802CDE90076A6
:10389000FFF7B6FE02B0BDEC0C8BBDE8F081000076
:1038A00000401C46B0040020D80400200005002081
:1038B000280500205005002078050020A0050020E4
:1038C000C80500202DE9F0412DED068B82B004469D
:1038D000002500260027A846616FB1F9000003F01B
:1038E000F8FB41EC190B8421085903F0F2FB41EC81
:1038F0001A0B4FF47A71B0EE491AF0EE691AB0EE75
:103900004A0AF0EE6A0A434802F000F9B0EE408A33
:10391000F0EE608A51EC180B03F0ACFB05469021E9
:103920000959B1F9000003F0D4FB41EC190BA021B7
:10393000085903F0CEFB41EC1A0B4FF47A71B0EE4C
:10394000491AF0EE691AB0EE4A0AF0EE6A0A3248F5
:1039500002F0DCF8B0EE408AF0EE608A51EC180B11
:1039600003F088FB0646AC210959B1F9000003F0C9
:10397000B0FB41EC190BBC21085903F0AAFB41EC48
:103980001A0B4FF47A71B0EE491AF0EE691AB0EEE4
:103990004A0AF0EE6A0A214802F0B8F8B0EE408A0E
:1039A000F0EE608A51EC180B03F064FB0746C82167
:1039B0000959B1F9000003F08CFB41EC190BD82137
:1039C000085903F086FB41EC1A0B4FF47A71B0EE04
:1039D000491AF0EE691AB0EE4A0AF0EE6A0A104887
:1039E00002F094F8B0EE408AF0EE608A51EC180BC9
:1039F00003F040FB804633462A46012140F2FF1087
:103A0000CDE90078FFF7FCFD02B0BDEC068BBDE808
:103A1000F0810000F005002018060020400600207C
:103A200068060020F8B504460D461F480088C0F51A
:103A300080709DF81860B04201DA0020F8BD256062
:103A40006260A3609DF8180020741848164E3688EE
:103A500000EBC600E0600120607407A80090002120
:103A60001AE0009830F8046B0090B0B20F4E0E4F81
:103A70003F8826F83700009800680B4F3F8806EB18
:103A8000C70670600098001D009007480088401C21
:103A9000054E3080481CC1B29DF818008142E0DB21
:103AA000002000900120C9E79C040020843D0020F4
:103AB0002DE9F04180460E461446207938B9206839
:103AC000006810B1216808688047012020712068D3
:103AD000406810B121684868804700254EE02068A2
:103AE000C06830F83500304098F800103140884206
:103AF00007D02068C06830F835004FF6FF71884263
:103B00003AD12068C06800EBC500406898B32068CF
:103B1000C06800EBC5004068407C60B32068C068A6
:103B200030F835004FF6FF71884215D100270CE0C0
:103B30002068C06830F83700304098F800103140F5
:103B4000884200D103E0781CC7B2AF42F0DB00BF6F
:103B5000BD4201D0BDE8F0812068806810B12168C5
:103B6000886880472068C06800EBC5004068206016
:103B700000202071EEE7FFE7681CC5B22068007CDA
:103B8000A842ACDC00BFE5E710B500BF102080F311
:103B90001188BFF34F8FBFF36F8F00BF02F0EAFFB2
:103BA00018B14FF080500449086000BF002080F336
:103BB000118800BF10BD000004ED00E01848006847
:103BC00040F47000164908601648006820F00100B3
:103BD000401C1449086000BF12480068C0F3400050
:103BE0000028F9D00F48406820F003000D494860D4
:103BF00000BF0C484068C0F381000028F9D1094893
:103C000000680949084007490860002048600863C7
:103C10004FF41F008860C80301498039086070476D
:103C200088ED00E000100240FFFFF2FE86B049E0A0
:103C30002548406D00682449496E234A926B1268FA
:103C4000214B9B6CCDE90232CDE904101E48C069BE
:103C500000681D49C96ACDE900101B480068036867
:103C600019481AA10269072000F07AFD1648D0F819
:103C7000C800B0F900001449D1F8D810124AD2F89F
:103C8000AC20B2F90020104BD3F8BC30CDE90232A1
:103C9000CDE904100C48D0F89000B0F900000A49B2
:103CA000D1F8A010CDE900100748406FB0F90030FE
:103CB000054806A1D0F88420072000F051FD3220ED
:103CC00002F03EFDB4E700008801002025642C25A9
:103CD000642C25642C25642C25642C25642C2564F7
:103CE0002C25640D0A00000010B510212F4802F0A9
:103CF000BDFB002836D001202D49087000202D4939
:103D000008702D480068002822DB2B4800682B49EA
:103D1000096808442849086008460068FF2804DD4F
:103D200008460068A0F580700860254801F0D3FBC4
:103D3000C0F5807020490968401A2049086008468B
:103D40000068002804DC0846006800F58070086000
:103D50001C48006810B11B480068804710211348B8
:103D600002F07BFB2021114802F080FBE0B10F48FC
:103D700002F066FBC4B21448006840B12046124904
:103D8000096888472021094802F067FB10BD0F48E9
:103D900008490978445407480078401C05490870D0
:103DA0002021024802F059FB00BFEFE7004C004021
:103DB000D2030020EC0300205404002070040020F3
:103DC00044040240F0030020F4030020C628002031
:103DD00010B504462146054802F036FB00BF80219D
:103DE000024802F043FB0028F9D010BD004C00400F
:103DF00010B510212F4802F039FB002836D00120E1
:103E00002D49087000202D4908702D4800680028B1
:103E100022DB2B4800682B490968084428490860C0
:103E200008460068FF2804DD08460068A0F5807099
:103E30000860254801F04FFBC0F5807020490968F3
:103E4000401A2049086008460068002804DC08463B
:103E5000006800F5807008601C48006810B11B48BD
:103E6000006880471021134802F0F7FA202111481A
:103E700002F0FCFAE0B10F4802F0E2FAC4B21448D2
:103E8000006840B120461249096888472021094846
:103E900002F0E3FA10BD0F48084909784454074876
:103EA0000078401C054908702021024802F0D5FA2C
:103EB00000BFEFE700500040D3030020F8030020CC
:103EC000580400207404002058040240FC03002021
:103ED000000400204729002010B50446214605486B
:103EE00002F0B2FA00BF8021024802F0BFFA0028B7
:103EF000F9D010BD0050004010B510212F4802F03D
:103F0000B5FA002836D001202D49087000202D492F
:103F100008702D480068002822DB2B4800682B49D8
:103F2000096808442849086008460068FF2804DD3D
:103F300008460068A0F580700860254801F0CBFABB
:103F4000C0F5807020490968401A20490860084679
:103F50000068002804DC0846006800F580700860EE
:103F60001C48006810B11B480068804710211348A6
:103F700002F073FA2021114802F078FAE0B10F48FC
:103F800002F05EFAC4B21448006840B120461249FB
:103F9000096888472021094802F05FFA10BD0F48E0
:103FA00008490978445407480078401C05490870BE
:103FB0002021024802F051FA00BFEFE700640140FF
:103FC000D503002010040020600400207C040020A1
:103FD000800402401404002018040020492A002014
:103FE00010B504462146054802F02EFA00BF802194
:103FF000024802F03BFA0028F9D010BD00640140ED
:1040000010B51021364802F031FA68B30120354965
:10401000087035480068002822DB334800683349BF
:10402000096808443049086008460068FF2804DD34
:1040300008460068A0F5807008602D4801F04BFA32
:10404000C0F5807028490968401A28490860084668
:104050000068002804DC0846006800F580700860ED
:1040600010211F4802F0F9F920211D4802F0FEF945
:1040700010B31B4802F0E4F9C4B21E48008800F4F3
:104080000040C8B91B48008800F4804060B10A2C89
:1040900003D000201749088020E01648008840F42B
:1040A00000401449088019E00D2C06D11148008801
:1040B00040F480400F49088010E00E480088C0F3AB
:1040C0000D000D490C540B480088401C094908801C
:1040D00008460088C72801DD0020088010BD0000C8
:1040E00000380140A6040020480400206404002099
:1040F00008040240A40400208445002010B50446B2
:104100002146054802F0A0F900BF8021024802F0D4
:10411000ADF90028F9D010BD0038014010B51021CC
:104120002F4802F0A3F9002836D001202D4908704D
:1041300000202D4908702D480068002822DB2B48FC
:1041400000682B4909680844284908600846006847
:10415000FF2804DD08460068A0F580700860254847
:1041600001F0B9F9C0F5807020490968401A20496A
:10417000086008460068002804DC0846006800F56E
:10418000807008601C48006810B11B4800688047B8
:104190001021134802F061F92021114802F066F95C
:1041A000E0B10F4802F04CF9C4B21448006840B1C5
:1041B00020461249096888472021094802F04DF934
:1041C00010BD0F4808490978445407480078401C3E
:1041D000054908702021024802F03FF900BFEFE7CF
:1041E00000440040D0030020D60300204C040020EF
:1041F000680400201C040240D8030020DC030020D7
:10420000C427002010B504462146054802F01CF9D9
:1042100000BF8021024802F029F90028F9D010BD22
:104220000044004010B510212F4802F01FF900286B
:1042300036D001202D49087000202D4908702D48E6
:104240000068002822DB2B4800682B4909680844D5
:104250002849086008460068FF2804DD0846006811
:10426000A0F580700860254801F035F9C0F5807030
:1042700020490968401A204908600846006800285B
:1042800004DC0846006800F5807008601C4800687F
:1042900010B11B48006880471021134802F0DDF878
:1042A0002021114802F0E2F8E0B10F4802F0C8F80E
:1042B000C4B21448006840B12046124909688847D2
:1042C0002021094802F0C9F810BD0F4808490978B3
:1042D000445407480078401C0549087020210248D2
:1042E00002F0BBF800BFEFE700480040D103002018
:1042F000E0030020500400206C0400203004024041
:10430000E4030020E80300204528002010B50446FF
:104310002146054802F098F800BF8021024802F0CB
:10432000A5F80028F9D010BD0048004010B51021B4
:104330002F4802F09BF8002836D001202D49087044
:1043400000202D4908702D480068002822DB2B48EA
:1043500000682B4909680844284908600846006835
:10436000FF2804DD08460068A0F580700860254835
:1043700001F0B1F8C0F5807020490968401A204961
:10438000086008460068002804DC0846006800F55C
:10439000807008601C48006810B11B4800688047A6
:1043A0001021134802F059F82021114802F05EF85C
:1043B000E0B10F4802F044F8C4B21448006840B1BC
:1043C00020461249096888472021094802F045F82B
:1043D00010BD0F4808490978445407480078401C2C
:1043E000054908702021024802F037F800BFEFE7C6
:1043F00000600140D4030020040400205C0400207D
:10440000780400206C040240080400200C04002002
:10441000C829002010B504462146054802F014F8CA
:1044200000BF8021024802F021F80028F9D010BD19
:10443000006001402DE9F04107460E4615465C48F4
:104440000078B8B1012F15D1002D09DD002404E05A
:104450005848005D3055601C84B2AC42F8DB03E084
:1044600054493046FCF732F90020514908700120C8
:10447000BDE8F08150480078B0B1022F14D1002D72
:1044800009DD002404E04D48005D3055601C84B215
:10449000AC42F8DB03E049493046FCF717F900204D
:1044A000454908700120E3E745480078B0B1032F83
:1044B00014D1002D09DD002404E04248005D305590
:1044C000601C84B2AC42F8DB03E03E493046FCF7A6
:1044D000FDF800203A4908700120C9E73A48007801
:1044E000B0B1042F14D1002D09DD002404E03748B9
:1044F000005D3055601C84B2AC42F8DB03E0334908
:104500003046FCF7E3F800202F4908700120AFE7A0
:104510002F480078B0B1052F14D1002D09DD0024FB
:1045200004E02C48005D3055601C84B2AC42F8DBDE
:1045300003E028493046FCF7C9F8002024490870F8
:10454000012095E724480078B0B1062F14D1002D42
:1045500009DD002404E02148005D3055601C84B270
:10456000AC42F8DB03E01D493046FCF7AFF8002011
:104570001949087001207BE719480078B0B1072F6E
:1045800014D1002D09DD002404E01648005D3055EB
:10459000601C84B2AC42F8DB03E012493046FCF701
:1045A00095F800200E490870012061E700205FE7C0
:1045B000A604002084450020D0030020C42700204A
:1045C000D103002045280020D2030020C628002067
:1045D000D303002047290020D4030020C82900204D
:1045E000D5030020492A002030B585B06A46002155
:1045F000544800F026FC9DF8080018B9524900986C
:10460000086002E05049019808605048006860B1B5
:104610000DF10B014C4800684C4A126890470A2182
:10462000484800F0C7FB05B030BD00257EE00DF125
:104630000B00405D4649474A127888544548007847
:10464000401C4449087044480078E0B14248007872
:104650000978884262D1002404E03D48005D3F496A
:104660000855641C3B4800788442F6D339480078EA
:104670003A4981F880000020364908700A21314803
:1046800000F098FBCFE733480078401E3049095CC2
:1046900030480078C01E814226D12E480078801E06
:1046A0002B49085C0A281FD12A480078C01E085CE4
:1046B0000D2819D1002404E02548005D274908553C
:1046C000641C24480078C01EA042F5D82148007818
:1046D000C01E224981F8800000201E4908700A216E
:1046E000184800F067FB9EE71A480078401E1849FA
:1046F000095C18480078C01E81420FD01548007828
:10470000801E1349085C0A2808D112480078C01E90
:10471000085C0D2802D100200E4908700D48007871
:10472000802802DB00200B4908706D1C9DF80A00F0
:10473000A8423FF67CAF0A21024800F03BFB00BFD5
:1047400071E70000006400402004002028040020DD
:10475000CE2C0020240400201C040020CA2A0020A3
:104760000FB410B5ADF5027D044686A8019002A8ED
:10477000019A8599FBF74EFE0020019002A9204680
:1047800000F005F80DF5027D10BC5DF814FB70B566
:1047900005460C462846FEF797FB064602E02078C1
:1047A000B047641C20780028F9D170BD7CB5044660
:1047B0000D46012C02D1284601F0D0FD022C39D142
:1047C0000121B54800F0C6FD012004210023082284
:1047D000CDE9001002214120FEF79EFB01201821A7
:1047E00000231A46CDE9001003214120FEF794FB77
:1047F000032211462620FEF75CFC00231A462946B8
:10480000A64801F03BFE0121A44801F09BFE0121D6
:10481000A24801F092FE0122A149A04801F072FED7
:1048200001229F49491C9D4801F06CFE01219B48D3
:1048300001F00EFE032C3AD101219748401C00F0F4
:1048400089FD0120042100230822CDE900100A215E
:104850004220FEF761FB0120182100231A46CDE912
:1048600000100B214220FEF757FB032211462720A0
:10487000FEF71FFC00231A4629468A4801F0FEFD78
:104880000121884801F05EFE0121864801F055FEB5
:1048900001228349834801F035FE01228049491CE9
:1048A000804801F02FFE01217E4801F0D1FD042C4B
:1048B0003AD101217848801C00F04CFD01200421F0
:1048C00000230822CDE900100A214320FEF724FB33
:1048D0000120182100231A46CDE900100B214320A6
:1048E000FEF71AFB032211463420FEF7E2FB0023F9
:1048F0001A4629466C4801F0C1FD01216A4801F0C1
:1049000021FE0121684801F018FE01226449664831
:1049100001F0F8FD01226249491C634801F0F2FDF3
:104920000121614801F094FD052C3AD101215A483A
:10493000C01C00F00FFD0120042100230822CDE956
:1049400000100C214320FEF7E7FA01201821002374
:104950001A46CDE9001002214420FEF7DDFA0322B9
:1049600011463520FEF7A5FB00231A4629464F487D
:1049700001F084FD01214D4801F0E4FD01214B4887
:1049800001F0DBFD01224649484801F0BBFD012250
:104990004349491C454801F0B5FD0121434801F058
:1049A00057FD062C3AD101214FF0181000F0D2FC2F
:1049B0000120042100230822CDE900100621432014
:1049C000FEF7AAFA0120182100231A46CDE90010AB
:1049D00007214320FEF7A0FA032211464C20FEF7E0
:1049E00068FB00231A462946314801F047FD0121A2
:1049F0002F4801F0A7FD01212D4801F09EFD012265
:104A000027492B4801F07EFD01222549491C2848F1
:104A100001F078FD0121264801F01AFD072C39D15B
:104A20000121244800F096FC0120042100230822E3
:104A3000CDE9001011464520FEF76EFA012018213D
:104A400000231A46CDE9001007214520FEF764FA3D
:104A5000032211464D20FEF72CFB00231A4629465F
:104A6000154801F00BFD0121134801F06BFD0121F8
:104A7000114801F062FD012209490F4801F042FD91
:104A800001220749491C0C4801F03CFD01210A485C
:104A900001F0DEFC7CBD000011001C000044004061
:104AA00004000C0000480040004C00400050004052
:104AB00000600140190018000064014000BFFEE7DB
:104AC00003B401984100009850EAC12018BF0420A7
:104AD0004A0D18BF40F0010040F2FF72B2EB515F87
:104AE00008BF40F00200012808BF052002B070474F
:104AF00030380A2801D2012070470020704700BFDB
:104B0000704730B5024600200023146824F00204E8
:104B10001460146824F00104641C146000E05B1C41
:104B2000546804F001041CB94FF6FF74A342F6D197
:104B3000546804F00104002C3FD04D78146865F3EC
:104B4000C71414608D78146865F386141460CD78EA
:104B5000146865F3451414600D79146865F3041442
:104B600014604D79146865F3C30414608D7914687A
:104B700065F3820414600C78D56964F39E75D56181
:104B80000C786508D46965F3DF74D461146824F087
:104B900001041460002300E05B1C546804F001046D
:104BA0001CB14FF6FF74A342F6D1546804F001041F
:104BB0000CB1002002E0012000E0002030BD30B543
:104BC000024600200023146824F0020414601468D4
:104BD00024F00104641C146000E05B1C546804F0C1
:104BE00001041CB94FF6FF74A342F6D1546804F0D7
:104BF00001045CB30C88641ED56964F30B05D561B0
:104C00008D78D46965F31964D461CD78D46965F37E
:104C10001344D4610D79D46965F31654D4611468D2
:104C200024F001041460002300E05B1C546804F0CD
:104C300001041CB14FF6FF74A342F6D1546804F08E
:104C400001040CB1002002E0012000E0002030BD92
:104C500030B50022CC78012303FA04F2D0F80032F8
:104C600023F001035B1CC0F80032D0F81C329343E0
:104C7000C0F81C320B7913B1012B5AD12CE0D0F8BB
:104C80000C329343C0F80C328B891C04CD7800F5AC
:104C9000107343F83540CC7853F834300C892343F3
:104CA000CD7800F5107444F835304B891C04CD786C
:104CB00000F5107303EBC5035C60CC7800F510734E
:104CC00003EBC4035B68CC882343CD7800F51074F4
:104CD00004EBC50463602DE0D0F80C321343C0F838
:104CE0000C32CB881C04CD7800F5107343F83540A6
:104CF000CC7853F834300C892343CD7800F5107408
:104D000044F835304B891C04CD7800F5107303EB63
:104D1000C5035C60CC7800F5107303EBC4035B68DB
:104D20008C892343CD7800F5107404EBC5046360CF
:104D300000E000BF00BF4B7813B1012B0CD105E0A0
:104D4000D0F804329343C0F8043206E0D0F80432BD
:104D50001343C0F8043200E000BF00BF8B7813B1EA
:104D6000012B0CD105E0D0F814329343C0F8143273
:104D700006E0D0F814321343C0F8143200E000BF4C
:104D800000BF0B783BB1012B0BD1D0F81C32134381
:104D9000C0F81C3206E0D0F81C329343C0F81C3235
:104DA00000E000BF00BFD0F8003223F00103C0F8DC
:104DB000003230BD122935D2DFE801F034090A0B88
:104DC0000F0C14171B341F223425282B2E3100BF43
:104DD00000BF00BF0422426025E00422426000229E
:104DE000826120E0012282601DE04FF480728260C7
:104DF00019E04FF48032826015E00822C26012E0B0
:104E00001022C2600FE0082202610CE01022026151
:104E100009E00822426006E01022426003E0034AF3
:104E2000826000E000BF00BF704700000101010088
:104E30001AB143690B43436102E043698B43436109
:104E4000704730B505460C46134605F5D87000EBA3
:104E500004100068C0F380001872187A10B101289D
:104E600013D107E005F5D87000EB04100068400D81
:104E700018600BE005F5D87000EB041000686FF0C7
:104E8000604101EAD000586000E000BF00BF05F5B6
:104E9000D87000EB04100068C0F34000587205F5AC
:104EA000D87000EB0410406800F00F00987205F510
:104EB000D87000EB04104068000AD87405F5D8706B
:104EC00000EB04108068D87205F5D87000EB041070
:104ED0008068010A197305F5D87000EB041080682A
:104EE000010C597305F5D87000EB04108068010EB1
:104EF000997305F5D87000EB0410C068D87305F5F8
:104F0000D87000EB0410C068010A197405F5D87058
:104F100000EB0410C068010C597405F5D87000EB63
:104F20000410C068010E99742146284600F09DF8CF
:104F300030BD10B5024604209368C3F380630BB103
:104F400000200CE09368C3F3C0630BB1012006E0BE
:104F50009368C3F300730BB1022000E0042004281F
:104F60007CD002F5C07303EB00131B6803F001044F
:104F700002F5C07303EB00131C600C7A02F5C073DA
:104F800003EB00131B6864F3820302F5C07404EBA7
:104F9000001423600B7A13B1012B1CD10DE00C8897
:104FA00002F5C07303EB00131B6864F35F5302F553
:104FB000C07404EB001423600EE002F5C07303EB31
:104FC00000131B684C6843EAC40402F5C07303EB8A
:104FD00000131C6000E000BF00BF4C7A02F5C073F4
:104FE00003EB00131B6864F3410302F5C07404EB88
:104FF000001423608B7A02F5C07404EB001464681B
:1050000063F3030402F5C07303EB00135C608B7B56
:105010001C064B7B44EA03440B7B44EA0323CC7A13
:10502000234302F5C07404EB0014A3608B7C1C06C0
:105030004B7C44EA03440B7C44EA0323CC7B2343AC
:1050400002F5C07404EB0014E36002F5C07303EBD7
:1050500000131B6823F001035B1C00E004E002F571
:10506000C07404EB0014236010BD11B1012906D1F6
:1050700002E02022C26003E02022026100E000BFC3
:1050800000BF70470246002021B1012910D002293B
:105090002AD11BE0936803F001033BB19368C3F38B
:1050A00040030BB1012002E0002000E002201DE0DF
:1050B0009368C3F300233BB19368C3F340230BB160
:1050C000012002E0002000E002200FE09368C3F31B
:1050D00000433BB19368C3F340430BB1012002E0AE
:1050E000002000E0022001E0002000BF00BF704768
:1050F0000349496860F30711014A51607047000095
:10510000001002400349496860F30A21014A5160D6
:1051100070470000001002400349496860F3CD2148
:10512000014A51607047000000100240012807D179
:105130000749496D21F030013031054A516505E0DC
:105140000349496D21F03001014A51657047000063
:1051500000100240052827D2DFE800F0030A1118EA
:105160001F00134A126861F30002114B1A601CE021
:105170000F4A126861F310420D4B1A6015E00C4A99
:10518000126861F318620A4B1A600EE0084A126A4C
:1051900061F30002064B1A6207E0054A526A61F3A6
:1051A0000002034B5A6200E000BF00BF70470000DE
:1051B000001002402DE9F0410146002700220025A1
:1051C00090460023002400F05BF9064626B1012E2C
:1051D00012D0022E43D112E03948406DC0F3402076
:1051E00038B13748006BC0F3406010B135480860F3
:1051F00001E03548086035E03348086032E0304867
:105200004068C0F300482E484068C0F383422C48F1
:105210004068C0F341750DB90F2A03D12801401C25
:10522000024400E0921CB8F1000F03D1274850431C
:10523000086013E022484068C0F3404058B120485D
:10524000406DC0F30137B81CDFF87CC0BCFBF0F048
:105250005043086002E01C485043086002E01A48CE
:10526000086000BF00BF16484068C0F30313184829
:10527000C45C0868E040486011484068C0F30223FD
:105280001448C45C4868E040C8600D484068C0F3FA
:10529000C2231148C45C4868E04088600848406800
:1052A000C0F3007306484068C0F3813040EA8303CE
:1052B0000A48C45C8868B0FBF4F00861BDE8F0817E
:1052C00000100240006CDC0200127A0000093D0070
:1052D000AE750008BE750008C6750008CE750008DA
:1052E00010B501460020094B03EB1142126801F092
:1052F0001F040123A3401A4001F01F040123A3400F
:105300009A4200D000E0012010BD000000100240D1
:105310000349496D60F30D31014A51657047000042
:105320000010024030B50024002500E0641C11206C
:10533000FFF7D6FF012802D0B4F5405FF6D3112065
:10534000FFF7CEFF012801D0002500E00125284607
:1053500030BD000010B501290DD10E4B03EB1042FA
:10536000126800F01F040123A3401A43094C04EB08
:1053700010431A600CE0074B03EB1042126800F078
:105380001F040123A3409A43024C04EB10431A600C
:1053900010BD00000010024010B568B91C4B5B68DE
:1053A00023F480331A4C636023461B6B23F0007395
:1053B00003F10073236317E0154B5B6823F480331C
:1053C00003F58033124C6360012805D123465B68E6
:1053D00023F40033636007E00D4B5B6823F4003374
:1053E00003F500330A4C6360094B5B6861F3954336
:1053F000074C63600C09064B5B6864F35E73044CF6
:10540000636023465B6862F3DF73636010BD000076
:10541000001002401348006820F00100401C1149B0
:10542000086000BF0F480068C0F340000028F9D0B2
:105430000C48406820F003000A49486000BF094852
:105440004068C0F381000028F9D106480068064989
:105450000840044908600020486008634FF41F00BA
:105460008860704700100240FFFFF2FE0349496860
:1054700060F30101014A51607047000000100240D2
:1054800002484068C0F381007047000000100240ED
:1054900010B500F09BFE042000F04CFF07480068A8
:1054A0000749B0FBF1F007490860084600684FF46F
:1054B0007A7148430449086010BD00006003002071
:1054C00040420F00A8040020AC040020026861F3F1
:1054D0000002026070470146486880B270470000D1
:1054E000B0F1805F04D920F07041034A116001E0FF
:1054F0000249486070470000040402400000024076
:10550000014600200022B1F1805F02D9054B1A68E4
:1055100001E0054B1A6802EA01030BB1012000E02B
:1055200000207047000402400000024010B51848F7
:105530000069A0F5FA60164908610846C06AA0F53E
:10554000FA60C8620846806CA0F5FA608864084674
:10555000406EA0F5FA60486661200E490870002090
:105560000D49086007E00C480068401C0A490860C3
:10557000052001F0E5F807480078612806D00648C4
:1055800000684FF6FF718842EDDBECE710BD0000CC
:1055900088010020000000207802002010B50020C3
:1055A0000B49086007E00A480068401C0849086089
:1055B000052001F0C5F8074800786B2806D104489B
:1055C00000684FF6FF718842EDDBECE710BD00008C
:1055D000780200200000002010B51048FEF740F8C7
:1055E0000E48FEF76FF97A200D49087000200D492A
:1055F000086007E00B480068401C0A490860052065
:1056000001F09EF8064800787A2806D1054800681F
:105610004FF6FF718842EDDBECE710BD88010020FA
:10562000000000207802002000BF054A126802F046
:105630004002002AF9D0C2B2014B1B1D1A6070470C
:10564000003801404FF6FF71016000218171017146
:10565000042141710121C1717047F0B50A461588D6
:10566000ABB29579032D01D100241AE0957965B983
:10567000557905F00F045579182D01D1036110E01B
:105680005579282D0DD143610BE0957905F008057A
:10569000167906F004063543D67906F0030645EA86
:1056A0000604DDB2A5B1002110E001258D401D40AA
:1056B0005DB105688F000F26BE40B54305600568E3
:1056C0008E0004FA06F635430560491C0829ECD320
:1056D000FF2B15DD1B12002110E001258D401D4020
:1056E0005DB145688F000F26BE40B54345604568F3
:1056F0008E0004FA06F635434560491C0829ECD3B0
:10570000F0BD000010B51848006900F5FA601649B0
:1057100008610846C06A00F5FA60C8620846806CF5
:1057200000F5FA6088640846406E00F5FA60486645
:1057300061200E49087000200D49086007E00C4800
:105740000068401C0A490860052000F0F9FF07487E
:105750000078612806D0064800684FF6FF7188423D
:10576000EDDBECE710BD0000880100200000002008
:105770007802002010B500200B49086007E00A48B5
:105780000068401C08490860052000F0D9FF074860
:1057900000786B2806D0044800684FF6FF718842F5
:1057A000EDDBECE710BD00007802002000000020D7
:1057B00010B51048FDF754FF0E48FEF783F87A2025
:1057C0000D49087000200D49086007E00B4800688B
:1057D000401C0A490860052000F0B2FF0648007826
:1057E0007A2806D0054800684FF6FF718842EDDB45
:1057F000ECE710BD880100200000002078020020A6
:10580000FFF746FE01220D214420FDF7F5FA0020A6
:105810005849086001220E214420FDF7EDFA0120CD
:105820005549C1F8B80101220F214420FDF7E4FADF
:105830000020504908310860052203214320FDF76C
:10584000DBFA062203214520FDF7D6FA08224B4950
:105850000220FDF7C9FD082248490120FDF7C4FDDB
:105860000023092246490120FDF786F84FF4E13173
:105870000720FEF79BFF43484349086043484449DB
:105880000860B1EE001ADFED430AB2EE040A4248A6
:1058900000F016F99FED3F1ADFED400A9FED400A38
:1058A000404800F00DF9B1EE001ADFED3A0AB2EE11
:1058B000040A3D4800F004F99FED361ADFED370A7F
:1058C0009FED370A394800F0FBF8B1EE001ADFED22
:1058D000310AB2EE040A364800F0F2F89FED2D1AB4
:1058E000DFED2E0A9FED2E0A324800F0E9F8B1EE06
:1058F000001ADFED280AB2EE040A2F4800F0E0F8A3
:105900009FED241ADFED250A9FED250A2B4800F0B4
:10591000D7F8B3EE041ADFED2A0AB2EE040A2948DA
:1059200000F0CEF8B3EE041ADFED250AB2EE040A59
:10593000254800F0C5F8B3EE041ADFED210AB2EEF7
:10594000040A224800F0BCF8B3EE041ADFED1C0A8A
:10595000B2EE040A1E4800F0B3F809E0FF231DA2CE
:105960001EA10720FEF7FCFE04212248FDF7CEF918
:10597000F4E70000B48122420080224204000020AB
:10598000E8000020A51F000844040020411E000874
:1059900028040020CDCCCC3DB00400200000000045
:1059A000CDCC4C3FD8040020000500202805002065
:1059B0005005002078050020A0050020C805002023
:1059C0006F12033BF005002018060020400600205F
:1059D00068060020546573740000000053747269F7
:1059E0006E673A2025732C204865783A2030782558
:1059F000580D0A00880200202DE9F0470B46144696
:105A00004FF0000C00BF2C4A1268C2F302211D4661
:105A100026460A46C2F10709B9F1040F02D94FF030
:105A2000040901E0C2F10709C84602F10409B9F10D
:105A3000070F02D24FF0000901E0A2F103094F461F
:105A40004FF0010909FA08F9A9F1010909EA050964
:105A500009FA07F94FF0010A0AFA07FAAAF1010A4E
:105A60000AEA060A49EA0A09CC46014662460029C2
:105A700004DB15072E0E114D6E5407E015072F0E8F
:105A80000D4D0C3501F00F06361FAF5500BF014616
:105A900000290DDB00BF00BF01F01F050122AA4055
:105AA0004D09AD0005F1E025C5F8002100BF00BF9C
:105AB00000BFBDE8F08700000CED00E000E400E06E
:105AC00080ED000AC0ED010A80ED021ADFED0E1A2A
:105AD000C0ED031ADFED0C1AC0ED041ADFED0A1A4F
