:020000040800F2
:1000000098440020D1030008D53600082D3300089D
:1000100031330008C91F0008014C0008000000002F
:1000200000000000000000000000000011030008B4
:10003000C92F0008000000006D030008853C00087F
:10004000EB030008EB030008EB030008EB030008D8
:10005000EB030008EB030008EB030008EB030008C8
:10006000EB030008EB030008EB03000885290008F8
:10007000E5290008452A0008A92A00080D2B0008D8
:10008000712B0008D52B0008EB030008EB030008D8
:100090002D470008DD1F0008EB030008EB030008F4
:1000A000EB030008EB030008EB030008EB03000878
:1000B000EB030008EB030008EB030008EB03000868
:1000C000EB030008EB030008EB030008EB03000858
:1000D000EB0300084541000861420008694300083D
:1000E000EB030008EB030008EB030008EB03000838
:1000F000EB030008EB030008EB030008EB03000828
:10010000EB030008EB030008EB030008EB03000817
:100110002D3E0008353F0008EB030008EB03000804
:10012000EB030008EB030008EB030008EB030008F7
:10013000EB030008EB030008EB030008EB030008E7
:1001400000000000000000000000000000000000AF
:10015000EB0300084121000895220008EB0300088A
:10016000EB030008EB030008EB030008EB030008B7
:10017000714400083D400008EB030008EB03000851
:10018000EB03000800F002F800F0B2F80AA090E8D3
:10019000000C82448344AAF10107DA4501D100F042
:1001A000A7F8AFF2090EBAE80F0013F0010F18BF5D
:1001B000FB1A43F001031847248500004485000022
:1001C0000A444FF0000C10F8013B13F0070408BF7D
:1001D00010F8014B1D1108BF10F8015B641E05D01B
:1001E00010F8016B641E01F8016BF9D113F0080FD0
:1001F0001EBF10F8014BAD1C0C1B09D16D1E58BF62
:1002000001F801CBFAD505E014F8016B01F8016B98
:100210006D1EF9D59142D6D370470000002300240B
:1002200000250026103A28BF78C1FBD8520728BF06
:1002300030C148BF0B6070476E2900F0D083702931
:1002400001F0B180662908F01881652908F0158150
:10025000672908F01281612908F0118103681B0ADF
:1002600028BF41F08001692900F03081642900F045
:100270002D81752900F02A816F2901F03E807829AF
:1002800001F07D80E92900F0D987E42900F0D687C4
:10029000F52900F0D387EF2901F03B80F82901F020
:1002A0007C800368DB0928BF41F08001632901F0ED
:1002B0007F81732901F08481E32901F08F81F32983
:1002C00001F09481002070471FB508F0CCF801F0D0
:1002D000DBF804000020002107F0F8FA401C606001
:1002E0000020002107F0DCFAE0601FBD10B510BD52
:1002F00001F066FA1146FFF7E7FF05F01DFF01F078
:1003000092FA03B4FFF7F2FF03BC05F084F9000092
:100310002C4B19680868B0E8F04F80F30988BFF3E8
:100320006F8F4FF0000080F31188704700000000CD
:1003300008480068006880F308884FF0000080F3E8
:10034000148862B661B6BFF34F8FBFF36F8F00DFC3
:1003500000BF00BF08ED00E0DFF80C00016841F4C9
:1003600070010160704700BF88ED00E0EFF3098085
:10037000BFF36F8F134B1A681EF0100F08BF20EDEC
:10038000108A20E9F04F106009B44FF0100080F39C
:100390001188BFF34F8FBFF36F8F06F0BFFF4FF091
:1003A000000080F3118809BC19680868B0E8F04FB4
:1003B0001EF0100F08BFB0EC108A80F30988BFF35D
:1003C0006F8F70475C030020EFF3058070470000DB
:1003D0000948804709480047FEE7FEE7FEE7FEE7D9
:1003E000FEE7FEE7FEE7FEE7FEE7FEE70448054915
:1003F000054A064B70470000B93C0008850100081B
:10040000983E00209844002098400020984000200A
:10041000704700001CB50C46064B7B4469460090B3
:10042000204600F082FE04460020694600F090FE5F
:1004300020461CBD330D00000FB4044910B503AABB
:10044000029800F08BFE10BC5DF814FB94040020B1
:100450000FB41CB5084B06AA7B446946009005986A
:1004600000F063FE04460020694600F071FE20465D
:100470001CBC5DF814FB0000F50C000070B50446D0
:1004800085690068C10601D5302600E02026C00736
:1004900007D070BDD4E9012130469047206A401C46
:1004A00020626D1EF6D570BD70B504468569007872
:1004B000C00707D170BDD4E9012120209047206AF0
:1004C000401C20626D1EF6D570BD00002DE9F04184
:1004D0000646002410687529314616A510D000F094
:1004E000EAF9002802DA404213A507E031688A07DA
:1004F00001D512A502E0490704D511A5012401E0A8
:1005000000F0E2F900210A2206F1240709E0B0FB1D
:10051000F2FCB0FBF2F302FB1C00303078541846BA
:10052000491C0028F3D123462A463046BDE8F04155
:1005300000F0FCB9000000002D0000002B000000BE
:10054000200000002DE9F05F894604464FF0000AC4
:10055000DFF874B1FB44C0F820A02046E16888476A
:10056000002874D0252806D0D4E901219047206ABC
:10057000401C2062F1E700265F462046E16888477C
:100580002028054607DB312D05D2781910F8200CFC
:1005900008B10643F1E7B00701D526F00406C4F818
:1005A0001CA00027C4F818A02A2D09D0284605F061
:1005B0002BF838B304EB8708303DC8F8185019E021
:1005C00059F8041B204604EB87029161E1688847D3
:1005D000012F054618D1E069002820DA26F0200610
:1005E0001DE0D8F8180000EB800005EB4000303823
:1005F000C8F818002046E1688847054605F004F869
:100600000028EED1012F0AD02E2D08D12046E16816
:1006100088477F1C0546022F46F02006C4DBA069F0
:10062000002803DA404246F00106A061F00701D03D
:1006300026F010066C2D0BD0682D09D04C2D39D02A
:100640006A2D35D0742D35D07A2D33D016E038E0B0
:10065000E1682F4620468847B842054609D16C2FED
:1006600026D04FF48060E16806432046884705465F
:1006700004E06C2F1AD04FF4807006430DB3A5F13F
:100680004100192802D8203546F400664A4629461A
:10069000204626604E46FFF7CFFD80B101280BD0E3
:1006A000F61D26F0070000F1080956E74020E4E7B0
:1006B0008020D8E70020D6E706F104094DE7284658
:1006C00052E7206ABDE8F09F627F000070B50646E1
:1006D00000F0E2F80468054630460A22002100F0E6
:1006E0006DFE2C6070BD40EA0103024630B59B07E9
:1006F00010D14FF0013400E008C208C91D1B9D4312
:1007000015EAC41FF8D013F0FF0102F8011B0DD049
:100710001B0AF8E711F8013B002B02F8013B05D05A
:1007200011F8013B002B02F8013BF3D130BD10B5AD
:10073000431C02E010F8011B71B18107FAD14FF0A0
:10074000013202C88C1A8C4314EAC211F9D0C01AC3
:100750000A0603D0C01E10BDC01A10BD0A0401D085
:10076000801E10BD0902FCD0401E10BD4FF00002DB
:1007700000B5134694469646203922BFA0E80C5097
:10078000A0E80C50B1F12001BFF4F7AF090728BF72
:10079000A0E80C5048BF0CC05DF804EB890028BFEE
:1007A00040F8042B08BF704748BF20F8022B11F017
:1007B000804F18BF00F8012B704710B5044610F0A9
:1007C000030F08BF11F0030F40F015804FF0013EFA
:1007D000121FC0F20E8051F8043BA3EB0E0C2CEA62
:1007E000030C1CEACE1C08BF40F8043BF0D0A1F17A
:1007F000040102F10402521E08DB11F8013B002B38
:1008000000F8013BF7D1114600F010FE204610BD64
:100810004FF0013C50F8042B51F8043B9A4221D18F
:10082000A2EB0C03934313EACC1317D150F8042B1B
:1008300051F8043B9A4215D1A2EB0C03934313EAFF
:10084000CC130BD150F8042B51F8043B9A4209D138
:10085000A2EB0C03934313EACC13DBD04FF0000060
:10086000704700BFD01A01BAB1FA81F101F0180146
:1008700022FA01F0CB40C1F12001DBB2C0B2C01AB4
:100880002CFA01F3D11A914311EAC311E6D1704752
:10089000704770477047704700487047383E0020E7
:1008A00010B5FFF7F9FF006810BD10B50446FFF75B
:1008B000F3FF046010BD09684A0501D540B27047D6
:1008C000C905FCD500B2704709684A0501D5C0B218
:1008D0007047C905FCD580B2704770B50C46054617
:1008E000012A05D02878800600D5EA69002302E0B5
:1008F000012305E05B1C934202D2E05C0028F9D1A1
:10090000A869E618C01AA861286A1844286228460F
:10091000FFF7B4FD04E0D5E9012114F8010B90477D
:10092000B442F8D32846FFF7BFFD70BD2DE9F0476C
:100930000D4699469246044600F12408016888064F
:1009400004D5E06921F01001216000E00120A842F7
:1009500001DD471B00E00027A1697A1902EB0900BD
:10096000081AA0612078C00602D42046FFF786FD51
:10097000002608E0D4E901211AF806009047206A11
:10098000401C761C20624E45F4DB2078C0060AD558
:100990002046FFF773FD06E0D4E90121302090479F
:1009A000206A401C2062381EA7F10107F4DC07E032
:1009B000D4E9012118F805009047206A401C206204
:1009C000281EA5F10105F3DC2046FFF76DFD207818
:1009D000000602D50220BDE8F0870120FBE7116880
:1009E0000268006A530501D508700AE0D30501D5F5
:1009F000088006E0130603D5C217C1E9000200E033
:100A000008600120704770472DE9FF4F0C461E46D5
:100A10004FF0FF378BB0D2E90001DDF860800A901B
:100A20008A46C1F30A5505B93D46002108464FF0F4
:100A30000000BAF1000F00F4400005DA00EB80007E
:100A40004FF4400101EA50004FEA9059B9F1010F0B
:100A500000DDB9460A9850EA4A000ED044F610501C
:100A6000A5F2FF3545432F14B8F1000F1ED0754293
:100A7000291E1EDDC9F100021CE0B8F1010F4FF084
:100A8000000001D0302103E0F24305E02154401C76
:100A9000B042FBDB30460022002121540B99C1F803
:100AA0000880C1E900200FB0BDE8F08FBD1B6D1CB0
:100AB000DEE74A4600DA694206A800F0EBFD06AB25
:100AC00093E8070003AB83E8070050460A9900F05B
:100AD000B3FE8DE80700A0F500501F380090039882
:100AE000002D0ADD42F21F014A460844002303A9F3
:100AF0000390684601F01CF909E0A0F500504A4651
:100B00001F38002303A90390684601F026F98DE8F9
:100B100007000004000C03D04FF0FF30410800E054
:100B20001046B8F1000F03D00022009215461EE0D7
:100B3000751E05D400F0ACFC303262556D1EF9D53F
:100B4000B3460122084302D000227F1C04E0207833
:100B5000302801D100227F1E002A099784D01DE091
:100B6000112D07DA00F094FC303262556D1C50EA0A
:100B70000102F5D1084302D00098C8B10EE000216F
:100B8000681E05E0235C625C63542254401E491CCD
:100B90008142F7DBAB46A81B401E0990002004F8F9
:100BA0000B000B98099AC0F80880C0E9002B7AE77F
:100BB00011264FF0000857E72DE9F04F884604460C
:100BC000D21D22F0070191B0D1E90001CDE90A015F
:100BD00004F024F802460B98C00F01D02D2007E046
:100BE0002068810701D52B2002E0202101EAC00006
:100BF000032A099001D0072A05DB03464146204617
:100C000000F08CFC0BE12078800601D5E06900E063
:100C10000620B8F1650F814606D0B8F1660F18D0EE
:100C2000B8F1670F70D131E00020B9F1110F0090D9
:100C300001DB112301E009F101030AAA01A90CA8B3
:100C4000FFF7E2FEDDE90C70002609F1010583469D
:100C500047E001204B4600904FF000470AAA01A947
:100C60000CA8FFF7D1FEDDE90DB00C995D4600261A
:100C700010B909F101000D18B9EB050003D4C0F15A
:100C8000FF3609F10105A5EB09002BE0B9F1010FD1
:100C900001DA4FF001090020B9F1110F0090484628
:100CA00001DD112300E003460AAA01A90CA8FFF701
:100CB000ABFEDDE90C704D46002683462078000728
:100CC0000AD4AB4500DA5D4601A8012D04DD4119C7
:100CD00011F8011C302907D04F4502DA17F1040F33
:100CE00004DA012082460FE06D1EEEE7002F02DCE1
:100CF000ED1B3E4403E0781CA84200DD7D1CB81BC0
:100D000000F1010A4FF000472078000703D4AA45FC
:100D100001DB4FF0FF3A0021B7F1004F0DF143081E
:100D20008DF8431024D002202B23002F01DA7F42BC
:100D30002D230A21021EA0F1010000DC5FB197FB08
:100D4000F1FC97FBF1F201FB1C7C17460CF1300C17
:100D500008F801CDEEE7A8F101000370218809052C
:100D600001D5452100E06521A0F1010800F8011C32
:100D700009980FA9A1EB0807FF1D00B10120411937
:100D800001EBEA70A1693844081A401EA06120787E
:100D9000C00602D42046FFF771FB099828B1D4E9B8
:100DA00001219047206A401C20622078C00622D58D
:100DB0002046FFF763FB1EE0002E04DBB34502DD97
:100DC00001A8805D00E03020D4E901219047206A2D
:100DD000401C2062761CAAF101005FEA000A0AD1D9
:100DE00000F052FBC0680168405CD4E901219047E3
:100DF000206A401C2062281EA5F10105DCDC07E00A
:100E0000D4E9012118F8010B9047206A401C2062A8
:100E1000381EA7F10107F3DC2046FFF745FB03204E
:100E200011B041E62DE9F04F04460D46D21D22F0E7
:100E3000070089B0D0E900974846394603F0EEFE36
:100E40000246F80F01D02D2307E02068810701D565
:100E50002B2302E0202101EAC0038DF820300BB1E2
:100E6000012000E00020032A824601D0072A04DB8B
:100E70002946204600F052FB3FE12078800601D44D
:100E80000D2500E0E569C7F30A560D2D49DA00216A
:100E90004FEA175B08464FF00000002F00F44000B7
:100EA00007DA00EB80004FF4400100EBD07001EA5C
:100EB00060008115012901DD4FF0FF3100224FEA6A
:100EC000850CBCF1180F06D31346ACF118004FF097
:100ED0008052C24003E04FF4801323FA0CF30CF16C
:100EE0000C0CBCF1200F04D3ACF1200C09FA0CF06F
:100EF00001E007FA0CF000294FF0004801DD18B9B5
:100F00000FE00ED140450CD319EB02095F4121B926
:100F1000404502D19F4329EA0209BBEB175F00D08D
:100F2000761C2088000502D57B48784402E07A4888
:100F30007844193808AA302302F80A30037C0AF1F1
:100F40000101002E0AF1020A53546A4602DC4FF0F6
:100F5000300101E04FF031014FF001088DF8001031
:100F600002D0A6F2FF3603E059EA470100D06B4EEB
:100F7000002D02DC2178090704D54FF002082E214C
:100F80008DF80110C44600210BE0C7F303433F0175
:100F9000C35C491C6D1E02F80830052908F10108E0
:100FA00001DA002DF1DC00210CE000EB1973491C83
:100FB0001B786D1E082902F808304FEA091908F15C
:100FC000010801DA002DF0DC21688B0602D516E05D
:100FD000A8F10108E04505DD02EB080313F8013C28
:100FE000302BF5D0B8F1000F09DD02EB080313F840
:100FF000013C2E2B03D1090701D4A8F10108002DD3
:1010000005DD3E2102F808106D1E08F10108407C44
:10101000002E02F8080008F1010804DA2D207642BB
:1010200002F8080002E02B2002F808000A214FF421
:101030007A70864208F101080BDB96FBF0F330333F
:1010400002F8083096FBF0F308F1010800FB136684
:1010500001E0642E0CDB642096FBF0F3303302F8E1
:10106000083096FBF0F308F1010800FB136601E07D
:101070000A2E06DB96FBF1F0303002F8080008F18A
:10108000010896FBF1F001FB1060303002F8080017
:10109000A16908F1010808EB050202EB0A00081A31
:1010A000A0612078C00602D42046FFF7E7F9216A44
:1010B00008AE01EB0A00206204E0D4E9012116F831
:1010C000010B9047BAF1010AF7D22078C00602D589
:1010D0002046FFF7D3F96E4609E016F8010B3E28CB
:1010E0000FD0D4E901219047206A401C2062B8F15A
:1010F0000108F2D22046FFF7D7F909B00320BDE876
:10110000F08F206A2844206203E0D4E901213020D6
:1011100090476D1EEBD3F8E7B075000002FCFFFFAF
:1011200001694A1C02610878704700B58FB0CDE9AB
:1011300001310021059105497944CDE9031011469B
:101140006846FFF7FFF90FB000BD0000E5FFFFFFA5
:101150000A6802F8010B0A6070470000074B70B57F
:101160000D467B44FFF7E1FF0446284600F004FBF0
:1011700010B14FF0FF3070BD204670BDF74E00003B
:101180002DE9FF5F15468A460446DFF8AC80F84437
:101190000027D8E900103E46CDE9001010E03AF8EB
:1011A00016106A4602A800F0EBFA411C07D021781D
:1011B000890603D5E269391891420DD80744761C97
:1011C0002078800602D5E069B84205DDAE42E6DB54
:1011D0003AF816000028E2D1A069C01BA0612046A1
:1011E000FFF74CF9D8E90010CDE90010002017E016
:1011F0003AF818106A4602A800F0C2FAB0F1FF3FB0
:1012000081460BD000250DF1080B05E0D4E9012142
:101210001BF8050090476D1C4D45F7D308F1010000
:10122000B0428046E4DB206A384420622046FFF763
:101230003BF9BDE8FF9F0000627300002DE9F0411B
:101240008046D21D22F007020025D2E90002F529CE
:1012500015A614D0011E72F1000106DA0023D0EBAE
:10126000030063EB020211A608E0D8F800108B0718
:1012700001D50FA602E0490701D50EA601251146AA
:10128000002408F1240704E000F002F930323A5556
:10129000641C50EA0102F7D12B46324621464046F3
:1012A000BDE8F041FFF742BB000000002D00000048
:1012B0002B0000002000000030B4002100F12404C5
:1012C00008E002F00705D208303542EA4372DB0835
:1012D0006554491C52EA0305F3D10468002310A2A7
:1012E000250707D5A40600D421B1C46901230DA2A6
:1012F000641EC46130BCFFF719BB10B5044621461B
:101300001068FFF7E1FA02462046BDE810400023CE
:10131000D2E7D21D22F00701D1E90023CCE700007B
:101320000000000030000000F0B40D4601880905FF
:1013300002D5214C7C4402E01F4C7C440E34002139
:1013400000F1240608E002F00F071209E75D42EA07
:1013500003721B097754491C52EA0307F3D1027840
:101360000023120704D5702D06D009B102231134D1
:101370002246F0BCFFF7DABA01231034F8E770B563
:1013800004460D4621461068FFF79EFA024629469C
:101390002046BDE870400023C6E7D21D22F00703B7
:1013A000D3E90023C0E70368126843F02003036019
:1013B0000823C3610023B7E7C47100002DE9F0479B
:1013C00091460F4680460446002614F8015B2DB175
:1013D00000F052F80068405DC007F6D12B2D02D016
:1013E0002D2D18D0641E4A463946204600F002F9D9
:1013F00027B13968A14201D1C7F800804FF002043B
:1014000071050BD54042002803DDFFF745FA046063
:10141000A007BDE8F08746F48066E4E70028F8DA24
:10142000FFF73AFA04606FF00040F2E74FF0000275
:101430000429C0F0128010F0030C3FF499A9CCF1FC
:10144000040CBCF1020F18BF00F8012BA8BF20F854
:10145000022BA1EB0C01FFF78BB95FEAC17C24BF23
:1014600000F8012B00F8012B48BF00F8012B704752
:1014700000487047383E002010B500F005F8001D08
:1014800010BD00BF4964000000487047583E00206E
:1014900030B5B0F10A024FEA900E71F100034EEA46
:1014A000817EB0EB0E0061EB91014FEA101E4EEA17
:1014B000017E10EB0E0041EB11114FEA102E4EEAA7
:1014C000016E10EB0E0041EB11214FEA104E4EEA77
:1014D000014E10EB0E0041EB1141401841F10001AB
:1014E0004FEAD00040EA41704FEAD10110EB80058D
:1014F0004FEA810444EA907444EB01046D1944EB13
:101500000404521BA3414FF0000348BF0A3200D528
:1015100030BD401C41F1000130BD00002DE9F0411B
:101520001F46044603260168072A01F4006004DB15
:1015300008B116A505E016A503E008B115A500E061
:1015400015A521F010002060A069C01EA0610FB198
:10155000401EA0612046FEF791FF4FB1D4E9012162
:1015600038469047206A401C2062C01C206206E07A
:10157000206AFAE7D4E9012115F8010B9047761E9D
:10158000F8D22046FEF790FFBDE8F0814E414E00B4
:101590006E616E00494E4600696E660010B5436983
:1015A00013B1AFF3008001E0FFF797F9012010BD00
:1015B000127800F124010A7000224A700122EDE73E
:1015C00011684FF0FF32E9E710B5436913B1AFF38B
:1015D000008001E0FFF7D4FD012010BD128800F16A
:1015E000240182840022C2840122EDE711684FF0B9
:1015F000FF32E9E72DE9F05F824615468B4600276A
:101600000AF10104B9460078302801D09DB113E0F9
:1016100014F8010B0127782803D0582801D045B1D0
:101620000AE00DB1102D07D1002714F8010B102589
:1016300002E0082500E00A250026B0460EE005FB82
:10164000080005FB06F101271FFA80F801EB1046A0
:10165000B6F5803F00D3B94614F8010B294600F0D7
:10166000D4F80028EBDABBF1000F05D00FB1641EEF
:1016700000E05446CBF80040B9F1000F06D0FFF768
:101680000BF902210160C81EBDE8F09F48EA064040
:10169000FAE700002DE9F047814616468AB0354842
:1016A00078440DC88DE80D0032487844801C03ACA6
:1016B0000DC884E80D0041F69B300844372190FBAB
:1016C000F1F290FBF1F5A5F1800501FB12041B3C42
:1016D00002D56442012000E00020DFF898A0804697
:1016E0000027FA44AAF1BE0A0EE0E0070AD032460B
:1016F000684607EB470101230AEB810100F02DFB4F
:101700008DE8070064107F1C002CEED1194F7F4438
:10171000AE3F19E0E80715D007EB04100DF1180AE9
:1017200090E80E008AE80E00C068F04201D19819D6
:1017300008903246012306A903A800F00EFB03AB74
:1017400083E807006D10641C002DE3D14FF0010306
:1017500032466946B8F1000F03A802D000F0E8FA5B
:1017600001E000F0FAFAC9E90001C9F808200AB05E
:10177000BDE8F08720700000007B00F0800070471B
:1017800070B516460C460546FFF776FE036893F8DB
:101790000101012806D0FF2C0FD8185D68B1012087
:1017A0002C7070BDD3F807013246214603F20713AF
:1017B00003442846BDE8704018474FF0FF3070BD25
:1017C0007546FFF755FEAE4605006946534620F0C4
:1017D0000700854618B020B5FEF708FEBDE820409A
:1017E0004FF000064FF000074FF000084FF0000BDD
:1017F00021F00701AC46ACE8C009ACE8C009ACE890
:10180000C009ACE8C0098D4670473A2800D230388C
:1018100020F02002412A01D3A2F13700884201D3EF
:101820004FF0FF30704710B50446AFF300802046FC
:10183000BDE81040FEF765BD5FEA400C08BF91F0BF
:10184000000F4FEA8C234FEAC12243EA51514FEA7D
:101850001C5018BF00F5F0404FEA300018BF41F0AF
:1018600000415FEA6C5C00F02980BCF1FF3F08BFDB
:1018700040F080407047130C06BF12044FF0100C6C
:101880004FF0000C130E04BF12020CF1080C130FE2
:1018900004BF12010CF1040C930F04BF92000CF171
:1018A000020CD30F04BF52000CF1010C11464FF093
:1018B0000002A0F11F00A0EB0C00704711F0004FD8
:1018C00008BF704731F000413FF4D5AF0B0C06BFA5
:1018D00009044FF0100C4FF0000C0B0E04BF09026E
:1018E0000CF1080C0B0F04BF09010CF1040C8B0F59
:1018F00004BF89000CF1020CCB0F04BF49000CF1AE
:10190000010CCCF12003A0EB0C0022FA03F302FA45
:101910000CF241EA030100F10100704720F07F4C16
:1019200080EA030023F07F47ACEB070303F57C5309
:1019300000F0004003F1FF032DE980494FEA154B09
:1019400009B44FEA144325EA0B4E24EA03480FF288
:10195000042606EB132749083E785FEA320203FBB0
:101960000667C7F5000707FB06F64FEA54374FEA4C
:10197000D64606F1020607FB066CCCF1005C4FEA86
:101980001C472CEA074C07FB06F40CFB06F504EB9E
:1019900015464FEA961634BF00204FF000404FEA3C
:1019A000D13706FB07FC4FEA1C4C0CFB0BF7D21B94
:1019B00003FB0CF761EB07010CFB0EF7B0EB0740E4
:1019C00072EB17420CFB08F734BFA2EB0742B2EBF5
:1019D000074261EB17414FEA0C444FEA910706FBBF
:1019E00007FC4FEA1C4C0CFB0BF7B0EBC74072EB4B
:1019F000573203FB0CF734BFA2EBC742B2EBC7422E
:101A000061EB57310CFB0EF7B0EBC70072EB57726E
:101A10000CFB08F734BFA2EBC702B2EBC70261EBC5
:101A20005771039F4FEA816141EA921104EBCC04A4
:101A30004FEAD1374FEA826206FB07FC42EA901276
:101A40004FEA80604FEA1C4C0CFB0BF7D21B03FBE8
:101A50000CF761EB07010CFB0EF7B0EB074072EBE4
:101A600017420CFB08F734BFA2EB0742B2EB074268
:101A700061EB17414FEA8C554FEA910704EB9C2428
:101A800006FB07FC4FEA1C4C0CFB0BF7B0EBC74006
:101A900072EB573203FB0CF734BFA2EBC742B2EB39
:101AA000C74261EB57310CFB0EF7B0EBC70072EB8E
:101AB00057720CFB08F734BFA2EBC702B2EBC702A8
:101AC00061EB577115EB4C254FEA816141EA9211A8
:101AD0004FEA82624FEAD13742EA901206FB07FCD6
:101AE00044F100044FEA80604FEA1C4C0CFB0BF7FA
:101AF000D21B03FB0CF761EB07010CFB0EF7B0EBFD
:101B0000074072EB17420CFB08F734BFA2EB074209
:101B1000B2EB074261EB174115EB1C154FEA81311F
:101B200041EA92414FEA823242EA90424FEA8030E3
:101B30004FEA0C7644F1000448EA03434EEA0B48AE
:101B40004FF0000EB2EB080C71EB030724BF6246A6
:101B500039464EEB0E0E4FF0000B00185241494132
:101B60004BEB0B0BB2EB080C71EB03077BF1000B9B
:101B700024BF624639464EEB0E0E4FF0000B0018A4
:101B8000524149414BEB0B0BB2EB080C71EB0307D5
:101B90007BF1000B24BF624639464EEB0E0E51EA34
:101BA000020718BF46F0010616EB0E7655F100024B
:101BB00054F1000103D5BDE88901BDE80088BDE806
:101BC0008901BDE80048B619524141EB0101A3F17A
:101BD0000103704780807F7E7D7C7B7A7978777681
:101BE00076757473727171706F6E6E6D6C6C6B6AFA
:101BF0006A69686867666665646463636261616098
:101C0000605F5F5E5E5D5D5C5C5B5B5A5A59595814
:101C1000585757565655555554545353525252517E
:101C2000515050504F4F4F4E4E4D4D4D4C4C4C4BD4
:101C30004B4B4A4A4A49494948484847474747461B
:101C40004646454545444444444343434342424257
:101C500042414141002B9C4630D477002BD01CB52B
:101C60004FEA370703B44FF010004FF01001BAF1FC
:101C7000000F06D0BCF1000FDCBF40F0080040F0C0
:101C800008014FF000000FBCBDE810400BF1010B44
:101C9000BBF1010F08BF5FEA170722BF12F1010273
:101CA00011F101014FF0004143F1000300F0004049
:101CB00043EA00007047F9D35708D0E746EA0646E2
:101CC00013F1400F4FEA16461FDD13F1200FDFBF5F
:101CD00016430A46002120335B42BED0C3F12007E1
:101CE00046EA064602FA07F74FEA164646EA0706AC
:101CF000C3F1200722FA03F201FA07F721FA03F1F0
:101D00004FF0000342EA0702A7E746EA020646EA66
:101D100006464FEA164646EA0106BCBF46EA0646B4
:101D2000360C4FF000034FF000024FF0000194E733
:101D30002DE9804C9A46934670B491E8380007C864
:101D400031EA400C48BF34EA430C03D5FFF7E6FD07
:101D5000FFF780FFF0BCBDE8008C2DE9804C9A466F
:101D6000934670B491E8380007C810F0804F08BF60
:101D700013F0804F03D100F005F8FFF76BFFF0BCC4
:101D8000BDE8008C20F07F4780EA030023F07F4C01
:101D900007EB0C03A3F57C5300F00040A3F1FE0316
:101DA00092F0000F00F0B38095F0000F00F0778004
:101DB0002DE901494FEA11404FEA144621EA004853
:101DC00000FB06FC24EA064708FB06F607FB08F8BA
:101DD00000FB07F718EB06484CEB164C4FEA124B8A
:101DE00018EB07484FEA15464CEB174022EA0B4E1A
:101DF0000BFB06FC25EA06470EFB06F607FB0EFE6C
:101E00000BFB07F71EEB064E4CEB164C4FF0000693
:101E10001EEB074E4CEB174B18EB0B0840F1000084
:101E200018EB0E0B58EB000840F100008F1A4FF032
:101E300000013CBFC943661B14BFB5EB040C002175
:101E40003CBFC943F61B4FEA17444EEA8E0E27EA01
:101E500004454FEA1C4704FB07622CEA074C05FBCC
:101E600007F70CFB05F604FB0CFC16EB074642EBF0
:101E7000174216EB0C4642EB1C421BEB060658EBD6
:101E80000202414146EA9E0601D5BDE80189B61924
:101E9000524141EB0101A3F10103BDE801894FEA81
:101EA00014454FEA114724EA054621EA074C05FB91
:101EB00007F406FB07F70CFB06F105FB0CFC11EB26
:101EC000074144EB17444FEA124711EB0C4144EB36
:101ED0001C4422EA074C05FB07F206FB07F70CFB44
:101EE00006F605FB0CFC16EB074642EB174216EB19
:101EF0000C4642EB1C456A1854F1000148BF70477C
:101F0000B619524141EB0101A3F10103704795F06D
:101F1000000F37D04FEA11424FEA144721EA024638
:101F200024EA074C02FB07F106FB07F70CFB06F45B
:101F300002FB0CFC14EB074441EB17414FEA154739
:101F400014EB0C4441EB1C4125EA074C02FB07F55E
:101F500006FB07F70CFB06F602FB0CFC16EB07462C
:101F600045EB174516EB0C4645EB1C42121951F197
:101F7000000148BF7047B619524141EB0101A3F17E
:101F8000010370474FEA14454FEA114724EA05461A
:101F900021EA074C05FB07F106FB07F70CFB06F2ED
:101FA0004FF0000605FB0CFC12EB074241EB17411A
:101FB00012EB0C4251EB1C4148BF7047921841EBA9
:101FC0000101A3F10103704700BFFEE770B50446AD
:101FD0000D462946204601F05FFD70BD30B585B045
:101FE0006A4601214C4803F0B8FC9DF8080018B976
:101FF0004A490098086002E04849019808600025B5
:102000007FE00DF10B00405D4549464A1278885447
:1020100044480078401C4349087043480078E8B1C0
:10202000414800780978884263D1002404E03C48A4
:10203000005D3E490855641C3A4800788442F6D356
:1020400038480078394981F8800000203549087007
:102050000D21314803F03AFC05B030BD314800781D
:10206000401E2F49095C2F480078C01E814226D1AE
:102070002C480078801E2A49085C0A281FD129486C
:102080000078C01E085C0D2819D1002404E0244803
:10209000005D26490855641C22480078C01EA042F5
:1020A000F5D820480078C01E204981F88000002023
:1020B0001C4908700D21184803F008FCCCE71948AA
:1020C0000078401E1649095C16480078C01E8142FF
:1020D0000FD014480078801E1149085C0A2808D1E6
:1020E00010480078C01E085C0D2802D100200D4960
:1020F00008700C480078802802DB0020094908702D
:102100006D1C9DF80A00A8423FF67BAF0D210248E6
:1021100003F0DCFB00BF9FE70064004024040020C4
:102120003A2D00202804002015040020372B002021
:1021300070B504460D462946204601F0ADFC70BD41
:1021400030B585B06A4600214C4803F006FC9DF886
:10215000080018B94A490098086002E04849019807
:10216000086000257FE00DF10B00405D4549464ABF
:102170001278885444480078401C4349087043480A
:102180000078E8B1414800780978884263D100249A
:1021900004E03C48005D3E490855641C3A4800781C
:1021A0008442F6D338480078394981F8800000200D
:1021B000354908700A21314803F088FB05B030BD6D
:1021C00031480078401E2F49095C2F480078C01E16
:1021D000814226D12C480078801E2A49085C0A28B2
:1021E0001FD129480078C01E085C0D2819D1002491
:1021F00004E02448005D26490855641C2248007804
:10220000C01EA042F5D820480078C01E204981F8A1
:10221000800000201C4908700A21184803F056FB72
:10222000CCE719480078401E1649095C164800782A
:10223000C01E81420FD014480078801E1149085CEE
:102240000A2808D110480078C01E085C0D2802D169
:1022500000200D4908700C480078802802DB00201F
:10226000094908706D1C9DF80A00A8423FF67BAF33
:102270000A21024803F02AFB00BF9FE700680040E4
:102280002C040020BA2D0020300400201604002069
:10229000B82B002030B585B06A460121514803F0C3
:1022A0005CFB9DF8080018B94F490098086002E0EF
:1022B0004D49019808604D48006860B10DF10B016F
:1022C00049480068494A126890470D21454803F083
:1022D000FDFA05B030BD00257AE00DF10B00405D40
:1022E0004349444A1278885442480078401C414986
:1022F000087041480078E0B13F480078097888428A
:102300005ED1002404E03A48005D3C490855641C55
:10231000384800788442F6D336480078374981F847
:1023200080000020334908700D212E4803F0CEFABA
:10233000CFE730480078401E2D49095C2D480078D1
:10234000C01E814222D12B480078801E2849085C9B
:102350000A281BD127480078C01E085C0D2815D11B
:10236000002404E02248005D24490855641C2148EB
:102370000078C01EA042F5D81E480078C01E1F4934
:1023800081F8800000201B490870A2E719480078F6
:10239000401E1749095C17480078C01E81420FD0C3
:1023A00014480078801E1249085C0A2808D1114898
:1023B0000078C01E085C0D2802D100200D4908706D
:1023C0000C480078802802DB00200A4908706D1C48
:1023D0009DF80A00A84280D80D21024803F076FA41
:1023E00000BF76E700680040340400203C04002071
:1023F0003A2E00203804002017040020392C002039
:102400002DE9F04F8BB004460F4690469946DDE922
:102410001AB6DDE918A501216F4803F027FD012157
:102420006D48401C03F022FD012C13D1012018211E
:1024300000231A46CDE900100B21412000F0CCFE0C
:102440000120042100230822CDE900100C214120A5
:1024500000F0C2FE022C13D10120182100231A46DD
:10246000CDE900100C21422000F0B6FE012004212D
:1024700000230822CDE900100D21422000F0ACFE1F
:1024800003F092FD8DF8247000208DF825000120C6
:102490008DF826008DF8270000208DF828008DF893
:1024A00029008DF82A00012C03D109A94B4803F01B
:1024B000B4F8022C03D109A9494803F0AEF81598E5
:1024C000ADF81C008DF81E808DF81F9014988DF8C3
:1024D0002000012C03D107A9404803F0FCF8022C8E
:1024E00003D107A93E4803F0F6F816988DF80F00BF
:1024F00000208DF80D0017988DF81000BAF1000F2C
:1025000008D14FF6FF7000EA4510ADF81200002028
:10251000ADF81400BAF1010F0CD14FF6FF7000EACC
:102520001540ADF812004FF6FF7000EAC500001D1F
:10253000ADF814004FF6FF7000EA1B40ADF816002E
:102540001FFA8BF0ADF818008DF80E6001208DF8A1
:102550000C00012C03D103A9204803F005F9022C3B
:1025600003D103A91E4803F0FFF8BEB9012C09D11D
:1025700001220221194803F0E7F901221146142033
:1025800001F0A9F8022C09D101220221144803F01C
:10259000DBF901221146452001F09DF8012E17D1EB
:1025A000012C09D1012210210C4803F0CDF90122A0
:1025B0001146152001F08FF8022C09D101221021BB
:1025C000074803F0C1F901221146462001F083F8C3
:1025D0000BB0BDE8F08F000019001C000064004043
:1025E000006800402DE9F04F87B082468946934647
:1025F00098460027B9F1000F01D1CDF804B0B9F128
:10260000010F01D1CDF808B009F0FF008DF80C00E2
:1026100000208DF80D00109820B94046FEF787F88D
:10262000064600E0109EBAF1010F4ED11198002825
:102630004CD0F61C002544E0002427E0F01EB842F0
:1026400007D904EBC50018F800100DF10F00015573
:1026500017E0F01EB84204D10D210DF10F00015515
:102660000FE0B01EB84204D10A210DF10F00015550
:1026700007E0701EB84204D1F01EC1B20DF10F0088
:1026800001557F1CB74200D102E0641C082CD5D351
:1026900000BFA7EBC500C0B28DF80E0001A96748C6
:1026A00003F0D3F90690002400E0641C6348069907
:1026B00003F074FA012803D040F6FF708442F4D38B
:1026C0006D1C701EB5EBD00FB6D930E000252AE0A6
:1026D00000240DE0B74206D204EBC50018F8001044
:1026E0000DF10F0001557F1CB74200D102E0641CC0
:1026F000082CEFD300BFA7EBC500C0B28DF80E00C9
:1027000001A94E4803F0A1F90690002400E0641CE2
:102710004A48069903F042FA012803D040F6FF70B8
:102720008442F4D36D1C701EB5EBD00FD0D9BAF132
:10273000020F4ED1119800284CD0F61C002544E021
:10274000002427E0F01EB84207D904EBC50018F8B2
:1027500000100DF10F00015517E0F01EB84204D132
:102760000D210DF10F0001550FE0B01EB84204D14C
:102770000A210DF10F00015507E0701EB84204D187
:10278000F01EC1B20DF10F0001557F1CB74200D100
:1027900002E0641C082CD5D300BFA7EBC500C0B273
:1027A0008DF80E0001A9264803F04FF90690002489
:1027B00000E0641C2248069903F0F0F9012803D0D8
:1027C00040F6FF708442F4D36D1C701EB5EBD00F41
:1027D000B6D930E000252AE000240DE0B74206D249
:1027E00004EBC50018F800100DF10F0001557F1C17
:1027F000B74200D102E0641C082CEFD300BFA7EB66
:10280000C500C0B28DF80E0001A90D4803F01DF9F6
:102810000690002400E0641C0948069903F0BEF904
:10282000012803D040F6FF708442F4D36D1C701E63
:10283000B5EBD00FD0D907B0BDE8F08F00640040F1
:10284000006800401FB500200290039000900190A6
:1028500000248BE00422464902A8FDF7AEFF0020C9
:102860008DF80C0002A8FDF731FF424908800322D1
:102870003F49491D6846FDF7A0FF00208DF80B0079
:102880006846FDF723FF3C4908803948801E0078E0
:10289000312811D19FED391A0846008800EE100A40
:1028A000F8EE400A3348008800EE100AB8EE400AFD
:1028B000334803F07FFD56E02D48801E0078322813
:1028C00016D1322C14DC2E48006900F5FA602C4930
:1028D00008610846C06A00F5FA60C862601C84B2EC
:1028E000322C40D100202249891E087000243AE091
:1028F0001F48801E0078332816D1322C14DC204863
:102900000069A0F5FA601E4908610846C06AA0F592
:10291000FA60C862601C84B2322C24D100201449B1
:10292000891E087000241EE01148801E007834289B
:102930000AD11348806E00F5FA70114988660020AC
:102940000B49891E08700EE00948801E0078352862
:1029500009D10B48806E00F5FA700949886600209D
:102960000349891E08700A2004F05AFC72E700002F
:10297000B60400200000002002000020000000003B
:102980008801002010B5022003F046FB08B30220A6
:1029900003F032FB00210F4803F024FB01200E4915
:1029A000087000200D49088004E00C480088401C95
:1029B0000A490880094800885F2803DA0848006847
:1029C0000028F2D10648006818B1002004490968BF
:1029D000086010BD08000240780400208004002038
:1029E000483D002010B5202003F016FB08B320203E
:1029F00003F002FB00210F4803F0F4FA01200E4916
:102A0000087000200D49088004E00C480088401C34
:102A10000A490880094800885F2803DA08484068A6
:102A20000028F2D10648406818B1002004494968DE
:102A3000086010BD1C0002407904002080040020C2
:102A4000483D002010B54FF4007003F0E5FA10B3D4
:102A50004FF4007003F0D0FA00210F4803F0C2FADF
:102A600001200E49087000200D49088004E00C4840
:102A70000088401C0A490880094800885F2803DA5A
:102A8000084880680028F2D10648806818B1002004
:102A900004498968086010BD300002407A040020B3
:102AA00080040020483D002010B54FF4005003F092
:102AB000B3FA10B34FF4005003F09EFA00210F4810
:102AC00003F090FA01200E49087000200D4908809B
:102AD00004E00C480088401C0A4908800948008826
:102AE0005F2803DA0848C0680028F2D10648C068A9
:102AF00018B100200449C968086010BD44000240B4
:102B00007B04002080040020483D002010B54FF4D5
:102B1000003003F081FA10B34FF4003003F06CFA88
:102B200000210F4803F05EFA01200E4908700020D2
:102B30000D49088004E00C480088401C0A490880C0
:102B4000094800885F2803DA084800690028F2D1A4
:102B50000648006918B1002004490969086010BDE1
:102B6000580002407C04002080040020483D0020E2
:102B700010B54FF4001003F04FFA10B34FF40010EB
:102B800003F03AFA00210F4803F02CFA01200E4915
:102B9000087000200D49088004E00C480088401CA3
:102BA0000A490880094800885F2803DA0848406914
:102BB0000028F2D10648406918B10020044949694B
:102BC000086010BD6C0002407D04002080040020DD
:102BD000483D002010B54FF0007003F01DFA10B30F
:102BE0004FF0007003F008FA00210F4803F0FAF9E3
:102BF00001200E49087000200D49088004E00C48AF
:102C00000088401C0A490880094800885F2803DAC8
:102C1000084880690028F2D10648806918B1002070
:102C200004498969086010BD800002407E040020CC
:102C300080040020483D00202DE9F0418AB0044680
:102C40000E46174698462AA103C9CDE908014FF45C
:102C5000E13004F0F3F82848066028480770284857
:102C60000470012C12D1002004900590069007906A
:102C7000012000210F22CDE9000204230246CDE904
:102C80000210FFF7BDFB1F481F490860022C14D13A
:102C90000120002104910591CDE906100D210F229C
:102CA000CDE9000204230246CDE9021000210220F2
:102CB000FFF7A6FB134815490860002510E0002027
:102CC0000821CDE9001005EB850056F8300000EB37
:102CD000080208AB00212046FFF784FC681CC5B23F
:102CE000BD42ECDB0A48A0F800800AB0BDE8F081E4
:102CF000FFFFFFFFFFFFFFFC8C040020900400207B
:102D000091040020152D0008200400203C04002020
:102D10009204002070B506460D4600240AE004EB3C
:102D200084008F49096851F83000B04200D105E0B5
:102D3000601CC4B28B4800788442F0DB00BF894835
:102D40000078844200D170BDA9786A7841EA0220F7
:102D50001021F2EE090ABAEE090A04F0C7F804EBF2
:102D600084007F49096801EBC00080ED010AE97821
:102D700009012A7941EA22100C21DFED7B0A9FED3F
:102D80007B0A04F0B3F804EB84007549096801EB91
:102D9000C00080ED020A69792A7902F00F0241EA47
:102DA00002200C21F3EE020ABBEE020A04F09EF8A8
:102DB00004EB84006A49096801EBC00080ED030A56
:102DC000A97904EB8400664A126802EBC000017422
:102DD000E97904EB8400624A126802EBC000417496
:102DE00004EB84005E49096801EBC00090ED060A1F
:102DF00004EB84005A49096801EBC000D0ED010AD8
:102E000030EE600AF1EE080AB4EEE00AF1EE10FAD4
:102E10000EDD04EB84005249096801EBC0004069F3
:102E2000401C04EB84014E4A126802EBC101486168
:102E300004EB84004A49096801EBC00090ED060AE2
:102E400004EB84004649096801EBC000D0ED010A9B
:102E500030EE600AF9EE080AB4EEE00AF1EE10FA7C
:102E60000ED204EB84003E49096801EBC0004069C2
:102E7000401E04EB84013A4A126802EBC10148612A
:102E800004EB8400364A126802EBC000406900EB94
:102E9000C00202EB001000EE100AB8EEC00A04EB0C
:102EA00084002F4A126802EBC000D0ED010A30EE18
:102EB000200A10EE101A084605F064FA04EB8402AA
:102EC000274B1B6803EBC202C2E9080104EB840034
:102ED0002349096801EBC00090ED010A04EB84006E
:102EE0001F49096801EBC00080ED060A2878082117
:102EF000B1EB001F02D11EA0FDF79EFA2878092130
:102F0000B1EB001F02D11DA0FDF796FA28780A2127
:102F1000B1EB001F02D11CA0FDF78EFA28780B211F
:102F2000B1EB001F02D11BA0FDF786FA28780C2117
:102F3000B1EB001F02D11AA0FDF77EFA28780D210F
:102F4000B1EB001F02D11AA0FDF776FA28780E2106
:102F5000B1EB001F02D119A0FDF76EFA00BFF2E637
:102F60008C0400209004002000003442000034C291
:102F7000B5E7BBFAB9FDD1B90A000000B5E7BBFA65
:102F8000C7B7D1B90A000000B5E7BBFAB9FDC1F770
:102F90000A0000004D4F53B9FDCEC20A00000000E8
:102FA000B5E7BBFACFDFC8A6B9FDCEC20A00000064
:102FB000CDA8D1B6B6AACAA70A000000B5E7BBFAE9
:102FC000B9FDD4D80A000000704700001CB50546C2
:102FD0000E4604F077F8002462E004EB840000EB76
:102FE000C40005EB8000C06860B90F2094FBF0F1CD
:102FF00000FB1140401C04EB840101EBC40105EB14
:103000008101C86004EB840000EBC40005EB800084
:10301000008938B9802004EB840101EBC40105EB81
:103020008101088104EB840000EBC40005EB800003
:10303000007C58B904EB840101EBC40105EB81016C
:1030400001F1100022461AA1FDF702FA04EB8400F8
:1030500000EBC40005EB8000406804EB840101EB49
:10306000C40105EB8101C968CDE9001004EB8401BE
:1030700001EBC40105EB81010B6B04EB840101EB57
:10308000C40105EB81010A8904EB840101EBC40151
:1030900055F8210005F1100104F03AFA601CC4B2A1
:1030A000B4429ADB04F0EAF804F036F800BFFEE719
:1030B0007461736B256400007CB505460E461446AA
:1030C000092C5ED2DFE804F05D05101B26313C4779
:1030D00052000120182100231022CDE900103146B2
:1030E000284600F079F84CE0012018210423102232
:1030F000CDE900103146284600F06EF841E001208D
:10310000182100230822CDE900103146284600F09E
:1031100063F836E0012004210B460822CDE90010B7
:103120003146284600F058F82BE0012018210023F2
:103130001A46CDE900103146284600F04DF820E04F
:103140000120282100231A46CDE9001031462846E7
:1031500000F042F815E00120042100231A46CDE9D1
:1031600000103146284600F037F80AE0012004211B
:1031700000230322CDE900103146284600F02CF848
:1031800000BF00BF7CBD00000146082913D2DFE864
:1031900001F0120406080A0C0E100848704708488F
:1031A000FCE70848FAE70848F8E70848F6E708485F
:1031B000F4E70848F2E70148F0E700004142000860
:1031C0004943000851440008153F00081D4000080D
:1031D00059450008254100082DE9FC4705460C46E5
:1031E00016461F46DDE90A89412D03D101214948D0
:1031F00002F03CFE422D04D101214648401C02F061
:1032000035FE432D04D101214248801C02F02EFEE0
:10321000442D04D101213F48C01C02F027FE452D5A
:1032200004D101213B48001D02F020FE0CB9012011
:103230000090012C01D102200090022C01D1042029
:103240000090032C01D108200090042C01D1102003
:103250000090052C01D120200090062C01D14020A7
:103260000090072C01D180200090082C01D1600132
:103270000090092C02D14FF4007000900A2C02D16A
:103280004FF4806000900B2C02D14FF4006000904E
:103290000C2C02D14FF4805000900D2C02D14FF431
:1032A000005000900E2C02D14FF4804000900F2C63
:1032B00002D14FF400400090F0B28DF80600F8B251
:1032C0008DF8040008F0FF008DF8050001208DF84E
:1032D0000700412D03D169460F4802F0D8FE422D68
:1032E00003D169460D4802F0D2FE432D03D1694651
:1032F0000B4802F0CCFE442D03D16946094802F088
:10330000C6FE452D03D16946074802F0C0FEBDE860
:10331000FC8700000200180000080140000C01407A
:1033200000100140001401400018014000BFFEE7FA
:1033300000BFFEE72DED0C8B84B000240025002695
:103340000027A246A346A146A04604F07DF90390BB
:10335000A5E1D349886904F084FD41EC190BD049FB
:103360004968B1F9000004F07CFD41EC1A0BCC492E
:10337000486904F076FD41EC1B0BC94909680868EF
:1033800004F06FFD41EC1C0BC5490969C44AD268C1
:103390001268881804F065FD41EC1D0B9FEDC15AC1
:1033A000B0EE494AF0EE694AB0EE4A3AF0EE6A3AB7
:1033B000B0EE4B2AF0EE6B2ABB49B0EE4C1AF0EEA1
:1033C0006C1AB0EE4D0AF0EE6D0AB84800F07AFAC9
:1033D000B0EE408AF0EE608A51EC180B04F012FD5A
:1033E0000446AF49486B04F03CFD41EC190BAC4975
:1033F000096AB1F9000004F034FD41EC1A0BA84948
:10340000086B04F02EFD41EC1B0BA549C969086847
:1034100004F027FD41EC1C0BA149CA6A896A0968BE
:10342000501804F01EFD41EC1D0B9FED9E5AB0EEAE
:10343000494AF0EE694AB0EE4A3AF0EE6A3AB0EE26
:103440004B2AF0EE6B2A9A49B0EE4C1AF0EE6C1A49
:10345000B0EE4D0AF0EE6D0A964800F033FAB0EE89
:10346000408AF0EE608A51EC180B04F0CBFC054664
:103470008B49086D04F0F5FC41EC190B8849C96BC8
:10348000B1F9000004F0EDFC41EC1A0B8449C86C62
:1034900004F0E7FC41EC1B0B8149896B086804F0E0
:1034A000E0FC41EC1C0B7E498A6C496C09685018A1
:1034B00004F0D7FC41EC1D0B9FED7A5AB0EE494A5F
:1034C000F0EE694AB0EE4A3AF0EE6A3AB0EE4B2AB4
:1034D000F0EE6B2A7849B0EE4C1AF0EE6C1AB0EEB2
:1034E0004D0AF0EE6D0A754800F0ECF9B0EE408A36
:1034F000F0EE608A51EC180B04F084FC0646684933
:10350000896DB1F9000004F0ACFC41EC190B644981
:10351000886E04F0A6FC41EC1A0B4FF47A71B0EE01
:10352000491AF0EE691AB0EE4A0AF0EE6A0A6448E7
:1035300003F070F8B0EE408AF0EE608A51EC180BA0
:1035400004F060FC07465649496FB1F9000004F0E9
:1035500088FC41EC190B5249D1F8840004F081FC3D
:1035600041EC1A0B4FF47A71B0EE491AF0EE691A79
:10357000B0EE4A0AF0EE6A0A524803F04BF8B0EE99
:10358000408AF0EE608A51EC180B04F03BFC824656
:103590004349D1F89010B1F9000004F062FC41EC0D
:1035A000190B3F49D1F8A00004F05BFC41EC1A0B69
:1035B0004FF47A71B0EE491AF0EE691AB0EE4A0A89
:1035C000F0EE6A0A404803F025F8B0EE408AF0EECB
:1035D000608A51EC180B04F015FC83463049D1F891
:1035E000AC10B1F9000004F03CFC41EC190B2C4983
:1035F000D1F8BC0004F035FC41EC1A0B4FF47A71A1
:10360000B0EE491AF0EE691AB0EE4A0AF0EE6A0A14
:103610002E4802F0FFFFB0EE408AF0EE608A51ECD7
:10362000180B04F0EFFB81461D49D1F8C810B1F921
:10363000000004F016FC41EC190B1949D1F8D80030
:1036400004F00FFC41EC1A0B4FF47A71B0EE491AFA
:10365000F0EE691AB0EE4A0AF0EE6A0A1C4802F06F
:10366000D9FFB0EE408AF0EE608A51EC180B04F0FE
:10367000C9FB80462B46224602210802CDE900679D
:1036800000F0D0FA5B465246012140F2FF10CDE92E
:10369000009800F0C7FA042103A803F069FF58E678
:1036A0008801002000401C46C4040020EC040020D7
:1036B000140500203C050020640500208C05002036
:1036C000B4050020DC050020040600202C060020A4
:1036D00054060020704770B504460D461646324623
:1036E000294660B202F002FE70BD000070B52DEDFB
:1036F0000A8B0446B0EE40AAF0EE60AAB0EE41BAE2
:10370000F0EE61BAB0EE428AF0EE628AB0EE439A11
:10371000F0EE639A9FED6A0A10EE105A51EC1A0B04
:1037200004F0F6F8E06051EC1B0B04F0F1F82061B6
:1037300094ED030AD4ED040A30EE600A84ED050A24
:1037400094ED050A84ED070A94ED050AD4ED060A06
:1037500030EE600A84ED090A94ED050A84ED060A4C
:1037600094ED000AD4ED070A20EE200AD4ED010AF8
:1037700094ED081A00EE810A10EE101A084604F0C3
:1037800001FE41EC1C0B53EC182B04F0CFFC06D2CD
:1037900094ED050AB5EEC00AF1EE10FA4ED394EDA1
:1037A000000AD4ED070A20EE200AD4ED010A94EDB8
:1037B000081A00EE810A10EE101A084604F0E2FD25
:1037C00041EC1C0B53EC192B04F076FB06D294ED64
:1037D000050AB5EEC00AF1EE10FA2FDC94ED000AEE
:1037E000D4ED070A20EE200AD4ED010A94ED081A60
:1037F00000EE810A10EE101A084604F0C3FD41ECF9
:103800001C0B53EC182B04F057FB1FD294ED000A4D
:10381000D4ED070A20EE200AD4ED010A94ED081A2F
:1038200000EE810A10EE101A084604F0ABFD41ECE0
:103830001C0B53EC192B04F079FC07D294ED080A09
:10384000D4ED050A30EE200A84ED080A94ED000A52
:10385000D4ED070A20EE200AD4ED010A94ED081AEF
:1038600000EE810AD4ED020A94ED091A00EE810AF5
:1038700010EE105A284604F085FD41EC1C0B53EC69
:10388000182B04F053FC04D251EC180B04F040F850
:103890000546284604F076FD41EC1C0B53EC192B31
:1038A00004F00AFB04D251EC190B04F031F8054680
:1038B000284604F067FD41EC100BBDEC0A8B70BD8F
:1038C0000000000073B52DED0C0B2DED108B82B0B8
:1038D00005460C46B0EE428AF0EE628AB0EE439A9C
:1038E000F0EE639AB0EE44BAF0EE64BAB0EE45AAD8
:1038F00051EC180B04F000F841EC1D0BB0EE4D3A02
:10390000F0EE6D3AB0EE482AF0EE682A9DED141BF9
:103910009DED120B2846FFF7E9FEB0EE40CAF0EE2F
:1039200060CA53EC182B51EC1C0B04F02FFA1CD17D
:103930001AEE100A04F026FD41EC1E0B53EC192B75
:1039400004F018F841EC1D0B53EC182B04F0B4FAFA
:103950000BD21AEE100A04F015FD41EC1D0B53ECCE
:10396000192B04F007F841EC1C0B51EC180B03F079
:10397000C3FF41EC1D0B53EC1C2B04F007FA22D1C2
:1039800051EC180B03F0B8FF41EC1D0B1AEE100AB6
:1039900004F0F8FC41EC1F0B53EC192B04F0FCFB7A
:1039A00041EC1E0B53EC1D2B04F0C0FB0BD21AEEA6
:1039B000100A04F0E7FC41EC1D0B53EC192B04F04A
:1039C000EBFB41EC1C0B51EC1B0B03F095FF41ECA6
:1039D0001D0BB0EE4D3AF0EE6D3AB0EE4B2AF0EE24
:1039E0006B2AB0EE491AF0EE691AB0EE4C0AF0EE0E
:1039F0006C0A2046FFF77AFE8DED000B9DED000B63
:103A000002B0BDEC108B0EB070BD000070B588B078
:103A100004460D461646012C13D100200490059053
:103A200006900790012000210F22CDE90002042317
:103A30000246CDE902102046FEF7E2FC104811498B
:103A40000860022C14D10120002104910591CDE9D8
:103A500006100D210F22CDE9000204230246CDE914
:103A6000021000212046FEF7CBFC054806490860FD
:103A700006480560064806700648047008B070BD28
:103A8000993A0008200400203C040020840400200F
:103A9000880400208904002030B502460020B3E0ED
:103AA000C0EBC0035C4C246854F8233093427DD1B2
:103AB0004B780C7843EA04231BB2C0EBC004564D8C
:103AC0002D6805EB8404A380CB788C7843EA04232B
:103AD0001BB2C0EBC004504D2D6805EB8404E3809D
:103AE0004B790C7943EA04231BB2C0EBC0044A4D66
:103AF0002D6805EB84042381C0EBC003464C246889
:103B000004EB8303B3F91030C0EBC004424D2D68C1
:103B100005EB8404B4F904401B1BB3F5805F0EDB96
:103B2000C0EBC0033C4C246804EB83035B695B1C63
:103B3000C0EBC004384D2D6805EB84046361C0EB15
:103B4000C003354C246804EB8303B3F91030C0EB99
:103B5000C004314D2D6805EB8404B4F904401B1BEF
:103B600013F5805F0EDCC0EBC0032B4C246804EB24
:103B700083035B695B1EC0EBC004274D2D6805EB1A
:103B800084046361C0EBC003234C246804EB83030B
:103B9000B3F90440C0EBC0031F4D2D6805EB830350
:103BA0005B6904EB4333C0EBC00400E02AE01A4D2C
:103BB0002D6805EB8404A361C0EBC003164C246898
:103BC00004EB83039B88C0EBC004134D2D6805EB09
:103BD00084042382082814DC104B1B5C8BB901235E
:103BE0000E4C2354C0EBC0030B4C246804EB83033E
:103BF000B3F90430C0EBC004074D2D6805EB840415
:103C0000E36030BD431CD8B2054B1B789842FFF6E9
:103C100047AF00BFF5E7000084040020643D0020AA
:103C2000880400202DE9FF4706460F4614461D462E
:103C3000DDE90C89200A8DF80800E0B28DF8090052
:103C4000280A8DF80A00E8B28DF80B004FEA182018
:103C50008DF80C0008F0FF008DF80D004FEA1920D8
:103C60008DF80E0009F0FF008DF80F0000200821EC
:103C700002AB3246CDE9001001463846FEF7B2FCF1
:103C8000BDE8FF8710B500BF102080F31188BFF397
:103C90004F8FBFF36F8F00BF03F0DCFC18B14FF004
:103CA00080500449086000BF002080F3118800BFE5
:103CB00010BD000004ED00E01848006840F47000FA
:103CC000164908601648006820F00100401C14499D
:103CD000086000BF12480068C0F340000028F9D017
:103CE0000F48406820F003000D49486000BF0C48B1
:103CF0004068C0F381000028F9D1094800680949EB
:103D00000840074908600020486008634FF41F001E
:103D10008860C803014980390860704788ED00E079
:103D200000100240FFFFF2FE86B05BE02E48406DBF
:103D300000682D49496E2C4A926B12682A4B9B6C85
:103D4000CDE90232CDE904102748C0690068264950
:103D5000C96ACDE90010244800680368224823A1FD
:103D60000269072000F09EFD2748027827A107205E
:103D700000F098FD2748028827A1072000F092FD57
:103D80002748028827A1072000F08CFD1648D0F8AC
:103D9000C800B0F900201448D0F8D8001249D1F872
:103DA000AC10B1F90010104BD3F8BC30CDE90231A2
:103DB000CDE904020C48D0F89000B0F900000A499F
:103DC000D1F8A010CDE900100748406FB0F90030DD
:103DD000054806A1D0F88420072000F063FD3220BA
:103DE00003F01EFAA2E700008801002025642C25BC
:103DF000642C25642C25642C25642C25642C2564D6
:103E00002C25640D0A000000A40400203131312566
:103E1000640A0000000000206E756D25640A000031
:103E200002000020636E756D25640A0010B5102134
:103E30002F4803F08BF8002836D001202D49087058
:103E400000202D4908702D480068002822DB2B48EF
:103E500000682B490968084428490860084600683A
:103E6000FF2804DD08460068A0F58070086025483A
:103E700002F0BDF8C0F5807020490968401A204959
:103E8000086008460068002804DC0846006800F561
:103E9000807008601C48006810B11B4800688047AB
:103EA0001021134803F049F82021114803F04EF87F
:103EB000E0B10F4803F034F8C4B21448006840B1D0
:103EC00020461249096888472021094803F035F83F
:103ED00010BD0F4808490978445407480078401C31
:103EE000054908702021024803F027F800BFEFE7DA
:103EF000004C0040CA030020E40300204C040020D2
:103F00006804002044040240E8030020EC03002081
:103F1000B228002010B504462146054803F004F8F5
:103F200000BF8021024803F011F80028F9D010BD2D
:103F3000004C004010B510212F4803F007F800286E
:103F400036D001202D49087000202D4908702D48D9
:103F50000068002822DB2B4800682B4909680844C8
:103F60002849086008460068FF2804DD0846006804
:103F7000A0F580700860254802F039F8C0F580701F
:103F800020490968401A204908600846006800284E
:103F900004DC0846006800F5807008601C48006872
:103FA00010B11B48006880471021134802F0C5FF7C
:103FB0002021114802F0CAFFE0B10F4802F0B0FF23
:103FC000C4B21448006840B12046124909688847C5
:103FD0002021094802F0B1FF10BD0F4808490978B7
:103FE000445407480078401C0549087020210248C5
:103FF00002F0A3FF00BFEFE700500040CB0300201A
:10400000F0030020500400206C04002058040240FB
:10401000F4030020F80300203329002010B50446E3
:104020002146054802F080FF00BF8021024802F0CF
:104030008DFF0028F9D010BD0050004010B51021B0
:104040002F4802F083FF002836D001202D49087048
:1040500000202D4908702D480068002822DB2B48DD
:1040600000682B4909680844284908600846006828
:10407000FF2804DD08460068A0F580700860254828
:1040800001F0B5FFC0F5807020490968401A204949
:10409000086008460068002804DC0846006800F54F
:1040A000807008601C48006810B11B480068804799
:1040B0001021134802F041FF2021114802F046FF71
:1040C000E0B10F4802F02CFFC4B21448006840B1C0
:1040D00020461249096888472021094802F02DFF2F
:1040E00010BD0F4808490978445407480078401C1F
:1040F000054908702021024802F01FFF00BFEFE7CA
:1041000000640140CD030020080400205804002072
:1041100074040020800402400C04002010040020DD
:10412000352A002010B504462146054802F0FCFE61
:1041300000BF8021024802F009FF0028F9D010BD1D
:104140000064014010B51021364802F0FFFE68B34C
:1041500001203549087035480068002822DB3348C3
:104160000068334909680844304908600846006817
:10417000FF2804DD08460068A0F5807008602D481F
:1041800001F035FFC0F5807028490968401A2849B8
:10419000086008460068002804DC0846006800F54E
:1041A0008070086010211F4802F0C7FE20211D48C2
:1041B00002F0CCFE10B31B4802F0B2FEC4B21E489F
:1041C000008800F40040C8B91B48008800F4804013
:1041D00060B10A2C03D000201749088020E016485F
:1041E000008840F400401449088019E00D2C06D1E5
:1041F0001148008840F480400F49088010E00E48C4
:104200000088C0F30D000D490C540B480088401C79
:104210000949088008460088C72801DD0020088079
:1042200010BD0000003801409A0400204004002026
:104230005C04002008040240980400206E3D002029
:1042400010B504462146054802F06EFE00BF8021ED
:10425000024802F07BFE0028F9D010BD0038014072
:1042600010B510212F4802F071FE002836D0012031
:104270002D49087000202D4908702D48006800283D
:1042800022DB2B4800682B4909680844284908604C
:1042900008460068FF2804DD08460068A0F5807025
:1042A0000860254801F0A3FEC0F580702049096828
:1042B000401A2049086008460068002804DC0846C7
:1042C000006800F5807008601C48006810B11B4849
:1042D000006880471021134802F02FFE202111486A
:1042E00002F034FEE0B10F4802F01AFEC4B21448E6
:1042F000006840B1204612490968884720210948D2
:1043000002F01BFE10BD0F480849097844540748C5
:104310000078401C054908702021024802F00DFE7B
:1043200000BFEFE700440040C8030020CE03002098
:1043300044040020600400201C040240D00300203C
:10434000D4030020B027002010B5044621460548BC
:1043500002F0EAFD00BF8021024802F0F7FD0028CC
:10436000F9D010BD0044004010B510212F4802F0D4
:10437000EDFD002836D001202D49087000202D4980
:1043800008702D480068002822DB2B4800682B4964
:10439000096808442849086008460068FF2804DDC9
:1043A00008460068A0F580700860254801F01FFEEF
:1043B000C0F5807020490968401A20490860084605
:1043C0000068002804DC0846006800F5807008607A
:1043D0001C48006810B11B48006880471021134832
:1043E00002F0ABFD2021114802F0B0FDE0B10F4812
:1043F00002F096FDC4B21448006840B1204612494C
:10440000096888472021094802F097FD10BD0F4830
:1044100008490978445407480078401C0549087049
:104420002021024802F089FD00BFEFE7004800406C
:10443000C9030020D80300204804002064040020A1
:1044400030040240DC030020E0030020312800207B
:1044500010B504462146054802F066FD00BF8021E4
:10446000024802F073FD0028F9D010BD004800405A
:1044700010B510212F4802F069FD002836D0012028
:104480002D49087000202D4908702D48006800282B
:1044900022DB2B4800682B4909680844284908603A
:1044A00008460068FF2804DD08460068A0F5807013
:1044B0000860254801F09BFDC0F58070204909681F
:1044C000401A2049086008460068002804DC0846B5
:1044D000006800F5807008601C48006810B11B4837
:1044E000006880471021134802F027FD2021114861
:1044F00002F02CFDE0B10F4802F012FDC4B21448E6
:10450000006840B1204612490968884720210948BF
:1045100002F013FD10BD0F480849097844540748BC
:104520000078401C054908702021024802F005FD72
:1045300000BFEFE700600140CC030020FC03002037
:1045400054040020700400206C0402400004002089
:1045500004040020B429002010B504462146054873
:1045600002F0E2FC00BF8021024802F0EFFC0028CC
:10457000F9D010BD006001402DE9F04107460E461C
:1045800015465C480078B8B1012F15D1002D09DD22
:10459000002404E05848005D3055601C84B2AC42F1
:1045A000F8DB03E054493046FCF79DF80020514900
:1045B00008700120BDE8F08150480078B0B1022FAA
:1045C00014D1002D09DD002404E04D48005D305574
:1045D000601C84B2AC42F8DB03E049493046FCF78A
:1045E00082F80020454908700120E3E7454800783B
:1045F000B0B1032F14D1002D09DD002404E042489E
:10460000005D3055601C84B2AC42F8DB03E03E49EB
:104610003046FCF768F800203A4908700120C9E7E5
:104620003A480078B0B1042F14D1002D09DD0024E0
:1046300004E03748005D3055601C84B2AC42F8DBC2
:1046400003E033493046FCF74EF800202F4908704C
:104650000120AFE72F480078B0B1052F14D1002D0D
:1046600009DD002404E02C48005D3055601C84B254
:10467000AC42F8DB03E028493046FCF734F8002070
:1046800024490870012095E724480078B0B1062F2E
:1046900014D1002D09DD002404E02148005D3055CF
:1046A000601C84B2AC42F8DB03E01D493046FCF7E5
:1046B0001AF800201949087001207BE71948007892
:1046C000B0B1072F14D1002D09DD002404E01648F5
:1046D000005D3055601C84B2AC42F8DB03E0124947
:1046E0003046FCF700F800200E490870012061E711
:1046F00000205FE79A0400206E3D0020C8030020E0
:10470000B0270020C903002031280020CA03002060
:10471000B2280020CB03002033290020CC03002046
:10472000B4290020CD030020352A002030B585B003
:104730006A460021544801F010F99DF8080018B9A4
:1047400052490098086002E05049019808605048BA
:10475000006860B10DF10B014C4800684C4A1268CA
:1047600090470A21484801F0B1F805B030BD002556
:104770007EE00DF10B00405D4649474A12788854AF
:1047800045480078401C4449087044480078E0B12E
:10479000424800780978884262D1002404E03D480C
:1047A000005D3F490855641C3B4800788442F6D3BD
:1047B000394800783A4981F880000020364908706D
:1047C0000A21314801F082F8CFE733480078401ED3
:1047D0003049095C30480078C01E814226D12E48FD
:1047E0000078801E2B49085C0A281FD12A480078CF
:1047F000C01E085C0D2819D1002404E02548005D86
:1048000027490855641C24480078C01EA042F5D8EA
:1048100021480078C01E224981F8800000201E49EE
:1048200008700A21184801F051F89EE71A480078EC
:10483000401E1849095C18480078C01E81420FD0FC
:1048400015480078801E1349085C0A2808D11248D0
:104850000078C01E085C0D2802D100200E490870A7
:104860000D480078802802DB00200B4908706D1C81
:104870009DF80A00A8423FF67CAF0A21024801F0E9
:1048800025F800BF71E70000006400401804002014
:1048900020040020BA2C00201C0400201404002056
:1048A000B62A00200FB410B5ADF5027D044686A8E7
:1048B000019002A8019A8599FBF7ACFD00200190B8
:1048C00002A9204600F005F80DF5027D10BC5DF848
:1048D00014FB70B505460C462846FEF755FC064607
:1048E00002E02078B047641C20780028F9D170BD20
:1048F0007CB504460D46012C02D1284602F09EFAF2
:10490000022C39D10121B54801F0B0FA012004216F
:1049100000230822CDE9001002214120FEF75CFCB3
:104920000120182100231A46CDE90010032141205F
:10493000FEF752FC032211462620FEF7CCFE002390
:104940001A462946A64802F009FB0121A44802F0B4
:1049500069FB0121A24802F060FB0122A149A048A5
:1049600002F040FB01229F49491C9D4802F03AFB9E
:1049700001219B4802F0DCFA032C3AD1012197482F
:10498000401C01F073FA0120042100230822CDE924
:1049900000100A214220FEF71FFC012018210023ED
:1049A0001A46CDE900100B214220FEF715FC032228
:1049B00011462720FEF78FFE00231A4629468A4813
:1049C00002F0CCFA0121884802F02CFB0121864834
:1049D00002F023FB01228349834802F003FB0122FA
:1049E0008049491C804802F0FDFA01217E4802F00E
:1049F0009FFA042C3AD101217848801C01F036FA44
:104A00000120042100230822CDE900100A214320BF
:104A1000FEF7E2FB0120182100231A46CDE9001021
:104A20000B214320FEF7D8FB032211463420FEF76A
:104A300052FE00231A4629466C4802F08FFA0121E3
:104A40006A4802F0EFFA0121684802F0E6FA012212
:104A50006449664802F0C6FA01226249491C63486B
:104A600002F0C0FA0121614802F062FA052C3AD145
:104A700001215A48C01C01F0F9F90120042100234A
:104A80000822CDE900100C214320FEF7A5FB0120F0
:104A9000182100231A46CDE9001002214420FEF718
:104AA0009BFB032211463520FEF715FE00231A4614
:104AB00029464F4802F052FA01214D4802F0B2FA5D
:104AC00001214B4802F0A9FA01224649484802F068
:104AD00089FA01224349491C454802F083FA012121
:104AE000434802F025FA062C3AD101214FF0181064
:104AF00001F0BCF90120042100230822CDE90010B7
:104B000006214320FEF768FB0120182100231A46E6
:104B1000CDE9001007214320FEF75EFB032211467A
:104B20004C20FEF7D8FD00231A462946314802F0F2
:104B300015FA01212F4802F075FA01212D4802F0E3
:104B40006CFA012227492B4802F04CFA0122254930
:104B5000491C284802F046FA0121264802F0E8F9EB
:104B6000072C39D10121244801F080F901200421CA
:104B700000230822CDE9001011464520FEF72CFB4A
:104B80000120182100231A46CDE9001007214520F5
:104B9000FEF722FB032211464D20FEF79CFD002369
:104BA0001A462946154802F0D9F90121134802F0A6
:104BB00039FA0121114802F030FA012209490F485F
:104BC00002F010FA01220749491C0C4802F00AFAC7
:104BD00001210A4802F0ACF97CBD000011001C0064
:104BE0000044004004000C0000480040004C00401D
:104BF00000500040006001401900180000640140AE
:104C000000BFFEE707E00A2203490720FFF7B4FCD4
:104C1000142002F005FBF6E7B404002003B4019869
:104C20004100009850EAC12018BF04204A0D18BF67
:104C300040F0010040F2FF72B2EB515F08BF40F05C
:104C40000200012808BF052002B0704700000000E4
:104C500010B52F499FED2C1B2DED020B84B005984C
:104C600020F000408842D8BF9DED040B2DDD29497E
:104C7000884209D1049840B94FF00100FBF715FEB6
:104C800000F0A2FC06B010BD05DB9DED040B00F0AA
:104C90008FFC06B010BD68469DED040B00F0A0F837
:104CA00010F0030004BF9DED021B9DED000B0CD026
:104CB00001280ED09DED021B9DED000B022817D0A0
:104CC000012000F0DDFB06B010BD00F0A5FA06B033
:104CD00010BD9DED021B9DED000B012000F0D0FBEF
:104CE00051EC100B02F008FE06B041EC100B10BDA9
:104CF00000F092FA51EC100B02F0FEFD06B041EC10
:104D0000100B10BD000000000000000000000000BB
:104D1000FB21E93F0000F07F10B52F499FED2C1BD0
:104D20002DED020B84B0059820F000408842DCBFD6
:104D300000209DED040B32DD2849884209D10498FA
:104D400040B94FF00100FBF7B0FD00F03DFC06B0AC
:104D500010BD05DB9DED040B00F02AFC06B010BD74
:104D600068469DED040B00F03BF810F0030011D0F5
:104D7000012818D09DED021B9DED000B02281AD0D2
:104D800000F04AFA51EC100B02F0B6FD06B041EC0F
:104D9000100B10BD9DED021B9DED000B012000F0DE
:104DA0006FFB06B010BD9DED021B9DED000B00F0EA
:104DB00033FA06B010BD012000F062FB51EC100B7D
:104DC00002F09AFD06B041EC100B10BD000000008F
:104DD0000000000000000000FB21E93F0000F07F20
:104DE0002DE9F14F04462DED020B2DED088B8AB015
:104DF0009FEDE70B80ED020B139EE74826F0004580
:104E000085420ADC9DED120B002084ED000B0AB0F8
:104E1000BDEC088B03B0BDE8F08FE0489FEDE0AB40
:104E20009FEDE1BBA84247DDE14F9FEDE39B9FED86
:104E3000E48B9DED120B53EC1A2B51EC100B002E52
:104E40001CDD03F0B5F941EC100BBD4208D053EC6A
:104E50001B2B51EC100B03F0ABF9C4E900010BE084
:104E600053EC192B51EC100B03F0A2F953EC182B57
:104E700003F09EF9C4E900010120C8E702F07AFDC1
:104E800041EC100BBD4208D053EC1B2B51EC100B26
:104E900002F070FDC4E900010BE053EC192B51EC5A
:104EA000100B02F067FD53EC182B02F063FDC4E910
:104EB00000014FF0FF30AAE7C348A84279DB9DED1F
:104EC000120B51EC100B01F0BDF841EC180B9FEDEB
:104ED000C00B53EC102B03F02BF89FEDBF1B53ECD2
:104EE000112B02F047FD02F08DFF074602F0B9FFDB
:104EF00041EC190B53EC1A2B03F01AF853EC182B56
:104F000003F04AF941EC180B53EC1B2B51EC190B35
:104F100003F00EF8DFF8C8A241EC100B4FEA155869
:104F20000125FA4453EC102B51EC180B03F040F917
:104F3000032DC4E900013DD0C1F30A5005EB451132
:104F4000A8EB00001139814234DA0AEB051BB0EE00
:104F500048AA9BED000BF0EE68AA53EC102B51EC25
:104F6000190B02F0E5FF41EC1B0B51EC1A0B53EC53
:104F70001B2B03F01DF941EC180B51EC1A0B53ECF1
:104F8000182B03F015F953EC1B2B03F011F99BEDD3
:104F9000020B41EC1A0B53EC102B51EC190B02F0E5
:104FA000C7FF53EC1A2B03F003F941EC100B6D1CF7
:104FB000B8E70EE0002EA8BF3846BFF628AF94ED44
:104FC000000B51EC100B02F097FCC4E90001784291
:104FD0001DE7C6F3130040F4801EC6F30A50A0F28A
:104FE000F530471100F01F05C5F12000DDF848B08D
:104FF00008900020069007900520EC467949002D86
:1050000007EB0002794408BF51F8221009D051F88B
:10501000223001EB8201AB404A68089922FA01F183
:105020001943A1FB0E26A1FB0B131A449A4234BF6D
:105030000123002303EB06080CEB8003D3E901A650
:105040000E448E4234BF0121002192448A4411B1A2
:10505000924502D903E0924501D2012100E00021EE
:10506000C3E901A641444CF82010011EA0F1010043
:10507000C4DC029800F10050850F0298DDE9036757
:105080008000DDF8148002F0ECFE41EC1A0B304693
:1050900002F0FEFE9FED541B53EC112B02F048FF73
:1050A00041EC1B0B384602F0F3FE9FED511B53EC15
:1050B000112B02F03DFF41EC180B404602F0E8FED8
:1050C0009FED4D1B53EC112B02F032FF41EC190BFD
:1050D00051EC180B53EC192B02F04CFC53EC1B2B2E
:1050E00002F048FC53EC1A2B02F044FCCDE9080115
:1050F000002008909DED080B53EC1A2B51EC100B7F
:1051000003F056F853EC1B2B03F052F853EC182B1A
:1051100003F04EF853EC192B03F03EF89FED381BCB
:1051200053EC112B02F004FF9FED370B41EC180BF1
:1051300053EC102B9DED080B51EC100B02F0F8FE18
:1051400053EC182B02F016FC9FED310B41EC180BC1
:1051500053EC102B9DED080B51EC100B02F0E8FE08
:1051600053EC182B02F006FC41EC100B139810F0D6
:10517000004F06D06D4251EC100B02F0BDFB41EC2C
:10518000100B284684ED000B41E6000000000000F3
:105190000000000000000000FB21E93F7CD9024034
:1051A00000004054FB21F93F3163621A61B4D03DE5
:1051B000FB21F93F000000000000601A61B4D03DFF
:1051C0007370032E8A19A33BFB21394100000000B4
:1051D00083C8C96D305FE43F000000000000E03F7D
:1051E0003236000080350000000000000000103E54
:1051F000000000000000103C000000000000103A19
:10520000182D4454FB21F93D3326A611460B113CC1
:1052100000000054FB21F93D10B52DED040B2DEDE0
:10522000088B82B0B0EE419AF0EE619A0B9820F0B4
:1052300000449FED4BABB4F1795F11DA9DED0A0BA1
:1052400051EC100B02F0DEFD002801BFB0EE4A0A5F
:10525000F0EE6A0A02B0BDEC088B04BF04B010BDCA
:105260009DED0A0B53EC102B51EC100B02F060FE7D
:1052700041EC180B3C480621B0EE480AF0EE680AF3
:10528000784400F081F853EC182B51EC100B02F02D
:105290004FFE9DED0A0B41EC1B0B53EC192B51EC0F
:1052A000100B02F045FE41EC190B53EC1B2B51EC9B
:1052B000180B02F03DFE53EC192B02F079FF9FED25
:1052C0002C0B41EC190B53EC102B51EC180B02F08A
:1052D0002FFE41EC100B2848844210DA53EC192BB6
:1052E00051EC100B02F064FF53EC1A2B02F054FF48
:1052F00041EC100B02B0BDEC088B04B010BD1F4890
:10530000A042BCBF9FED1E1B8DED001B06DBA4F56C
:1053100000100190002000909DED001B51EC100B3F
:1053200053EC112B02F044FF9DED000B41EC180BE8
:1053300053EC102B51EC1A0B02F03AFF41EC1A0B14
:1053400053EC192B51EC180B02F032FF53EC1A2BD3
:1053500002F022FF41EC100BCCE70000000000003F
:10536000000000000000F03FA43200000000000038
:10537000000000000000E03F3333D33F0000E93F6E
:10538000000000000000D23F70B504462DED028BF6
:105390004D1E00EBC500B0EE408AF0EE608A90ED45
:1053A000000B35F0060017D053EC182B51EC100B06
:1053B00002F0BEFD41EC100B6D1E04EBC50090ED3C
:1053C000001B51EC100B53EC112B02F0D3FA41EC03
:1053D000100B35F00600E7D1022D36D0042D1CD07D
:1053E000062D1CBFBDEC028B70BD53EC182B51EC8D
:1053F000100B02F09DFD94ED0A1B53EC112B02F0F3
:10540000B9FA53EC182B02F093FD94ED081B53EC02
:10541000112B02F0AFFA41EC100B53EC182B51ECAE
:10542000100B02F085FD94ED061B53EC112B02F0DE
:10543000A1FA53EC182B02F07BFD94ED040B53EC16
:10544000102B02F097FA41EC100B53EC182B51EC97
:10545000100B02F06DFD94ED021B53EC112B02F0CA
:1054600089FA53EC182B02F063FD94ED001B53EC0A
:10547000112B02F07FFABDEC028B41EC100B70BDDA
:1054800031B504462DED040B2DED0A8BB0EE41BA7B
:10549000F0EE61BA0B989DED0A0B20F00040B0F1E0
:1054A000795F0DDA51EC100BFFF7B8FB042808BF49
:1054B00000F09AF89DED0A0BBDEC0A8B05B030BDEB
:1054C00053EC102B51EC100B02F032FD41EC180B99
:1054D0009DED0A0B53EC182B51EC100B02F028FD3C
:1054E00041EC190B2C48B0EE480AF0EE680A052191
:1054F0007844FFF749FF9FED2ACBB0EE40AAF0EECB
:1055000060AA9CB353EC1C2B51EC190B02F010FD5C
:1055100041EC1C0B53EC1A2B51EC190B02F008FD5B
:105520009FED210B41EC190B53EC102B51EC1B0B95
:1055300002F0FEFC53EC192B02F03AFE53EC182B50
:1055400002F0F6FC53EC1B2B02F032FE53EC1C2B4A
:1055500002F02EFE9DED0A1B53EC112B02F01CFEF7
:10556000BDEC0A8B05B041EC100B30BDFFE753ECEE
:105570001A2B51EC180B02F0DBFC53EC1C2B02F045
:10558000F9F953EC192B02F0D3FC9DED0A1B53ECF7
:10559000112B02F0EFF9E3E72C31000000000000CE
:1055A000495555555555C5BF000000000000E03F66
:1055B00010B553EC102B51EC100B02F0DBF941EC61
:1055C000100B10BD000000009FED050B10B553EC53
:1055D000102B51EC100B02F081FA41EC100B10BDB6
:1055E00000000000000000009FED050B10B553EC1B
:1055F000102B51EC100B02F09BFC41EC100B10BD7A
:10560000000000000000001030380A2801D20120FC
:1056100070470020704700BF704730B50246002039
:105620000023146824F002041460146824F00104B8
:10563000641C146000E05B1C546804F001041CB995
:105640004FF6FF74A342F6D1546804F00104002C15
:105650003FD04D78146865F3C71414608D781468D2
:1056600065F386141460CD78146865F345141460EE
:105670000D79146865F3041414604D79146865F3AA
:10568000C30414608D79146865F3820414600C7887
:10569000D56964F39E75D5610C786508D46965F3A6
:1056A000DF74D461146824F001041460002300E066
:1056B0005B1C546804F001041CB14FF6FF74A34254
:1056C000F6D1546804F001040CB1002002E001207E
:1056D00000E0002030BD30B50246002000231468F1
:1056E00024F002041460146824F00104641C1460A3
:1056F00000E05B1C546804F001041CB94FF6FF7411
:10570000A342F6D1546804F001045CB30C88641E13
:10571000D56964F30B05D5618D78D46965F3196497
:10572000D461CD78D46965F31344D4610D79D4691B
:1057300065F31654D461146824F001041460002346
:1057400000E05B1C546804F001041CB14FF6FF74C8
:10575000A342F6D1546804F001040CB1002002E029
:10576000012000E0002030BD30B50022CC780123BC
:1057700003FA04F2D0F8003223F001035B1CC0F8F6
:105780000032D0F81C329343C0F81C320B7913B1AD
:10579000012B5AD12CE0D0F80C329343C0F80C32D4
:1057A0008B891C04CD7800F5107343F83540CC7814
:1057B00053F834300C892343CD7800F5107444F845
:1057C00035304B891C04CD7800F5107303EBC5030D
:1057D0005C60CC7800F5107303EBC4035B68CC8885
:1057E0002343CD7800F5107404EBC50463602DE00D
:1057F000D0F80C321343C0F80C32CB881C04CD789F
:1058000000F5107343F83540CC7853F834300C89E8
:105810002343CD7800F5107444F835304B891C04CF
:10582000CD7800F5107303EBC5035C60CC7800F510
:10583000107303EBC4035B688C892343CD7800F5B8
:10584000107404EBC504636000E000BF00BF4B7838
:1058500013B1012B0CD105E0D0F804329343C0F80A
:10586000043206E0D0F804321343C0F8043200E0FA
:1058700000BF00BF8B7813B1012B0CD105E0D0F82D
:1058800014329343C0F8143206E0D0F814321343B4
:10589000C0F8143200E000BF00BF0B783BB1012B11
:1058A0000BD1D0F81C321343C0F81C3206E0D0F8FC
:1058B0001C329343C0F81C3200E000BF00BFD0F898
:1058C000003223F00103C0F8003230BD122935D276
:1058D000DFE801F034090A0B0F0C14171B341F22E8
:1058E0003425282B2E3100BF00BF00BF04224260A8
:1058F00025E0042242600022826120E001228260D1
:105900001DE04FF48072826019E04FF480328260B3
:1059100015E00822C26012E01022C2600FE00822E7
:1059200002610CE01022026109E00822426006E0F8
:105930001022426003E0034A826000E000BF00BF23
:1059400070470000010101001AB143690B43436134
:1059500002E043698B434361704730B505460C460E
:10596000134605F5D87000EB04100068C0F3800002
:105970001872187A10B1012813D107E005F5D87014
:1059800000EB04100068400D18600BE005F5D870BE
:1059900000EB041000686FF0604101EAD00058602D
:1059A00000E000BF00BF05F5D87000EB04100068F0
:1059B000C0F34000587205F5D87000EB0410406841
:1059C00000F00F00987205F5D87000EB04104068E5
:1059D000000AD87405F5D87000EB04108068D872FE
:1059E00005F5D87000EB04108068010A197305F5FD
:1059F000D87000EB04108068010C597305F5D8705D
:105A000000EB04108068010E997305F5D87000EB67
:105A10000410C068D87305F5D87000EB0410C06896
:105A2000010A197405F5D87000EB0410C068010C68
:105A3000597405F5D87000EB0410C068010E997414
:105A40002146284600F09DF830BD10B502460420DE
:105A50009368C3F380630BB100200CE09368C3F339
:105A6000C0630BB1012006E09368C3F300730BB170
:105A7000022000E0042004287CD002F5C07303EB70
:105A800000131B6803F0010402F5C07303EB00135D
:105A90001C600C7A02F5C07303EB00131B6864F3FF
:105AA000820302F5C07404EB001423600B7A13B177
:105AB000012B1CD10DE00C8802F5C07303EB001321
:105AC0001B6864F35F5302F5C07404EB0014236099
:105AD0000EE002F5C07303EB00131B684C6843EA49
