:020000040800F2
:10000000F02A0020D10300089D3700081D360008A3
:10001000213600080D220008594D0008000000009C
:1000200000000000000000000000000011030008B4
:10003000E72F0008000000006D030008593F00088A
:10004000EB030008EB030008EB030008EB030008D8
:10005000EB030008EB030008EB030008EB030008C8
:10006000EB030008EB030008EB0300080D2D00086C
:100070006D2D0008CD2D0008312E0008952E0008AA
:10008000F92E00085D2F0008EB030008EB030008C1
:10009000D14800082D220008EB030008EB030008FC
:1000A000EB030008EB030008EB030008EB03000878
:1000B000EB030008EB030008EB030008EB03000868
:1000C000EB030008EB030008EB030008EB03000858
:1000D000EB0300081D450008194600080147000809
:1000E000EB030008EB030008EB030008EB03000838
:1000F000EB030008EB030008EB030008EB03000828
:10010000EB030008EB030008EB030008EB03000817
:10011000654200084D430008EB030008EB030008AC
:10012000EB030008EB030008EB030008EB030008F7
:10013000EB030008EB030008EB030008EB030008E7
:1001400000000000000000000000000000000000AF
:10015000EB0300089D230008F1240008EB030008CE
:10016000EB030008EB030008EB030008EB030008B7
:10017000E947000835440008EB030008EB030008DA
:10018000EB03000800F002F800F0B2F80AA090E8D3
:10019000000C82448344AAF10107DA4501D100F042
:1001A000A7F8AFF2090EBAE80F0013F0010F18BF5D
:1001B000FB1A43F00103184724890000448900001A
:1001C0000A444FF0000C10F8013B13F0070408BF7D
:1001D00010F8014B1D1108BF10F8015B641E05D01B
:1001E00010F8016B641E01F8016BF9D113F0080FD0
:1001F0001EBF10F8014BAD1C0C1B09D16D1E58BF62
:1002000001F801CBFAD505E014F8016B01F8016B98
:100210006D1EF9D59142D6D370470000002300240B
:1002200000250026103A28BF78C1FBD8520728BF06
:1002300030C148BF0B6070476E2900F0668370299B
:1002400000F0B184662908F0A483652908F0A18331
:10025000672908F09E83612908F09D8303681B0AC3
:1002600028BF41F08001692900F0EE80642900F088
:10027000EB80752900F0E8806F2900F03E84782932
:1002800000F07D84E92900F0D983E42900F0D683C9
:10029000F52900F0D383EF2900F03B84F82900F022
:1002A0007C840368DB0928BF41F08001632901F0E9
:1002B000A580732901F0AA80E32901F0B580F32914
:1002C00001F0BA80002070471FB508F014FB01F060
:1002D0004BF904000020002107F040FF401C606043
:1002E0000020002107F050FFE0601FBD10B510BDD9
:1002F00001F015F91146FFF7E7FF06F097FD01F051
:10030000F7F903B4FFF7F2FF03BC04F0D0FD0000DF
:100310002C4B19680868B0E8F04F80F30988BFF3E8
:100320006F8F4FF0000080F31188704700000000CD
:1003300008480068006880F308884FF0000080F3E8
:10034000148862B661B6BFF34F8FBFF36F8F00DFC3
:1003500000BF00BF08ED00E0DFF80C00016841F4C9
:1003600070010160704700BF88ED00E0EFF3098085
:10037000BFF36F8F134B1A681EF0100F08BF20EDEC
:10038000108A20E9F04F106009B44FF0100080F39C
:100390001188BFF34F8FBFF36F8F07F083FC4FF0CF
:1003A000000080F3118809BC19680868B0E8F04FB4
:1003B0001EF0100F08BFB0EC108A80F30988BFF35D
:1003C0006F8F704714040020EFF305807047000022
:1003D0000948804709480047FEE7FEE7FEE7FEE7D9
:1003E000FEE7FEE7FEE7FEE7FEE7FEE70448054915
:1003F000054A064B704700008D3F00088501000844
:10040000F0240020F02A0020F0260020F026002012
:10041000704700007CB51D4616460C00009001D0C8
:100420002044401E074B7B442A46694601903046D3
:1004300000F085FA05461CB10020694600F092FAEA
:1004400028467CBD450500002DE9F0410646002404
:1004500010687529314616A510D000F0C2F90028A1
:1004600002DA404213A507E031688A0701D512A5D8
:1004700002E0490704D511A5012401E000F0BAF912
:1004800000210A2206F1240709E0B0FBF2FCB0FBD0
:10049000F2F302FB1C00303078541846491C002847
:1004A000F3D123462A463046BDE8F04100F0D4B9E6
:1004B000000000002D0000002B00000020000000C4
:1004C0002DE9F05F894604464FF0000ADFF874B169
:1004D000FB44C0F820A02046E1688847002874D07B
:1004E000252806D0D4E901219047206A401C2062CB
:1004F000F1E700265F462046E16888472028054648
:1005000007DB312D05D2781910F8200C08B106430D
:10051000F1E7B00701D526F00406C4F81CA00027B7
:10052000C4F818A02A2D09D0284604F0B9FC38B325
:1005300004EB8708303DC8F8185019E059F8041B3F
:10054000204604EB87029161E1688847012F054648
:1005500018D1E069002820DA26F020061DE0D8F83E
:10056000180000EB800005EB40003038C8F8180098
:100570002046E1688847054604F092FC0028EED149
:10058000012F0AD02E2D08D12046E16888477F1C14
:100590000546022F46F02006C4DBA069002803DAD6
:1005A000404246F00106A061F00701D026F0100697
:1005B0006C2D0BD0682D09D04C2D39D06A2D35D03B
:1005C000742D35D07A2D33D016E038E0E1682F460F
:1005D00020468847B842054609D16C2F26D04FF4F3
:1005E0008060E168064320468847054604E06C2F9A
:1005F0001AD04FF4807006430DB3A5F141001928BD
:1006000002D8203546F400664A4629462046266030
:100610004E46FFF711FE80B101280BD0F61D26F0E3
:10062000070000F1080956E74020E4E78020D8E7FA
:100630000020D6E706F104094DE7284652E7206A74
:10064000BDE8F09F0885000070B5064600F09EF8F2
:100650000468054630460A22002100F0AFFA2C60FB
:1006600070BD10B5431C02E010F8011B71B1810789
:10067000FAD14FF0013202C88C1A8C4314EAC2112D
:10068000F9D0C01A0A0603D0C01E10BDC01A10BD92
:100690000A0401D0801E10BD0902FCD0401E10BD0E
:1006A00010B5203AC0F00B80B1E81850203AA0E80D
:1006B0001850B1E81850A0E81850BFF4F5AF5FEA41
:1006C000027C24BFB1E81850A0E8185044BF18C9F4
:1006D00018C0BDE810405FEA827C24BF51F8043B9B
:1006E00040F8043B08BF7047D20728BF31F8023BEF
:1006F00048BF11F8012B28BF20F8023B48BF00F883
:10070000012B70474FF0013C50F8042B51F8043B8B
:100710009A4221D1A2EB0C03934313EACC1317D1D5
:1007200050F8042B51F8043B9A4215D1A2EB0C036C
:10073000934313EACC130BD150F8042B51F8043B2C
:100740009A4209D1A2EB0C03934313EACC13DBD0FA
:100750004FF00000704700BFD01A01BAB1FA81F122
:1007600001F0180122FA01F0CB40C1F12001DBB207
:10077000C0B2C01A2CFA01F3D11A914311EAC31185
:10078000E6D1704770477047704770470048704720
:100790009024002070B5044685690068C10601D523
:1007A000302600E02026C00707D070BDD4E9012123
:1007B00030469047206A401C20626D1EF6D570BD01
:1007C00070B5044685690078C00707D170BDD4E9CB
:1007D000012120209047206A401C20626D1EF6D522
:1007E00070BD09684A0501D540B27047C905FCD5FE
:1007F00000B2704709684A0501D5C0B27047C90503
:10080000FCD580B2704770B50C460546012A05D06C
:100810002878800600D5EA69002302E0012305E07C
:100820005B1C934202D2E05C0028F9D1A869E6186B
:10083000C01AA861286A184428622846FFF7AAFF50
:1008400004E0D5E9012114F8010B9047B442F8D334
:100850002846FFF7B5FF70BD2DE9F0470D469946D4
:100860009246044600F124080168880604D5E06930
:1008700021F01001216000E00120A84201DD471BAA
:1008800000E00027A1697A1902EB0900081AA061AB
:100890002078C00602D42046FFF77CFF002608E03F
:1008A000D4E901211AF806009047206A401C761C02
:1008B00020624E45F4DB2078C0060AD52046FFF7BB
:1008C00069FF06E0D4E9012130209047206A401CEE
:1008D0002062381EA7F10107F4DC07E0D4E901210A
:1008E00018F805009047206A401C2062281EA5F1D8
:1008F0000105F3DC2046FFF763FF2078000602D5F0
:100900000220BDE8F0870120FBE711680268006A59
:10091000530501D508700AE0D30501D5088006E02B
:10092000130603D5C217C1E9000200E008600120E8
:100930007047000001694A1C02610878704700B5E1
:100940008FB0CDE901310021059105497944CDE908
:10095000031011466846FFF7B3FD0FB000BD00005D
:10096000E5FFFFFF0A6802F8010B0A607047D1E952
:1009700000239A4202D2531C0B6010707047000093
:100980002DE9FF5F15468A460446DFF8AC80F8443F
:100990000027D8E900103E46CDE9001010E03AF8F3
:1009A00016106A4602A800F09AFD411C07D0217873
:1009B000890603D5E269391891420DD80744761C9F
:1009C0002078800602D5E069B84205DDAE42E6DB5C
:1009D0003AF816000028E2D1A069C01BA0612046A9
:1009E000FFF7D8FED8E90010CDE90010002017E08D
:1009F0003AF818106A4602A800F071FDB0F1FF3F06
:100A000081460BD000250DF1080B05E0D4E901214A
:100A10001BF8050090476D1C4D45F7D308F1010008
:100A2000B0428046E4DB206A384420622046FFF76B
:100A3000C7FEBDE8FF9F00005E8000002DE9F04189
:100A40008046D21D22F007020025D2E90002F529D6
:100A500015A614D0011E72F1000106DA0023D0EBB6
:100A6000030063EB020211A608E0D8F800108B0720
:100A700001D50FA602E0490701D50EA601251146B2
:100A8000002408F1240704E000F0DCF830323A5585
:100A9000641C50EA0102F7D12B46324621464046FB
:100AA000BDE8F041FFF7D8BE000000002D000000B7
:100AB0002B0000002000000030B4002100F12404CD
:100AC00008E002F00705D208303542EA4372DB083D
:100AD0006554491C52EA0305F3D10468002310A2AF
:100AE000250707D5A40600D421B1C46901230DA2AE
:100AF000641EC46130BCFFF7AFBE10B5044621468A
:100B00001068FFF777FE02462046BDE8104000233C
:100B1000D2E7D21D22F00701D1E90023CCE7000083
:100B20000000000030000000F0B40D460188090507
:100B300002D5214C7C4402E01F4C7C440E34002141
:100B400000F1240608E002F00F071209E75D42EA0F
:100B500003721B097754491C52EA0307F3D1027848
:100B60000023120704D5702D06D009B102231134D9
:100B70002246F0BCFFF770BE01231034F8E770B5D1
:100B800004460D4621461068FFF734FE024629460A
:100B90002046BDE870400023C6E7D21D22F00703BF
:100BA000D3E90023C0E70368126843F02003036021
:100BB0000823C3610023B7E7C07E00002DE9F0479A
:100BC00091460F4680460446002614F8015B2DB17D
:100BD00000F030F80068405DC007F6D12B2D02D040
:100BE0002D2D18D0641E4A463946204600F028FCB8
:100BF00027B13968A14201D1C7F800804FF0020443
:100C000071050BD54042002803DDFFF7BFFD0460EE
:100C1000A007BDE8F08746F48066E4E70028F8DA2C
:100C2000FFF7B4FD04606FF00040F2E70048704742
:100C30009024002010B500F097FC001D10BD00BFEF
:100C40001D75000030B5B0F10A024FEA900E71F147
:100C500000034EEA817EB0EB0E0061EB91014FEA9A
:100C6000101E4EEA017E10EB0E0041EB11114FEA0F
:100C7000102E4EEA016E10EB0E0041EB11214FEAEF
:100C8000104E4EEA014E10EB0E0041EB11414018A0
:100C900041F100014FEAD00040EA41704FEAD10132
:100CA00010EB80054FEA810444EA907444EB0104A0
:100CB0006D1944EB0404521BA3414FF0000348BFDD
:100CC0000A3200D530BD401C41F1000130BD7047F3
:100CD0002DE9FF4F0C461E464FF0FF378BB0D2E98F
:100CE0000001DDF860800A908A46C1F30A5505B913
:100CF0003D46002108464FF00000BAF1000F00F415
:100D0000400005DA00EB80004FF4400101EA50009A
:100D10004FEA9059B9F1010F00DDB9460A9850EA3F
:100D20004A000ED044F61050A5F2FF3545432F146B
:100D3000B8F1000F1ED07542291E1EDDC9F1000258
:100D40001CE0B8F1010F4FF0000001D0302103E0AA
:100D5000F24305E02154401CB042FBDB3046002248
:100D6000002121540B99C1F80880C1E900200FB07F
:100D7000BDE8F08FBD1B6D1CDEE74A4600DA694214
:100D800006A800F043FC06AB93E8070003AB83E83A
:100D9000070050460A9900F0B4FC8DE80700A0F562
:100DA00000501F3800900398002D0ADD42F21F0109
:100DB0004A460844002303A90390684600F01DFF3B
:100DC00009E0A0F500504A461F38002303A903900C
:100DD000684600F027FF8DE807000004000C03D0F0
:100DE0004FF0FF30410800E01046B8F1000F03D08B
:100DF0000022009215461EE0751E05D4FFF722FF63
:100E0000303262556D1EF9D5B3460122084302D037
:100E100000227F1C04E02078302801D100227F1EB0
:100E2000002A099784D01DE0112D07DAFFF70AFF89
:100E3000303262556D1C50EA0102F5D1084302D0F0
:100E40000098C8B10EE00021681E05E0235C625CDA
:100E500063542254401E491C8142F7DBAB46A81B59
:100E6000401E0990002004F80B000B98099AC0F866
:100E70000880C0E9002B7AE711264FF0000857E7F9
:100E80002DE9F04F88460446D21D22F0070191B0AB
:100E9000D1E90001CDE90A0103F0EAFF02460B980F
:100EA000C00F01D02D2007E02068810701D52B203D
:100EB00002E0202101EAC000032A099001D0072A9C
:100EC00005DB03464146204600F052FB0BE120784B
:100ED000800601D5E06900E00620B8F1650F814683
:100EE00006D0B8F1660F18D0B8F1670F70D131E0B5
:100EF0000020B9F1110F009001DB112301E009F18D
:100F000001030AAA01A90CA8FFF7E2FEDDE90C70B3
:100F1000002609F10105834647E001204B46009079
:100F20004FF000470AAA01A90CA8FFF7D1FEDDE99E
:100F30000DB00C995D46002610B909F101000D189D
:100F4000B9EB050003D4C0F1FF3609F10105A5EBAB
:100F500009002BE0B9F1010F01DA4FF0010900207F
:100F6000B9F1110F0090484601DD112300E003465E
:100F70000AAA01A90CA8FFF7ABFEDDE90C704D46EB
:100F800000268346207800070AD4AB4500DA5D4688
:100F900001A8012D04DD411911F8011C302907D0E9
:100FA0004F4502DA17F1040F04DA012082460FE000
:100FB0006D1EEEE7002F02DCED1B3E4403E0781CC3
:100FC000A84200DD7D1CB81B00F1010A4FF000476C
:100FD0002078000703D4AA4501DB4FF0FF3A002137
:100FE000B7F1004F0DF143088DF8431024D00220D3
:100FF0002B23002F01DA7F422D230A21021EA0F1AC
:10100000010000DC5FB197FBF1FC97FBF1F201FB03
:101010001C7C17460CF1300C08F801CDEEE7A8F166
:10102000010003702188090501D5452100E06521F3
:10103000A0F1010800F8011C09980FA9A1EB08070D
:10104000FF1D00B10120411901EBEA70A16938448C
:10105000081A401EA0612078C00602D42046FFF77F
:1010600099FB099828B1D4E901219047206A401CD6
:1010700020622078C00622D52046FFF78BFB1EE0B9
:10108000002E04DBB34502DD01A8805D00E03020C6
:10109000D4E901219047206A401C2062761CAAF105
:1010A00001005FEA000A0AD100F05EFAC068016838
:1010B000405CD4E901219047206A401C2062281E30
:1010C000A5F10105DCDC07E0D4E9012118F8010BEA
:1010D0009047206A401C2062381EA7F10107F3DC0C
:1010E0002046FFF76DFB032011B041E62DE9F04FDC
:1010F00004460D46D21D22F0070089B0D0E90097C2
:101100004846394603F0B4FE0246F80F01D02D23BD
:1011100007E02068810701D52B2302E0202101EAA6
:10112000C0038DF820300BB1012000E00020032A1D
:10113000824601D0072A04DB2946204600F018FA2F
:101140003FE12078800601D40D2500E0E569C7F372
:101150000A560D2D49DA00214FEA175B08464FF079
:101160000000002F00F4400007DA00EB80004FF48D
:10117000400100EBD07001EA60008115012901DD1A
:101180004FF0FF3100224FEA850CBCF1180F06D357
:101190001346ACF118004FF08052C24003E04FF408
:1011A000801323FA0CF30CF10C0CBCF1200F04D3C8
:1011B000ACF1200C09FA0CF001E007FA0CF0002960
:1011C0004FF0004801DD18B90FE00ED140450CD3B7
:1011D00019EB02095F4121B9404502D19F4329EA39
:1011E0000209BBEB175F00D0761C2088000502D5F2
:1011F0007B48784402E07A487844193808AA3023BA
:1012000002F80A30037C0AF10101002E0AF1020AF9
:1012100053546A4602DC4FF0300101E04FF03101D7
:101220004FF001088DF8001002D0A6F2FF3603E05F
:1012300059EA470100D06B4E002D02DC21780907E6
:1012400004D54FF002082E218DF80110C44600216C
:101250000BE0C7F303433F01C35C491C6D1E02F85A
:101260000830052908F1010801DA002DF1DC002120
:101270000CE000EB1973491C1B786D1E082902F85D
:1012800008304FEA091908F1010801DA002DF0DCF5
:1012900021688B0602D516E0A8F10108E04505DDBE
:1012A00002EB080313F8013C302BF5D0B8F1000F26
:1012B00009DD02EB080313F8013C2E2B03D10907CB
:1012C00001D4A8F10108002D05DD3E2102F8081027
:1012D0006D1E08F10108407C002E02F8080008F19C
:1012E000010804DA2D20764202F8080002E02B20E3
:1012F00002F808000A214FF47A70864208F10108CA
:101300000BDB96FBF0F3303302F8083096FBF0F37A
:1013100008F1010800FB136601E0642E0CDB642079
:1013200096FBF0F3303302F8083096FBF0F308F147
:10133000010800FB136601E00A2E06DB96FBF1F0C4
:10134000303002F8080008F1010896FBF1F001FBCB
:101350001060303002F80800A16908F1010808EBBC
:10136000050202EB0A00081AA0612078C00602D428
:101370002046FFF70FFA216A08AE01EB0A0020624F
:1013800004E0D4E9012116F8010B9047BAF1010AF3
:10139000F7D22078C00602D52046FFF7FBF96E464B
:1013A00009E016F8010B3E280FD0D4E9012190473F
:1013B000206A401C2062B8F10108F2D22046FFF7F3
:1013C000FFF909B00320BDE8F08F206A28442062AD
:1013D00003E0D4E90121302090476D1EEBD3F8E7FC
:1013E0003D78000002FCFFFF10B5436913B1AFF375
:1013F000008001E0FFF707FA012010BD127800F12C
:1014000024010A7000224A700122EDE711684FF0B2
:10141000FF32E9E710B5436913B1AFF3008001E093
:10142000FFF7AEFA012010BD128800F1240182847A
:101430000022C2840122EDE711684FF0FF32E9E794
:101440002DE9F05F824615468B4600270AF101041C
:10145000B9460078302801D09DB113E014F8010B93
:101460000127782803D0582801D045B10AE00DB1F2
:10147000102D07D1002714F8010B102502E00825D4
:1014800000E00A250026B0460EE005FB080005FB3B
:1014900006F101271FFA80F801EB1046B6F5803FF0
:1014A00000D3B94614F8010B294600F0A1F8002832
:1014B000EBDABBF1000F05D00FB1641E00E054461B
:1014C000CBF80040B9F1000F06D0FFF75FF9022119
:1014D0000160C81EBDE8F09F48EA0640FAE770B513
:1014E00016460C460546FFF7A5FB036893F8010175
:1014F000012806D0FF2C0FD8185D68B101202C7090
:1015000070BDD3F807013246214603F207130344A6
:101510002846BDE8704018474FF0FF3070BD754653
:10152000FFF784FBAE4605006946534620F00700EE
:10153000854618B020B5FEF759FFBDE820404FF0B2
:1015400000064FF000074FF000084FF0000B21F0AD
:101550000701AC46ACE8C009ACE8C009ACE8C0097A
:10156000ACE8C0098D46704700487047B0240020A1
:101570002DE9F0411F46044603260168072A01F4BD
:10158000006004DB08B116A505E016A503E008B16C
:1015900015A500E015A521F010002060A069C01E6F
:1015A000A0610FB1401EA0612046FFF7F3F84FB1D4
:1015B000D4E9012138469047206A401C2062C01CB3
:1015C000206206E0206AFAE7D4E9012115F8010B50
:1015D0009047761EF8D22046FFF7F2F8BDE8F0817A
:1015E0004E414E006E616E00494E4600696E6600C7
:1015F0003A2800D2303820F02002412A01D3A2F14B
:101600003700884201D34FF0FF3070472DE9F04793
:10161000814616468AB0354878440DC88DE80D00DD
:1016200032487844801C03AC0DC884E80D0041F6B4
:101630009B300844372190FBF1F290FBF1F5A5F1C6
:10164000800501FB12041B3C02D56442012000E02E
:101650000020DFF898A080460027FA44AAF1BE0ACD
:101660000EE0E0070AD03246684607EB4701012347
:101670000AEB810100F0D6FA8DE8070064107F1CA8
:10168000002CEED1194F7F44AE3F19E0E80715D08A
:1016900007EB04100DF1180A90E80E008AE80E001E
:1016A000C068F04201D1981908903246012306A97A
:1016B00003A800F0B7FA03AB83E807006D10641CC1
:1016C000002DE3D14FF0010332466946B8F1000F17
:1016D00003A802D000F091FA01E000F0A3FAC9E9F2
:1016E0000001C9F808200AB0BDE8F087A87400001E
:1016F00010B50446AFF300802046BDE81040FEF769
:1017000000BE5FEA400C08BF91F0000F4FEA8C2347
:101710004FEAC12243EA51514FEA1C5018BF00F56D
:10172000F0404FEA300018BF41F000415FEA6C5CC6
:1017300000F02980BCF1FF3F08BF40F080407047B7
:10174000130C06BF12044FF0100C4FF0000C130ED8
:1017500004BF12020CF1080C130F04BF12010CF1AC
:10176000040C930F04BF92000CF1020CD30F04BFC2
:1017700052000CF1010C11464FF00002A0F11F00C5
:10178000A0EB0C00704711F0004F08BF704731F01C
:1017900000413FF4D5AF0B0C06BF09044FF0100C0D
:1017A0004FF0000C0B0E04BF09020CF1080C0B0FDC
:1017B00004BF09010CF1040C8B0F04BF89000CF16C
:1017C000020CCB0F04BF49000CF1010CCCF120033B
:1017D000A0EB0C0022FA03F302FA0CF241EA030137
:1017E00000F10100704720F07F4C80EA030023F0F5
:1017F0007F47ACEB070303F57C5300F0004003F197
:10180000FF032DE980494FEA154B09B44FEA144311
:1018100025EA0B4E24EA03480FF2042606EB1327B1
:1018200049083E785FEA320203FB0667C7F5000706
:1018300007FB06F64FEA54374FEAD64606F1020692
:1018400007FB066CCCF1005C4FEA1C472CEA074C06
:1018500007FB06F40CFB06F504EB15464FEA96165B
:1018600034BF00204FF000404FEAD13706FB07FCA1
:101870004FEA1C4C0CFB0BF7D21B03FB0CF761EB84
:1018800007010CFB0EF7B0EB074072EB17420CFBA5
:1018900008F734BFA2EB0742B2EB074261EB1741F6
:1018A0004FEA0C444FEA910706FB07FC4FEA1C4C39
:1018B0000CFB0BF7B0EBC74072EB573203FB0CF796
:1018C00034BFA2EBC742B2EBC74261EB57310CFB0E
:1018D0000EF7B0EBC70072EB57720CFB08F734BF82
:1018E000A2EBC702B2EBC70261EB5771039F4FEA4D
:1018F000816141EA921104EBCC044FEAD1374FEAFF
:10190000826206FB07FC42EA90124FEA80604FEACF
:101910001C4C0CFB0BF7D21B03FB0CF761EB070114
:101920000CFB0EF7B0EB074072EB17420CFB08F70D
:1019300034BFA2EB0742B2EB074261EB17414FEA1B
:101940008C554FEA910704EB9C2406FB07FC4FEAF9
:101950001C4C0CFB0BF7B0EBC74072EB573203FB90
:101960000CF734BFA2EBC742B2EBC74261EB573171
:101970000CFB0EF7B0EBC70072EB57720CFB08F7CD
:1019800034BFA2EBC702B2EBC70261EB577115EB94
:101990004C254FEA816141EA92114FEA82624FEA97
:1019A000D13742EA901206FB07FC44F100044FEAEB
:1019B00080604FEA1C4C0CFB0BF7D21B03FB0CF7AF
:1019C00061EB07010CFB0EF7B0EB074072EB17421F
:1019D0000CFB08F734BFA2EB0742B2EB074261EB06
:1019E000174115EB1C154FEA813141EA92414FEA4C
:1019F000823242EA90424FEA80304FEA0C7644F15C
:101A0000000448EA03434EEA0B484FF0000EB2EBE5
:101A1000080C71EB030724BF624639464EEB0E0EED
:101A20004FF0000B0018524149414BEB0B0BB2EB4E
:101A3000080C71EB03077BF1000B24BF62463946AB
:101A40004EEB0E0E4FF0000B0018524149414BEB8C
:101A50000B0BB2EB080C71EB03077BF1000B24BFFF
:101A6000624639464EEB0E0E51EA020718BF46F0A9
:101A7000010616EB0E7655F1000254F1000103D574
:101A8000BDE88901BDE80088BDE88901BDE80048DE
:101A9000B619524141EB0101A3F101037047808067
:101AA0007F7E7D7C7B7A79787776767574737271B8
:101AB00071706F6E6E6D6C6C6B6A6A696868676670
:101AC00066656464636362616160605F5F5E5E5D02
:101AD0005D5C5C5B5B5A5A59595858575756565576
:101AE00055555454535352525251515050504F4FD8
:101AF0004F4E4E4D4D4D4C4C4C4B4B4B4A4A4A4928
:101B0000494948484847474747464646454545446A
:101B10004444444343434342424242414141002BF7
:101B20009C4630D477002BD01CB54FEA370703B45E
:101B30004FF010004FF01001BAF1000F06D0BCF1C9
:101B4000000FDCBF40F0080040F008014FF000003B
:101B50000FBCBDE810400BF1010BBBF1010F08BF3A
:101B60005FEA170722BF12F1010211F101014FF0E4
:101B7000004143F1000300F0004043EA00007047D9
:101B8000F9D35708D0E746EA064613F1400F4FEA6B
:101B900016461FDD13F1200FDFBF16430A46002152
:101BA00020335B42BED0C3F1200746EA064602FA64
:101BB00007F74FEA164646EA0706C3F1200722FA5E
:101BC00003F201FA07F721FA03F14FF0000342EAAA
:101BD0000702A7E746EA020646EA06464FEA164625
:101BE00046EA0106BCBF46EA0646360C4FF0000343
:101BF0004FF000024FF0000194E72DE9804C9A4627
:101C0000934670B491E8380007C831EA400C48BFE9
:101C100034EA430C03D5FFF7E6FDFFF780FFF0BC85
:101C2000BDE8008C2DE9804C9A46934670B491E84B
:101C3000380007C810F0804F08BF13F0804F03D161
:101C400000F005F8FFF76BFFF0BCBDE8008C20F05A
:101C50007F4780EA030023F07F4C07EB0C03A3F5DA
:101C60007C5300F00040A3F1FE0392F0000F00F05F
:101C7000B38095F0000F00F077802DE901494FEA1D
:101C800011404FEA144621EA004800FB06FC24EA12
:101C9000064708FB06F607FB08F800FB07F718EBFA
:101CA00006484CEB164C4FEA124B18EB07484FEA2C
:101CB00015464CEB174022EA0B4E0BFB06FC25EABF
:101CC00006470EFB06F607FB0EFE0BFB07F71EEBA7
:101CD000064E4CEB164C4FF000061EEB074E4CEB3D
:101CE000174B18EB0B0840F1000018EB0E0B58EBEC
:101CF000000840F100008F1A4FF000013CBFC943BB
:101D0000661B14BFB5EB040C00213CBFC943F61B96
:101D10004FEA17444EEA8E0E27EA04454FEA1C4765
:101D200004FB07622CEA074C05FB07F70CFB05F6E2
:101D300004FB0CFC16EB074642EB174216EB0C4675
:101D400042EB1C421BEB060658EB0202414146EAFD
:101D50009E0601D5BDE80189B619524141EB01014A
:101D6000A3F10103BDE801894FEA14454FEA114789
:101D700024EA054621EA074C05FB07F406FB07F7B2
:101D80000CFB06F105FB0CFC11EB074144EB17447F
:101D90004FEA124711EB0C4144EB1C4422EA074C7A
:101DA00005FB07F206FB07F70CFB06F605FB0CFC30
:101DB00016EB074642EB174216EB0C4642EB1C456E
:101DC0006A1854F1000148BF7047B619524141EBFF
:101DD0000101A3F10103704795F0000F37D04FEADE
:101DE00011424FEA144721EA024624EA074C02FB5B
:101DF00007F106FB07F70CFB06F402FB0CFC14EBE7
:101E0000074441EB17414FEA154714EB0C4441EBF3
:101E10001C4125EA074C02FB07F506FB07F70CFB04
:101E200006F602FB0CFC16EB074645EB174516EBD6
:101E30000C4645EB1C42121951F1000148BF704796
:101E4000B619524141EB0101A3F1010370474FEA7A
:101E500014454FEA114724EA054621EA074C05FBE1
:101E600007F106FB07F70CFB06F24FF0000605FB37
:101E70000CFC12EB074241EB174112EB0C4251EB09
:101E80001C4148BF7047921841EB0101A3F10103C7
:101E9000704700008CB006F035F80B904948482197
:101EA000494A5A23CDE90732CDE9091047486B2149
:101EB000474A6823CDE90332CDE905101046672172
:101EC00005220023CDE900210290424A42494348BD
:101ED00001F090FF414848213B4A5A23CDE90532A1
:101EE000CDE9071039486B213D4A6823CDE901321D
:101EF000CDE90310042000233A4A3B4900903448BE
:101F000001F078FF3148FF2101220023CDE90021B3
:101F10000290364A1946324801F06CFF2F4848219A
:101F2000294A5A23CDE90732CDE90910FE21284A72
:101F30006823CDE90332CDE905101046672105225B
:101F40002B4BCDE9002102902A4A2B491F4801F072
:101F500051FF2248482102465A23CDE90732CDE9F4
:101F600009101A486B211A4A6823CDE90332CDE9DA
:101F700005101046672105220023CDE900210290BB
:101F80001E4A1F49104801F035FF1048FE2101226A
:101F90000023CDE9002102901A4A1B49094801F0AB
:101FA00029FF0020194908710648086008E0174A0F
:101FB000FF21174801F064FF0A210BA805F036FF46
:101FC000F5E70000B8050020A405002090050020DA
:101FD00068050020616B0008256B0008540500208F
:101FE0007C050020BD70000841700008E56700080E
:101FF000C97500082D76000879740008616600082C
:10200000F965000861720008397200089402002026
:10201000030000202DED048B90B005F073FF0F90AE
:10202000C9E065480078C8B1032E07DA00F0DCFF8C
:1020300004460D4661490C8061490D80614890ED70
:10204000000ADFED610AB4EEE00AF1EE10FA01DDFC
:10205000002603E00A2E01DA701CC6B25B48007845
:10206000642801DB04F0B0FF58480078401C574951
:1020700008705448006806F0CDFB41EC180B54483A
:10208000006806F0C7FB41EC190B2822514968464D
:10209000FEF706FB4F4810380FC802F0AFFEC0F144
:1020A000000B28224B4938316846FEF7F9FA4948B7
:1020B000103838300FC802F0A1FEABEB000B28221D
:1020C000444970316846FEF7EBFA424810387030E8
:1020D0000FC802F093FEABEB0000032190FBF1F779
:1020E00028223C4970316846FEF7DAFA3948103840
:1020F00070300FC802F032FE0FFA80F828223549FE
:1021000038316846FEF7CCFA3248103838300FC8FC
:1021100002F024FE0FFA80F928222E496846FEF7C5
:10212000BFFA2C4810380FC802F018FE0FFA80FAD8
:102130002822284970316846FEF7B2FA254810383F
:1021400070300FC802F05AFE40422822214938312F
:102150000E906846FEF7A4FA1E48103838300FC8B3
:1021600002F04CFE404228221A490D906846FEF7C4
:1021700097FA184810380FC802F040FE40420C9001
:102180008DED0A8B8DED089BCDE903A9CDE905877F
:10219000DDE90C120E98CDE9001202900E4803689A
:1021A0000E4802680E4801680EA003F057FC0A2191
:1021B0000FA805F03BFE34E70400002018000020C3
:1021C0001A00002020000020CDCC4C3D0100002052
:1021D00024000020600000201400002010000020D7
:1021E0000C00002025642C25642C25642C25642CEF
:1021F00025642C25642C25642C25642C25642C2531
:10220000642C25662C25660A0000000000BFFEE74E
:1022100070B504460D462946204605F089FD00208C
:102220000149087070BD00000100002030B585B084
:102230006A4601214C4802F0DCFF9DF8080018B9FD
:102240004A490098086002E0484901980860002562
:102250007FE00DF10B00405D4549464A12788854F5
:1022600044480078401C4349087043480078E8B16E
:10227000414800780978884263D1002404E03C4852
:10228000005D3E490855641C3A4800788442F6D304
:1022900038480078394981F88000002035490870B5
:1022A0000D21314802F05EFF05B030BD31480078A5
:1022B000401E2F49095C2F480078C01E814226D15C
:1022C0002C480078801E2A49085C0A281FD129481A
:1022D0000078C01E085C0D2819D1002404E02448B1
:1022E000005D26490855641C22480078C01EA042A3
:1022F000F5D820480078C01E204981F880000020D1
:102300001C4908700D21184802F02CFFCCE7194831
:102310000078401E1649095C16480078C01E8142AC
:102320000FD014480078801E1149085C0A2808D193
:1023300010480078C01E085C0D2802D100200D490D
:1023400008700C480078802802DB002009490870DA
:102350006D1C9DF80A00A8423FF67BAF0D21024894
:1023600002F000FF00BF9FE700640040BC040020B3
:102370001E0C0020C0040020AD0400201B0A002019
:1023800070B504460D462946204601F055FC002054
:102390000149087070BD00000100002030B585B013
:1023A0006A4600214C4802F024FF9DF8080018B945
:1023B0004A490098086002E04849019808600025F1
:1023C0007FE00DF10B00405D4549464A1278885484
:1023D00044480078401C4349087043480078E8B1FD
:1023E000414800780978884263D1002404E03C48E1
:1023F000005D3E490855641C3A4800788442F6D393
:1024000038480078394981F8800000203549087043
:102410000A21314802F0A6FE05B030BD31480078EF
:10242000401E2F49095C2F480078C01E814226D1EA
:102430002C480078801E2A49085C0A281FD12948A8
:102440000078C01E085C0D2819D1002404E024483F
:10245000005D26490855641C22480078C01EA04231
:10246000F5D820480078C01E204981F8800000205F
:102470001C4908700A21184802F074FECCE719487C
:102480000078401E1649095C16480078C01E81423B
:102490000FD014480078801E1149085C0A2808D122
:1024A00010480078C01E085C0D2802D100200D499C
:1024B00008700C480078802802DB00200949087069
:1024C0006D1C9DF80A00A8423FF67BAF0A21024826
:1024D00002F048FE00BF9FE700680040C4040020EF
:1024E0009E0C0020C8040020AE0400209C0A00209E
:1024F00030B585B06A460121514802F07AFE9DF858
:10250000080018B94F490098086002E04D49019849
:1025100008604D48006860B10DF10B014948006842
:10252000494A126890470D21454802F01BFE05B04C
:1025300030BD00257AE00DF10B00405D4349444A6F
:102540001278885442480078401C4149087041483C
:102550000078E0B13F480078097888425ED10024D5
:1025600004E03A48005D3C490855641C384800784E
:102570008442F6D336480078374981F8800000203D
:10258000334908700D212E4802F0ECFDCFE73048AA
:102590000078401E2D49095C2D480078C01E8142FC
:1025A00022D12B480078801E2849085C0A281BD1BC
:1025B00027480078C01E085C0D2815D1002404E0CF
:1025C0002248005D24490855641C21480078C01E3B
:1025D000A042F5D81E480078C01E1F4981F880002F
:1025E00000201B490870A2E719480078401E1749CF
:1025F000095C17480078C01E81420FD0144800784B
:10260000801E1249085C0A2808D111480078C01EB3
:10261000085C0D2802D100200D4908700C48007894
:10262000802802DB00200A4908706D1C9DF80A0012
:10263000A84280D80D21024802F094FD00BF76E741
:1026400000680040CC040020D40400201E0D0020AF
:10265000D0040020AF0400201D0B00202DE9F04F16
:102660008BB004460F4690469946DDE91AB6DDE97F
:1026700018A501216F4803F045F801216D48401C61
:1026800003F040F8012C13D10120182100231A4631
:10269000CDE900100B21412000F0AAFE0120042109
:1026A00000230822CDE900100C21412000F0A0FEFB
:1026B000022C13D10120182100231A46CDE9001065
:1026C0000C21422000F094FE012004210023082266
:1026D000CDE900100D21422000F08AFE03F0B0F891
:1026E0008DF8247000208DF8250001208DF826003B
:1026F0008DF8270000208DF828008DF829008DF82E
:102700002A00012C03D109A94B4802F0D2FB022C6C
:1027100003D109A9494802F0CCFB1598ADF81C007B
:102720008DF81E808DF81F9014988DF82000012CD4
:1027300003D107A9404802F01AFC022C03D107A9D3
:102740003E4802F014FC16988DF80F0000208DF81A
:102750000D0017988DF81000BAF1000F08D14FF650
:10276000FF7000EA4510ADF812000020ADF814002B
:10277000BAF1010F0CD14FF6FF7000EA1540ADF829
:1027800012004FF6FF7000EAC500001DADF81400FE
:102790004FF6FF7000EA1B40ADF816001FFA8BF0F1
:1027A000ADF818008DF80E6001208DF80C00012C9A
:1027B00003D103A9204802F023FC022C03D103A972
:1027C0001E4802F01DFCBEB9012C09D101220221D4
:1027D000194802F005FD01221146142000F0DFFF28
:1027E000022C09D101220221144802F0F9FC012235
:1027F0001146452000F0D3FF012E17D1012C09D13D
:10280000012210210C4802F0EBFC01221146152098
:1028100000F0C5FF022C09D101221021074802F067
:10282000DFFC01221146462000F0B9FF0BB0BDE8E5
:10283000F08F000019001C00006400400068004098
:102840002DE9F04F87B08246894693469846002787
:10285000B9F1000F01D1CDF804B0B9F1010F01D1E8
:10286000CDF808B009F0FF008DF80C0000208DF8BD
:102870000D00109820B94046FDF7F3FE064600E033
:10288000109EBAF1010F4ED1119800284CD0F61CC1
:10289000002544E0002427E0F01EB84207D904EBED
:1028A000C50018F800100DF10F00015517E0F01EDB
:1028B000B84204D10D210DF10F0001550FE0B01EFB
:1028C000B84204D10A210DF10F00015507E0701E36
:1028D000B84204D1F01EC1B20DF10F0001557F1CAA
:1028E000B74200D102E0641C082CD5D300BFA7EB8F
:1028F000C500C0B28DF80E0001A9674802F0F1FCD6
:102900000690002400E0641C6348069902F092FDE2
:10291000012803D040F6FF708442F4D36D1C701E72
:10292000B5EBD00FB6D930E000252AE000240DE049
:10293000B74206D204EBC50018F800100DF10F00E5
:1029400001557F1CB74200D102E0641C082CEFD374
:1029500000BFA7EBC500C0B28DF80E0001A94E481C
:1029600002F0BFFC0690002400E0641C4A4806996F
:1029700002F060FD012803D040F6FF708442F4D3DA
:102980006D1C701EB5EBD00FD0D9BAF1020F4ED12D
:10299000119800284CD0F61C002544E0002427E0C4
:1029A000F01EB84207D904EBC50018F800100DF16D
:1029B0000F00015517E0F01EB84204D10D210DF1B2
:1029C0000F0001550FE0B01EB84204D10A210DF1ED
:1029D0000F00015507E0701EB84204D1F01EC1B2CD
:1029E0000DF10F0001557F1CB74200D102E0641CBD
:1029F000082CD5D300BFA7EBC500C0B28DF80E00E0
:102A000001A9264802F06DFC0690002400E0641C39
:102A10002248069902F00EFD012803D040F6FF700F
:102A20008442F4D36D1C701EB5EBD00FB6D930E0E4
:102A300000252AE000240DE0B74206D204EBC500D1
:102A400018F800100DF10F0001557F1CB74200D19E
:102A500002E0641C082CEFD300BFA7EBC500C0B296
:102A60008DF80E0001A90D4802F03BFC06900024F1
:102A700000E0641C0948069902F0DCFC012803D040
:102A800040F6FF708442F4D36D1C701EB5EBD00F7E
:102A9000D0D907B0BDE8F08F006400400068004066
:102AA0001CB500240025A04605F02CFA00900AE190
:102AB00014228549052003F02FF800287ED0824893
:102AC00000785B287AD18048C07C5D28FAD17F48A5
:102AD0000078002873D17C48C0787B49097940EAA6
:102AE0000120B04204D1022C02DA601CC4B206E01C
:102AF0007548C0787449097940EA01260024724873
:102B0000C0787149097940EA0120714909888842F1
:102B10002AD0022C28D16C48C0786B49097940EA48
:102B200001206B4908806B480078E8B908460088A6
:102B30004FF6FF7101EA4000674908806748008846
:102B400067490880644800886649086062480088D0
:102B5000634909880844644908605F4800886049FF
:102B6000098808446149086057484078564989787F
:102B700040EA0120B84204D1022D02DA681CC5B235
:102B800006E0514840785049897840EA01270025FD
:102B90004D4840784C49897840EA01204F490988DE
:102BA000884228D0022D26D1474840784649897866
:102BB00040EA012049490880464801E066E01AE001
:102BC0000078C0B9424800884FF6FF7101EA400022
:102BD0004149088041480088414908803E480088B2
:102BE00009880844404908603B4800883C490988F6
:102BF00008443E4908603748007868B13248407858
:102C00003149897840EA012044F62061884203DD99
:102C100001203749087002E00020354908702A4831
:102C20004079522807D0284840794C2803D02648BC
:102C30004079304908702448D0F8060001909DED95
:102C4000010A2D4880ED000A1F48D0F80E000190BF
:102C50009DED010A294880ED000A1B48807C4E2822
:102C600003D101201B49087006E01748807C4D28DD
:102C700002D10020174908702148006808B90120D6
:102C800000E000201E4908604FF00008B8F1320F44
:102C900008DD01201A490831086000201949C1F8EF
:102CA000B4010CE008F1010000F0FF08002204214B
:102CB000154804F035FD00201149083108600A214B
:102CC000684605F0B3F8F3E63C050020020000205A
:102CD0001C00002004000020180000201E0000201E
:102CE0001A0000200C00002010000020140000201A
:102CF0000500002003000020200000202400002008
:102D0000B4812242008022420004004010B502201B
:102D100002F00AFE08B3022002F0F6FD00210F487F
:102D200002F0E6FD01200E49087000200D490880E0
:102D300004E00C480088401C0A49088009480088C3
:102D40005F2803DA084800680028F2D106480068C6
:102D500018B1002004490968086010BD080002404D
:102D60001005002018050020AC1B002010B5202005
:102D700002F0DAFD08B3202002F0C6FD00210F4862
:102D800002F0B6FD01200E49087000200D490880B0
:102D900004E00C480088401C0A4908800948008863
:102DA0005F2803DA084840680028F2D106484068E6
:102DB00018B1002004494968086010BD1C00024099
:102DC0001105002018050020AC1B002010B54FF4A1
:102DD000007002F0A9FD10B34FF4007002F094FDF2
:102DE00000210F4802F084FD01200E4908700020E8
:102DF0000D49088004E00C480088401C0A490880FE
:102E0000094800885F2803DA084880680028F2D162
:102E10000648806818B1002004498968086010BD20
:102E2000300002401205002018050020AC1B0020D5
:102E300010B54FF4005002F077FD10B34FF400507E
:102E400002F062FD00210F4802F052FD01200E4900
:102E5000087000200D49088004E00C480088401CE0
:102E60000A490880094800885F2803DA0848C068D2
:102E70000028F2D10648C06818B100200449C9688A
:102E8000086010BD44000240130500201805002012
:102E9000AC1B002010B54FF4003002F045FD10B31C
:102EA0004FF4003002F030FD00210F4802F020FD09
:102EB00001200E49087000200D49088004E00C48EC
:102EC0000088401C0A490880094800885F2803DA06
:102ED000084800690028F2D10648006918B10020AE
:102EE00004490969086010BD58000240140500201B
:102EF00018050020AC1B002010B54FF4001002F0A4
:102F000013FD10B34FF4001002F0FEFC00210F4837
:102F100002F0EEFC01200E49087000200D490880E7
:102F200004E00C480088401C0A49088009480088D1
:102F30005F2803DA084840690028F2D10648406952
:102F400018B1002004494969086010BD6C000240B6
:102F50001505002018050020AC1B002010B54FF00F
:102F6000007002F0E1FC10B34FF0007002F0CCFCF6
:102F700000210F4802F0BCFC01200E49087000201F
:102F80000D49088004E00C480088401C0A4908806C
:102F9000094800885F2803DA084880690028F2D1D0
:102FA0000648806918B1002004498969086010BD8D
:102FB000800002401605002018050020AC1B0020F0
:102FC00070B505460C460021284602F091FC2846C3
:102FD00002F09AFCA1B2284602F093FC0121284697
:102FE00002F086FC70BD704770B52DED028BB048C5
:102FF000007800287DD10D25AE4890ED000AB5EE91
:10300000C00AF1EE10FA08D990ED000AF1EE000ABC
:10301000B4EEE00AF1EE10FA05DD42F6E0600021C0
:10302000BDEC028B70BDA44890ED000AA148D0ED24
:10303000000AB4EEE00AF1EE10FA01DD002439E0F6
:10304000681E00EB40009C4901EB800090ED000AF7
:103050009848D0ED000AB4EEE00AF1EE10FA02D280
:10306000A81EC4B226E0002420E0601C00EB400053
:10307000914901EB800090ED000A8E48D0ED000AE6
:10308000B4EEE00AF1EE10FA0EDB04EB440001EBC3
:10309000800090ED000A8748D0ED000AB4EEE00A07
:1030A000F1EE10FA00D804E0601CC4B2681EA04221
:1030B000DBDC00BF601C00EB40007F4901EB8000BF
:1030C000406804EB44017C4A02EB81014968401AE4
:1030D00000EE100AB8EEC00A601C00EB400011467A
:1030E00001EB8000D0ED000A04EB440001EB80000E
:1030F00000E030E090ED001A70EEC10A80EE208A08
:1031000004EB440001EB800090ED010AB8EEC00A28
:1031100004EB440001EB8000D0ED000A08EE600AE9
:103120006648D0ED000AF8EEE00A70EE208A6148A9
:10313000D0ED000AB0EE680A08EE200A10EE101A70
:10314000084605F0E3FB04EB44025B4B03EB820211
:103150009268114364E71025564890ED000AB5EED9
:10316000C00AF1EE10FA08D990ED000AF1EE000A5B
:10317000B4EEE00AF1EE10FA03DD42F6E060002161
:103180004EE74F4890ED000A4A48D0ED000AB4EEF1
:10319000E00AF1EE10FA01DD002439E0681E00EBD0
:1031A0004000474901EB800090ED000A4148D0ED16
:1031B000000AB4EEE00AF1EE10FA02D2A81EC4B280
:1031C00026E0002420E0601C00EB40003C4901EBBD
:1031D000800090ED000A3748D0ED000AB4EEE00A16
:1031E000F1EE10FA0EDB04EB440001EB800090EDF1
:1031F000000A3048D0ED000AB4EEE00AF1EE10FA11
:1032000000D804E0601CC4B2681EA042DBDC00BF32
:10321000601C00EB40002A4901EB8000406804EB91
:103220004401274A02EB81014968401A00EE100A66
:10323000B8EEC00A601C00EB4000114601EB8000B4
:10324000D0ED000A04EB440001EB800090ED001A81
:1032500070EEC10A80EE208A04EB440001EB80008E
:1032600090ED010AB8EEC00A04EB440001EB8000C7
:10327000D0ED000A08EE600A1048D0ED000AF8EE22
:10328000E00A70EE208A0B48D0ED000AB0EE680A22
:1032900008EE200A10EE101A084605F037FB04EB82
:1032A0004402074B03EB820292681143B8E6000028
:1032B000000000202400002014010020080000204D
:1032C000B00100202DE9F04F85B005460C461646AA
:1032D0001F46DDE90FABDDF838904248844202D04A
:1032E0004148844201D14FF001083E4814308442E5
:1032F00003D03D481430844201D14FF002083948D0
:103300002830844203D038482830844201D14FF01D
:10331000030834483C30844203D033483C30844274
:1033200001D14FF004082F485030844203D02E487A
:103330005030844201D14FF005082A48643084425D
:1033400003D029486430844201D14FF00608254853
:103350007830844203D024487830844201D14FF041
:10336000070821480838854204D301211F4802F08C
:10337000C9F904E001214FF4A01002F0C3F920467E
:1033800002F092FBCDF804900AF0FF008DF80F00D8
:103390000096F8B28DF80E001FFA8BF0ADF80A0017
:1033A000119880B2ADF8080000208DF80C000120C3
:1033B0008DF80D001298C0B28DF810001398C0B2AD
:1033C0008DF811006946204602F010FB4146284660
:1033D000149A02F0BFFA0121204602F089FA05B0E2
:1033E000BDE8F08F0800024008040240010014000C
:1033F0002DE9FC4705460C4616461F46DDE90A89BD
:10340000412D03D10121494802F07CF9422D04D11C
:1034100001214648401C02F075F9432D04D10121D9
:103420004248801C02F06EF9442D04D101213F482E
:10343000C01C02F067F9452D04D101213B48001D55
:1034400002F060F90CB901200090012C01D102209A
:103450000090022C01D104200090032C01D10820FF
:103460000090042C01D110200090052C01D12020C7
:103470000090062C01D140200090072C01D1802023
:103480000090082C01D160010090092C02D14FF46A
:10349000007000900A2C02D14FF4806000900B2C39
:1034A00002D14FF4006000900C2C02D14FF48050F8
:1034B00000900D2C02D14FF4005000900E2C02D140
:1034C0004FF4804000900F2C02D14FF40040009048
:1034D000F0B28DF80600F8B28DF8040008F0FF0095
:1034E0008DF8050001208DF80700412D03D16946B4
:1034F0000F4803F0C2FA422D03D169460D4803F08C
:10350000BCFA432D03D169460B4803F0B6FA442DAB
:1035100003D16946094803F0B0FA452D03D1694645
:10352000074803F0AAFABDE8FC8700000200180073
:1035300000080140000C014000100140001401404F
:10354000001801408AB004F0DDFC01900122002344
:1035500006A803F015FB0122002302A803F010FBCC
:103560004FE02848007858B3274800782B2801D12D
:10357000012000E00020014606A803F004FB50B142
:10358000224800884EF6FC11884204DC1F4800885F
:1035900064301E4908801C4800782D2801D1012084
:1035A00000E00020014602A803F0EDFA40B1174800
:1035B0000088642804DB15480088643813490880B3
:1035C00011480078312802D11148124908600E488C
:1035D0000078322803D14FF461700E4908600A4820
:1035E0000078332802D100200B4908700648007883
:1035F000342802D10120084908700A2101A804F0EA
:1036000015FCAEE704000020030000201800002095
:1036100070FEFFFF080000200000002000BFFEE752
:1036200000BFFEE708B504F06DFC009036E048F6F8
:10363000B800864205DD1A480068B04201DAC83E8B
:1036400001E01748066848F6B800844205DD1548D1
:103650000068A04201DAC83C01E01248046848F65C
:10366000B800854205DD10480068A84201DAC83D6F
:1036700001E00D48056872420321012001F0D0FBF2
:1036800062420321022001F0CBFB6A42032108467B
:1036900001F0C6FB0421684604F0C8FBC7E7000040
:1036A0000C00002010000020140000202DED0C8BD9
:1036B00096B004F027FC0190B1EE001ADFED320A5B
:1036C000B2EE040A0CA803F095FC9FED2F1ADFED73
:1036D0002F0A9FED2F0A02A803F08CFC53E02D491E
:1036E000886904F0C4FE41EC190B2A494968B1F914
:1036F000000004F0BCFE41EC1A0B2649486904F0B6
:10370000B6FE41EC1B0B23490968086804F0AFFEC4
:1037100041EC1C0B1F4909691E4AD268881804F045
:10372000A6FE41EC1D0B9FED1C5AB0EE494AF0EE8F
:10373000694AB0EE4A3AF0EE6A3AB0EE4B2AF0EE41
:103740006B2A0CA9B0EE4C1AF0EE6C1AB0EE4D0AD2
:10375000F0EE6D0A02A800F019F9B0EE408AF0EE22
:10376000608A51EC180B04F053FE04460020034617
:103770002246014600904FF4007000F009FB04213E
:1037800001A804F053FBAAE7CDCCCC3D000000001B
:10379000CDCC4C3FF800002000401C46704770B56F
:1037A00004460D4616463246294660B203F0A8FB91
:1037B00070BD000070B52DED0A8B0446B0EE40AA36
:1037C000F0EE60AAB0EE41BAF0EE61BAB0EE428A15
:1037D000F0EE628AB0EE439AF0EE639A9FED6A0AC9
:1037E00010EE105A51EC1A0B04F0F0FCE06051ECB2
:1037F0001B0B04F0EBFC206194ED030AD4ED040AEA
:1038000030EE600A84ED050A94ED050A84ED070A9E
:1038100094ED050AD4ED060A30EE600A84ED090A3B
:1038200094ED050A84ED060A94ED000AD4ED070A2A
:1038300020EE200AD4ED010A94ED081A00EE810A68
:1038400010EE101A084604F0E5FF41EC1C0B53EC97
:10385000182B04F0B3FE06D294ED050AB5EEC00AAB
:10386000F1EE10FA4ED394ED000AD4ED070A20EEE3
:10387000200AD4ED010A94ED081A00EE810A10EE38
:10388000101A084604F0C6FF41EC1C0B53EC192B30
:1038900004F004FE06D294ED050AB5EEC00AF1EE7E
:1038A00010FA2FDC94ED000AD4ED070A20EE200A6E
:1038B000D4ED010A94ED081A00EE810A10EE101AF8
:1038C000084604F0A7FF41EC1C0B53EC182B04F046
:1038D000E5FD1FD294ED000AD4ED070A20EE200A80
:1038E000D4ED010A94ED081A00EE810A10EE101AC8
:1038F000084604F08FFF41EC1C0B53EC192B04F02D
:103900005DFE07D294ED080AD4ED050A30EE200AD8
:1039100084ED080A94ED000AD4ED070A20EE200A8F
:10392000D4ED010A94ED081A00EE810AD4ED020AE2
:1039300094ED091A00EE810A10EE105A284604F0A0
:1039400069FF41EC1C0B53EC182B04F037FE04D23A
:1039500051EC180B04F03AFC0546284604F05AFFD7
:1039600041EC1C0B53EC192B04F098FD04D251ECE4
:10397000190B04F02BFC0546284604F04BFF41ECE4
:10398000100BBDEC0A8B70BD0000000073B52DED6F
:103990000C0B2DED108B82B005460C46B0EE428A22
:1039A000F0EE628AB0EE439AF0EE639AB0EE44BA5B
:1039B000F0EE64BAB0EE45AA51EC180B04F0FAFB35
:1039C00041EC1D0BB0EE4D3AF0EE6D3AB0EE482AE8
:1039D000F0EE682A9DED141B9DED120B2846FFF7B3
:1039E000E9FEB0EE40CAF0EE60CA53EC182B51EC81
:1039F0001C0B04F0D1FC1CD11AEE100A04F00AFFD3
:103A000041EC1E0B53EC192B04F012FC41EC1D0B86
:103A100053EC182B04F042FD0BD21AEE100A04F0FE
:103A2000F9FE41EC1D0B53EC192B04F001FC41ECA9
:103A30001C0B51EC180B04F0BDFB41EC1D0B53ECBF
:103A40001C2B04F0A9FC22D151EC180B04F0B2FBA2
:103A500041EC1D0B1AEE100A04F0DCFE41EC1F0BCA
:103A600053EC192B04F0E0FD41EC1E0B53EC1D2B25
:103A700004F0A4FD0BD21AEE100A04F0CBFE41ECC8
:103A80001D0B53EC192B04F0CFFD41EC1C0B51EC3A
:103A90001B0B04F08FFB41EC1D0BB0EE4D3AF0EE2A
:103AA0006D3AB0EE4B2AF0EE6B2AB0EE491AF0EE0A
:103AB000691AB0EE4C0AF0EE6C0A2046FFF77AFE67
:103AC0008DED000B9DED000B02B0BDEC108B0EB028
:103AD00070BD2DE9FF470746884615461E46DDE9BD
:103AE0000C940120042100230822CDE90010414656
:103AF0003846FFF77DFC012D02D106208DF8080025
:103B0000022D02D107208DF8080000208DF8090051
:103B1000082E01D18DF80B000C2E02D101208DF85A
:103B20000B0001208DF80D00012C04D102AA002108
:103B3000484603F03FFE022C04D102AA0221484667
:103B400003F038FE032C04D102AA0421484603F0F6
:103B500031FE042C04D102AA0621484603F02AFEB5
:103B6000012C04D101220021484603F002FE022C60
:103B700004D101220221484603F0FBFD032C04D1AD
:103B800001220421484603F0F4FD042C04D1012253
:103B90000621484603F0EDFD0121484603F0DFFE13
:103BA0000121484603F0D6FEBDE8FF8770B588B016
:103BB00004460D461646012C13D1002004900590B2
:103BC00006900790012000210F22CDE90002042376
:103BD0000246CDE902102046FEF740FD104811498B
:103BE0000860022C14D10120002104910591CDE937
:103BF00006100D210F22CDE9000204230246CDE973
:103C0000021000212046FEF729FD054806490860FC
:103C100006480560064806700648047008B070BD86
:103C2000393C0008B8040020D40400201C05002002
:103C3000200500202105002030B5024600209CE030
:103C400000EB8003504C246854F8233093427DD11C
:103C50004B780C7843EA04231BB200EB80044A4DF6
:103C60002D6805EB8404A380CB788C7843EA042389
:103C70001BB200EB8004444D2D6805EB8404E38007
:103C80004B790C7943EA04231BB200EB80043E4DD0
:103C90002D6805EB8404238100EB80033A4C2468F3
:103CA00004EB8303B3F90A3000EB8004364D2D6832
:103CB00005EB8404B4F904401B1BB3F5805F0EDBF5
:103CC00000EB8003304C246804EB8303DB685B1C4F
:103CD00000EB80042C4D2D6805EB8404E36000EBC1
:103CE0008003294C246804EB8303B3F90A4000EBFA
:103CF0008003254D2D6805EB8303B3F90430E31AE7
:103D000013F5805F0EDC00EB80031F4C246804EB8E
:103D10008303DB685B1E00EB80041B4D2D6805EB05
:103D20008404E36000EB8003174C246804EB8303F6
:103D3000B3F9044000EB8003134D2D6805EB8303BA
:103D4000DB6804EB433400EB800300E013E00E4D2E
:103D50002D6805EB83031C6100EB80030A4C24688B
:103D600004EB83039C8800EB8003074D2D6805EB73
:103D700083035C8130BD431CD8B2044B1B7898424E
:103D8000FFF65EAF00BFF5E71C0500202005002010
:103D90002DE9FF4107460C4615461E46DDF82880F2
:103DA000200A8DF80800E0B28DF80900280A8DF885
:103DB0000A00E8B28DF80B00300A8DF80C00F0B262
:103DC0008DF80D004FEA18208DF80E0008F0FF0066
:103DD0008DF80F000020082102AB3A46CDE9001013
:103DE000014603480078FEF72BFDBDE8FF81000087
:103DF00021050020F8B504460D461F480088C0F58F
:103E000080709DF81860B04201DA0020F8BD25608E
:103E10006260A3609DF8180020741848164E36881A
:103E200000EBC600E0600120607407A8009000214C
:103E30001AE0009830F8046B0090B0B20F4E0E4FAD
:103E40003F8826F83700009800680B4F3F8806EB44
:103E5000C70670600098001D009007480088401C4D
:103E6000054E3080481CC1B29DF818008142E0DB4D
:103E7000002000900120C9E72A050020C81B00206F
:103E80002DE9F04180460E461446207938B9206865
:103E9000006810B1216808688047012020712068FF
:103EA000406810B121684868804700254EE02068CE
:103EB000C06830F83500304098F800103140884232
:103EC00007D02068C06830F835004FF6FF7188428F
:103ED0003AD12068C06800EBC500406898B32068FC
:103EE000C06800EBC5004068407C60B32068C068D3
:103EF00030F835004FF6FF71884215D100270CE0ED
:103F00002068C06830F83700304098F80010314021
:103F1000884200D103E0781CC7B2AF42F0DB00BF9B
:103F2000BD4201D0BDE8F0812068806810B12168F1
:103F3000886880472068C06800EBC5004068206042
:103F400000202071EEE7FFE7681CC5B22068007C06
:103F5000A842ACDC00BFE5E710B500BF102080F33D
:103F60001188BFF34F8FBFF36F8F00BF03F0D0FFF7
:103F700018B14FF080500449086000BF002080F362
:103F8000118800BF10BD000004ED00E01848006873
:103F900040F47000164908601648006820F00100DF
:103FA000401C1449086000BF12480068C0F340007C
:103FB0000028F9D00F48406820F003000D49486000
:103FC00000BF0C484068C0F381000028F9D10948BF
:103FD00000680949084007490860002048600863F4
:103FE0004FF41F008860C80301498039086070479A
:103FF00088ED00E000100240FFFFF2FE86B031497C
:1040000003C9CDE900015CE00D2202A9072001F0FF
:1040100083FDA0B39DF80800772830D19DF80900F2
:1040200068282CD19DF80A00652828D19DF80B003E
:10403000652824D19DF80C006C2820D122480078F6
:10404000E8B99DF80D00312805D10DF10F00FCF7FE
:10405000FBFA1E4908609DF80D00322805D10DF1CC
:104060000F00FCF7F1FA1A4908609DF80D0033289B
:1040700005D10DF10F00FCF7E7FA16490860164864
:1040800000788DF801001448008800128DF80200B5
:10409000124800788DF803001048008800128DF84F
:1040A000040006226946052001F06AFE0C480068FB
:1040B00008B9012000E0002009490860642003F0ED
:1040C000BBFDA1E79C890008020000200C00002035
:1040D00010000020140000201A000020180000200A
:1040E000B88122422DE9F04104460F4690461D4614
:1040F000012C04D101214C4801F004FB4B4E022C51
:1041000005D101214FF4E01001F0FCFA6607032C01
:1041100004D10121464801F0F5FA464E042C05D1A0
:1041200001214348401C01F0EDFA434E052C05D116
:1041300001213F48801C01F0E5FA404E062C05D1D4
:1041400001213B48C01C01F0DDFA3D4E072C05D192
:1041500001213748001D01F0D5FA3A4E082C05D14F
:1041600001213148801C01F0CDFA374E092C05D1D0
:1041700001212D48083001F0C5FA344E0A2C05D132
:1041800001212948093001F0BDFA314E0B2C05D12F
:10419000012125480A3001F0B5FA2E4E0C2C05D12C
:1041A00001212348401D01F0ADFA2B4E0D2C05D105
:1041B00001211F48801D01F0A5FA284E0E2C05D1C3
:1041C00001211B48C01D01F09DFA254E424639468B
:1041D000304603F09DFA1DB90021304603F0B4FAD1
:1041E000012D03D10121304603F0AEFA022D03D197
:1041F0000221304603F0A8FA042D03D104213046F1
:1042000003F0A2FA062D03D10621304603F09CFAF2
:1042100001221146304603F0A1FA0121304603F095
:1042200098FABDE8F08100000B001800002C014056
:1042300001001C000004004000080040000C004089
:10424000001000400014004000340140004C0140C8
:10425000005001400054014000180040001C004084
:104260000020004010B510212F4803F0F1FB00287A
:1042700036D001202D49087000202D4908702D48A6
:104280000068002822DB2B4800682B490968084495
:104290002849086008460068FF2804DD08460068D1
:1042A000A0F580700860254801F027FBC0F58070FC
:1042B00020490968401A204908600846006800281B
:1042C00004DC0846006800F5807008601C4800683F
:1042D00010B11B48006880471021134803F0AFFB62
:1042E0002021114803F0B4FBE0B10F4803F094FB28
:1042F000C4B21448006840B1204612490968884792
:104300002021094803F09BFB10BD0F48084909789C
:10431000445407480078401C054908702021024891
:1043200003F08DFB00BFEFE7004C0040620400206B
:104330007C040020E4040020000500204404024026
:1043400080040020840400209607002010B510216E
:104350002F4803F07DFB002836D001202D4908703E
:1043600000202D4908702D480068002822DB2B48CA
:1043700000682B4909680844284908600846006815
:10438000FF2804DD08460068A0F580700860254815
:1043900001F0B3FAC0F5807020490968401A20493D
:1043A000086008460068002804DC0846006800F53C
:1043B000807008601C48006810B11B480068804786
:1043C0001021134803F03BFB2021114803F040FB70
:1043D000E0B10F4803F020FBC4B21448006840B1BC
:1043E00020461249096888472021094803F027FB25
:1043F00010BD0F4808490978445407480078401C0C
:10440000054908702021024803F019FB00BFEFE7BF
:10441000005000406304002088040020E8040020CD
:1044200004050020580402408C0400209004002061
:104430001708002010B510212F4803F009FB0028B1
:1044400036D001202D49087000202D4908702D48D4
:104450000068002822DB2B4800682B4909680844C3
:104460002849086008460068FF2804DD08460068FF
:10447000A0F580700860254801F03FFAC0F5807013
:1044800020490968401A2049086008460068002849
:1044900004DC0846006800F5807008601C4800686D
:1044A00010B11B48006880471021134803F0C7FA79
:1044B0002021114803F0CCFAE0B10F4803F0ACFA28
:1044C000C4B21448006840B12046124909688847C0
:1044D0002021094803F0B3FA10BD0F4808490978B4
:1044E000445407480078401C0549087020210248C0
:1044F00003F0A5FA00BFEFE7006401406504002067
:10450000A0040020F00400200C05002080040240DC
:10451000A4040020A80400201909002010B51021CF
:10452000364803F095FA68B30120354908703548DC
:104530000068002822DB33480068334909680844D2
:104540003049086008460068FF2804DD0846006816
:10455000A0F5807008602D4801F0CFF9C0F580709B
:1045600028490968401A2849086008460068002858
:1045700004DC0846006800F58070086010211F48C0
:1045800003F05DFA20211D4803F062FA10B31B48C6
:1045900003F042FAC4B21E48008800F40040C8B9D3
:1045A0001B48008800F4804060B10A2C03D0002032
:1045B0001749088020E01648008840F4004014495C
:1045C000088019E00D2C06D11148008840F4804085
:1045D0000F49088010E00E480088C0F30D000D4917
:1045E0000C540B480088401C094908800846008884
:1045F000C72801DD0020088010BD00000038014000
:1046000032050020D8040020F404002008040240F1
:1046100030050020C823002010B510212F4803F0DA
:1046200017FA002836D001202D49087000202D49A6
:1046300008702D480068002822DB2B4800682B49B1
:10464000096808442849086008460068FF2804DD16
:1046500008460068A0F580700860254801F04DF913
:10466000C0F5807020490968401A20490860084652
:104670000068002804DC0846006800F580700860C7
:104680001C48006810B11B4800688047102113487F
:1046900003F0D5F92021114803F0DAF9E0B10F4811
:1046A00003F0BAF9C4B21448006840B12046124978
:1046B000096888472021094803F0C1F910BD0F4857
:1046C00008490978445407480078401C0549087097
:1046D0002021024803F0B3F900BFEFE70044004097
:1046E0006004002066040020DC040020F8040020A0
:1046F0001C040240680400206C0400209406002082
:1047000010B510212F4803F0A3F9002836D001205E
:104710002D49087000202D4908702D480068002898
:1047200022DB2B4800682B490968084428490860A7
:1047300008460068FF2804DD08460068A0F5807080
:104740000860254801F0D9F8C0F580702049096853
:10475000401A2049086008460068002804DC084622
:10476000006800F5807008601C48006810B11B48A4
:10477000006880471021134803F061F92021114897
:1047800003F066F9E0B10F4803F046F9C4B21448EB
:10479000006840B12046124909688847202109482D
:1047A00003F04DF910BD0F480849097844540748F3
:1047B0000078401C054908702021024803F03FF9A9
:1047C00000BFEFE7004800406104002070040020B3
:1047D000E0040020FC0400203004024074040020A7
:1047E000780400201507002010B510212F4803F091
:1047F0002FF9002836D001202D49087000202D49BE
:1048000008702D480068002822DB2B4800682B49DF
:10481000096808442849086008460068FF2804DD44
:1048200008460068A0F580700860254801F065F82A
:10483000C0F5807020490968401A20490860084680
:104840000068002804DC0846006800F580700860F5
:104850001C48006810B11B480068804710211348AD
:1048600003F0EDF82021114803F0F2F8E0B10F4811
:1048700003F0D2F8C4B21448006840B1204612498F
:10488000096888472021094803F0D9F810BD0F486E
:1048900008490978445407480078401C05490870C5
:1048A0002021024803F0CBF800BFEFE70060014091
:1048B0006404002094040020EC040020080500207B
:1048C0006C040240980400209C04002098080020FA
:1048D00030B585B06A460021544800F08AFC9DF846
:1048E000080018B952490098086002E05049019840
:1048F00008605048006860B10DF10B014C48006839
:104900004C4A126890470A21484800F02BFC05B039
:1049100030BD00257EE00DF10B00405D4649474A61
:104920001278885445480078401C4449087044482F
:104930000078E0B1424800780978884262D10024CA
:1049400004E03D48005D3F490855641C3B48007841
:104950008442F6D3394800783A4981F88000002033
:10496000364908700A21314800F0FCFBCFE7334894
:104970000078401E3049095C30480078C01E8142F2
:1049800026D12E480078801E2B49085C0A281FD1AA
:104990002A480078C01E085C0D2819D1002404E0C4
:1049A0002548005D27490855641C24480078C01E2E
:1049B000A042F5D821480078C01E224981F8800025
:1049C00000201E4908700A21184800F0CBFB9EE722
:1049D0001A480078401E1849095C18480078C01E23
:1049E00081420FD015480078801E1349085C0A28C0
:1049F00008D112480078C01E085C0D2802D10020A2
:104A00000E4908700D480078802802DB00200B4911
:104A100008706D1C9DF80A00A8423FF67CAF0A2181
:104A2000024800F09FFB00BF71E7000000640040F7
:104A3000B0040020B80400209E0B0020B404002025
:104A4000AC0400209A0900207CB504460D46012CD8
:104A500002D1284602F088FF022C39D10121B54845
:104A600000F050FE0120042100230822CDE90010AF
:104A700002214120FEF7BCFC0120182100231A4628
:104A8000CDE9001003214120FEF7B2FC03221146BC
:104A90002620FEF784FE00231A462946A64802F087
:104AA000DFFF0121A44803F03FF80121A24803F0F1
:104AB00036F80122A149A04803F016F801229F49C7
:104AC000491C9D4803F010F801219B4802F0B2FFF9
:104AD000032C3AD101219748401C00F013FE01201D
:104AE000042100230822CDE900100A214220FEF70C
:104AF0007FFC0120182100231A46CDE900100B216C
:104B00004220FEF775FC032211462720FEF747FEE0
:104B100000231A4629468A4802F0A2FF012188484C
:104B200003F002F80121864802F0F9FF01228349CF
:104B3000834802F0D9FF01228049491C804802F0D5
:104B4000D3FF01217E4802F075FF042C3AD10121E8
:104B50007848801C00F0D6FD0120042100230822A3
:104B6000CDE900100A214320FEF742FC0120182164
:104B700000231A46CDE900100B214320FEF738FC34
:104B8000032211463420FEF70AFE00231A46294666
:104B90006C4802F065FF01216A4802F0C5FF01215F
:104BA000684802F0BCFF01226449664802F09CFF9D
:104BB00001226249491C634802F096FF01216148C5
:104BC00002F038FF052C3AD101215A48C01C00F0F0
:104BD00099FD0120042100230822CDE900100C21B9
:104BE0004320FEF705FC0120182100231A46CDE9D9
:104BF000001002214420FEF7FBFB03221146352062
:104C0000FEF7CDFD00231A4629464F4802F028FF43
:104C100001214D4802F088FF01214B4802F07FFF3F
:104C200001224649484802F05FFF01224349491CDE
:104C3000454802F059FF0121434802F0FBFE062CD3
:104C40003AD101214FF0181000F05CFD0120042141
:104C500000230822CDE9001006214320FEF7C8FBFF
:104C60000120182100231A46CDE900100721432016
:104C7000FEF7BEFB032211464C20FEF790FD0023F9
:104C80001A462946314802F0EBFE01212F4802F076
:104C90004BFF01212D4802F042FF012227492B48FA
:104CA00002F022FF01222549491C284802F01CFF7E
:104CB0000121264802F0BEFE072C39D101212448EB
:104CC00000F020FD0120042100230822CDE900107E
:104CD00011464520FEF78CFB0120182100231A46BF
:104CE000CDE9001007214520FEF782FB0322114683
:104CF0004D20FEF754FD00231A462946154802F0C0
:104D0000AFFE0121134802F00FFF0121114802F00C
:104D100006FF012209490F4802F0E6FE0122074979
:104D2000491C0C4802F0E0FE01210A4802F082FE14
:104D30007CBD000011001C000044004004000C0079
:104D400000480040004C004000500040006001401E
:104D5000190018000064014000BFFEE70FB49DF881
:104D600006109DF8050041EA002004B070470000DD
:104D700070B588B004460D461646012C13D10020AC
:104D80000123CDE90430069000210F22CDE9003245
:104D9000CDE902130790042301221046FDF75EFCC3
:104DA000104811490860022C14D101200021CDE9DE
:104DB0000401CDE906100D210F22CDE900020423E4
:104DC0000246CDE9021000210220FDF747FC05480C
:104DD00006490860064805600648067006480470E3
:104DE00008B070BD317D0008B8040020D404002054
:104DF0002405002028050020290500200FB49DF877
:104E0000010001069DF8020041EA00419DF80300FF
:104E100041EA00209DF80410084304B070470000E8
:104E20002DE9FF4105460E461746002002900390EB
:104E30004FF0FF08002408E0C4F10300C00047FA67
:104E400000F002A90855601CC4B2042CF4DB45EA4A
:104E500006280020082102AB4246CDE900100121BE
:104E600002480078FDF7ECFCBDE8FF812905002031
:104E700003B401984100009850EAC12018BF0420F3
:104E80004A0D18BF40F0010040F2FF72B2EB515FD3
:104E900008BF40F00200012808BF052002B070479B
:104EA00030380A2801D2012070470020704700BF27
:104EB000704730B5024600200023146824F0020435
:104EC0001460146824F00104641C146000E05B1C8E
:104ED000546804F001041CB94FF6FF74A342F6D1E4
:104EE000546804F00104002C3FD04D78146865F339
:104EF000C71414608D78146865F386141460CD7837
:104F0000146865F3451414600D79146865F304148E
:104F100014604D79146865F3C30414608D791468C6
:104F200065F3820414600C78D56964F39E75D561CD
:104F30000C786508D46965F3DF74D461146824F0D3
:104F400001041460002300E05B1C546804F00104B9
:104F50001CB14FF6FF74A342F6D1546804F001046B
:104F60000CB1002002E0012000E0002030BD30B58F
:104F7000024600200023146824F002041460146820
:104F800024F00104641C146000E05B1C546804F00D
:104F900001041CB94FF6FF74A342F6D1546804F023
:104FA00001045CB30C88641ED56964F30B05D561FC
:104FB0008D78D46965F31964D461CD78D46965F3CB
:104FC0001344D4610D79D46965F31654D46114681F
:104FD00024F001041460002300E05B1C546804F01A
:104FE00001041CB14FF6FF74A342F6D1546804F0DB
:104FF00001040CB1002002E0012000E0002030BDDF
:1050000030B50022CC78012303FA04F2D0F8003244
:1050100023F001035B1CC0F80032D0F81C3293432C
:10502000C0F81C320B7913B1012B5AD12CE0D0F807
:105030000C329343C0F80C328B891C04CD7800F5F8
:10504000107343F83540CC7853F834300C8923433F
:10505000CD7800F5107444F835304B891C04CD78B8
:1050600000F5107303EBC5035C60CC7800F510739A
:1050700003EBC4035B68CC882343CD7800F5107440
:1050800004EBC50463602DE0D0F80C321343C0F884
:105090000C32CB881C04CD7800F5107343F83540F2
:1050A000CC7853F834300C892343CD7800F5107454
:1050B00044F835304B891C04CD7800F5107303EBB0
:1050C000C5035C60CC7800F5107303EBC4035B6828
:1050D0008C892343CD7800F5107404EBC50463601C
:1050E00000E000BF00BF4B7813B1012B0CD105E0ED
:1050F000D0F804329343C0F8043206E0D0F804320A
:105100001343C0F8043200E000BF00BF8B7813B136
:10511000012B0CD105E0D0F814329343C0F81432BF
:1051200006E0D0F814321343C0F8143200E000BF98
:1051300000BF0B783BB1012B0BD1D0F81C321343CD
:10514000C0F81C3206E0D0F81C329343C0F81C3281
:1051500000E000BF00BFD0F8003223F00103C0F828
:10516000003230BD122935D2DFE801F034090A0BD4
:105170000F0C14171B341F223425282B2E3100BF8F
:1051800000BF00BF0422426025E0042242600022EA
:10519000826120E0012282601DE04FF48072826013
:1051A00019E04FF48032826015E00822C26012E0FC
:1051B0001022C2600FE0082202610CE0102202619E
:1051C00009E00822426006E01022426003E0034A40
:1051D000826000E000BF00BF7047000001010100D5
:1051E0001AB143690B43436102E043698B43436156
:1051F000704730B505460C46134605F5D87000EBF0
:1052000004100068C0F380001872187A10B10128E9
:1052100013D107E005F5D87000EB04100068400DCD
:1052200018600BE005F5D87000EB041000686FF013
:10523000604101EAD000586000E000BF00BF05F502
:10524000D87000EB04100068C0F34000587205F5F8
:10525000D87000EB0410406800F00F00987205F55C
:10526000D87000EB04104068000AD87405F5D870B7
:1052700000EB04108068D87205F5D87000EB0410BC
:105280008068010A197305F5D87000EB0410806876
:10529000010C597305F5D87000EB04108068010EFD
:1052A000997305F5D87000EB0410C068D87305F544
:1052B000D87000EB0410C068010A197405F5D870A5
:1052C00000EB0410C068010C597405F5D87000EBB0
:1052D0000410C068010E99742146284600F09DF81C
:1052E00030BD10B5024604209368C3F380630BB150
:1052F00000200CE09368C3F3C0630BB1012006E00B
:105300009368C3F300730BB1022000E0042004286B
:105310007CD002F5C07303EB00131B6803F001049B
:1053200002F5C07303EB00131C600C7A02F5C07326
:1053300003EB00131B6864F3820302F5C07404EBF3
:10534000001423600B7A13B1012B1CD10DE00C88E3
:1053500002F5C07303EB00131B6864F35F5302F59F
:10536000C07404EB001423600EE002F5C07303EB7D
:1053700000131B684C6843EAC40402F5C07303EBD6
:1053800000131C6000E000BF00BF4C7A02F5C07340
:1053900003EB00131B6864F3410302F5C07404EBD4
:1053A000001423608B7A02F5C07404EB0014646867
:1053B00063F3030402F5C07303EB00135C608B7BA3
:1053C0001C064B7B44EA03440B7B44EA0323CC7A60
:1053D000234302F5C07404EB0014A3608B7C1C060D
:1053E0004B7C44EA03440B7C44EA0323CC7B2343F9
:1053F00002F5C07404EB0014E36002F5C07303EB24
:1054000000131B6823F001035B1C00E004E002F5BD
:10541000C07404EB0014236010BD11B1012906D142
:1054200002E02022C26003E02022026100E000BF0F
:1054300000BF70470246002021B1012910D0022987
:105440002AD11BE0936803F001033BB19368C3F3D7
:1054500040030BB1012002E0002000E002201DE02B
:105460009368C3F300233BB19368C3F340230BB1AC
:10547000012002E0002000E002200FE09368C3F367
:1054800000433BB19368C3F340430BB1012002E0FA
:10549000002000E0022001E0002000BF00BF7047B4
:1054A0000349496860F30711014A516070470000E1
:1054B000001002400349496860F30A21014A516023
:1054C00070470000001002400349496860F3CD2195
:1054D000014A51607047000000100240012807D1C6
:1054E0000749496D21F030013031054A516505E029
:1054F0000349496D21F03001014A516570470000B0
:1055000000100240052827D2DFE800F0030A111836
:105510001F00134A126861F30002114B1A601CE06D
:105520000F4A126861F310420D4B1A6015E00C4AE5
:10553000126861F318620A4B1A600EE0084A126A98
:1055400061F30002064B1A6207E0054A526A61F3F2
:105550000002034B5A6200E000BF00BF704700002A
:10556000001002402DE9F0410146002700220025ED
:1055700090460023002400F05BF9064626B1012E78
:1055800012D0022E43D112E03948406DC0F34020C2
:1055900038B13748006BC0F3406010B1354808603F
:1055A00001E03548086035E03348086032E03048B3
:1055B0004068C0F300482E484068C0F383422C483E
:1055C0004068C0F341750DB90F2A03D12801401C72
:1055D000024400E0921CB8F1000F03D12748504369
:1055E000086013E022484068C0F3404058B12048AA
:1055F000406DC0F30137B81CDFF87CC0BCFBF0F095
:105600005043086002E01C485043086002E01A481A
:10561000086000BF00BF16484068C0F30313184875
:10562000C45C0868E040486011484068C0F3022349
:105630001448C45C4868E040C8600D484068C0F346
:10564000C2231148C45C4868E0408860084840684C
:10565000C0F3007306484068C0F3813040EA83031A
:105660000A48C45C8868B0FBF4F00861BDE8F081CA
:1056700000100240006CDC0200127A0000093D00BC
:10568000B4890008C4890008CC890008D4890008BE
:1056900010B501460020094B03EB1142126801F0DE
:1056A0001F040123A3401A4001F01F040123A3405B
:1056B0009A4200D000E0012010BD0000001002401E
:1056C0000349496D60F30D31014A5165704700008F
:1056D0000010024030B50024002500E0641C1120B9
:1056E000FFF7D6FF012802D0B4F5405FF6D31120B2
:1056F000FFF7CEFF012801D0002500E00125284654
:1057000030BD000010B501290DD10E4B03EB104246
:10571000126800F01F040123A3401A43094C04EB54
:1057200010431A600CE0074B03EB1042126800F0C4
:105730001F040123A3409A43024C04EB10431A6058
:1057400010BD00000010024010B568B91C4B5B682A
:1057500023F480331A4C636023461B6B23F00073E1
:1057600003F10073236317E0154B5B6823F4803368
:1057700003F58033124C6360012805D123465B6832
:1057800023F40033636007E00D4B5B6823F40033C0
:1057900003F500330A4C6360094B5B6861F3954382
:1057A000074C63600C09064B5B6864F35E73044C42
:1057B000636023465B6862F3DF73636010BD0000C3
:1057C000001002401348006820F00100401C1149FD
:1057D000086000BF0F480068C0F340000028F9D0FF
:1057E0000C48406820F003000A49486000BF09489F
:1057F0004068C0F381000028F9D1064800680649D6
:105800000840044908600020486008634FF41F0006
:105810008860704700100240FFFFF2FE03494968AC
:1058200060F30101014A516070470000001002401E
:1058300002484068C0F38100704700000010024039
:1058400010B501F051FD042001F002FE0748006888
:105850000749B0FBF1F007490860084600684FF4BB
:105860007A7148430449086010BD0000100400200C
:1058700040420F003405002038050020002131E0AF
:1058800032280ADD194A126832235A434FF0E023C6
:105890005A61A0F1320290B206E0144A1268424303
:1058A0004FF0E0235A61002000224FF0E0239A617C
:1058B0001A46126942F001021A6100BF4FF0E0225D
:1058C000116901F001021AB101F48032002AF5D009
:1058D0004FF0E022126922F001024FF0E0231A613A
:1058E00000229A610028CBD17047000038050020C3
:1058F000026861F30002026070470146486880B2A6
:105900007047416070470000B0F1805F04D920F01B
:105910007041034A116001E002494860704700008D
:105920000404024000000240014600200022B1F1C0
:10593000805F02D9054B1A6801E0054B1A6802EA3C
:1059400001030BB1012000E0002070470004024079
:1059500000000240D0F8A430C3F300633BB9D0F894
:10596000A43023F0807303F18073C0F8A4300129C0
:1059700006D1D0F8A03062F30703C0F8A03034E0BD
:10598000022906D1D0F8A03062F30F23C0F8A0306E
:105990002BE0032906D1D0F8A03062F31743C0F8FA
:1059A000A03022E0042906D1D0F8A03062F31F63B2
:1059B000C0F8A03019E0052906D1D0F8A43062F370
:1059C0000703C0F8A43010E0062906D1D0F8A430AF
:1059D00062F30F23C0F8A43007E0072905D1D0F8FF
:1059E000A43062F31743C0F8A430704702684BF646
:1059F000EF731A40026002680B891A4302604B7C05
:105A0000026863F30D320260CB7B026863F38B2282
:105A100002608B7B026863F3092202604B7B0268A1
:105A200063F3C71202600B7B026863F386120260A5
:105A30000B7C026863F3451202604A8942600A687F
:105A400082604A68C26070471AB103680B43036002
:105A500002E003688B430360704700000FB438B561
:105A600005A800904FF480710C48009B049AFAF747
:105A7000D1FCC4B2002000900948007801280AD166
:105A800021460848FDF79CFA002005490870204689
:105A900038BC5DF814FB0020FAE70000AC190020C8
:105AA00016050020800002400021026822F0010259
:105AB00002600022026042608260C260014640F2E1
:105AC000FF420A40B2F5816F0DD2CAB2083A1423E0
:105AD000B2FBF3F293000F229A400D4B5B681A431E
