:020000040800F2
:1000000098440020D10300084D3300084533000810
:1000100049330008C91F00087948000800000000A3
:1000200000000000000000000000000011030008B4
:10003000C92F0008000000006D030008FD3800080B
:10004000EB030008EB030008EB030008EB030008D8
:10005000EB030008EB030008EB030008EB030008C8
:10006000EB030008EB030008EB03000885290008F8
:10007000E5290008452A0008A92A00080D2B0008D8
:10008000712B0008D52B0008EB030008EB030008D8
:10009000A5430008DD1F0008EB030008EB03000880
:1000A000EB030008EB030008EB030008EB03000878
:1000B000EB030008EB030008EB030008EB03000868
:1000C000EB030008EB030008EB030008EB03000858
:1000D000EB030008BD3D0008D93E0008E13F0008E1
:1000E000EB030008EB030008EB030008EB03000838
:1000F000EB030008EB030008EB030008EB03000828
:10010000EB030008EB030008EB030008EB03000817
:10011000A53A0008AD3B0008EB030008EB0300081C
:10012000EB030008EB030008EB030008EB030008F7
:10013000EB030008EB030008EB030008EB030008E7
:1001400000000000000000000000000000000000AF
:10015000EB0300084121000895220008EB0300088A
:10016000EB030008EB030008EB030008EB030008B7
:10017000E9400008B53C0008EB030008EB03000869
:10018000EB03000800F002F800F0B2F80AA090E8D3
:10019000000C82448344AAF10107DA4501D100F042
:1001A000A7F8AFF2090EBAE80F0013F0010F18BF5D
:1001B000FB1A43F001031847248500004485000022
:1001C0000A444FF0000C10F8013B13F0070408BF7D
:1001D00010F8014B1D1108BF10F8015B641E05D01B
:1001E00010F8016B641E01F8016BF9D113F0080FD0
:1001F0001EBF10F8014BAD1C0C1B09D16D1E58BF62
:1002000001F801CBFAD505E014F8016B01F8016B98
:100210006D1EF9D59142D6D370470000002300240B
:1002200000250026103A28BF78C1FBD8520728BF06
:1002300030C148BF0B6070476E2900F0D083702931
:1002400001F0B180662908F01881652908F0158150
:10025000672908F01281612908F0118103681B0ADF
:1002600028BF41F08001692900F03081642900F045
:100270002D81752900F02A816F2901F03E807829AF
:1002800001F07D80E92900F0D987E42900F0D687C4
:10029000F52900F0D387EF2901F03B80F82901F020
:1002A0007C800368DB0928BF41F08001632901F0ED
:1002B0007F81732901F08481E32901F08F81F32983
:1002C00001F09481002070471FB508F0CCF801F0D0
:1002D000DBF804000020002107F0F8FA401C606001
:1002E0000020002107F0DCFAE0601FBD10B510BD52
:1002F00001F066FA1146FFF7E7FF05F04DFD01F04A
:1003000092FA03B4FFF7F2FF03BC04F0B4FF00005D
:100310002C4B19680868B0E8F04F80F30988BFF3E8
:100320006F8F4FF0000080F31188704700000000CD
:1003300008480068006880F308884FF0000080F3E8
:10034000148862B661B6BFF34F8FBFF36F8F00DFC3
:1003500000BF00BF08ED00E0DFF80C00016841F4C9
:1003600070010160704700BF88ED00E0EFF3098085
:10037000BFF36F8F134B1A681EF0100F08BF20EDEC
:10038000108A20E9F04F106009B44FF0100080F39C
:100390001188BFF34F8FBFF36F8F06F0BFFF4FF091
:1003A000000080F3118809BC19680868B0E8F04FB4
:1003B0001EF0100F08BFB0EC108A80F30988BFF35D
:1003C0006F8F70475C030020EFF3058070470000DB
:1003D0000948804709480047FEE7FEE7FEE7FEE7D9
:1003E000FEE7FEE7FEE7FEE7FEE7FEE70448054915
:1003F000054A064B704700003139000885010008A6
:10040000983E00209844002098400020984000200A
:10041000704700001CB50C46064B7B4469460090B3
:10042000204600F082FE04460020694600F090FE5F
:1004300020461CBD330D00000FB4044910B503AABB
:10044000029800F08BFE10BC5DF814FB94040020B1
:100450000FB41CB5084B06AA7B446946009005986A
:1004600000F063FE04460020694600F071FE20465D
:100470001CBC5DF814FB0000F50C000070B50446D0
:1004800085690068C10601D5302600E02026C00736
:1004900007D070BDD4E9012130469047206A401C46
:1004A00020626D1EF6D570BD70B504468569007872
:1004B000C00707D170BDD4E9012120209047206AF0
:1004C000401C20626D1EF6D570BD00002DE9F04184
:1004D0000646002410687529314616A510D000F094
:1004E000EAF9002802DA404213A507E031688A07DA
:1004F00001D512A502E0490704D511A5012401E0A8
:1005000000F0E2F900210A2206F1240709E0B0FB1D
:10051000F2FCB0FBF2F302FB1C00303078541846BA
:10052000491C0028F3D123462A463046BDE8F04155
:1005300000F0FCB9000000002D0000002B000000BE
:10054000200000002DE9F05F894604464FF0000AC4
:10055000DFF874B1FB44C0F820A02046E16888476A
:10056000002874D0252806D0D4E901219047206ABC
:10057000401C2062F1E700265F462046E16888477C
:100580002028054607DB312D05D2781910F8200CFC
:1005900008B10643F1E7B00701D526F00406C4F818
:1005A0001CA00027C4F818A02A2D09D0284604F062
:1005B0005BFE38B304EB8708303DC8F8185019E0EB
:1005C00059F8041B204604EB87029161E1688847D3
:1005D000012F054618D1E069002820DA26F0200610
:1005E0001DE0D8F8180000EB800005EB4000303823
:1005F000C8F818002046E1688847054604F034FE34
:100600000028EED1012F0AD02E2D08D12046E16816
:1006100088477F1C0546022F46F02006C4DBA069F0
:10062000002803DA404246F00106A061F00701D03D
:1006300026F010066C2D0BD0682D09D04C2D39D02A
:100640006A2D35D0742D35D07A2D33D016E038E0B0
:10065000E1682F4620468847B842054609D16C2FED
:1006600026D04FF48060E16806432046884705465F
:1006700004E06C2F1AD04FF4807006430DB3A5F13F
:100680004100192802D8203546F400664A4629461A
:10069000204626604E46FFF7CFFD80B101280BD0E3
:1006A000F61D26F0070000F1080956E74020E4E7B0
:1006B0008020D8E70020D6E706F104094DE7284658
:1006C00052E7206ABDE8F09F627F000070B50646E1
:1006D00000F0E2F80468054630460A22002100F0E6
:1006E0006DFE2C6070BD40EA0103024630B59B07E9
:1006F00010D14FF0013400E008C208C91D1B9D4312
:1007000015EAC41FF8D013F0FF0102F8011B0DD049
:100710001B0AF8E711F8013B002B02F8013B05D05A
:1007200011F8013B002B02F8013BF3D130BD10B5AD
:10073000431C02E010F8011B71B18107FAD14FF0A0
:10074000013202C88C1A8C4314EAC211F9D0C01AC3
:100750000A0603D0C01E10BDC01A10BD0A0401D085
:10076000801E10BD0902FCD0401E10BD4FF00002DB
:1007700000B5134694469646203922BFA0E80C5097
:10078000A0E80C50B1F12001BFF4F7AF090728BF72
:10079000A0E80C5048BF0CC05DF804EB890028BFEE
:1007A00040F8042B08BF704748BF20F8022B11F017
:1007B000804F18BF00F8012B704710B5044610F0A9
:1007C000030F08BF11F0030F40F015804FF0013EFA
:1007D000121FC0F20E8051F8043BA3EB0E0C2CEA62
:1007E000030C1CEACE1C08BF40F8043BF0D0A1F17A
:1007F000040102F10402521E08DB11F8013B002B38
:1008000000F8013BF7D1114600F010FE204610BD64
:100810004FF0013C50F8042B51F8043B9A4221D18F
:10082000A2EB0C03934313EACC1317D150F8042B1B
:1008300051F8043B9A4215D1A2EB0C03934313EAFF
:10084000CC130BD150F8042B51F8043B9A4209D138
:10085000A2EB0C03934313EACC13DBD04FF0000060
:10086000704700BFD01A01BAB1FA81F101F0180146
:1008700022FA01F0CB40C1F12001DBB2C0B2C01AB4
:100880002CFA01F3D11A914311EAC311E6D1704752
:10089000704770477047704700487047383E0020E7
:1008A00010B5FFF7F9FF006810BD10B50446FFF75B
:1008B000F3FF046010BD09684A0501D540B27047D6
:1008C000C905FCD500B2704709684A0501D5C0B218
:1008D0007047C905FCD580B2704770B50C46054617
:1008E000012A05D02878800600D5EA69002302E0B5
:1008F000012305E05B1C934202D2E05C0028F9D1A1
:10090000A869E618C01AA861286A1844286228460F
:10091000FFF7B4FD04E0D5E9012114F8010B90477D
:10092000B442F8D32846FFF7BFFD70BD2DE9F0476C
:100930000D4699469246044600F12408016888064F
:1009400004D5E06921F01001216000E00120A842F7
:1009500001DD471B00E00027A1697A1902EB0900BD
:10096000081AA0612078C00602D42046FFF786FD51
:10097000002608E0D4E901211AF806009047206A11
:10098000401C761C20624E45F4DB2078C0060AD558
:100990002046FFF773FD06E0D4E90121302090479F
:1009A000206A401C2062381EA7F10107F4DC07E032
:1009B000D4E9012118F805009047206A401C206204
:1009C000281EA5F10105F3DC2046FFF76DFD207818
:1009D000000602D50220BDE8F0870120FBE7116880
:1009E0000268006A530501D508700AE0D30501D5F5
:1009F000088006E0130603D5C217C1E9000200E033
:100A000008600120704770472DE9FF4F0C461E46D5
:100A10004FF0FF378BB0D2E90001DDF860800A901B
:100A20008A46C1F30A5505B93D46002108464FF0F4
:100A30000000BAF1000F00F4400005DA00EB80007E
:100A40004FF4400101EA50004FEA9059B9F1010F0B
:100A500000DDB9460A9850EA4A000ED044F610501C
:100A6000A5F2FF3545432F14B8F1000F1ED0754293
:100A7000291E1EDDC9F100021CE0B8F1010F4FF084
:100A8000000001D0302103E0F24305E02154401C76
:100A9000B042FBDB30460022002121540B99C1F803
:100AA0000880C1E900200FB0BDE8F08FBD1B6D1CB0
:100AB000DEE74A4600DA694206A800F0EBFD06AB25
:100AC00093E8070003AB83E8070050460A9900F05B
:100AD000B3FE8DE80700A0F500501F380090039882
:100AE000002D0ADD42F21F014A460844002303A9F3
:100AF0000390684601F01CF909E0A0F500504A4651
:100B00001F38002303A90390684601F026F98DE8F9
:100B100007000004000C03D04FF0FF30410800E054
:100B20001046B8F1000F03D00022009215461EE0D7
:100B3000751E05D400F0ACFC303262556D1EF9D53F
:100B4000B3460122084302D000227F1C04E0207833
:100B5000302801D100227F1E002A099784D01DE091
:100B6000112D07DA00F094FC303262556D1C50EA0A
:100B70000102F5D1084302D00098C8B10EE000216F
:100B8000681E05E0235C625C63542254401E491CCD
:100B90008142F7DBAB46A81B401E0990002004F8F9
:100BA0000B000B98099AC0F80880C0E9002B7AE77F
:100BB00011264FF0000857E72DE9F04F884604460C
:100BC000D21D22F0070191B0D1E90001CDE90A015F
:100BD00003F054FE02460B98C00F01D02D2007E011
:100BE0002068810701D52B2002E0202101EAC00006
:100BF000032A099001D0072A05DB03464146204617
:100C000000F08CFC0BE12078800601D5E06900E063
:100C10000620B8F1650F814606D0B8F1660F18D0EE
:100C2000B8F1670F70D131E00020B9F1110F0090D9
:100C300001DB112301E009F101030AAA01A90CA8B3
:100C4000FFF7E2FEDDE90C70002609F1010583469D
:100C500047E001204B4600904FF000470AAA01A947
:100C60000CA8FFF7D1FEDDE90DB00C995D4600261A
:100C700010B909F101000D18B9EB050003D4C0F15A
:100C8000FF3609F10105A5EB09002BE0B9F1010FD1
:100C900001DA4FF001090020B9F1110F0090484628
:100CA00001DD112300E003460AAA01A90CA8FFF701
:100CB000ABFEDDE90C704D46002683462078000728
:100CC0000AD4AB4500DA5D4601A8012D04DD4119C7
:100CD00011F8011C302907D04F4502DA17F1040F33
:100CE00004DA012082460FE06D1EEEE7002F02DCE1
:100CF000ED1B3E4403E0781CA84200DD7D1CB81BC0
:100D000000F1010A4FF000472078000703D4AA45FC
:100D100001DB4FF0FF3A0021B7F1004F0DF143081E
:100D20008DF8431024D002202B23002F01DA7F42BC
:100D30002D230A21021EA0F1010000DC5FB197FB08
:100D4000F1FC97FBF1F201FB1C7C17460CF1300C17
:100D500008F801CDEEE7A8F101000370218809052C
:100D600001D5452100E06521A0F1010800F8011C32
:100D700009980FA9A1EB0807FF1D00B10120411937
:100D800001EBEA70A1693844081A401EA06120787E
:100D9000C00602D42046FFF771FB099828B1D4E9B8
:100DA00001219047206A401C20622078C00622D58D
:100DB0002046FFF763FB1EE0002E04DBB34502DD97
:100DC00001A8805D00E03020D4E901219047206A2D
:100DD000401C2062761CAAF101005FEA000A0AD1D9
:100DE00000F052FBC0680168405CD4E901219047E3
:100DF000206A401C2062281EA5F10105DCDC07E00A
:100E0000D4E9012118F8010B9047206A401C2062A8
:100E1000381EA7F10107F3DC2046FFF745FB03204E
:100E200011B041E62DE9F04F04460D46D21D22F0E7
:100E3000070089B0D0E900974846394603F01EFD07
:100E40000246F80F01D02D2307E02068810701D565
:100E50002B2302E0202101EAC0038DF820300BB1E2
:100E6000012000E00020032A824601D0072A04DB8B
:100E70002946204600F052FB3FE12078800601D44D
:100E80000D2500E0E569C7F30A560D2D49DA00216A
:100E90004FEA175B08464FF00000002F00F44000B7
:100EA00007DA00EB80004FF4400100EBD07001EA5C
:100EB00060008115012901DD4FF0FF3100224FEA6A
:100EC000850CBCF1180F06D31346ACF118004FF097
:100ED0008052C24003E04FF4801323FA0CF30CF16C
:100EE0000C0CBCF1200F04D3ACF1200C09FA0CF06F
:100EF00001E007FA0CF000294FF0004801DD18B9B5
:100F00000FE00ED140450CD319EB02095F4121B926
:100F1000404502D19F4329EA0209BBEB175F00D08D
:100F2000761C2088000502D57B48784402E07A4888
:100F30007844193808AA302302F80A30037C0AF1F1
:100F40000101002E0AF1020A53546A4602DC4FF0F6
:100F5000300101E04FF031014FF001088DF8001031
:100F600002D0A6F2FF3603E059EA470100D06B4EEB
:100F7000002D02DC2178090704D54FF002082E214C
:100F80008DF80110C44600210BE0C7F303433F0175
:100F9000C35C491C6D1E02F80830052908F10108E0
:100FA00001DA002DF1DC00210CE000EB1973491C83
:100FB0001B786D1E082902F808304FEA091908F15C
:100FC000010801DA002DF0DC21688B0602D516E05D
:100FD000A8F10108E04505DD02EB080313F8013C28
:100FE000302BF5D0B8F1000F09DD02EB080313F840
:100FF000013C2E2B03D1090701D4A8F10108002DD3
:1010000005DD3E2102F808106D1E08F10108407C44
:10101000002E02F8080008F1010804DA2D207642BB
:1010200002F8080002E02B2002F808000A214FF421
:101030007A70864208F101080BDB96FBF0F330333F
:1010400002F8083096FBF0F308F1010800FB136684
:1010500001E0642E0CDB642096FBF0F3303302F8E1
:10106000083096FBF0F308F1010800FB136601E07D
:101070000A2E06DB96FBF1F0303002F8080008F18A
:10108000010896FBF1F001FB1060303002F8080017
:10109000A16908F1010808EB050202EB0A00081A31
:1010A000A0612078C00602D42046FFF7E7F9216A44
:1010B00008AE01EB0A00206204E0D4E9012116F831
:1010C000010B9047BAF1010AF7D22078C00602D589
:1010D0002046FFF7D3F96E4609E016F8010B3E28CB
:1010E0000FD0D4E901219047206A401C2062B8F15A
:1010F0000108F2D22046FFF7D7F909B00320BDE876
:10110000F08F206A2844206203E0D4E901213020D6
:1011100090476D1EEBD3F8E7B075000002FCFFFFAF
:1011200001694A1C02610878704700B58FB0CDE9AB
:1011300001310021059105497944CDE9031011469B
:101140006846FFF7FFF90FB000BD0000E5FFFFFFA5
:101150000A6802F8010B0A6070470000074B70B57F
:101160000D467B44FFF7E1FF0446284600F004FBF0
:1011700010B14FF0FF3070BD204670BD574B0000DE
:101180002DE9FF5F15468A460446DFF8AC80F84437
:101190000027D8E900103E46CDE9001010E03AF8EB
:1011A00016106A4602A800F0EBFA411C07D021781D
:1011B000890603D5E269391891420DD80744761C97
:1011C0002078800602D5E069B84205DDAE42E6DB54
:1011D0003AF816000028E2D1A069C01BA0612046A1
:1011E000FFF74CF9D8E90010CDE90010002017E016
:1011F0003AF818106A4602A800F0C2FAB0F1FF3FB0
:1012000081460BD000250DF1080B05E0D4E9012142
:101210001BF8050090476D1C4D45F7D308F1010000
:10122000B0428046E4DB206A384420622046FFF763
:101230003BF9BDE8FF9F0000627300002DE9F0411B
:101240008046D21D22F007020025D2E90002F529CE
:1012500015A614D0011E72F1000106DA0023D0EBAE
:10126000030063EB020211A608E0D8F800108B0718
:1012700001D50FA602E0490701D50EA601251146AA
:10128000002408F1240704E000F002F930323A5556
:10129000641C50EA0102F7D12B46324621464046F3
:1012A000BDE8F041FFF742BB000000002D00000048
:1012B0002B0000002000000030B4002100F12404C5
:1012C00008E002F00705D208303542EA4372DB0835
:1012D0006554491C52EA0305F3D10468002310A2A7
:1012E000250707D5A40600D421B1C46901230DA2A6
:1012F000641EC46130BCFFF719BB10B5044621461B
:101300001068FFF7E1FA02462046BDE810400023CE
:10131000D2E7D21D22F00701D1E90023CCE700007B
:101320000000000030000000F0B40D4601880905FF
:1013300002D5214C7C4402E01F4C7C440E34002139
:1013400000F1240608E002F00F071209E75D42EA07
:1013500003721B097754491C52EA0307F3D1027840
:101360000023120704D5702D06D009B102231134D1
:101370002246F0BCFFF7DABA01231034F8E770B563
:1013800004460D4621461068FFF79EFA024629469C
:101390002046BDE870400023C6E7D21D22F00703B7
:1013A000D3E90023C0E70368126843F02003036019
:1013B0000823C3610023B7E7C47100002DE9F0479B
:1013C00091460F4680460446002614F8015B2DB175
:1013D00000F052F80068405DC007F6D12B2D02D016
:1013E0002D2D18D0641E4A463946204600F002F9D9
:1013F00027B13968A14201D1C7F800804FF002043B
:1014000071050BD54042002803DDFFF745FA046063
:10141000A007BDE8F08746F48066E4E70028F8DA24
:10142000FFF73AFA04606FF00040F2E74FF0000275
:101430000429C0F0128010F0030C3FF499A9CCF1FC
:10144000040CBCF1020F18BF00F8012BA8BF20F854
:10145000022BA1EB0C01FFF78BB95FEAC17C24BF23
:1014600000F8012B00F8012B48BF00F8012B704752
:1014700000487047383E002010B500F005F8001D08
:1014800010BD00BF4964000000487047583E00206E
:1014900030B5B0F10A024FEA900E71F100034EEA46
:1014A000817EB0EB0E0061EB91014FEA101E4EEA17
:1014B000017E10EB0E0041EB11114FEA102E4EEAA7
:1014C000016E10EB0E0041EB11214FEA104E4EEA77
:1014D000014E10EB0E0041EB1141401841F10001AB
:1014E0004FEAD00040EA41704FEAD10110EB80058D
:1014F0004FEA810444EA907444EB01046D1944EB13
:101500000404521BA3414FF0000348BF0A3200D528
:1015100030BD401C41F1000130BD00002DE9F0411B
:101520001F46044603260168072A01F4006004DB15
:1015300008B116A505E016A503E008B115A500E061
:1015400015A521F010002060A069C01EA0610FB198
:10155000401EA0612046FEF791FF4FB1D4E9012162
:1015600038469047206A401C2062C01C206206E07A
:10157000206AFAE7D4E9012115F8010B9047761E9D
:10158000F8D22046FEF790FFBDE8F0814E414E00B4
:101590006E616E00494E4600696E660010B5436983
:1015A00013B1AFF3008001E0FFF797F9012010BD00
:1015B000127800F124010A7000224A700122EDE73E
:1015C00011684FF0FF32E9E710B5436913B1AFF38B
:1015D000008001E0FFF7D4FD012010BD128800F16A
:1015E000240182840022C2840122EDE711684FF0B9
:1015F000FF32E9E72DE9F05F824615468B4600276A
:101600000AF10104B9460078302801D09DB113E0F9
:1016100014F8010B0127782803D0582801D045B1D0
:101620000AE00DB1102D07D1002714F8010B102589
:1016300002E0082500E00A250026B0460EE005FB82
:10164000080005FB06F101271FFA80F801EB1046A0
:10165000B6F5803F00D3B94614F8010B294600F0D7
:10166000D4F80028EBDABBF1000F05D00FB1641EEF
:1016700000E05446CBF80040B9F1000F06D0FFF768
:101680000BF902210160C81EBDE8F09F48EA064040
:10169000FAE700002DE9F047814616468AB0354842
:1016A00078440DC88DE80D0032487844801C03ACA6
:1016B0000DC884E80D0041F69B300844372190FBAB
:1016C000F1F290FBF1F5A5F1800501FB12041B3C42
:1016D00002D56442012000E00020DFF898A0804697
:1016E0000027FA44AAF1BE0A0EE0E0070AD032460B
:1016F000684607EB470101230AEB810100F02DFB4F
:101700008DE8070064107F1C002CEED1194F7F4438
:10171000AE3F19E0E80715D007EB04100DF1180AE9
:1017200090E80E008AE80E00C068F04201D19819D6
:1017300008903246012306A903A800F00EFB03AB74
:1017400083E807006D10641C002DE3D14FF0010306
:1017500032466946B8F1000F03A802D000F0E8FA5B
:1017600001E000F0FAFAC9E90001C9F808200AB05E
:10177000BDE8F08720700000007B00F0800070471B
:1017800070B516460C460546FFF776FE036893F8DB
:101790000101012806D0FF2C0FD8185D68B1012087
:1017A0002C7070BDD3F807013246214603F20713AF
:1017B00003442846BDE8704018474FF0FF3070BD25
:1017C0007546FFF755FEAE4605006946534620F0C4
:1017D0000700854618B020B5FEF708FEBDE820409A
:1017E0004FF000064FF000074FF000084FF0000BDD
:1017F00021F00701AC46ACE8C009ACE8C009ACE890
:10180000C009ACE8C0098D4670473A2800D230388C
:1018100020F02002412A01D3A2F13700884201D3EF
:101820004FF0FF30704710B50446AFF300802046FC
:10183000BDE81040FEF765BD5FEA400C08BF91F0BF
:10184000000F4FEA8C234FEAC12243EA51514FEA7D
:101850001C5018BF00F5F0404FEA300018BF41F0AF
:1018600000415FEA6C5C00F02980BCF1FF3F08BFDB
:1018700040F080407047130C06BF12044FF0100C6C
:101880004FF0000C130E04BF12020CF1080C130FE2
:1018900004BF12010CF1040C930F04BF92000CF171
:1018A000020CD30F04BF52000CF1010C11464FF093
:1018B0000002A0F11F00A0EB0C00704711F0004FD8
:1018C00008BF704731F000413FF4D5AF0B0C06BFA5
:1018D00009044FF0100C4FF0000C0B0E04BF09026E
:1018E0000CF1080C0B0F04BF09010CF1040C8B0F59
:1018F00004BF89000CF1020CCB0F04BF49000CF1AE
:10190000010CCCF12003A0EB0C0022FA03F302FA45
:101910000CF241EA030100F10100704720F07F4C16
:1019200080EA030023F07F47ACEB070303F57C5309
:1019300000F0004003F1FF032DE980494FEA154B09
:1019400009B44FEA144325EA0B4E24EA03480FF288
:10195000042606EB132749083E785FEA320203FBB0
:101960000667C7F5000707FB06F64FEA54374FEA4C
:10197000D64606F1020607FB066CCCF1005C4FEA86
:101980001C472CEA074C07FB06F40CFB06F504EB9E
:1019900015464FEA961634BF00204FF000404FEA3C
:1019A000D13706FB07FC4FEA1C4C0CFB0BF7D21B94
:1019B00003FB0CF761EB07010CFB0EF7B0EB0740E4
:1019C00072EB17420CFB08F734BFA2EB0742B2EBF5
:1019D000074261EB17414FEA0C444FEA910706FBBF
:1019E00007FC4FEA1C4C0CFB0BF7B0EBC74072EB4B
:1019F000573203FB0CF734BFA2EBC742B2EBC7422E
:101A000061EB57310CFB0EF7B0EBC70072EB57726E
:101A10000CFB08F734BFA2EBC702B2EBC70261EBC5
:101A20005771039F4FEA816141EA921104EBCC04A4
:101A30004FEAD1374FEA826206FB07FC42EA901276
:101A40004FEA80604FEA1C4C0CFB0BF7D21B03FBE8
:101A50000CF761EB07010CFB0EF7B0EB074072EBE4
:101A600017420CFB08F734BFA2EB0742B2EB074268
:101A700061EB17414FEA8C554FEA910704EB9C2428
:101A800006FB07FC4FEA1C4C0CFB0BF7B0EBC74006
:101A900072EB573203FB0CF734BFA2EBC742B2EB39
:101AA000C74261EB57310CFB0EF7B0EBC70072EB8E
:101AB00057720CFB08F734BFA2EBC702B2EBC702A8
:101AC00061EB577115EB4C254FEA816141EA9211A8
:101AD0004FEA82624FEAD13742EA901206FB07FCD6
:101AE00044F100044FEA80604FEA1C4C0CFB0BF7FA
:101AF000D21B03FB0CF761EB07010CFB0EF7B0EBFD
:101B0000074072EB17420CFB08F734BFA2EB074209
:101B1000B2EB074261EB174115EB1C154FEA81311F
:101B200041EA92414FEA823242EA90424FEA8030E3
:101B30004FEA0C7644F1000448EA03434EEA0B48AE
:101B40004FF0000EB2EB080C71EB030724BF6246A6
:101B500039464EEB0E0E4FF0000B00185241494132
:101B60004BEB0B0BB2EB080C71EB03077BF1000B9B
:101B700024BF624639464EEB0E0E4FF0000B0018A4
:101B8000524149414BEB0B0BB2EB080C71EB0307D5
:101B90007BF1000B24BF624639464EEB0E0E51EA34
:101BA000020718BF46F0010616EB0E7655F100024B
:101BB00054F1000103D5BDE88901BDE80088BDE806
:101BC0008901BDE80048B619524141EB0101A3F17A
:101BD0000103704780807F7E7D7C7B7A7978777681
:101BE00076757473727171706F6E6E6D6C6C6B6AFA
:101BF0006A69686867666665646463636261616098
:101C0000605F5F5E5E5D5D5C5C5B5B5A5A59595814
:101C1000585757565655555554545353525252517E
:101C2000515050504F4F4F4E4E4D4D4D4C4C4C4BD4
:101C30004B4B4A4A4A49494948484847474747461B
:101C40004646454545444444444343434342424257
:101C500042414141002B9C4630D477002BD01CB52B
:101C60004FEA370703B44FF010004FF01001BAF1FC
:101C7000000F06D0BCF1000FDCBF40F0080040F0C0
:101C800008014FF000000FBCBDE810400BF1010B44
:101C9000BBF1010F08BF5FEA170722BF12F1010273
:101CA00011F101014FF0004143F1000300F0004049
:101CB00043EA00007047F9D35708D0E746EA0646E2
:101CC00013F1400F4FEA16461FDD13F1200FDFBF5F
:101CD00016430A46002120335B42BED0C3F12007E1
:101CE00046EA064602FA07F74FEA164646EA0706AC
:101CF000C3F1200722FA03F201FA07F721FA03F1F0
:101D00004FF0000342EA0702A7E746EA020646EA66
:101D100006464FEA164646EA0106BCBF46EA0646B4
:101D2000360C4FF000034FF000024FF0000194E733
:101D30002DE9804C9A46934670B491E8380007C864
:101D400031EA400C48BF34EA430C03D5FFF7E6FD07
:101D5000FFF780FFF0BCBDE8008C2DE9804C9A466F
:101D6000934670B491E8380007C810F0804F08BF60
:101D700013F0804F03D100F005F8FFF76BFFF0BCC4
:101D8000BDE8008C20F07F4780EA030023F07F4C01
:101D900007EB0C03A3F57C5300F00040A3F1FE0316
:101DA00092F0000F00F0B38095F0000F00F0778004
:101DB0002DE901494FEA11404FEA144621EA004853
:101DC00000FB06FC24EA064708FB06F607FB08F8BA
:101DD00000FB07F718EB06484CEB164C4FEA124B8A
:101DE00018EB07484FEA15464CEB174022EA0B4E1A
:101DF0000BFB06FC25EA06470EFB06F607FB0EFE6C
:101E00000BFB07F71EEB064E4CEB164C4FF0000693
:101E10001EEB074E4CEB174B18EB0B0840F1000084
:101E200018EB0E0B58EB000840F100008F1A4FF032
:101E300000013CBFC943661B14BFB5EB040C002175
:101E40003CBFC943F61B4FEA17444EEA8E0E27EA01
:101E500004454FEA1C4704FB07622CEA074C05FBCC
:101E600007F70CFB05F604FB0CFC16EB074642EBF0
:101E7000174216EB0C4642EB1C421BEB060658EBD6
:101E80000202414146EA9E0601D5BDE80189B61924
:101E9000524141EB0101A3F10103BDE801894FEA81
:101EA00014454FEA114724EA054621EA074C05FB91
:101EB00007F406FB07F70CFB06F105FB0CFC11EB26
:101EC000074144EB17444FEA124711EB0C4144EB36
:101ED0001C4422EA074C05FB07F206FB07F70CFB44
:101EE00006F605FB0CFC16EB074642EB174216EB19
:101EF0000C4642EB1C456A1854F1000148BF70477C
:101F0000B619524141EB0101A3F10103704795F06D
:101F1000000F37D04FEA11424FEA144721EA024638
:101F200024EA074C02FB07F106FB07F70CFB06F45B
:101F300002FB0CFC14EB074441EB17414FEA154739
:101F400014EB0C4441EB1C4125EA074C02FB07F55E
:101F500006FB07F70CFB06F602FB0CFC16EB07462C
:101F600045EB174516EB0C4645EB1C42121951F197
:101F7000000148BF7047B619524141EB0101A3F17E
:101F8000010370474FEA14454FEA114724EA05461A
:101F900021EA074C05FB07F106FB07F70CFB06F2ED
:101FA0004FF0000605FB0CFC12EB074241EB17411A
:101FB00012EB0C4251EB1C4148BF7047921841EBA9
:101FC0000101A3F10103704700BFFEE770B50446AD
:101FD0000D462946204601F09BFB70BD30B585B00B
:101FE0006A4601214C4803F0E8FA9DF8080018B948
:101FF0004A490098086002E04849019808600025B5
:102000007FE00DF10B00405D4549464A1278885447
:1020100044480078401C4349087043480078E8B1C0
:10202000414800780978884263D1002404E03C48A4
:10203000005D3E490855641C3A4800788442F6D356
:1020400038480078394981F8800000203549087007
:102050000D21314803F06AFA05B030BD31480078EF
:10206000401E2F49095C2F480078C01E814226D1AE
:102070002C480078801E2A49085C0A281FD129486C
:102080000078C01E085C0D2819D1002404E0244803
:10209000005D26490855641C22480078C01EA042F5
:1020A000F5D820480078C01E204981F88000002023
:1020B0001C4908700D21184803F038FACCE719487C
:1020C0000078401E1649095C16480078C01E8142FF
:1020D0000FD014480078801E1149085C0A2808D1E6
:1020E00010480078C01E085C0D2802D100200D4960
:1020F00008700C480078802802DB0020094908702D
:102100006D1C9DF80A00A8423FF67BAF0D210248E6
:1021100003F00CFA00BF9FE7006400402404002095
:102120003A2D00202804002015040020372B002021
:1021300070B504460D462946204601F0E9FA70BD07
:1021400030B585B06A4600214C4803F036FA9DF858
:10215000080018B94A490098086002E04849019807
:10216000086000257FE00DF10B00405D4549464ABF
:102170001278885444480078401C4349087043480A
:102180000078E8B1414800780978884263D100249A
:1021900004E03C48005D3E490855641C3A4800781C
:1021A0008442F6D338480078394981F8800000200D
:1021B000354908700A21314803F0B8F905B030BD3F
:1021C00031480078401E2F49095C2F480078C01E16
:1021D000814226D12C480078801E2A49085C0A28B2
:1021E0001FD129480078C01E085C0D2819D1002491
:1021F00004E02448005D26490855641C2248007804
:10220000C01EA042F5D820480078C01E204981F8A1
:10221000800000201C4908700A21184803F086F944
:10222000CCE719480078401E1649095C164800782A
:10223000C01E81420FD014480078801E1149085CEE
:102240000A2808D110480078C01E085C0D2802D169
:1022500000200D4908700C480078802802DB00201F
:10226000094908706D1C9DF80A00A8423FF67BAF33
:102270000A21024803F05AF900BF9FE700680040B6
:102280002C040020BA2D0020300400201604002069
:10229000B82B002030B585B06A460121514803F0C3
:1022A0008CF99DF8080018B94F490098086002E0C1
:1022B0004D49019808604D48006860B10DF10B016F
:1022C00049480068494A126890470D21454803F083
:1022D0002DF905B030BD00257AE00DF10B00405D11
:1022E0004349444A1278885442480078401C414986
:1022F000087041480078E0B13F480078097888428A
:102300005ED1002404E03A48005D3C490855641C55
:10231000384800788442F6D336480078374981F847
:1023200080000020334908700D212E4803F0FEF88C
:10233000CFE730480078401E2D49095C2D480078D1
:10234000C01E814222D12B480078801E2849085C9B
:102350000A281BD127480078C01E085C0D2815D11B
:10236000002404E02248005D24490855641C2148EB
:102370000078C01EA042F5D81E480078C01E1F4934
:1023800081F8800000201B490870A2E719480078F6
:10239000401E1749095C17480078C01E81420FD0C3
:1023A00014480078801E1249085C0A2808D1114898
:1023B0000078C01E085C0D2802D100200D4908706D
:1023C0000C480078802802DB00200A4908706D1C48
:1023D0009DF80A00A84280D80D21024803F0A6F813
:1023E00000BF76E700680040340400203C04002071
:1023F0003A2E00203804002017040020392C002039
:102400002DE9F04F8BB004460F4690469946DDE922
:102410001AB6DDE918A501216F4803F057FB012129
:102420006D48401C03F052FB012C13D101201821F0
:1024300000231A46CDE900100B21412000F0CCFE0C
:102440000120042100230822CDE900100C214120A5
:1024500000F0C2FE022C13D10120182100231A46DD
:10246000CDE900100C21422000F0B6FE012004212D
:1024700000230822CDE900100D21422000F0ACFE1F
:1024800003F0C2FB8DF8247000208DF82500012098
:102490008DF826008DF8270000208DF828008DF893
:1024A00029008DF82A00012C03D109A94B4802F01C
:1024B000E4FE022C03D109A9494802F0DEFE15987A
:1024C000ADF81C008DF81E808DF81F9014988DF8C3
:1024D0002000012C03D107A9404802F02CFF022C58
:1024E00003D107A93E4802F026FF16988DF80F0089
:1024F00000208DF80D0017988DF81000BAF1000F2C
:1025000008D14FF6FF7000EA4510ADF81200002028
:10251000ADF81400BAF1010F0CD14FF6FF7000EACC
:102520001540ADF812004FF6FF7000EAC500001D1F
:10253000ADF814004FF6FF7000EA1B40ADF816002E
:102540001FFA8BF0ADF818008DF80E6001208DF8A1
:102550000C00012C03D103A9204802F035FF022C06
:1025600003D103A91E4802F02FFFBEB9012C09D1E7
:1025700001220221194803F017F801221146142004
:1025800000F0E5FE022C09D101220221144803F0DB
:102590000BF801221146452000F0D9FE012E17D17B
:1025A000012C09D1012210210C4802F0FDFF01226B
:1025B0001146152000F0CBFE022C09D1012210217A
:1025C000074802F0F1FF01221146462000F0BFFE4D
:1025D0000BB0BDE8F08F000019001C000064004043
:1025E000006800402DE9F04F87B082468946934647
:1025F00098460027B9F1000F01D1CDF804B0B9F128
:10260000010F01D1CDF808B009F0FF008DF80C00E2
:1026100000208DF80D00109820B94046FEF787F88D
:10262000064600E0109EBAF1010F4ED11198002825
:102630004CD0F61C002544E0002427E0F01EB842F0
:1026400007D904EBC50018F800100DF10F00015573
:1026500017E0F01EB84204D10D210DF10F00015515
:102660000FE0B01EB84204D10A210DF10F00015550
:1026700007E0701EB84204D1F01EC1B20DF10F0088
:1026800001557F1CB74200D102E0641C082CD5D351
:1026900000BFA7EBC500C0B28DF80E0001A96748C6
:1026A00003F003F80690002400E0641C63480699D8
:1026B00003F0A4F8012803D040F6FF708442F4D35D
:1026C0006D1C701EB5EBD00FB6D930E000252AE0A6
:1026D00000240DE0B74206D204EBC50018F8001044
:1026E0000DF10F0001557F1CB74200D102E0641CC0
:1026F000082CEFD300BFA7EBC500C0B28DF80E00C9
:1027000001A94E4802F0D1FF0690002400E0641CAD
:102710004A48069903F072F8012803D040F6FF708A
:102720008442F4D36D1C701EB5EBD00FD0D9BAF132
:10273000020F4ED1119800284CD0F61C002544E021
:10274000002427E0F01EB84207D904EBC50018F8B2
:1027500000100DF10F00015517E0F01EB84204D132
:102760000D210DF10F0001550FE0B01EB84204D14C
:102770000A210DF10F00015507E0701EB84204D187
:10278000F01EC1B20DF10F0001557F1CB74200D100
:1027900002E0641C082CD5D300BFA7EBC500C0B273
:1027A0008DF80E0001A9264802F07FFF0690002454
:1027B00000E0641C2248069903F020F8012803D0A9
:1027C00040F6FF708442F4D36D1C701EB5EBD00F41
:1027D000B6D930E000252AE000240DE0B74206D249
:1027E00004EBC50018F800100DF10F0001557F1C17
:1027F000B74200D102E0641C082CEFD300BFA7EB66
:10280000C500C0B28DF80E0001A90D4802F04DFFC1
:102810000690002400E0641C0948069902F0EEFFCF
:10282000012803D040F6FF708442F4D36D1C701E63
:10283000B5EBD00FD0D907B0BDE8F08F00640040F1
:10284000006800401FB500200290039000900190A6
:1028500000248BE00422464902A8FDF7AEFF0020C9
:102860008DF80C0002A8FDF731FF424908800322D1
:102870003F49491D6846FDF7A0FF00208DF80B0079
:102880006846FDF723FF3C4908803948801E0078E0
:10289000312811D19FED391A0846008800EE100A40
:1028A000F8EE400A3348008800EE100AB8EE400AFD
:1028B000334803F07FFD56E02D48801E0078322813
:1028C00016D1322C14DC2E48006900F5FA602C4930
:1028D00008610846C06A00F5FA60C862601C84B2EC
:1028E000322C40D100202249891E087000243AE091
:1028F0001F48801E0078332816D1322C14DC204863
:102900000069A0F5FA601E4908610846C06AA0F592
:10291000FA60C862601C84B2322C24D100201449B1
:10292000891E087000241EE01148801E007834289B
:102930000AD11348806E00F5FA70114988660020AC
:102940000B49891E08700EE00948801E0078352862
:1029500009D10B48806E00F5FA700949886600209D
:102960000349891E0870642004F05AFC72E70000D5
:10297000B60400200000002002000020000000003B
:102980008801002010B5022003F076F908B3022078
:1029900003F062F900210F4803F054F901200E49B9
:1029A000087000200D49088004E00C480088401C95
:1029B0000A490880094800885F2803DA0848006847
:1029C0000028F2D10648006818B1002004490968BF
:1029D000086010BD08000240780400208004002038
:1029E000483D002010B5202003F046F908B3202010
:1029F00003F032F900210F4803F024F901200E49B9
:102A0000087000200D49088004E00C480088401C34
:102A10000A490880094800885F2803DA08484068A6
:102A20000028F2D10648406818B1002004494968DE
:102A3000086010BD1C0002407904002080040020C2
:102A4000483D002010B54FF4007003F015F910B3A5
:102A50004FF4007003F000F900210F4803F0F2F882
:102A600001200E49087000200D49088004E00C4840
:102A70000088401C0A490880094800885F2803DA5A
:102A8000084880680028F2D10648806818B1002004
:102A900004498968086010BD300002407A040020B3
:102AA00080040020483D002010B54FF4005003F092
:102AB000E3F810B34FF4005003F0CEF800210F48B4
:102AC00003F0C0F801200E49087000200D4908806D
:102AD00004E00C480088401C0A4908800948008826
:102AE0005F2803DA0848C0680028F2D10648C068A9
:102AF00018B100200449C968086010BD44000240B4
:102B00007B04002080040020483D002010B54FF4D5
:102B1000003003F0B1F810B34FF4003003F09CF82C
:102B200000210F4803F08EF801200E4908700020A4
:102B30000D49088004E00C480088401C0A490880C0
:102B4000094800885F2803DA084800690028F2D1A4
:102B50000648006918B1002004490969086010BDE1
:102B6000580002407C04002080040020483D0020E2
:102B700010B54FF4001003F07FF810B34FF40010BD
:102B800003F06AF800210F4803F05CF801200E49B9
:102B9000087000200D49088004E00C480088401CA3
:102BA0000A490880094800885F2803DA0848406914
:102BB0000028F2D10648406918B10020044949694B
:102BC000086010BD6C0002407D04002080040020DD
:102BD000483D002010B54FF0007003F04DF810B3E1
:102BE0004FF0007003F038F800210F4803F02AF886
:102BF00001200E49087000200D49088004E00C48AF
:102C00000088401C0A490880094800885F2803DAC8
:102C1000084880690028F2D10648806918B1002070
:102C200004498969086010BD800002407E040020CC
:102C300080040020483D00202DE9F0418AB0044680
:102C40000E46174698462AA103C9CDE908014FF45C
:102C5000E13004F0F3F82848066028480770284857
:102C60000470012C12D1002004900590069007906A
:102C7000012000210F22CDE9000204230246CDE904
:102C80000210FFF7BDFB1F481F490860022C14D13A
:102C90000120002104910591CDE906100D210F229C
:102CA000CDE9000204230246CDE9021000210220F2
:102CB000FFF7A6FB134815490860002510E0002027
:102CC0000821CDE9001005EB850056F8300000EB37
:102CD000080208AB00212046FFF784FC681CC5B23F
:102CE000BD42ECDB0A48A0F800800AB0BDE8F081E4
:102CF000FFFFFFFFFFFFFFFC8C040020900400207B
:102D000091040020152D0008200400203C04002020
:102D10009204002070B506460D4600240AE004EB3C
:102D200084008F49096851F83000B04200D105E0B5
:102D3000601CC4B28B4800788442F0DB00BF894835
:102D40000078844200D170BDA9786A7841EA0220F7
:102D50001021F2EE090ABAEE090A04F0C7F804EBF2
:102D600084007F49096801EBC00080ED010AE97821
:102D700009012A7941EA22100C21DFED7B0A9FED3F
:102D80007B0A04F0B3F804EB84007549096801EB91
:102D9000C00080ED020A69792A7902F00F0241EA47
:102DA00002200C21F3EE020ABBEE020A04F09EF8A8
:102DB00004EB84006A49096801EBC00080ED030A56
:102DC000A97904EB8400664A126802EBC000017422
:102DD000E97904EB8400624A126802EBC000417496
:102DE00004EB84005E49096801EBC00090ED060A1F
:102DF00004EB84005A49096801EBC000D0ED010AD8
:102E000030EE600AF1EE080AB4EEE00AF1EE10FAD4
:102E10000EDD04EB84005249096801EBC0004069F3
:102E2000401C04EB84014E4A126802EBC101486168
:102E300004EB84004A49096801EBC00090ED060AE2
:102E400004EB84004649096801EBC000D0ED010A9B
:102E500030EE600AF9EE080AB4EEE00AF1EE10FA7C
:102E60000ED204EB84003E49096801EBC0004069C2
:102E7000401E04EB84013A4A126802EBC10148612A
:102E800004EB8400364A126802EBC000406900EB94
:102E9000C00202EB001000EE100AB8EEC00A04EB0C
:102EA00084002F4A126802EBC000D0ED010A30EE18
:102EB000200A10EE101A084605F064FA04EB8402AA
:102EC000274B1B6803EBC202C2E9080104EB840034
:102ED0002349096801EBC00090ED010A04EB84006E
:102EE0001F49096801EBC00080ED060A2878082117
:102EF000B1EB001F02D11EA0FDF79EFA2878092130
:102F0000B1EB001F02D11DA0FDF796FA28780A2127
:102F1000B1EB001F02D11CA0FDF78EFA28780B211F
:102F2000B1EB001F02D11BA0FDF786FA28780C2117
:102F3000B1EB001F02D11AA0FDF77EFA28780D210F
:102F4000B1EB001F02D11AA0FDF776FA28780E2106
:102F5000B1EB001F02D119A0FDF76EFA00BFF2E637
:102F60008C0400209004002000003442000034C291
:102F7000B5E7BBFAB9FDD1B90A000000B5E7BBFA65
:102F8000C7B7D1B90A000000B5E7BBFAB9FDC1F770
:102F90000A0000004D4F53B9FDCEC20A00000000E8
:102FA000B5E7BBFACFDFC8A6B9FDCEC20A00000064
:102FB000CDA8D1B6B6AACAA70A000000B5E7BBFAE9
:102FC000B9FDD4D80A000000704700001CB50546C2
:102FD0000E4604F077F8002462E004EB840000EB76
:102FE000C40005EB8000C06860B90F2094FBF0F1CD
:102FF00000FB1140401C04EB840101EBC40105EB14
:103000008101C86004EB840000EBC40005EB800084
:10301000008938B9802004EB840101EBC40105EB81
:103020008101088104EB840000EBC40005EB800003
:10303000007C58B904EB840101EBC40105EB81016C
:1030400001F1100022461AA1FDF702FA04EB8400F8
:1030500000EBC40005EB8000406804EB840101EB49
:10306000C40105EB8101C968CDE9001004EB8401BE
:1030700001EBC40105EB81010B6B04EB840101EB57
:10308000C40105EB81010A8904EB840101EBC40151
:1030900055F8210005F1100104F03AFA601CC4B2A1
:1030A000B4429ADB04F0EAF804F036F800BFFEE719
:1030B0007461736B256400007CB505460E461446AA
:1030C000092C5ED2DFE804F05D05101B26313C4779
:1030D00052000120182100231022CDE900103146B2
:1030E000284600F079F84CE0012018210423102232
:1030F000CDE900103146284600F06EF841E001208D
:10310000182100230822CDE900103146284600F09E
:1031100063F836E0012004210B460822CDE90010B7
:103120003146284600F058F82BE0012018210023F2
:103130001A46CDE900103146284600F04DF820E04F
:103140000120282100231A46CDE9001031462846E7
:1031500000F042F815E00120042100231A46CDE9D1
:1031600000103146284600F037F80AE0012004211B
:1031700000230322CDE900103146284600F02CF848
:1031800000BF00BF7CBD00000146082913D2DFE864
:1031900001F0120406080A0C0E100848704708488F
:1031A000FCE70848FAE70848F8E70848F6E708485F
:1031B000F4E70848F2E70148F0E70000B93E0008EC
:1031C000C13F0008C94000088D3B0008953C00083D
:1031D000D14100089D3D00082DE9FC4705460C46FD
:1031E00016461F46DDE90A89412D03D101214948D0
:1031F00002F06CFC422D04D101214648401C02F033
:1032000065FC432D04D101214248801C02F05EFC84
:10321000442D04D101213F48C01C02F057FC452D2C
:1032200004D101213B48001D02F050FC0CB90120E3
:103230000090012C01D102200090022C01D1042029
:103240000090032C01D108200090042C01D1102003
:103250000090052C01D120200090062C01D14020A7
:103260000090072C01D180200090082C01D1600132
:103270000090092C02D14FF4007000900A2C02D16A
:103280004FF4806000900B2C02D14FF4006000904E
:103290000C2C02D14FF4805000900D2C02D14FF431
:1032A000005000900E2C02D14FF4804000900F2C63
:1032B00002D14FF400400090F0B28DF80600F8B251
:1032C0008DF8040008F0FF008DF8050001208DF84E
:1032D0000700412D03D169460F4802F008FD422D39
:1032E00003D169460D4802F002FD432D03D1694622
:1032F0000B4802F0FCFC442D03D16946094802F05A
:10330000F6FC452D03D16946074802F0F0FCBDE804
:10331000FC8700000200180000080140000C01407A
:1033200000100140001401400018014007E00A228B
:103330000349072000F05CFF142003F071FFF6E75B
:10334000B404002000BFFEE700BFFEE7704770B581
:1033500004460D4616463246294660B202F0C6FFC4
:1033600070BD000070B52DED0A8B0446B0EE40AA8A
:10337000F0EE60AAB0EE41BAF0EE61BAB0EE428A69
:10338000F0EE628AB0EE439AF0EE639A9FED6A0A1D
:1033900010EE105A51EC1A0B04F0BAFAE06051EC3E
:1033A0001B0B04F0B5FA206194ED030AD4ED040A76
:1033B00030EE600A84ED050A94ED050A84ED070AF3
:1033C00094ED050AD4ED060A30EE600A84ED090A90
:1033D00094ED050A84ED060A94ED000AD4ED070A7F
:1033E00020EE200AD4ED010A94ED081A00EE810ABD
:1033F00010EE101A084604F0C5FF41EC1C0B53EC0C
:10340000182B04F093FE06D294ED050AB5EEC00A1F
:10341000F1EE10FA4ED394ED000AD4ED070A20EE37
:10342000200AD4ED010A94ED081A00EE810A10EE8C
:10343000101A084604F0A6FF41EC1C0B53EC192BA4
:1034400004F03AFD06D294ED050AB5EEC00AF1EE9D
:1034500010FA2FDC94ED000AD4ED070A20EE200AC2
:10346000D4ED010A94ED081A00EE810A10EE101A4C
:10347000084604F087FF41EC1C0B53EC182B04F0BA
:103480001BFD1FD294ED000AD4ED070A20EE200A9E
:10349000D4ED010A94ED081A00EE810A10EE101A1C
:1034A000084604F06FFF41EC1C0B53EC192B04F0A1
:1034B0003DFE07D294ED080AD4ED050A30EE200A4D
:1034C00084ED080A94ED000AD4ED070A20EE200AE4
:1034D000D4ED010A94ED081A00EE810AD4ED020A37
:1034E00094ED091A00EE810A10EE105A284604F0F5
:1034F00049FF41EC1C0B53EC182B04F017FE04D2CF
:1035000051EC180B04F004FA0546284604F03AFF83
:1035100041EC1C0B53EC192B04F0CEFC04D251EC03
:10352000190B04F0F5F90546284604F02BFF41EC91
:10353000100BBDEC0A8B70BD0000000073B52DEDC3
:103540000C0B2DED108B82B005460C46B0EE428A76
:10355000F0EE628AB0EE439AF0EE639AB0EE44BAAF
:10356000F0EE64BAB0EE45AA51EC180B04F0C4F9C1
:1035700041EC1D0BB0EE4D3AF0EE6D3AB0EE482A3C
:10358000F0EE682A9DED141B9DED120B2846FFF707
:10359000E9FEB0EE40CAF0EE60CA53EC182B51ECD5
:1035A0001C0B04F0F3FB1CD11AEE100A04F0EAFE27
:1035B00041EC1E0B53EC192B04F0DCF941EC1D0B14
:1035C00053EC182B04F078FC0BD21AEE100A04F01E
:1035D000D9FE41EC1D0B53EC192B04F0CBF941EC57
:1035E0001C0B51EC180B04F087F941EC1D0B53EC4C
:1035F0001C2B04F0CBFB22D151EC180B04F07CF90E
:1036000041EC1D0B1AEE100A04F0BCFE41EC1F0B3E
:1036100053EC192B04F0C0FD41EC1E0B53EC1D2B99
:1036200004F084FD0BD21AEE100A04F0ABFE41EC5C
:103630001D0B53EC192B04F0AFFD41EC1C0B51ECAE
:103640001B0B04F059F941EC1D0BB0EE4D3AF0EEB6
:103650006D3AB0EE4B2AF0EE6B2AB0EE491AF0EE5E
:10366000691AB0EE4C0AF0EE6C0A2046FFF77AFEBB
:103670008DED000B9DED000B02B0BDEC108B0EB07C
:1036800070BD000070B588B004460D461646012C8A
:1036900013D100200490059006900790012000218E
:1036A0000F22CDE9000204230246CDE90210204694
:1036B000FEF7A6FE104811490860022C14D1012023
:1036C000002104910591CDE906100D210F22CDE9CD
:1036D000000204230246CDE9021000212046FEF735
:1036E0008FFE0548064908600648056006480670D2
:1036F0000648047008B070BD11370008200400208F
:103700003C04002084040020880400208904002058
:1037100030B502460020B3E0C0EBC0035C4C246827
:1037200054F8233093427DD14B780C7843EA04233C
:103730001BB2C0EBC004564D2D6805EB8404A3807A
:10374000CB788C7843EA04231BB2C0EBC004504D05
:103750002D6805EB8404E3804B790C7943EA04235C
:103760001BB2C0EBC0044A4D2D6805EB84042381D5
:10377000C0EBC003464C246804EB8303B3F910305C
:10378000C0EBC004424D2D6805EB8404B4F904403D
:103790001B1BB3F5805F0EDBC0EBC0033C4C246801
:1037A00004EB83035B695B1CC0EBC004384D2D68E0
:1037B00005EB84046361C0EBC003354C246804EB63
:1037C0008303B3F91030C0EBC004314D2D6805EB15
:1037D0008404B4F904401B1B13F5805F0EDCC0EBBE
:1037E000C0032B4C246804EB83035B695B1EC0EBB6
:1037F000C004274D2D6805EB84046361C0EBC00352
:10380000234C246804EB8303B3F90440C0EBC003EA
:103810001F4D2D6805EB83035B6904EB4333C0EB5D
:10382000C00400E02AE01A4D2D6805EB8404A36172
:10383000C0EBC003164C246804EB83039B88C0EBE9
:10384000C004134D2D6805EB84042382082814DC82
:10385000104B1B5C8BB901230E4C2354C0EBC003EF
:103860000B4C246804EB8303B3F90430C0EBC004B1
:10387000074D2D6805EB8404E36030BD431CD8B2CE
:10388000054B1B789842FFF647AF00BFF5E70000F5
:1038900084040020643D0020880400202DE9FF47B7
:1038A00006460F4614461D46DDE90C89200A8DF8B0
:1038B0000800E0B28DF80900280A8DF80A00E8B285
:1038C0008DF80B004FEA18208DF80C0008F0FF006F
:1038D0008DF80D004FEA19208DF80E0009F0FF0059
:1038E0008DF80F000020082102AB3246CDE9001010
:1038F00001463846FEF776FEBDE8FF8710B500BFEB
:10390000102080F31188BFF34F8FBFF36F8F00BF7C
:1039100003F0A0FE18B14FF080500449086000BFCA
:10392000002080F3118800BF10BD000004ED00E00E
:103930001848006840F4700016490860164800688E
:1039400020F00100401C1449086000BF12480068C4
:10395000C0F340000028F9D00F48406820F0030071
:103960000D49486000BF0C484068C0F38100002842
:10397000F9D1094800680949084007490860002052
:10398000486008634FF41F008860C803014980390C
:103990000860704788ED00E000100240FFFFF2FE73
:1039A00086B05BE02E48406D00682D49496E2C4A78
:1039B000926B12682A4B9B6CCDE90232CDE9041060
:1039C0002748C06900682649C96ACDE90010244823
:1039D00000680368224823A10269072000F09EFDC9
:1039E0002748027827A1072000F098FD2748028881
:1039F00027A1072000F092FD2748028827A1072071
:103A000000F08CFD1648D0F8C800B0F9002014482A
:103A1000D0F8D8001249D1F8AC10B1F90010104B11
:103A2000D3F8BC30CDE90231CDE904020C48D0F81E
:103A30009000B0F900000A49D1F8A010CDE90010BB
:103A40000748406FB0F90030054806A1D0F884203F
:103A5000072000F063FD322003F0E2FBA2E7000044
:103A60008801002025642C25642C25642C25642CD9
:103A700025642C25642C25642C25640D0A00000087
:103A8000A404002031313125640A00000000002028
:103A90006E756D25640A000002000020636E756D6E
:103AA00025640A0010B510212F4803F04FFA0028B2
:103AB00036D001202D49087000202D4908702D486E
:103AC0000068002822DB2B4800682B49096808445D
:103AD0002849086008460068FF2804DD0846006899
:103AE000A0F580700860254802F0B1F8C0F580703C
:103AF00020490968401A20490860084600680028E3
:103B000004DC0846006800F5807008601C48006806
:103B100010B11B48006880471021134803F00DFACC
:103B20002021114803F012FAE0B10F4803F0F8F930
:103B3000C4B21448006840B1204612490968884759
:103B40002021094803F0F9F910BD0F480849097808
:103B5000445407480078401C054908702021024859
:103B600003F0EBF900BFEFE7004C0040CA03002070
:103B7000E40300204C0400206804002044040240B8
:103B8000E8030020EC030020B228002010B5044612
:103B90002146054803F0C8F900BF8021024803F020
:103BA000D5F90028F9D010BD004C004010B5102107
:103BB0002F4803F0CBF9002836D001202D4908709A
:103BC00000202D4908702D480068002822DB2B4872
:103BD00000682B49096808442849086008460068BD
:103BE000FF2804DD08460068A0F5807008602548BD
:103BF00002F02DF8C0F5807020490968401A20496C
:103C0000086008460068002804DC0846006800F5E3
:103C1000807008601C48006810B11B48006880472D
:103C20001021134803F089F92021114803F08EF97F
:103C3000E0B10F4803F074F9C4B21448006840B111
:103C400020461249096888472021094803F075F980
:103C500010BD0F4808490978445407480078401CB3
:103C6000054908702021024803F067F900BFEFE71B
:103C700000500040CB030020F0030020500400203F
:103C80006C04002058040240F4030020F8030020D4
:103C90003329002010B504462146054803F044F9B5
:103CA00000BF8021024803F051F90028F9D010BD6F
:103CB0000050004010B510212F4803F047F90028AC
:103CC00036D001202D49087000202D4908702D485C
:103CD0000068002822DB2B4800682B49096808444B
:103CE0002849086008460068FF2804DD0846006887
:103CF000A0F580700860254801F0A9FFC0F580702C
:103D000020490968401A20490860084600680028D0
:103D100004DC0846006800F5807008601C480068F4
:103D200010B11B48006880471021134803F005F9C3
:103D30002021114803F00AF9E0B10F4803F0F0F830
:103D4000C4B21448006840B1204612490968884747
:103D50002021094803F0F1F810BD0F4808490978FF
:103D6000445407480078401C054908702021024847
:103D700003F0E3F800BFEFE700640140CD0300204B
:103D8000080400205804002074040020800402402D
:103D90000C04002010040020352A002010B5044631
:103DA0002146054803F0C0F800BF8021024803F017
:103DB000CDF80028F9D010BD0064014010B51021E5
:103DC000364803F0C3F868B3012035490870354818
:103DD0000068002822DB334800683349096808443A
:103DE0003049086008460068FF2804DD084600687E
:103DF000A0F5807008602D4801F029FFC0F58070A3
:103E000028490968401A28490860084600680028BF
:103E100004DC0846006800F58070086010211F4827
:103E200003F08BF820211D4803F090F810B31B48D5
:103E300003F076F8C4B21E48008800F40040C8B908
:103E40001B48008800F4804060B10A2C03D0002099
:103E50001749088020E01648008840F400401449C3
:103E6000088019E00D2C06D11148008840F48040EC
:103E70000F49088010E00E480088C0F30D000D497E
:103E80000C540B480088401C0949088008460088EB
:103E9000C72801DD0020088010BD00000038014067
:103EA0009A040020400400205C0400200804024022
:103EB000980400206E3D002010B5044621460548B8
:103EC00003F032F800BF8021024803F03FF80028D9
:103ED000F9D010BD0038014010B510212F4803F073
:103EE00035F8002836D001202D49087000202D49D2
:103EF00008702D480068002822DB2B4800682B49F9
:103F0000096808442849086008460068FF2804DD5D
:103F100008460068A0F580700860254801F097FE0B
:103F2000C0F5807020490968401A20490860084699
:103F30000068002804DC0846006800F5807008600E
:103F40001C48006810B11B480068804710211348C6
:103F500002F0F3FF2021114802F0F8FFE0B10F4812
:103F600002F0DEFFC4B21448006840B12046124996
:103F7000096888472021094802F0DFFF10BD0F487B
:103F800008490978445407480078401C05490870DE
:103F90002021024802F0D1FF00BFEFE700440040BB
:103FA000C8030020CE030020440400206004002049
:103FB0001C040240D0030020D4030020B0270020BE
:103FC00010B504462146054802F0AEFF00BF80212F
:103FD000024802F0BBFF0028F9D010BD00440040A9
:103FE00010B510212F4802F0B1FF002836D0012073
:103FF0002D49087000202D4908702D4800680028C0
:1040000022DB2B4800682B490968084428490860CE
:1040100008460068FF2804DD08460068A0F58070A7
:104020000860254801F013FEC0F58070204909683A
:10403000401A2049086008460068002804DC084649
:10404000006800F5807008601C48006810B11B48CB
:10405000006880471021134802F06FFF20211148AB
:1040600002F074FFE0B10F4802F05AFFC4B21448E6
:10407000006840B120461249096888472021094854
:1040800002F05BFF10BD0F48084909784454074807
:104090000078401C054908702021024802F04DFFBD
:1040A00000BFEFE700480040C9030020D80300200C
:1040B000480400206404002030040240DC03002097
:1040C000E00300203128002010B5044621460548B1
:1040D00002F02AFF00BF8021024802F037FF0028CB
:1040E000F9D010BD0048004010B510212F4802F053
:1040F0002DFF002836D001202D49087000202D49C1
:1041000008702D480068002822DB2B4800682B49E6
:10411000096808442849086008460068FF2804DD4B
:1041200008460068A0F580700860254801F08FFD02
:10413000C0F5807020490968401A20490860084687
:104140000068002804DC0846006800F580700860FC
:104150001C48006810B11B480068804710211348B4
:1041600002F0EBFE2021114802F0F0FEE0B10F4812
:1041700002F0D6FEC4B21448006840B1204612498D
:10418000096888472021094802F0D7FE10BD0F4872
:1041900008490978445407480078401C05490870CC
:1041A0002021024802F0C9FE00BFEFE70060014095
:1041B000CC030020FC0300205404002070040020E5
:1041C0006C0402400004002004040020B4290020F4
:1041D00010B504462146054802F0A6FE00BF802126
:1041E000024802F0B3FE0028F9D010BD0060014083
:1041F0002DE9F04107460E4615465C480078B8B1F7
:10420000012F15D1002D09DD002404E05848005D80
:104210003055601C84B2AC42F8DB03E054493046B0
:10422000FCF761FA0020514908700120BDE8F081D7
:1042300050480078B0B1022F14D1002D09DD0024C0
:1042400004E04D48005D3055601C84B2AC42F8DBA0
:1042500003E049493046FCF746FA0020454908701A
:104260000120E3E745480078B0B1032F14D1002DB9
:1042700009DD002404E04248005D3055601C84B232
:10428000AC42F8DB03E03E493046FCF72CFA002054
:104290003A4908700120C9E73A480078B0B1042FC4
:1042A00014D1002D09DD002404E03748005D3055AD
:1042B000601C84B2AC42F8DB03E033493046FCF7C3
:1042C00012FA00202F4908700120AFE72F4800782C
:1042D000B0B1052F14D1002D09DD002404E02C48D5
:1042E000005D3055601C84B2AC42F8DB03E0284925
:1042F0003046FCF7F8F9002024490870012095E7C2
:1043000024480078B0B1062F14D1002D09DD002417
:1043100004E02148005D3055601C84B2AC42F8DBFB
:1043200003E01D493046FCF7DEF90020194908700A
:1043300001207BE719480078B0B1072F14D1002D78
:1043400009DD002404E01648005D3055601C84B28D
:10435000AC42F8DB03E012493046FCF7C4F9002018
:104360000E490870012061E700205FE79A040020F1
:104370006E3D0020C8030020B0270020C9030020A4
:1043800031280020CA030020B2280020CB030020DF
:1043900033290020CC030020B4290020CD030020C5
:1043A000352A002030B585B06A460021544801F016
:1043B00004F99DF8080018B952490098086002E015
:1043C0005049019808605048006860B10DF10B0138
:1043D0004C4800684C4A126890470A21484801F04E
:1043E000A5F805B030BD00257EE00DF10B00405D65
:1043F0004649474A1278885445480078401C444949
:10440000087044480078E0B1424800780978884252
:1044100062D1002404E03D48005D3F490855641C1A
:104420003B4800788442F6D3394800783A4981F80D
:1044300080000020364908700A21314801F076F8E2
:10444000CFE733480078401E3049095C3048007897
:10445000C01E814226D12E480078801E2B49085C60
:104460000A281FD12A480078C01E085C0D2819D1DF
:10447000002404E02548005D27490855641C2448B1
:104480000078C01EA042F5D821480078C01E2249FD
:1044900081F8800000201E4908700A21184801F0A8
:1044A00045F89EE71A480078401E1849095C1848EC
:1044B0000078C01E81420FD015480078801E134935
:1044C000085C0A2808D112480078C01E085C0D2834
:1044D00002D100200E4908700D480078802802DBC8
:1044E00000200B4908706D1C9DF80A00A8423FF699
:1044F0007CAF0A21024801F019F800BF71E7000003
:10450000006400401804002020040020BA2C002081
:104510001C04002014040020B62A00200FB410B59B
:10452000ADF5027D044686A8019002A8019A8599FE
:10453000FBF770FF0020019002A9204600F005F86B
:104540000DF5027D10BC5DF814FB70B505460C46F8
:104550002846FEF719FE064602E02078B047641CA4
:1045600020780028F9D170BD7CB504460D46012C99
:1045700002D1284602F062FC022C39D10121B54853
:1045800001F0A4FA0120042100230822CDE9001043
:1045900002214120FEF720FE0120182100231A46A7
:1045A000CDE9001003214120FEF716FE032211463B
:1045B0002620FEF7CCFE00231A462946A64802F024
:1045C000CDFC0121A44802F02DFD0121A24802F0FA
:1045D00024FD0122A149A04802F004FD01229F49C7
:1045E000491C9D4802F0FEFC01219B4802F0A0FC02
:1045F000032C3AD101219748401C01F067FA0120B1
:10460000042100230822CDE900100A214220FEF7F0
:10461000E3FD0120182100231A46CDE900100B21EB
:104620004220FEF7D9FD032211462720FEF78FFE18
:1046300000231A4629468A4802F090FC0121884846
:1046400002F0F0FC0121864802F0E7FC01228349D8
:10465000834802F0C7FC01228049491C804802F0CF
:10466000C1FC01217E4802F063FC042C3AD10121F7
:104670007848801C01F02AFA012004210023082236
:10468000CDE900100A214320FEF7A6FD01201821E4
:1046900000231A46CDE900100B214320FEF79CFDB4
:1046A000032211463420FEF752FE00231A46294603
:1046B0006C4802F053FC01216A4802F0B3FC01216E
:1046C000684802F0AAFC01226449664802F08AFCAC
:1046D00001226249491C634802F084FC01216148BF
:1046E00002F026FC052C3AD101215A48C01C01F0E9
:1046F000EDF90120042100230822CDE900100C214E
:104700004320FEF769FD0120182100231A46CDE958
:10471000001002214420FEF75FFD032211463520E0
:10472000FEF715FE00231A4629464F4802F016FCF4
:1047300001214D4802F076FC01214B4802F06DFC4E
:1047400001224649484802F04DFC01224349491CD8
:10475000454802F047FC0121434802F0E9FB062CE2
:104760003AD101214FF0181001F0B0F901200421D5
:1047700000230822CDE9001006214320FEF72CFD7E
:104780000120182100231A46CDE9001007214320FB
:10479000FEF722FD032211464C20FEF7D8FD002330
:1047A0001A462946314802F0D9FB01212F4802F070
:1047B00039FC01212D4802F030FC012227492B4809
:1047C00002F010FC01222549491C284802F00AFC8D
:1047D0000121264802F0ACFB072C39D101212448E5
:1047E00001F074F90120042100230822CDE9001012
:1047F00011464520FEF7F0FC0120182100231A463F
:10480000CDE9001007214520FEF7E6FC0322114602
:104810004D20FEF79CFD00231A462946154802F05C
:104820009DFB0121134802F0FDFB0121114802F01C
:10483000F4FB012209490F4802F0D4FB0122074989
:10484000491C0C4802F0CEFB01210A4802F070FB23
:104850007CBD000011001C000044004004000C005E
:1048600000480040004C0040005000400060014003
:10487000190018000064014000BFFEE703B401986E
:104880004100009850EAC12018BF04204A0D18BF0B
:1048900040F0010040F2FF72B2EB515F08BF40F000
:1048A0000200012808BF052002B070470000000088
:1048B00010B52F499FED2C1B2DED020B84B00598F0
:1048C00020F000408842D8BF9DED040B2DDD294922
:1048D000884209D1049840B94FF00100FBF7E5FF89
:1048E00000F0A2FC06B010BD05DB9DED040B00F04E
:1048F0008FFC06B010BD68469DED040B00F0A0F8DB
:1049000010F0030004BF9DED021B9DED000B0CD0C9
:1049100001280ED09DED021B9DED000B022817D043
:10492000012000F0DDFB06B010BD00F0A5FA06B0D6
:1049300010BD9DED021B9DED000B012000F0D0FB92
:1049400051EC100B02F0D8FF06B041EC100B10BD7B
:1049500000F092FA51EC100B02F0CEFF06B041ECE1
:10496000100B10BD0000000000000000000000005F
:10497000FB21E93F0000F07F10B52F499FED2C1B74
:104980002DED020B84B0059820F000408842DCBF7A
:1049900000209DED040B32DD2849884209D104989E
:1049A00040B94FF00100FBF780FF00F03DFC06B07E
:1049B00010BD05DB9DED040B00F02AFC06B010BD18
:1049C00068469DED040B00F03BF810F0030011D099
:1049D000012818D09DED021B9DED000B02281AD076
:1049E00000F04AFA51EC100B02F086FF06B041ECE1
:1049F000100B10BD9DED021B9DED000B012000F082
:104A00006FFB06B010BD9DED021B9DED000B00F08D
:104A100033FA06B010BD012000F062FB51EC100B20
:104A200002F06AFF06B041EC100B10BD0000000060
:104A30000000000000000000FB21E93F0000F07FC3
:104A40002DE9F14F04462DED020B2DED088B8AB0B8
:104A50009FEDE70B80ED020B139EE74826F0004523
:104A600085420ADC9DED120B002084ED000B0AB09C
:104A7000BDEC088B03B0BDE8F08FE0489FEDE0ABE4
:104A80009FEDE1BBA84247DDE14F9FEDE39B9FED2A
:104A9000E48B9DED120B53EC1A2B51EC100B002EF6
:104AA0001CDD03F085FB41EC100BBD4208D053EC3C
:104AB0001B2B51EC100B03F07BFBC4E900010BE056
:104AC00053EC192B51EC100B03F072FB53EC182B29
:104AD00003F06EFBC4E900010120C8E702F04AFFC1
:104AE00041EC100BBD4208D053EC1B2B51EC100BCA
:104AF00002F040FFC4E900010BE053EC192B51EC2C
:104B0000100B02F037FF53EC182B02F033FFC4E90F
:104B100000014FF0FF30AAE7C348A84279DB9DEDC2
:104B2000120B51EC100B01F0BDF841EC180B9FED8E
:104B3000C00B53EC102B03F0FBF99FEDBF1B53ECA4
:104B4000112B02F017FF03F05DF9074603F089F916
:104B500041EC190B53EC1A2B03F0EAF953EC182B28
:104B600003F01AFB41EC180B53EC1B2B51EC190B07
:104B700003F0DEF9DFF8C8A241EC100B4FEA15583C
:104B80000125FA4453EC102B51EC180B03F010FBE9
:104B9000032DC4E900013DD0C1F30A5005EB4511D6
:104BA000A8EB00001139814234DA0AEB051BB0EEA4
:104BB00048AA9BED000BF0EE68AA53EC102B51ECC9
:104BC000190B03F0B5F941EC1B0B51EC1A0B53EC2C
:104BD0001B2B03F0EDFA41EC180B51EC1A0B53ECC4
:104BE000182B03F0E5FA53EC1B2B03F0E1FA9BEDD5
:104BF000020B41EC1A0B53EC102B51EC190B03F088
:104C000097F953EC1A2B03F0D3FA41EC100B6D1CFF
:104C1000B8E70EE0002EA8BF3846BFF628AF94EDE7
:104C2000000B51EC100B02F067FEC4E90001784262
:104C30001DE7C6F3130040F4801EC6F30A50A0F22D
:104C4000F530471100F01F05C5F12000DDF848B030
:104C500008900020069007900520EC467949002D29
:104C600007EB0002794408BF51F8221009D051F82F
:104C7000223001EB8201AB404A68089922FA01F127
:104C80001943A1FB0E26A1FB0B131A449A4234BF11
:104C90000123002303EB06080CEB8003D3E901A6F4
:104CA0000E448E4234BF0121002192448A4411B146
:104CB000924502D903E0924501D2012100E0002192
:104CC000C3E901A641444CF82010011EA0F10100E7
:104CD000C4DC029800F10050850F0298DDE90367FB
:104CE0008000DDF8148003F0BCF841EC1A0B30466C
:104CF00003F0CEF89FED541B53EC112B03F018F981
:104D000041EC1B0B384603F0C3F89FED511B53ECED
:104D1000112B03F00DF941EC180B404603F0B8F8E5
:104D20009FED4D1B53EC112B03F002F941EC190BD5
:104D300051EC180B53EC192B02F01CFE53EC1B2BFF
:104D400002F018FE53EC1A2B02F014FECDE9080114
:104D5000002008909DED080B53EC1A2B51EC100B22
:104D600003F026FA53EC1B2B03F022FA53EC182B1A
:104D700003F01EFA53EC192B03F00EFA9FED381BCB
:104D800053EC112B03F0D4F89FED370B41EC180BCB
:104D900053EC102B9DED080B51EC100B03F0C8F8F1
:104DA00053EC182B02F0E6FD9FED310B41EC180B94
:104DB00053EC102B9DED080B51EC100B03F0B8F8E1
:104DC00053EC182B02F0D6FD41EC100B139810F0A9
:104DD000004F06D06D4251EC100B02F08DFD41ECFE
:104DE000100B284684ED000B41E600000000000097
:104DF0000000000000000000FB21E93F7CD90240D8
:104E000000004054FB21F93F3163621A61B4D03D88
:104E1000FB21F93F000000000000601A61B4D03DA2
:104E20007370032E8A19A33BFB2139410000000057
:104E300083C8C96D305FE43F000000000000E03F20
:104E4000D239000020390000000000000000103EB0
:104E5000000000000000103C000000000000103ABC
:104E6000182D4454FB21F93D3326A611460B113C65
:104E700000000054FB21F93D10B52DED040B2DED84
:104E8000088B82B0B0EE419AF0EE619A0B9820F058
:104E900000449FED4BABB4F1795F11DA9DED0A0B45
:104EA00051EC100B02F0AEFF002801BFB0EE4A0A31
:104EB000F0EE6A0A02B0BDEC088B04BF04B010BD6E
:104EC0009DED0A0B53EC102B51EC100B03F030F856
:104ED00041EC180B3C480621B0EE480AF0EE680A97
:104EE000784400F081F853EC182B51EC100B03F0D0
:104EF0001FF89DED0A0B41EC1B0B53EC192B51ECE9
:104F0000100B03F015F841EC190B53EC1B2B51EC73
:104F1000180B03F00DF853EC192B03F049F99FED32
:104F20002C0B41EC190B53EC102B51EC180B02F02D
:104F3000FFFF41EC100B2848844210DA53EC192B88
:104F400051EC100B03F034F953EC1A2B03F024F955
:104F500041EC100B02B0BDEC088B04B010BD1F4833
:104F6000A042BCBF9FED1E1B8DED001B06DBA4F510
:104F700000100190002000909DED001B51EC100BE3
:104F800053EC112B03F014F99DED000B41EC180BC1
:104F900053EC102B51EC1A0B03F00AF941EC1A0BED
:104FA00053EC192B51EC180B03F002F953EC1A2BAC
:104FB00003F0F2F841EC100BCCE700000000000019
:104FC000000000000000F03F443600000000000038
:104FD000000000000000E03F3333D33F0000E93F12
:104FE000000000000000D23F70B504462DED028B9A
:104FF0004D1E00EBC500B0EE408AF0EE608A90EDE9
:10500000000B35F0060017D053EC182B51EC100BA9
:1050100002F08EFF41EC100B6D1E04EBC50090ED0D
:10502000001B51EC100B53EC112B02F0A3FC41ECD4
:10503000100B35F00600E7D1022D36D0042D1CD020
:10504000062D1CBFBDEC028B70BD53EC182B51EC30
:10505000100B02F06DFF94ED0A1B53EC112B02F0C4
:1050600089FC53EC182B02F063FF94ED081B53EC02
:10507000112B02F07FFC41EC100B53EC182B51EC80
:10508000100B02F055FF94ED061B53EC112B02F0B0
:1050900071FC53EC182B02F04BFF94ED040B53EC16
:1050A000102B02F067FC41EC100B53EC182B51EC69
:1050B000100B02F03DFF94ED021B53EC112B02F09C
:1050C00059FC53EC182B02F033FF94ED001B53EC0A
:1050D000112B02F04FFCBDEC028B41EC100B70BDAC
:1050E00031B504462DED040B2DED0A8BB0EE41BA1F
:1050F000F0EE61BA0B989DED0A0B20F00040B0F184
:10510000795F0DDA51EC100BFFF7B8FB042808BFEC
:1051100000F09AF89DED0A0BBDEC0A8B05B030BD8E
:1051200053EC102B51EC100B02F002FF41EC180B6A
:105130009DED0A0B53EC182B51EC100B02F0F8FE0E
:1051400041EC190B2C48B0EE480AF0EE680A052134
:105150007844FFF749FF9FED2ACBB0EE40AAF0EE6E
:1051600060AA9CB353EC1C2B51EC190B02F0E0FE2F
:1051700041EC1C0B53EC1A2B51EC190B02F0D8FE2E
:105180009FED210B41EC190B53EC102B51EC1B0B39
:1051900002F0CEFE53EC192B03F00AF853EC182B57
:1051A00002F0C6FE53EC1B2B03F002F853EC1C2B51
:1051B00002F0FEFF9DED0A1B53EC112B02F0ECFFF9
:1051C000BDEC0A8B05B041EC100B30BDFFE753EC92
:1051D0001A2B51EC180B02F0ABFE53EC1C2B02F017
:1051E000C9FB53EC192B02F0A3FE9DED0A1B53ECF7
:1051F000112B02F0BFFBE3E7CC34000000000000FD
:10520000495555555555C5BF000000000000E03F09
:1052100010B553EC102B51EC100B02F0ABFB41EC32
:10522000100B10BD000000009FED050B10B553ECF6
:10523000102B51EC100B02F051FC41EC100B10BD87
:1052400000000000000000009FED050B10B553ECBE
:10525000102B51EC100B02F06BFE41EC100B10BD4B
:10526000000000000000001030380A2801D20120A0
:1052700070470020704700BF704730B502460020DD
:105280000023146824F002041460146824F001045C
:10529000641C146000E05B1C546804F001041CB939
:1052A0004FF6FF74A342F6D1546804F00104002CB9
:1052B0003FD04D78146865F3C71414608D78146876
:1052C00065F386141460CD78146865F34514146092
:1052D0000D79146865F3041414604D79146865F34E
:1052E000C30414608D79146865F3820414600C782B
:1052F000D56964F39E75D5610C786508D46965F34A
:10530000DF74D461146824F001041460002300E009
:105310005B1C546804F001041CB14FF6FF74A342F7
:10532000F6D1546804F001040CB1002002E0012021
:1053300000E0002030BD30B5024600200023146894
:1053400024F002041460146824F00104641C146046
:1053500000E05B1C546804F001041CB94FF6FF74B4
:10536000A342F6D1546804F001045CB30C88641EB7
:10537000D56964F30B05D5618D78D46965F319643B
:10538000D461CD78D46965F31344D4610D79D469BF
:1053900065F31654D461146824F0010414600023EA
:1053A00000E05B1C546804F001041CB14FF6FF746C
:1053B000A342F6D1546804F001040CB1002002E0CD
:1053C000012000E0002030BD30B50022CC78012360
:1053D00003FA04F2D0F8003223F001035B1CC0F89A
:1053E0000032D0F81C329343C0F81C320B7913B151
:1053F000012B5AD12CE0D0F80C329343C0F80C3278
:105400008B891C04CD7800F5107343F83540CC78B7
:1054100053F834300C892343CD7800F5107444F8E8
:1054200035304B891C04CD7800F5107303EBC503B0
:105430005C60CC7800F5107303EBC4035B68CC8828
:105440002343CD7800F5107404EBC50463602DE0B0
:10545000D0F80C321343C0F80C32CB881C04CD7842
:1054600000F5107343F83540CC7853F834300C898C
:105470002343CD7800F5107444F835304B891C0473
:10548000CD7800F5107303EBC5035C60CC7800F5B4
:10549000107303EBC4035B688C892343CD7800F55C
:1054A000107404EBC504636000E000BF00BF4B78DC
:1054B00013B1012B0CD105E0D0F804329343C0F8AE
:1054C000043206E0D0F804321343C0F8043200E09E
:1054D00000BF00BF8B7813B1012B0CD105E0D0F8D1
:1054E00014329343C0F8143206E0D0F81432134358
:1054F000C0F8143200E000BF00BF0B783BB1012BB5
:105500000BD1D0F81C321343C0F81C3206E0D0F89F
:105510001C329343C0F81C3200E000BF00BFD0F83B
:10552000003223F00103C0F8003230BD122935D219
:10553000DFE801F034090A0B0F0C14171B341F228B
:105540003425282B2E3100BF00BF00BF042242604B
:1055500025E0042242600022826120E00122826074
:105560001DE04FF48072826019E04FF48032826057
:1055700015E00822C26012E01022C2600FE008228B
:1055800002610CE01022026109E00822426006E09C
:105590001022426003E0034A826000E000BF00BFC7
:1055A00070470000010101001AB143690B434361D8
:1055B00002E043698B434361704730B505460C46B2
:1055C000134605F5D87000EB04100068C0F38000A6
:1055D0001872187A10B1012813D107E005F5D870B8
:1055E00000EB04100068400D18600BE005F5D87062
:1055F00000EB041000686FF0604101EAD0005860D1
:1056000000E000BF00BF05F5D87000EB0410006893
:10561000C0F34000587205F5D87000EB04104068E4
:1056200000F00F00987205F5D87000EB0410406888
:10563000000AD87405F5D87000EB04108068D872A1
:1056400005F5D87000EB04108068010A197305F5A0
:10565000D87000EB04108068010C597305F5D87000
:1056600000EB04108068010E997305F5D87000EB0B
:105670000410C068D87305F5D87000EB0410C0683A
:10568000010A197405F5D87000EB0410C068010C0C
:10569000597405F5D87000EB0410C068010E9974B8
:1056A0002146284600F09DF830BD10B50246042082
:1056B0009368C3F380630BB100200CE09368C3F3DD
:1056C000C0630BB1012006E09368C3F300730BB114
:1056D000022000E0042004287CD002F5C07303EB14
:1056E00000131B6803F0010402F5C07303EB001301
:1056F0001C600C7A02F5C07303EB00131B6864F3A3
:10570000820302F5C07404EB001423600B7A13B11A
:10571000012B1CD10DE00C8802F5C07303EB0013C4
:105720001B6864F35F5302F5C07404EB001423603C
:105730000EE002F5C07303EB00131B684C6843EAEC
:10574000C40402F5C07303EB00131C6000E000BF4B
:1057500000BF4C7A02F5C07303EB00131B6864F3BF
:10576000410302F5C07404EB001423608B7A02F548
:10577000C07404EB0014646863F3030402F5C0739F
:1057800003EB00135C608B7B1C064B7B44EA0344F9
:105790000B7B44EA0323CC7A234302F5C07404EB69
:1057A0000014A3608B7C1C064B7C44EA03440B7CF6
:1057B00044EA0323CC7B234302F5C07404EB0014BA
:1057C000E36002F5C07303EB00131B6823F00103D1
:1057D0005B1C00E004E002F5C07404EB00142360DD
:1057E00010BD11B1012906D102E02022C26003E000
:1057F0002022026100E000BF00BF70470246002087
:1058000021B1012910D002292AD11BE0936803F0AD
:1058100001033BB19368C3F340030BB1012002E0E5
:10582000002000E002201DE09368C3F300233BB199
:105830009368C3F340230BB1012002E0002000E095
:1058400002200FE09368C3F300433BB19368C3F3B6
:1058500040430BB1012002E0002000E0022001E003
:10586000002000BF00BF70470349496860F307117B
:10587000014A516070470000001002400349496826
:1058800060F30A21014A5160704700000010024095
:105890000349496860F3CD21014A51607047000017
:1058A00000100240012807D10749496D21F030015D
:1058B0003031054A516505E00349496D21F0300159
:1058C000014A51657047000000100240052827D2A8
:1058D000DFE800F0030A11181F00134A126861F391
:1058E0000002114B1A601CE00F4A126861F310426B
:1058F0000D4B1A6015E00C4A126861F318620A4BEE
:105900001A600EE0084A126A61F30002064B1A623E
:1059100007E0054A526A61F30002034B5A6200E055
:1059200000BF00BF70470000001002402DE9F041A9
:10593000014600270022002590460023002400F0A5
:105940005BF9064626B1012E12D0022E43D112E099
:105950003948406DC0F3402038B13748006BC0F380
:10596000406010B13548086001E03548086035E016
:105970003348086032E030484068C0F300482E48A1
:105980004068C0F383422C484068C0F341750DB9AC
:105990000F2A03D12801401C024400E0921CB8F1F8
:1059A000000F03D127485043086013E022484068A5
:1059B000C0F3404058B12048406DC0F30137B81CD7
:1059C000DFF87CC0BCFBF0F05043086002E01C48EC
:1059D0005043086002E01A48086000BF00BF164844
:1059E0004068C0F303131848C45C0868E04048608E
:1059F00011484068C0F302231448C45C4868E04082
:105A0000C8600D484068C0F3C2231148C45C4868B0
:105A1000E040886008484068C0F30073064840686A
:105A2000C0F3813040EA83030A48C45C8868B0FB55
:105A3000F4F00861BDE8F08100100240006CDC0267
:105A400000127A0000093D0092840008A284000838
:105A5000AA840008B284000810B501460020094B52
:105A600003EB1142126801F01F040123A3401A4006
:105A700001F01F040123A3409A4200D000E001205E
:105A800010BD0000001002400349496D60F30D3164
:105A9000014A5165704700000010024030B50024F3
:105AA000002500E0641C1120FFF7D6FF012802D07A
:105AB000B4F5405FF6D31120FFF7CEFF012801D0E7
:105AC000002500E00125284630BD000010B5012961
:105AD0000DD10E4B03EB1042126800F01F0401239E
